:020000040800F2
:10000000C08D0020950200083FE30008A999000870
:100010003DE300082D230008CD3D0108000000004D
:100020000000000000000000000000002919010885
:10003000773C00080000000059FF0008E523010894
:10004000AF020008AF020008AF020008AF020008CC
:10005000AF020008AF020008AF020008AF020008BC
:10006000AF020008AF020008AF020008AF020008AC
:10007000AF020008AF020008AF020008AF0200089C
:10008000AF020008AF020008AF020008AF0200088C
:10009000AF020008AF020008AF020008AF0200087C
:1000A000AF020008AF020008AF020008AF0200086C
:1000B000AF020008ED280108C52A0108AF020008B8
:1000C000AF020008AF020008AF020008AF0200084C
:1000D000AF0200088D390108AF020008C53A0108D7
:1000E000AF020008AF020008AF020008AF0200082C
:1000F000AF020008AF020008AF020008AF0200081C
:10010000AF020008AF020008AF020008AF0200080B
:10011000AF020008AF020008612C0108AF0200081E
:10012000A13A0008AF020008AF020008AF020008C1
:10013000AF020008AF020008AF020008AF020008DB
:10014000AF020008AF020008AF0200084DEC000843
:10015000AF020008AF020008AF020008AF020008BB
:10016000AF020008AF020008AF020008AF020008AB
:10017000AF020008AF020008AF020008AF0200089B
:10018000AF020008AF02000800F002F800F072F8B9
:100190000AA090E8000C82448344AAF10107DA45E2
:1001A00001D100F067F8AFF2090EBAE80F0013F0C2
:1001B000010F18BFFB1A43F0010318474C1204004B
:1001C0006C1204000A444FF0000C10F8013B13F0CD
:1001D000070408BF10F8014B1D1108BF10F8015BA0
:1001E000641E05D010F8016B641E01F8016BF9D193
:1001F00013F0080F1EBF10F8014BAD1C0C1B09D1EA
:100200006D1E58BF01F801CBFAD505E014F8016B5B
:1002100001F8016B6D1EF9D59142D6D370470000ED
:100220000023002400250026103A28BF78C1FBD8FF
:10023000520728BF30C148BF0B607047662924F0C1
:100240004684642900F08480002070471FB524F0A4
:1002500034FC00F0CFFD04000020002123F0D8FE84
:10026000401C60600020002123F0BCFEE0601FBD48
:1002700010B510BD00F00AFF1146FFF7E7FF23F0AD
:1002800067FB00F036FF03B4FFF7F2FF03BC00F09A
:1002900077FF00000948804709480047FEE7FEE76E
:1002A000FEE7FEE7FEE7FEE7FEE7FEE7FEE7FEE726
:1002B00004480549054A064B70470000A52401087B
:1002C00089010008C0870020C08D0020C08900205F
:1002D000C08900200FB41CB5074B06AA7B446946B1
:1002E0000090059800F0CBFC0020694600F0DAFC95
:1002F0001CBC5DF814FB0000C509000070B5044685
:1003000085690068C10601D5302600E02026C007B7
:1003100008D070BDD4E9012130469047206A00F131
:10032000010020626D1EF5D570BD70B5044685696B
:100330000068C00708D170BDD4E901212020904792
:10034000206A00F1010020626D1EF5D570BD00002D
:100350002DE9F0410746002510687529394616A495
:1003600011D0AFF30080002803DAC0F1000013A41D
:1003700007E039688A0701D511A402E0490704D5CE
:1003800010A4012501E0AFF3008000210A2307F14A
:10039000240607E0B0FBF3F203FB12003030705488
:1003A0001046491C0028F5D12B4622463846BDE8A8
:1003B000F04100F0F3B90000000000002D00000043
:1003C0002B000000200000002DE9F05F0446894664
:1003D0004FF0000ADFF828B1FB44C0F820A0204607
:1003E000E168884700287CD0252806D0D4E901217F
:1003F0009047206A401C2062F1E700255F462046B6
:10040000E16888472028064608DB312E06D207EB34
:10041000060010F8200C08B10543F0E7A80701D545
:1004200025F00405C4F81CA00027C4F818A02A2E43
:1004300009D0304623F042F938B304EB8708303E48
:10044000C8F8186019E059F8041B204604EB87022D
:100450009161E1688847012F064618D1E0690028BC
:1004600020DA25F020051DE0D8F8180000EB800008
:1004700006EB40003038C8F818002046E16888478D
:10048000064623F01BF90028EED1012F0AD02E2EAC
:1004900008D12046E16888477F1C0646022F45F0B8
:1004A0002005C4DBA069002803DA404245F00105BD
:1004B000A061E80701D025F0100596B1A6F1410032
:1004C000192802D8203645F400654A4631462046B0
:1004D00025604D46FFF7B2FE60B1012807D0ED1D43
:1004E00000E009E025F0070000F1080977E705F1D1
:1004F000040974E7304679E7206ABDE8F09F000000
:10050000580F040070B5064600F044F9046805462B
:1005100030460A22002100F0CAFB2C6070BD40EA80
:100520000103024630B59B0710D14FF0013400E0C3
:1005300008C208C91D1B9D4315EAC41FF8D013F05B
:10054000FF0102F8011B0DD01B0AF8E711F8013B6F
:10055000002B02F8013B05D011F8013B002B02F8FB
:10056000013BF3D130BD10B5431C02E010F8011B74
:1005700071B18107FAD14FF0013202C88C1A8C4355
:1005800014EAC211F9D0C01A0A0603D0C01E10BD69
:10059000C01A10BD0A0401D0801E10BD0902FCD093
:1005A000401E10BD421E12F8013F002BFBD111F876
:1005B000013B002B02F8013BF9D17047032A40F2BE
:1005C000308010F0030C00F0158011F8013BBCF1F5
:1005D000020F624498BF11F801CB00F8013B38BF0D
:1005E00011F8013BA2F1040298BF00F801CB38BF1B
:1005F00000F8013B11F0030300F06780083AC0F0F7
:10060000088051F8043B083A51F804CBA0E80810E0
:10061000F5E7121D5CBF51F8043B40F8043BAFF313
:100620000080D20724BF11F8013B11F801CB48BF6D
:1006300011F8012B24BF00F8013B00F801CB48BFA3
:1006400000F8012B7047431A28BF9A427FF6B6AFD5
:10065000032A1044114440F2268010F0030F1EBFFD
:1006600011F8013D521E00F8013D10F0030F7FF418
:10067000F6AF11F0030300F06583083AC0F00B8079
:1006800051F8043D083A51F804CD40F8043D40F8D3
:1006900004CDFFF7F3BF121D5CBF51F8043D40F8D5
:1006A000043DAFF30080D20724BF11F8013D11F8DB
:1006B00001CD48BF11F8012C24BF00F8013D00F81E
:1006C00001CD48BF00F8012C704710B5203AC0F0AA
:1006D0000B80B1E81850203AA0E81850B1E8185043
:1006E000A0E81850BFF4F5AF5FEA027C24BFB1E880
:1006F0001850A0E8185044BF18C918C0BDE81040F1
:100700005FEA827C24BF51F8043B40F8043B08BFF9
:100710007047D20728BF31F8023B48BF11F8012BC0
:1007200028BF20F8023B48BF00F8012B704702F0B9
:10073000FF0343EA032242EA024200F02FBB4FF0DC
:10074000000200B5134694469646203922BFA0E821
:100750000C50A0E80C50B1F12001BFF4F7AF09072D
:1007600028BFA0E80C5048BF0CC05DF804EB89001E
:1007700028BF40F8042B08BF704748BF20F8022B61
:1007800011F0804F18BF00F8012B70477047704779
:100790007047000000487047608700202DE9F0474F
:1007A0000D4604469246994600F1240801688806E1
:1007B00004D5E06921F01001216000E00120A84289
:1007C00002DDA0EB050700E00027A16907EB0502A9
:1007D00002EB0900A1EB0000A0612068C00602D472
:1007E0002046FFF78BFD002608E0D4E901211AF826
:1007F00006009047206A401C761C20624E45F4DBC0
:100800002068C0060AD52046FFF778FD06E0D4E947
:10081000012130209047206A401C2062381EA7F139
:100820000107F4DC07E0D4E9012118F8050090473E
:10083000206A401C2062281EA5F10105F3DC204639
:10084000FFF773FD2068000602D50220BDE8F0879F
:100850000120FBE770472DE9FF4F0C461E464FF085
:10086000FF378BB0D2E90001DDF860800A908A463C
:10087000C1F30A5505B93D46002108464FF0000076
:10088000BAF1000F00F4400005DA00EB80004FF4ED
:10089000400101EA50004FEA9059B9F1010F00DD23
:1008A000B9460A9850EA4A000FD044F61050A5F213
:1008B000FF3545432F14B8F1000F1FD07542291E94
:1008C0001FDD4846C9F100021CE0B8F1010F4FF0EE
:1008D000000001D1F24307E0302101E02154401C27
:1008E000B042FBDB30460022002121540B99C1F8B5
:1008F0000880C1E900200FB0BDE8F08FBD1B6D1C62
:10090000DDE74A4600DA694206A800F04DFB06AB77
:1009100007CB03AB07C350460A9900F038FC8DE8BB
:100920000700A0F500501F3800900398002D09DD46
:1009300042F21F014A46084403A90390684600F0AA
:1009400097FE08E0A0F500504A461F3803A903901F
:10095000684600F0A1FE8DE807000004000C03D0FB
:100960004FF0FF30410800E01046B8F1000F03D00F
:100970000022009215461FE0751E06D400F03EFAD4
:1009800002F1300262556D1EF8D5B34601220843CC
:1009900002D000227F1C04E02078302801D1002200
:1009A0007F1E002A099786D01DE0112D07DA00F07E
:1009B00025FA303262556D1C50EA0102F5D1084328
:1009C0000FD10021681E05E0235C625C6354491C62
:1009D0002254401E8142F7DBAB46A81B401E099003
:1009E00001E0009848B1002004F80B000B98099A28
:1009F000C0F80880C0E9002B7DE711264FF0000801
:100A000059E72DE9F04F88460446D21D22F0070130
:100A100091B0D1E90001CDE90A011DF06BFB02465E
:100A20000B98C00F01D02D2007E02068810701D569
:100A30002B2002E0202101EAC000032A099001D006
:100A4000072A05DB03464146204600F01DFA0EE169
:100A50002068800601D5E06900E00620B8F1650F46
:100A6000814606D0B8F1660F18D0B8F1670F72D181
:100A700032E00020B9F1110F009001DB112301E0F9
:100A800009F101030AAA01A90CA8FFF7E4FEDDE9B8
:100A90000C70002609F10105834648E001204B4611
:100AA00000904FF000470AAA01A90CA8FFF7D3FE57
:100AB000DDE90C050E990026AB4619B909F10101D3
:100AC00000EB0105B9EB050003D4C0F1FF3609F1D5
:100AD0000105A5EB09002BE0B9F1010F01DA4FF098
:100AE00001090020B9F1110F0090484601DD1123E2
:100AF00000E003460AAA01A90CA8FFF7ACFEDDE955
:100B00000C704D4600268346206800070AD4AB458A
:100B100000DA5D4601A8012D04DD411911F8011C20
:100B2000302907D04F4502DA17F1040F04DA01200B
:100B3000824610E06D1EEEE7002F02DCED1B3E4406
:100B400003E0781CA84200DD0546A7EB060000F193
:100B5000010A4FF000472068000703D4AA4501DBD3
:100B60004FF0FF3A0021B7F1004F0DF143088DF827
:100B7000431022D002202B23002F01DA7F422D23A5
:100B80000A22011EA0F1010000DC4FB197FBF2F137
:100B900002FB117C0F460CF1300C08F801CDF0E798
:100BA000A8F1010003702168090501D5452100E085
:100BB0006521A0F1010800F8011C09980FA9A1EB1B
:100BC000080707F1070700B1012000EB050101EB61
:100BD000EA70A1693844A1EB0000A0F10100A06116
:100BE0002068C00602D42046FFF788FB099830B180
:100BF000D4E901219047206A00F1010020622068B9
:100C0000C00620D52046FFF779FB1CE0002E04DB50
:100C1000B34502DD01A8805D00E03020D4E9012168
:100C20009047206A761C401CBAF1010A20620AD162
:100C300000F0E0F8C0680168405CD4E90121904709
:100C4000206A401C2062281EA5F10105DEDC07E0B9
:100C5000D4E9012118F8010B9047206A401C20625A
:100C6000381EA7F10107F3DC2046FFF75EFB0220E8
:100C700011B041E601694A1C02610878704700B56D
:100C80008FB0CDE901310021059105497944CDE9C5
:100C9000031011466846FFF797FB0FB000BD000038
:100CA000E5FFFFFF0A6802F8010B0A6070472DE9B3
:100CB000F0470F46914680460446002614F8015B33
:100CC0002DB100F08FF80068405DC007F6D12B2DE4
:100CD00002D02D2D18D0641E4A463946204600F019
:100CE00013F927B13968A14201D1C7F800804FF04C
:100CF000020471050BD54042002803DDFFF74AFDD1
:100D00000460A007BDE8F08746F48066E4E70028A9
:100D1000F8DAFFF73FFD04606FF00040F2E7431A96
:100D200028BF9A427FF6D1AC104410F0030F114453
:100D30001EBF11F8013D521E00F8013D10F0030FD7
:100D40007FF4F6AF103AC0F00A8010B531E91850C0
:100D5000103A20E91850BFF4F9AFBDE8104053072E
:100D600024BF31E9081020E9081044BF51F8043DC0
:100D700040F8043D12F0030F08BF7047D20728BFA8
:100D800031F8023D48BF11F8012C28BF20F8023D80
:100D900048BF00F8012C70474FF000020429C0F052
:100DA000128010F0030C3FF4CCACCCF1040CBCF17D
:100DB000020F18BF00F8012BA8BF20F8022BA1EBEF
:100DC0000C01FFF7BEBC5FEAC17C24BF00F8012B19
:100DD00000F8012B48BF00F8012B7047004870470E
:100DE0006087002010B500F005F8001D10BD00BFA1
:100DF00021320200004870478087002030B5B0F1F2
:100E00000A024FEA900E71F100034EEA817EB0EBC8
:100E10000E0061EB91014FEA101E4EEA017E10EBCD
:100E20000E0041EB11114FEA102E4EEA016E10EB4D
:100E30000E0041EB11214FEA104E4EEA014E10EB2D
:100E40000E0041EB1141401841F100014FEAD00082
:100E500040EA41704FEAD10110EB80054FEA81046E
:100E600044EA907444EB01046D1944EB0404521BF2
:100E7000A3414FF0000348BF0A3200D530BD401CEB
:100E800041F1000130BD00002DE9F04104461F464C
:100E900003260168072A01F4006004DB08B116A5E7
:100EA00005E016A503E008B115A500E015A521F0A1
:100EB00010002060A069C01EA0610FB1401EA0619B
:100EC0002046FFF71BFA4FB1D4E90121384690477D
:100ED000206A401C2062C01C206206E0206AFAE7FB
:100EE000D4E9012115F8010B9047761EF8D220466F
:100EF000FFF71BFABDE8F0814E414E006E616E00B7
:100F0000494E4600696E66002DE9F05F82468B46C9
:100F1000154600270AF10104B9460078302801D0AF
:100F20009DB113E014F8010B0127782803D058284D
:100F300001D045B10AE00DB1102D07D1002714F8FA
:100F4000010B102502E0082500E00A250026B04626
:100F50000EE005FB080005FB06F101271FFA80F8EB
:100F600001EB1046B6F5803F00D3B94614F8010BEB
:100F7000294600F0B0F80028EBDABBF1000F05D0ED
:100F80000FB1641E00E05446CBF80040B9F1000FE9
:100F900006D0FFF7FFFB02210160C81EBDE8F09FED
:100FA00048EA0640FAE700002DE9F0478146164678
:100FB0008AB035487844D0E9002380680092CDE9B2
:100FC0000130314878440C38D0E90223006903929B
:100FD0004FF03702CDE9043041F69B30014491FBDC
:100FE000F2F0A0F1800502FB10141B3C02D5644214
:100FF000012000E00020DFF890A080460027FA449E
:10100000AAF1C60A0DE0E00709D03246684607EBB0
:1010100047010AEB810100F03FFB8DE807006410F7
:101020007F1C002CEFD1184F7F44B43F17E0E80736
:1010300013D007EB04100DF1180A90E80E00AAE88F
:101040000E00C068F04201D198190890324606A9F6
:1010500003A800F021FB03AB07C36D10641C002D37
:10106000E5D132466946B8F1000F03A802D000F07E
:10107000FFFA01E000F010FBC9E90001C9F80820FF
:101080000AB0BDE8F08700000C0404007546FFF7C5
:10109000A5FEAE4605006946534620F0070085468A
:1010A00018B020B5FFF704F9BDE820404FF0000666
:1010B0004FF000074FF000084FF0000B21F0070140
:1010C000AC46ACE8C009ACE8C009ACE8C009ACE883
:1010D000C0098D4670473A2800D2303820F02002EF
:1010E000412A01D3A2F13700884201D34FF0FF30EB
:1010F00070470446AFF300802046FFF7C4F80000B5
:101100004FF0013C50F8042B51F8043B9A4221D196
:10111000A2EB0C03934313EACC1317D150F8042B22
:1011200051F8043B9A4215D1A2EB0C03934313EA06
:10113000CC130BD150F8042B51F8043B9A4209D13F
:10114000A2EB0C03934313EACC13DBD04FF0000067
:10115000704700BFD01A01BAB1FA81F101F018014D
:1011600022FA01F0CB40C1F12001DBB2C0B2C01ABB
:101170002CFA01F3D11A914311EAC311E6D1704759
:1011800001491820ABBEFEE72600020070475FEA67
:10119000400C08BF91F0000F4FEA8C234FEAC122A8
:1011A00043EA51514FEA1C5018BF00F5F0404FEA96
:1011B000300018BF41F000415FEA6C5C00F029800C
:1011C000BCF1FF3F08BF40F080407047130C06BFE2
:1011D00012044FF0100C4FF0000C130E04BF12025B
:1011E0000CF1080C130F04BF12010CF1040C930F47
:1011F00004BF92000CF1020CD30F04BF52000CF19B
:10120000010C11464FF00002A0F11F00A0EB0C00F2
:10121000704711F0004F08BF704731F000413FF4B4
:10122000D5AF0B0C06BF09044FF0100C4FF0000CAB
:101230000B0E04BF09020CF1080C0B0F04BF0901CF
:101240000CF1040C8B0F04BF89000CF1020CCB0FC6
:1012500004BF49000CF1010CCCF12003A0EB0C0001
:1012600022FA03F302FA0CF241EA030100F1010051
:10127000704720F07F4C80EA030023F07F47ACEBFF
:10128000070303F57C5300F0004003F1FF032DE951
:1012900080494FEA154B09B44FEA144325EA0B4E37
:1012A00024EA03480FF2042606EB132749083E7888
:1012B0005FEA320203FB0667C7F5000707FB06F685
:1012C0004FEA54374FEAD64606F1020607FB066C92
:1012D000CCF1005C4FEA1C472CEA074C07FB06F4F4
:1012E0000CFB06F504EB15464FEA961634BF0020BA
:1012F0004FF000404FEAD13706FB07FC4FEA1C4C89
:101300000CFB0BF7D21B03FB0CF761EB07010CFB8B
:101310000EF7B0EB074072EB17420CFB08F734BF37
:10132000A2EB0742B2EB074261EB17414FEA0C44D4
:101330004FEA910706FB07FC4FEA1C4C0CFB0BF72E
:10134000B0EBC74072EB573203FB0CF734BFA2EB94
:10135000C742B2EBC74261EB57310CFB0EF7B0EB63
:10136000C70072EB57720CFB08F734BFA2EBC70241
:10137000B2EBC70261EB5771039F4FEA816141EA0B
:10138000921104EBCC044FEAD1374FEA826206FB9C
:1013900007FC42EA90124FEA80604FEA1C4C0CFBBB
:1013A0000BF7D21B03FB0CF761EB07010CFB0EF7ED
:1013B000B0EB074072EB17420CFB08F734BFA2EB0F
:1013C0000742B2EB074261EB17414FEA8C554FEAF7
:1013D000910704EB9C2406FB07FC4FEA1C4C0CFB1A
:1013E0000BF7B0EBC74072EB573203FB0CF734BF7F
:1013F000A2EBC742B2EBC74261EB57310CFB0EF7D1
:10140000B0EBC70072EB57720CFB08F734BFA2EBCE
:10141000C702B2EBC70261EB577115EB4C254FEADF
:10142000816141EA92114FEA82624FEAD13742EA82
:10143000901206FB07FC44F100044FEA80604FEA7B
:101440001C4C0CFB0BF7D21B03FB0CF761EB0701E9
:101450000CFB0EF7B0EB074072EB17420CFB08F7E2
:1014600034BFA2EB0742B2EB074261EB174115EB29
:101470001C154FEA813141EA92414FEA823242EA39
:1014800090424FEA80304FEA0C7644F1000448EA7B
:1014900003434EEA0B484FF0000EB2EB080C71EB21
:1014A000030724BF624639464EEB0E0E4FF0000B89
:1014B0000018524149414BEB0B0BB2EB080C71EB9E
:1014C00003077BF1000B24BF624639464EEB0E0E3C
:1014D0004FF0000B0018524149414BEB0B0BB2EBA4
:1014E000080C71EB03077BF1000B24BF6246394601
:1014F0004EEB0E0E51EA020718BF46F0010616EB3E
:101500000E7655F1000254F1000103D5BDE88901C2
:10151000BDE80088BDE88901BDE80048B619524120
:1015200041EB0101A3F10103704780807F7E7D7C48
:101530007B7A7978777676757473727171706F6E65
:101540006E6D6C6C6B6A6A69686867666665646410
:10155000636362616160605F5F5E5E5D5D5C5C5B9A
:101560005B5A5A5959585857575656555555545409
:10157000535352525251515050504F4F4F4E4E4D67
:101580004D4D4C4C4C4B4B4B4A4A4A4949494848B3
:1015900048474747474646464545454444444443F3
:1015A00043434342424242414141002B26D477000B
:1015B00021D01CB54FEA370703B44FF010004FF0AD
:1015C00010014FF000000FBCBDE810400BF1010B03
:1015D000BBF1010F08BF5FEA170722BF12F101023A
:1015E00011F101014FF0004143F1000300F0004010
:1015F00043EA00007047F9D35708DAE746EA06469F
:1016000013F1400F4FEA16461FDD13F1200FDFBF25
:1016100016430A46002120335B42C8D0C3F120079D
:1016200046EA064602FA07F74FEA164646EA070672
:10163000C3F1200722FA03F201FA07F721FA03F1B6
:101640004FF0000342EA0702B1E746EA020646EA23
:1016500006464FEA164646EA0106BCBF46EA06467B
:10166000360C4FF000034FF000024FF000019EE7F0
:101670002DE9C048934630B491E8380007C831EAF4
:10168000400C48BF34EA430C03D5FFF7F2FDFFF7E7
:101690008CFFF0BCBDE800882DE9C048934630B40B
:1016A00091E8380007C810F0804F08BF13F0804F52
:1016B00003D100F005F8FFF778FFF0BCBDE8008823
:1016C00020F07F4780EA030023F07F4C07EB0C03F8
:1016D000A3F57C5300F00040A3F1FE0392F0000F4D
:1016E00000F0B38095F0000F00F077802DE90149FC
:1016F0004FEA11404FEA144621EA004800FB06FC7D
:1017000024EA064708FB06F607FB08F800FB07F784
:1017100018EB06484CEB164C4FEA124B18EB0748F7
:101720004FEA15464CEB174022EA0B4E0BFB06FC2A
:1017300025EA06470EFB06F607FB0EFE0BFB07F736
:101740001EEB064E4CEB164C4FF000061EEB074E00
:101750004CEB174B18EB0B0840F1000018EB0E0B8D
:1017600058EB000840F100008F1A4FF000013CBF19
:10177000C943661B14BFB5EB040C00213CBFC94331
:10178000F61B4FEA17444EEA8E0E27EA04454FEA4D
:101790001C4704FB07622CEA074C05FB07F70CFB10
:1017A00005F604FB0CFC16EB074642EB174216EB62
:1017B0000C4642EB1C421BEB060658EB0202414171
:1017C00046EA9E0601D5BDE80189B619524141EBB2
:1017D0000101A3F10103BDE801894FEA14454FEA75
:1017E000114724EA054621EA074C05FB07F406FBEE
:1017F00007F70CFB06F105FB0CFC11EB074144EB72
:1018000017444FEA124711EB0C4144EB1C4422EA07
:10181000074C05FB07F206FB07F70CFB06F605FB7A
:101820000CFC16EB074642EB174216EB0C4642EB5C
:101830001C456A1854F1000148BF7047B61952415F
:1018400041EB0101A3F10103704795F0000F37D080
:101850004FEA11424FEA144721EA024624EA074CB4
:1018600002FB07F106FB07F70CFB06F402FB0CFC7E
:1018700014EB074441EB17414FEA154714EB0C44B6
:1018800041EB1C4125EA074C02FB07F506FB07F775
:101890000CFB06F602FB0CFC16EB074645EB174566
:1018A00016EB0C4645EB1C42121951F1000148BFE2
:1018B0007047B619524141EB0101A3F10103704792
:1018C0004FEA14454FEA114724EA054621EA074C3E
:1018D00005FB07F106FB07F70CFB06F24FF00006CD
:1018E00005FB0CFC12EB074241EB174112EB0C42DB
:1018F00051EB1C4148BF7047921841EB0101A3F125
:10190000010370474FF47A70401E0004000CFBD1B5
:10191000704740F6B830401E0004000CFBD1704701
:101920002DE9FC4102268DF80560012440201D4F61
:101930008DF80440002500908DF806506946384621
:1019400004F0F8F88DF8056008208DF80440009048
:101950008DF806506946384604F0ECF88DF80560BD
:1019600020208DF8044000908DF8065069463846D6
:1019700004F0E0F810208DF8045000908DF8074036
:101980006946384604F0D6F84021384604F028F974
:101990002021384604F024F90821384604F020F9C3
:1019A000BDE8FC81000402402DE9F041384F0024DD
:1019B000214601200FF06CFF27F81400FFF7A9FF64
:1019C000F888BE883D89641CE4B2082CF0D3314C01
:1019D0006178DFF8BC8008F1240808EB4102491C5B
:1019E0006170108060780027082800D1677028484F
:1019F0000821243000F07EFC00210220424632F80B
:101A00001030401CC0B219440628F8D38808224977
:101A10000880A078DFF8788008F1380808EB4001EA
:101A2000401CA0700E80A078082800D1A77018482C
:101A30000821383000F05EFC0021022038F8102028
:101A4000401CC0B211440628F8D388081349086026
:101A500020780F4E103606EB4001401C20700D80A0
:101A60002078082800D1277009480821103000F09C
:101A700041FC0021022036F81020401CC0B2114465
:101A80000628F8D3880806490860BDE8F081000000
:101A9000C80C002005010020680000207000002014
:101AA0006C000020F0B501210F029BB038460EF00B
:101AB000F7FA012188050EF0CFFA042003253F4EE6
:101AC0000F908DF8405000248DF843400FA9304608
:101AD00004F030F808200F908DF840508DF8434006
:101AE0000FA9304604F026F840200F908DF84050A2
:101AF0008DF843400FA9304604F01CF81794189451
:101B0000199417A81A9400F001F911948DF85850FF
:101B100001262B4D8DF848608DF84960149415947A
:101B200011A9284600F01EF90423012202212846AB
:101B300000F03EF9052302220321284600F038F97F
:101B4000002303220621284600F032F9012128460D
:101B500000F0D2F8284600F065F90121284600F08F
:101B6000F7F817480AA94C30CDE900401548CDE9EF
:101B700002049620CDE90404281506904000079041
:101B80008000CDE90807000151C10D940E940E4C60
:101B90006946204601F0CCFF0121204601F0A8FF54
:101BA00001221021204601F0ADFF01F063FF012169
:101BB000284600F0C3F81BB0F0BD00000000024052
:101BC00000200140E408002010640240F0B5474DB9
:101BD000474A00204FF0030E05F5967605F5C87CC0
:101BE00005F5FA77B0FBFEF10EFB110121B10229D8
:101BF0000AD0012910D017E035F81030117806EB23
:101C00004104491C11700EE035F81030517807EB93
:101C10004104491C517006E035F81030D1780CEBC6
:101C20004104491CD1702380401C80B29628D9D32E
:101C30000024147054709470D4702046214636F8F5
:101C40001130491CC9B218443229F8D31179294BF3
:101C50003225142906D2B0FBF5F0117923F81100D2
:101C600000210EE00021012033F81060401CC0B2BA
:101C700031441328F8D31320B1FBF0F01081002178
:101C800014711079401C107100203CF81030401C79
:101C9000C0B219443228F8D35079164B28331E2885
:101CA00006D2B1FBF5F0517923F8110000210EE0C6
:101CB0000021012033F81060401CC0B231441D28BF
:101CC000F8D31D20B1FBF0F0508100215471507900
:101CD000401C5071002037F81030401CC0B219442D
:101CE0003228F8D3B1FBF5F0D080F0BDE408002035
:101CF0005C0000203C0B00200029816802D041F0EC
:101D0000010101E021F0010181607047094B10B52C
:101D10001968094A01EA0201D0E9002442EA0402F2
:101D2000D0E9024044EA000442EA040242EA010225
:101D30001A6010BD04230140E030FCFF00298168D7
:101D400002D041F4807101E021F48071816070471C
:101D50000029816802D041F4007101E021F4007192
:101D60008160704730B542680F4B0C791A400B68A0
:101D700042EA04221343436082680C4B4D791A40B7
:101D8000D1E9034323438C6844EA450423431343C6
:101D90008360C26A097D22F47002491EC9B242EA18
:101DA0000151C16230BD0000FFFEFFFCFDF7FFC026
:101DB00070B5072609290AD9C568A1F10A0404EB00
:101DC0004404A640B543A3401D43C56007E0056930
:101DD00001EB4104A640B543A3401D4305611F2309
:101DE000072A09D2446B521E02EB820293409C43A5
:101DF00091400C43446370BD0D2A09D2046BD21F7D
:101E000002EB820293409C4391400C43046370BDFB
:101E1000C46A0D3A02EB820293409C4391400C430A
:101E2000C46270BD816841F08041816070470028C4
:101E300000DC4042704700000C4810B500684006C6
:101E400012D40B4C206841070ED5020609484FF406
:101E5000007103D4BDE8104003F0C2BE03F0BEFE23
:101E6000206820F00400206010BD00003C0000202D
:101E700034000020000802400549064B0022086893
:101E80001A8020F0800040F00400086070470000D5
:101E9000340000207C00002038B545680446014627
:101EA000284611F0B7FF00282AD02068304A0F28B2
:101EB00019D006DC0B2824D00C2810D00E2851D1C4
:101EC0002FE0112802D028284CD145E09268002A42
:101ED00016D02146284601B0BDE8304010472146C3
:101EE00028465268F7E7284604F0C2FD0090406E8D
:101EF0000468684604F006FE002C01D02846A0477E
:101F000038BD284604F0B4FD0090683004F018FD98
:101F1000009803216C3004F01BFD684604F0F2FDCC
:101F200020E0E168486809680D2902D0202913D112
:101F300005E0002810DD284618F0F4FE06E0002831
:101F400004DD2846BDE8384018F0ECBE2846BDE860
:101F50003840022118F0FCBEE06818B9002128467C
:101F600000F097F92046BDE8384012F0C7BB0000EA
:101F700058020020F0B5044685B08069B4F90850D5
:101F8000668A0027CDE90265CDE900170490B4F90F
:101F90000C00B4F91060C118B4F90A00B4F90E507D
:101FA000104433462A4600F007F80546616800F001
:101FB00079F905B02846F0BDF0B585B00C46DDE9ED
:101FC0000D514C31DFF850C0DDE90A67CDE902C19F
:101FD0002146CDE9006712F0E1FA040018D004F0C0
:101FE00047FD10222946049012F038F90498302257
:101FF0000A493430FEF769FB084D04990C3D286806
:10200000486604A804F07EFD286841682046884799
:1020100005B02046F0BD0000991E000864020020B3
:10202000F0B5044680688B4989B051F8205060684B
:1020300000287DD0052804D006287AD0122879D12E
:10204000AEE0E86900284FD095E80E008DE80F005B
:1020500004F110010FC907F07DF8002655F826009D
:1020600006F0E2F8A169E8690A1A21690144606989
:10207000304405F07FFAA169E8690A1A2169014430
:10208000E069801B05F076FAE169E8690A1A61697E
:1020900001442069304405F00DFBE169E8690A1A42
:1020A00061690144A069801B05F004FB761C022EC7
:1020B000D4DBA86806F0B8F8E069E9696669431AF4
:1020C00020694218521E3144801C05F05DFBE16915
:1020D000E869A2690B1A61690144101A401C921E3A
:1020E00005F052FBEE6913E05FF0000655F826009C
:1020F00006F09AF8E069831BA069821B6069811968
:102100002069304405F098FA761C022EEEDB022698
:10211000D5E90301CDE900016169E0690844431094
:10212000A069891C821B2069304405F0CBF902E0CC
:1021300089E012E08AE0D5E90501CDE90001E36913
:1021400060690121184401EB6001A0699B1E821B9C
:102150002069304405F0B6F978E0206804F088FC86
:102160000490206813F0FAFA40B1A06808B100208A
:1021700008E00498006F28B1012003E00498406F44
:1021800000B10220049901EB8000C56E04A804F0A0
:10219000B9FC00231A462846216804F045FF55E0A3
:1021A000206804F065FC0490866EEEB3B0F95C70B4
:1021B000A168D1B3032942D05FF0000100EB810197
:1021C000406D0C6C06F03AF8204606F02DF805A894
:1021D00005F02AFBBDF81410A88B0144ADF81410CB
:1021E000BDF81810081AADF81800BDF81600801CCC
:1021F000ADF81600BDF81A00801EADF81A0004985C
:102200005E30B0F90220B0F9001005A805F06AFFB1
:1022100004A804F077FC022006F050F8304604F0E1
:1022200027FC3A4605A901E00BE006E0079004F020
:10223000F3FF07A804F066FC08E00121BEE70221D5
:10224000BCE704A8F6E7206812F04CFF09B00020B4
:10225000F0BD000098DC0308044A034911600449FA
:102260004A6A4862104670479402002058020020D3
:102270006402002038B50D46040009D004F0F8FBD4
:1022800000904565684604F03DFC204612F02DFDA7
:1022900038BD4FF480720029114601D011F044BEC0
:1022A00011F095BD2DE9FF410E4605004FF00104E8
:1022B0001CD004F0DDFB0190876E01A8009704F0AC
:1022C00021FC3146684607F025FA78B100980024D1
:1022D000B84208D0284604F0CBFB019000998166F3
:1022E00001A804F00FFC284612F0FFFC04B02046C1
:1022F000BDE8F08130B5002315E01A460FE030F854
:10230000124030F81350AC4207D930F813C030F8FF
:10231000124020F8134020F812C0521CD2B28A4258
:10232000EDD35B1CDBB28B42E7D330BDFEE7000090
:102330002DE9F05F714D2978DFF8C48140F66F0414
:10234000661C1939F71DD8F8180040F6780940F6D0
:10235000710A40F6790B0C2977D2DFE801F00622EA
:102360003E5ACDCDCDCD7793CDB0214612F0D4FAE3
:1023700004466FF0704110F05DF96FF07F41204628
:1023800010F0AAF93146D8F8180012F0C5FA044640
:102390005C4910F04FF90021204610F09DF91A20F9
:1023A000A9E0314612F0B8FA04466FF0704110F01F
:1023B00041F96FF07F41204610F08EF93946D8F888
:1023C000180012F0A9FA04464E4910F033F9002122
:1023D000204610F081F91B208DE0394612F09CFA5E
:1023E00004466FF0704110F025F96FF07F412046F0
:1023F00010F072F94946D8F8180012F08DFA044628
:10240000404910F017F90021204610F065F91C2012
:1024100071E0494612F080FA04466FF0704110F006
:1024200009F96FF07F41204610F056F95146D8F86F
:10243000180012F071FA0446324910F0FBF800213E
:10244000204610F049F9212055E055E0514612F0A0
:1024500063FA04466FF0704110F0ECF86FF07F41C2
:10246000204610F039F95946D8F8180012F054FAFD
:102470000446244910F0DEF80021204610F02CF923
:10248000222038E0594612F047FA04466FF07041B6
:1024900010F0D0F86FF07F41204610F01DF940F6A3
:1024A0007201D8F8180012F037FA0446154910F0F6
:1024B000C1F80021204610F00FF924201BE040F65F
:1024C000720112F029FA06466FF0704110F0B2F86E
:1024D0006FF07F41304610F0FFF82146D8F8180021
:1024E00012F01AFA0446074910F0A4F80021204619
:1024F00010F0F2F819202870BDE8F09F6901002063
:1025000074010020FFFFBF00F0B5B2482DED028B33
:1025100083B00278B0499FEDB10AB14E0025012782
:10252000B069192A38D0DFEDAF0A1A2A7ED0AE4939
:102530001B2A7CD01C2A2BD1B37B40F67802141DB9
:10254000022B75D0B37B012B22D1C98800EE101A63
:102550001146B8EE400A80EE208A12F0DDF9A3A100
:1025600010F095F82146B06912F0D6F9044618EE3D
:10257000100A22F031FA41EC100BA0A153EC102B01
:102580006846FDF7A7FE6946204610F080F8B5734F
:1025900003B0BDEC028BF0BDF37A40F66F02141D60
:1025A000012B27D0F37A022BF2D1D1F8801000EE64
:1025B000901A1146F8EE600A80EE808A12F0ACF9AB
:1025C00090A110F064F82146B06912F0A5F9044614
:1025D00018EE100A22F000FA41EC100B8DA153EC1A
:1025E000102B6846FDF776FE6946204610F04FF83E
:1025F000F772CDE7C96F00EE901A1146F8EE600A47
:1026000080EE808A12F088F984A110F040F821460B
:10261000B06912F081F9044618EE100A22F0DCF9D4
:1026200041EC100B7BA153EC102B02E00AE05CE0C4
:10263000ACE06846FDF74EFE6946204610F027F8EC
:10264000F572A5E7337B4FF40762141D022B27D0E8
:10265000337B012B9CD1D1F8881000EE101A114663
:10266000B8EE400A80EE208A12F056F96FA110F001
:102670000EF82146B06912F04FF9044618EE100A20
:1026800022F0AAF941EC100B5CA153EC102B684628
:10269000FDF720FE694620460FF0F9FF357377E716
:1026A000D1F88C1000EE101A1146B8EE400A80EEF8
:1026B000208A12F031F961A10FF0E9FF2146B069DB
:1026C00012F02AF9044618EE100A22F085F941ECBE
:1026D000100B4AA153EC102B6846FDF7FBFD694631
:1026E00020460FF0D4FF377352E7737B40F6770232
:1026F000141D022B26D0737B012BA2D1098800EE7A
:10270000901A1146F8EE600A80EE808A12F004F901
:102710004EA10FF0BCFF2146B06912F0FDF804464F
:1027200018EE100A22F058F941EC100B39A153ECC5
:10273000102B6846FDF7CEFD694620460FF0A7FF37
:10274000757325E7498800EE901A1146F8EE600A85
:1027500080EE808A12F0E0F840A10FF098FF214649
:10276000B06912F0D9F8044618EE100A22F034F9D4
:1027700041EC100B27A153EC102B6846FDF7AAFD86
:10278000694620460FF083FF777301E7098900EE61
:10279000101A1146B8EE400A80EE208A12F0BCF8FA
:1027A00032A10FF074FF2146B06912F0B5F804466B
:1027B00018EE100A22F010F941EC100B0FA153ECA7
:1027C000102B6846FDF786FD694620460FF05FFF37
:1027D000B773DDE669010020000C00200000C8424C
:1027E0007401002000007A4414850020E688AAE6DF
:1027F000ADA2E794B5E6B58131000000252E336621
:1028000000000000E8BE93E587BAE794B5E58E8B3B
:1028100032000000252E326600000000E8BE93E57D
:1028200087BAE794B5E58E8B31000000E99990E511
:1028300088B6E794B5E6B58131000000E99990E5E6
:1028400088B6E794B5E6B58132000000E688AAE6CE
:10285000ADA2E794B5E58E8B31000000E688AAE6CC
:10286000ADA2E794B5E58E8B32000000E688AAE6BB
:10287000ADA2E794B5E6B58132000000F0B5B148ED
:102880002DED028B83B00278AF499FEDB00AB04EB8
:1028900001250227B069192A38D0DFEDAE0A1A2ABD
:1028A0007ED0AD491B2A7CD01C2A2BD1B37B40F6AD
:1028B0007802141D002B75D0B37B012B22D14989DE
:1028C00000EE101A1146B8EE400A80EE208A12F08F
:1028D00023F8A2A10FF0DBFE2146B06912F01CF82C
:1028E000044618EE100A22F077F841EC100B9FA175
:1028F00053EC102B6846FDF7EDFC694620460FF0BF
:10290000C6FEB77303B0BDEC028BF0BDF37A40F6A0
:102910006F02141D3BB3F37A012BF3D1D1F884106D
:1029200000EE901A1146F8EE600A80EE808A11F0EF
:10293000F3FF90A10FF0ABFE2146B06911F0ECFF60
:10294000044618EE100A22F047F841EC100B8DA156
:1029500053EC102B6846FDF7BDFC694620460FF08E
:1029600096FEF772CEE7D1F8801000EE901A11466D
:10297000F8EE600A80EE808A11F0CEFF83A10FF09E
:1029800086FE2146B06911F0C7FF044618EE100A12
:1029900022F022F841EC100B7AA153EC102B02E04C
:1029A0000AE05BE0AAE06846FDF794FC6946204631
:1029B0000FF06DFEF572A5E7337B4FF40762141D2F
:1029C0003BB3337B012B9DD1D1F8901000EE101A50
:1029D0001146B8EE400A80EE208A11F09DFF6FA1EB
:1029E0000FF055FE2146B06911F096FF044618EE2F
:1029F000100A21F0F1FF41EC100B5CA153EC102BFD
:102A00006846FDF767FC694620460FF040FE3773C5
:102A100078E7D1F88C1000EE101A1146B8EE400A93
:102A200080EE208A11F078FF60A10FF030FE214681
:102A3000B06911F071FF044618EE100A21F0CCFFC6
:102A400041EC100B49A153EC102B6846FDF742FCFA
:102A5000694620460FF01BFE357353E7737B40F643
:102A60007702141D33B3737B012BA4D1898800EE48
:102A7000901A1146F8EE600A80EE808A11F04CFF41
:102A80004EA10FF004FE2146B06911F045FF044647
:102A900018EE100A21F0A0FF41EC100B39A153EC05
:102AA000102B6846FDF716FC694620460FF0EFFD37
:102AB000777327E7498800EE901A1146F8EE600A0E
:102AC00080EE808A11F028FF40A10FF0E0FD214642
:102AD000B06911F021FF044618EE100A21F07CFFC6
:102AE00041EC100B27A153EC102B6846FDF7F2FBCD
:102AF000694620460FF0CBFD757303E7098900EEA8
:102B0000101A1146B8EE400A80EE208A11F004FF38
:102B100032A10FF0BCFD2146B06911F0FDFE044664
:102B200018EE100A21F058FF41EC100B0FA153ECE6
:102B3000102B6846FDF7CEFB694620460FF0A7FD37
:102B4000B573DFE669010020000C00200000C842D8
:102B50007401002000007A4414850020E688AAE66B
:102B6000ADA2E794B5E6B58133000000252E3366AB
:102B700000000000E8BE93E587BAE794B5E58E8BC8
:102B800033000000252E326600000000E8BE93E509
:102B900087BAE794B5E58E8B32000000E99990E59D
:102BA00088B6E794B5E6B58133000000E99990E571
:102BB00088B6E794B5E6B58132000000E688AAE65B
:102BC000ADA2E794B5E58E8B33000000E688AAE657
:102BD000ADA2E794B5E58E8B32000000E688AAE648
:102BE000ADA2E794B5E6B581320000002DE9F05FB3
:102BF000714D2978DFF8C48140F66F06771C1939CA
:102C0000FC1DD8F8180040F6780940F6710A40F625
:102C1000790B0C2978D2DFE801F006233F5BCDCD9C
:102C2000CDCD7894CDB0314611F076FE04466FF0EC
:102C300070410FF0FFFC6FF07F4120460FF04CFD1C
:102C400040F67201D8F8180011F066FE04465C499F
:102C50000FF0F0FC002120460FF03EFD2420A8E0FC
:102C6000394611F059FE04466FF070410FF0E2FC56
:102C70006FF07F4120460FF02FFD3146D8F8180045
:102C800011F04AFE04464E490FF0D4FC00212046C4
:102C90000FF022FD19208CE0214611F03DFE044684
:102CA0006FF070410FF0C6FC6FF07F4120460FF0CF
:102CB00013FD3946D8F8180011F02EFE044640499D
:102CC0000FF0B8FC002120460FF006FD1A2070E03E
:102CD000494611F021FE06466FF070410FF0AAFC44
:102CE0006FF07F4130460FF0F7FC2146D8F818000E
:102CF00011F012FE044632490FF09CFC00212046E0
:102D00000FF0EAFC1B2054E054E0514611F004FEA1
:102D100004466FF070410FF08DFC6FF07F4120464C
:102D20000FF0DAFC4946D8F8180011F0F5FD04461A
:102D300023490FF07FFC002120460FF0CDFC1C2022
:102D400037E0594611F0E8FD04466FF070410FF08E
:102D500071FC6FF07F4120460FF0BEFC5146D8F861
:102D6000180011F0D9FD044615490FF063FC00214D
:102D700020460FF0B1FC21201BE040F6720111F05B
:102D8000CBFD04466FF070410FF054FC6FF07F41B3
:102D900020460FF0A1FC5946D8F8180011F0BCFDF0
:102DA000044607490FF046FC002120460FF094FC32
:102DB00022202870BDE8F09F6901002074010020E6
:102DC000FFFFBF002DE9F04FF8482DED048B83B0D5
:102DD000406E00EE100AB8EE400ADFEDF50AF34847
:102DE00080EE208A806E00EE100AB8EE400ADFED19
:102DF000F10AEE48C06EC0EE208A00EE100AB8EE6E
:102E0000400ADFEDEC0AE948006F80EE209A00EE00
:102E1000100AB8EE400ADFEDE60AE7480178C0EE96
:102E2000209AE94819390124E44DE54EE54F8069BF
:102E300040F66F0A40F673084FF4076B40F67909C5
:102E400010292FD2DFE801F0087DFCFB33A2FAF94C
:102E5000F8F7F6F5F4F3F2F15146DB4E11F05CFDB4
:102E600007466FF070410FF0E5FB6FF07F41384689
:102E70000FF032FC4146B06911F04EFD0646D349D1
:102E80000FF0D8FB002130460FF026FC0020D04A7E
:102E900001461154401CC0B20528FAD3C6491D2072
:102EA00008702C7003B0BDEC048BBDE8F08F414678
:102EB000C54F11F031FD80466FF070410FF0BAFB45
:102EC0006FF07F4140460FF007FCF87A30B1F87A96
:102ED000012806D0F87A022807D00AE0B348C16F6B
:102EE00006E0B248D0F8801002E0B048D0F8841074
:102EF0004160AE48406800EE100AF8EE400A9FEDCF
:102F0000AC1A80EE810A10EE100A21F065FD41EC4A
:102F1000100BB0A153EC102B6846FDF7DBF96946A6
:102F200040460FF0B4FB5146B86911F0F5FC074676
:102F3000A6490FF07FFB002138460FF0CDFB19208A
:102F400095E25946A04D11F0E7FC04466FF0704140
:102F50000FF070FB6FF07F4120460FF0BDFB0020AB
:102F60009B4902460A54401CC0B20528FAD340F6D9
:102F70007401A86911F0D0FC044694490FF05AFB83
:102F8000002120460FF0A8FB1E202BE240F6740122
:102F90008D4F11F0C1FC80466FF070410FF04AFB7D
:102FA0006FF07F4140460FF097FB387B30B1387BA4
:102FB000012807D0387B022808D00BE07B48D0F8E6
:102FC000881006E07948D0F88C1002E07748D0F8F5
:102FD000901081607548826841F288318A4200D938
:102FE0008160806800EE100AF8EE400A9FED711AC9
:102FF00080EE810A10EE100A21F0EEFC41EC100B7D
:1030000076A153EC102B6846FDF764F969464046FB
:103010000FF03DFB5946B86911F07EFC07466B493D
:103020000FF008FB002138460BE082E12DE1A1E022
:1030300031E024E257E103E1AFE13EE2D5E173E0A4
:1030400003E00FF049FB1A2011E240F677015E4DD4
:1030500011F062FC04466FF070410FF0EBFA6FF074
:103060007F4120460FF038FB0020594A0146115499
:10307000401CC0B20528FAD340F67B01A86911F0C4
:103080004BFC044651490FF0D5FA002120460FF0C1
:1030900023FB2520A6E140F67B01DFF82C9111F0FF
:1030A0003BFC80466FF070410FF0C4FA6FF07F4137
:1030B00040460FF011FB99F80D0040B199F80D1042
:1030C0004846012905D0407B022804D00CE038880E
:1030D00002E0788800E0B888DFED350A00EE100ADB
:1030E000B8EE400A80EE208A18EE100A21F074FC37
:1030F00041EC100B37A153EC102B6846FDF7EAF8B2
:10310000694640460FF0C3FA40F67701D9F8180037
:1031100011F002FC07462D490FF08CFA00213846C9
:103120000FF0DAFA1B20A2E140F67801264D11F0EB
:10313000F3FB04466FF070410FF07CFA6FF07F41B3
:1031400020460FF0C9FA0020214902460A54401CCB
:10315000C0B20528FAD340F67C01A86911F0DCFB67
:1031600004461A490FF066FA002120460FF0B4FA1F
:10317000262037E140F67C01DFF84C9011F0CCFBC3
:1031800080466FF070410FF055FA6FF07F41404676
:103190000FF0A2FA99F80E0020B399F80E104846E5
:1031A000012921D0807B022820D028E0000C0020BB
:1031B0000000C84200007A44690100201C01002080
:1031C0001D0100201485002074010020FFFFBF00B6
:1031D00060010020252E326600000000252E336697
:1031E00000000000F88802E0388900E078895FED8F
:1031F0000F0A00EE100AB8EE400AC0EE208A18EE60
:10320000900A21F0E9FB41EC100B53EC102BAFF2CC
:1032100034016846FDF75EF8694640460FF037FA1C
:1032200040F67801D9F8180011F076FB0746B2494C
:103230000FF000FA002138460FF04EFA1C2016E17C
:103240004946AE4D11F068FB04466FF070410FF037
:10325000F1F96FF07F4120460FF03EFA0020A84AB6
:1032600001461154401CC0B20528FAD340F67D0136
:10327000A86911F051FB04469F490FF0DBF90021CA
:1032800020460FF029FA2720ACE040F67D019B4F45
:1032900011F042FB80466FF070410FF0CBF96FF0F8
:1032A0007F4140460FF018FA19EE100A21F094FB06
:1032B00041EC100B53EC102BAFF2E0016846FDF728
:1032C00009F8694640460FF0E2F94946B86911F03D
:1032D00023FB074688490FF0ADF9002138460FF06F
:1032E000FBF92220C3E040F67A01844D11F014FB73
:1032F00004466FF070410FF09DF96FF07F4120465A
:103300000FF0EAF900207E4A01461154401CC0B279
:103310000528FAD340F67E01A86911F0FDFA0446AB
:1033200075490FF087F9002120460FF0D5F92820C4
:1033300058E040F67E01714F11F0EEFA80466FF0D2
:1033400070410FF077F96FF07F4140460FF0C4F9FC
:1033500019EE900A21F040FB41EC100B53EC102BBE
:10336000AFF290116846FCF7B5FF694640460FF092
:103370008EF940F67A01B86911F0CEFA07465E4937
:103380000FF058F9002138460FF0A6F95D492320C7
:1033900008702C700020307084E540F67101574DA4
:1033A00011F0BAFA04466FF070410FF043F96FF074
:1033B0007F4120460FF090F90020514A01461154F8
:1033C000401CC0B20528FAD340F67501A86911F077
:1033D000A3FA044648490FF02DF9002120460FF0CA
:1033E0007BF91F20474908705CE540F67501434FA3
:1033F00011F092FA80466FF070410FF01BF96FF0F8
:103400007F4140460FF068F93F48D0F89C100161B9
:1034100001694EF66022914201D9002101610069E3
:1034200000EE100AF8EE400A1FED9E1A80EE810AA7
:1034300010EE100A21F0D0FA41EC100B53EC102BD7
:10344000AFF268216846FCF745FF694640460FF039
:103450001EF940F67101B86911F05EFA0746264977
:103460000FF0E8F8002138460FF036F92120254901
:1034700008702C700020307012F0D6FB12E540F678
:1034800072011E4D11F048FA04466FF070410FF0C2
:10349000D1F86FF07F4120460FF01EF940F676011B
:1034A000A86911F039FA044613490FF0C3F8002156
:1034B00020460FF011F9202094E740F676010F4FD7
:1034C00011F02AFA80466FF070410FF0B3F86FF0F8
:1034D0007F4140460FF000F940F67201B86911F0E3
:1034E0001BFA074604490FF0A5F8002138460FF0F3
:1034F000F3F82420BBE70000FFFFBF0074010020A9
:103500006001002069010020000C002070B5124EFF
:103510007179304640F69902104D806901291146B3
:103520000DD011F0F9F904466FF070410FF082F8F8
:10353000294620460FF0D0F82F20307070BD11F0D2
:10354000EBF9044629460FF075F82046BDE87040B7
:1035500000210FF0C1B80000B4010020FFFFBF0040
:103560002DE9FF470446006810B112F0F7F868B182
:103570000022314850F8221060680A2841D007DC48
:10358000F0B306280DD0072854D106E00122F0E759
:1035900012280AD019284DD137E0204613F0C2FA7C
:1035A00048E0204614F04CFC44E0206803F060FA48
:1035B0000290B0F9548090F85650476C466B02A8C0
:1035C00003F0A0FA206800F039F88146684611F04F
:1035D0007BF9BDF8001009EB05000844ADF80000C8
:1035E000246A304604F02AFE022004F067FE3846C2
:1035F00004F01AFE42466946204603F00DFE19E02B
:1036000007E0204614F008FF14E0886904B0BDE824
:10361000F087206811F066FD206803F029FA039016
:10362000B0F90610B0F90220891A491CC16703A835
:1036300003F068FA0020E9E7A8DC030838B503F0D6
:1036400017FA0090C46F684603F05CFA204638BD54
:10365000044A034911600449CA69C86110467047A9
:1036600020030020E8060020EC06002000B589B009
:1036700024216846FDF763F819200190034800688B
:10368000806841686846884709B000BDE8060020A8
:103690001CB51B48012101701A4A192010701A48E4
:1036A000002404701948C26F4260D0F888208260FC
:1036B000D0F89C20026116480170702168200FF03C
:1036C000FEFB4FF48051134802F088FA08F036FEF2
:1036D0004FF48061104802F081FA1048016841F00F
:1036E0008001016011F00CF9034600940C4A292175
:1036F0000C48019403F0B4FB0B4988611CBD000029
:103700001E0100206901002084000020000C002020
:1037100085000020000C024000080240400000200C
:10372000CD020208B4520208740100201CB50E48F4
:10373000002404700D4804700D4804707021682046
:103740000FF0BDFB4FF480510A4802F047FA11F028
:10375000D7F803460094084A08210848019403F06A
:103760007FFB074908601CBD1E010020850000206A
:1037700084000020000C0240391B02083057020868
:10378000900100207CB50E4C4720A0710320A07052
:103790000C4908700025E57120F070FA0A490120F3
:1037A00008700A48057011F0ABF803460095084A06
:1037B00020210848019503F053FB60627CBD0000A6
:1037C0001C010020850000208700002084000020CC
:1037D000B1EA0108E84C02081CB50F490520087041
:1037E0000E48002404700E480470702168200FF009
:1037F00066FB4FF480510B4802F0F0F911F080F8AD
:1038000003460094084A21210848019403F028FB4C
:10381000074948601CBD00001E010020690100200E
:1038200084000020000C0240951E02081058020877
:10383000A40100201CB508490620087011F060F8AA
:103840000346002000900190044A0121044803F03F
:1038500007FB044948601CBD1E0100200D2802081A
:10386000AC5B0208AC0100201CB5174C207808B1F5
:1038700008F064FD022020701449087014490920E2
:1038800008701448D0F898104160D0F8A0108160FA
:103890001148002404701149032008707021682029
:1038A0000FF00DFB4FF480510D4802F097F911F025
:1038B00027F8034600940B4A13210B48019403F0A8
:1038C000CFFA0A4948601CBD1E0100208500002077
:1038D00069010020000C0020840000206701002006
:1038E000000C0240E5E30108D44A0208140100205C
:1038F0001CB5164C207808B108F020FD042020707B
:10390000134908701349172008701348D0F8941011
:1039100001611248002404701149022008707021CE
:1039200068200FF0CCFA4FF480510E4802F056F99F
:1039300010F0E6FF034600940B4A15210B48019452
:1039400003F08EFA0A4948601CBD00001E010020E9
:103950008500002069010020000C00208400002068
:1039600067010020000C0240F92D0208685002088F
:103970006C0100201CB510F0C3FF00240346009426
:10398000074A11210748019403F06AFA0649074AD9
:1039900088611470064B07221A702F220A701CBD12
:1039A0008D28020894480308B401002084000020F8
:1039B0001E0100201CB502208DF8050001208DF8A5
:1039C000040000208DF806001C2000906946024883
:1039D00002F0B0F81CBD00000010024070B5244E8B
:1039E00005460421304602F0F9F80821304602F07D
:1039F000F7F800BF00BF00BF00BF0421304602F04F
:103A0000EFF800BF0821304602F0EAF80421304602
:103A100002F0E4F80024072C0CD928044FF0100120
:103A2000304602D502F0DCF801E002F0D7F8680475
:103A3000050C03E01021304602F0D0F80821304692
:103A400002F0CCF800BF00BF00BF0821304602F0F2
:103A5000C7F8641CE4B2182CDDD30421304602F010
:103A6000BFF83046BDE87040082102F0B9B8000048
:103A70000010024008B538208DF8000003208DF8B2
:103A800001008DF8020001208DF8030068460AF05D
:103A900057FC08BD01480068704700006C03002017
:103AA00010B50549054800F00DF80548016841F0DA
:103AB0000201016010BD000020800010106402406F
:103AC00034000020074A904201D2074801E005482F
:103AD0001038064A8B0001EA020101D5C160704727
:103AE0008160704710640240006002407D0F7D0FCE
:103AF0000029016802D041F0010101E021F001013B
:103B0000016070470B0607D5436912B143F080038B
:103B100001E023F080034361802908D0002A026875
:103B200001F01E0101D00A4300E08A4302607047A1
:103B300030B50368124ACC6813400A682243D1E9C1
:103B400005452C432243CC6922430C6A22434C6A2C
:103B500022438C6A22434C6B22438C6B22431A43D0
:103B60000260426922F00703D1E90B2422431A4381
:103B700042610A6942604A6882608968C16030BDFA
:103B80003F801CF0F8B50546006802F071FF009018
:103B9000448ED0F88860684602F0B4FF06B1012672
:103BA00004F00104286811F0D9FD0EB1002006E0F0
:103BB0000CB1012003E008B1022000E003201B4902
:103BC00051F82010686858B302280CD0052802D09C
:103BD000122828D103E0284612F0D0FF23E028461F
:103BE00015F0AFF81FE06A69E8694FF0FF33801AFB
:103BF000A0F1080203EB6204421CAB69001B4510F4
:103C0000A3EB6206C86904F00FFB06E03219311B12
:103C1000284603F0AFFC641E6D1C002CF6DA02E0AF
:103C2000286811F05FFA0020F8BD000008DD0308E5
:103C3000044A0349116004490A6B0863104670473F
:103C400070030020280700202C07002038B50D46FF
:103C5000002402F00DFF0090C06B294602F0EAFF3D
:103C60000546684602F04EFF1DB1284602F000FFEF
:103C70000446204638BD704730B504464FF47A7587
:103C800002E0284600F006F82300A4F1010084B207
:103C9000F7D130BD00220BE0042100BF00BF00BF00
:103CA00000BF00BF491E0904090CF6D1521C92B294
:103CB0008242F1D37047000010B51D492DED028BF3
:103CC0000A781C4CB2EE048A022AE0681FD00978F8
:103CD00003292AD1184991ED000A20EE080ABDEE09
:103CE000C00A10EE101A09B202F052F8134890ED13
:103CF000000A20EE080ABDEEC00A10EE100A01B25A
:103D00002069BDEC028BBDE8104002F041B80C49BF
:103D100091ED000A20EE080ABDEEC00A10EE101A5E
:103D200009B202F035F80748E1E7BDEC028B10BD9F
:103D300067010020900100202800002030000020B2
:103D4000240000202C00002010B504461FF0B0FD18
:103D5000A0201FF081FD1FF0DBFD68B920461FF099
:103D60007BFD1FF0D5FD38B91FF0A2FDA1201FF08B
:103D700073FD1FF0CDFD18B11FF0B6FD002010BD82
:103D80001FF048FD034C20701FF02CFD1FF0ACFD10
:103D9000207810BD7A00002070B50120FFF7D4FF15
:103DA000FE4C20600120FFF7CFFF2060206800025A
:103DB00020600220FFF7C8FF2168084420602068C7
:103DC000000220600320FFF7BFFF21680844206045
:103DD0002068000220600420FFF7B6FF2168084435
:103DE00020600520FFF7B0FFED4D28602868000235
:103DF00028600620FFF7A8FF296808442860286883
:103E0000000228600720FFF79FFF29680844286008
:103E10002868000228600820FFF796FF29680844F8
:103E200028600920FFF790FF606060680002606012
:103E30000A20FFF789FF616808446060606800023B
:103E400060600B20FFF780FF616808446060606875
:103E5000000260600C20FFF777FF61680844606033
:103E60000D20FFF771FF68606868000268600E202F
:103E7000FFF76AFF69680844686068680002686064
:103E80000F20FFF761FF69680844686068680002F6
:103E900068601020FFF758FF6968084468601120C7
:103EA000FFF752FFA060A0680002A0601220FFF799
:103EB0004BFFA1680844A060A0680002A060132026
:103EC000FFF742FFA1680844A060A0680002A0605C
:103ED0001420FFF739FFA1680844A0601520FFF700
:103EE00033FFA860A8680002A8601620FFF72CFF27
:103EF000A9680844A860A8680002A8601720FFF716
:103F000023FFA9680844A860A8680002A8601820D8
:103F1000FFF71AFFA9680844A8601920FFF714FFEB
:103F2000E060E0680002E0601A20FFF70DFFE16842
:103F30000844E060E0680002E0601B20FFF704FF37
:103F4000E1680844E060E0680002E0601C20FFF7E0
:103F5000FBFEE1680844E0601D20FFF7F5FEE86025
:103F6000E8680002E8601E20FFF7EEFEE9680844FA
:103F7000E860E8680002E8601F20FFF7E5FEE968F6
:103F80000844E860E8680002E8602020FFF7DCFEF3
:103F9000E9680844E8602120FFF7D6FE2061206927
:103FA000000220612220FFF7CFFE21690844206132
:103FB0002069000220612320FFF7C6FE2169084422
:103FC00020612069000220612420FFF7BDFE2169E5
:103FD000084420612520FFF7B7FE28612869000208
:103FE00028612620FFF7B0FE296908442861286966
:103FF000000228612720FFF7A7FE296908442861ED
:104000002869000228612820FFF79EFE29690844DC
:1040100028612920FFF798FE6061606900026061F5
:104020002A20FFF791FE616908446061606900021F
:1040300060612B20FFF788FE616908446061606958
:10404000000260612C20FFF77FFE61690844606117
:104050002D20FFF779FE68616869000268612E20F3
:10406000FFF772FE69690844686168690002686167
:104070002F20FFF769FE69690844686168690002DA
:1040800068613020FFF760FE696908446861AB2011
:10409000FFF75AFEE062E06A0002E062AC20FFF740
:1040A00053FEE16A0844E062E06A0002E062AD208B
:1040B000FFF74AFEE16A0844E062E06A0002E0625B
:1040C000AE20FFF741FEE16A0844E062AF20FFF74F
:1040D0003BFEE862E86A0002E862B020FFF734FEC7
:1040E000E96A0844E862E86A0002E862B120FFF782
:1040F0002BFEE96A0844E862E86A0002E862B2203E
:10410000FFF722FEE96A0844E8623120FFF71CFE4F
:10411000A061A0690002A0613220FFF715FEA1692D
:104120000844A061A0690002A0613320FFF70CFEE3
:10413000A1690844A061A0690002A0613420FFF7D2
:1041400003FEA1690844A0613520FFF7FDFDA861C9
:10415000A8690002A8613620FFF7F6FDA9690844A6
:10416000A861A8690002A8613720FFF7EDFDA969E1
:104170000844A861A8690002A8613820FFF7E4FD9F
:10418000A9690844A8613920FFF7DEFDE061E06914
:104190000002E0613A20FFF7D7FD03E0A00B00200A
:1041A000D00B0020E1690844E061E0690002E061B1
:1041B0003B20FFF7C9FDE1690844E061E0690002C6
:1041C000E0613C20FFF7C0FDE1690844E0613D206B
:1041D000FFF7BAFDE861E8690002E8613E20FFF7F9
:1041E000B3FDE9690844E861E8690002E8613F203D
:1041F000FFF7AAFDE9690844E861E8690002E8619F
:104200004020FFF7A1FDE9690844E8614120FFF77C
:104210009BFD2062206A000220624220FFF794FD8D
:10422000216A08442062206A000220624320FFF7CE
:104230008BFD216A08442062206A0002206244202B
:10424000FFF782FD216A084420624520FFF77CFDCC
:104250002862286A000228624620FFF775FD296A55
:1042600008442862286A000228624720FFF76CFD94
:10427000296A08442862286A000228624820FFF759
:1042800063FD296A084428624920FFF75DFD6062EA
:10429000606A000260624A20FFF756FD616A0844C6
:1042A0006062606A000260624B20FFF74DFD616A48
:1042B00008446062606A000260624C20FFF744FDBF
:1042C000616A084460624D20FFF73EFD6862686ADB
:1042D000000268624E20FFF737FD696A0844686291
:1042E000686A000268624F20FFF72EFD696A084481
:1042F0006862686A000268625020FFF725FD696AFB
:10430000084468625120FFF71FFDA062A06A000206
:10431000A0625220FFF718FDA16A0844A062A06ABB
:104320000002A0625320FFF70FFDA16A0844A062BB
:10433000A06A0002A0625420FFF706FDA16A0844AB
:10434000A0625520FFF700FDA862A86A0002A862DB
:104350005620FFF7F9FCA96A0844A862A86A00027F
:10436000A8625720FFF7F0FCA96A0844A862A86A6F
:104370000002A8625820FFF7E7FCA96A0844A86277
:104380005920FFF7E1FCF64C20705A20FFF7DCFCC7
:1043900060705B20FFF7D8FCA0705C20FFF7D4FCB6
:1043A000E0705D20FFF7D0FC20715E20FFF7CCFCB1
:1043B00060716020FFF7C8FCEA4908707A20FFF7B7
:1043C000C3FCE94908707B20FFF7BEFCE749087091
:1043D0007820FFF7B9FCE64908707920FFF7B4FCB4
:1043E000E44908706120FFF7AFFCE3490870B4208E
:1043F000FFF7AAFCE14908707C20FFF7A5FCE04923
:1044000008807D20FFF7A0FCDE4908807E20FFF7B2
:104410009BFCDD4908807F20FFF796FCDB49088084
:104420008020FFF791FCDA4908708120FFF78CFCAF
:10443000D84908708220FFF787FCD749087083208D
:10444000FFF782FCD54908708420FFF77DFCD44932
:1044500008708520FFF778FCD24908708620FFF7A6
:1044600073FCD14908708720FFF76EFCCF490870B4
:104470008820FFF769FCCE4908708920FFF764FCAB
:10448000CC4908708A20FFF75FFCCB4908708B206D
:10449000FFF75AFCC94908708C20FFF755FCC84942
:1044A00008708D20FFF750FCC6490880B320FFF745
:1044B0004BFCC54908706220FFF746FCC34C2060E6
:1044C0002068000220606320FFF73EFC216808445A
:1044D00020606420FFF738FC606060680002606064
:1044E0006520FFF731FC6168084460606620FFF7D3
:1044F0002BFCA060A0680002A0606720FFF724FCEE
:10450000A1680844A0606820FFF71EFCE060E06836
:104510000002E0606920FFF717FCE1680844E060F2
:104520006A20FFF711FC20612069000220616B20E6
:10453000FFF70AFC2169084420616C20FFF704FCA6
:1045400060616069000260616D20FFF7FDFB6169D9
:10455000084460616E20FFF7F7FB2066206E0002C2
:1045600020666F20FFF7F0FB216E08442066702064
:10457000FFF7EAFBA066A06E0002A0667120FFF7BD
:10458000E3FBA16E0844A0667220FFF7DDFBE06547
:10459000E06D0002E0657320FFF7D6FBE16D084493
:1045A000E0657420FFF7D0FB2062206A00022062E1
:1045B0007520FFF7C9FB216A084420627620FFF7C7
:1045C000C3FB6062606A000260627720FFF7BCFB99
:1045D000616A084460628E20FFF7B6FB6064606C1D
:1045E000000260648F20FFF7AFFB616C08446064D9
:1045F0009020FFF7A9FBA064A06C0002A0649120AA
:10460000FFF7A2FBA16C0844A0649220FFF79CFB7B
:10461000E064E06C0002E0649320FFF795FBE16C3E
:104620000844E064A4F138044FF09400FFF78CFBD9
:10463000674D28802888000228809520FFF784FB9A
:104640002988084428809620FFF77EFB68806888C8
:10465000000268809720FFF777FB6988084468802C
:104660009820FFF771FBA880A8880002A8809920F5
:10467000FFF76AFBA9880844A8809A20FFF764FB2B
:1046800004F16C04E061E0694FEA0020E0614FF062
:104690009B00FFF759FBE1690844E0619C20FFF7AC
:1046A00053FB2062206A000220629D20FFF74CFB32
:1046B000216A084420629E20FFF746FB6062606A20
:1046C000000260629F20FFF73FFB616A084460625E
:1046D000A020FFF739FBE880E8880002E880A120ED
:1046E000FFF732FBE9880844E880A220FFF72CFBA3
:1046F0002881288900022881A320FFF725FB29892A
:1047000008442881A420FFF71FFB68816889000204
:104710006881A520FFF718FB698908446881A620F5
:10472000FFF712FB2B490870A720FFF70DFB206352
:10473000206B00022063A820FFF706FB216B0844D2
:104740002063A920FFF700FB2060206800022060A2
:10475000AA20FFF7F9FA21680844206070BD000024
:10476000C4000020A6000020200100201F0100201E
:104770002D010020680100202C010020A401002050
:10478000C2010020C4010020C6010020C801002091
:10479000B5010020B6010020B7010020B8010020BB
:1047A000BA010020BB010020BC010020BD01002097
:1047B000BE010020BF010020C0010020C101002077
:1047C0006E010020300100202E010020380C002056
:1047D000148500207401002070B505460E461FF0B8
:1047E00083F800241FF064F8A0201FF035F81FF0B4
:1047F0008FF818B1641CA4B2642CF3D3B4F57A7F9B
:104800000DD0E8B21FF028F81FF082F838B9304612
:104810001FF022F81FF07CF808B91FF065F8BDE81A
:1048200070401FF061B800002DE9F041044694B0DB
:10483000006800F0B7F908B1D94D01E0D84D2C352A
:10484000606815281ED00CDC0B281FD004DC002863
:104850007ED005287DD12EE10E287BD01228F9D1FB
:1048600041E1162806D0172808D0182808D01C289F
:10487000F0D109E0E86914B0BDE8F081286AFAE7F0
:10488000686AF8E7A86AF6E76869F4E720680B90B9
:104890001C200C90206802F0EBF80390016D0BA82F
:1048A0008847064603A802F02DF9022E0EDB95E894
:1048B00007008DE80700D4E904023346A16904F03B
:1048C00017FC20698719A069801B2BE0286803F07A
:1048D000ABFC2169E8690A18521E606902F04AFEC1
:1048E000A269E869111A491C606902F043FE676910
:1048F00020697F1C394602F07FFE3946A06902F02C
:104900007BFE686803F090FC20693946401C02F089
:1049100073FEA0693946401E02F06EFE2769A06949
:10492000BF1C801E8046286803F07EFC4246394644
:10493000606902F01FFE686803F076FC6069424619
:10494000401C394602F016FE686A02280FDD02E0BC
:1049500015E1AFE000E1A86803F066FC61696A6AEE
:10496000881C8B1801465B1E4246384627E0296AA0
:10497000B14226DD6069022E074600F1020801DB24
:10498000374401E007F10207206901DB304401E010
:1049900000F1020022693B460A44A2F101024146AD
:1049A00002F0F2FE022E02DBA069821B01E0A26986
:1049B000921EA069E9693B46401A401C414602F03C
:1049C000E3FE022E02DB6069064401E06669B61C64
:1049D000E76928687F1E03F027FC3A4631462069C4
:1049E00002F068FE3A463146A06902F063FEE769CC
:1049F0006868BF1E03F018FC20693A46401C314627
:104A000002F058FEA0693A46401E314602F052FEBE
:104A1000E869022802DC286A022823DDA86A022845
:104A200002DDE1690F1A01E0E769BF1EA86803F023
:104A3000FBFBE969022909DD20693B46421800F1C8
:104A4000020C521E3146604602F09EFE286A022881
:104A500008DDA269E8693B46101A401C921E3146E7
:104A600002F092FE286803F0DFFBD4E906202169FA
:104A700002F080FD686803F0D7FBA2692169E06954
:104A8000521E491C401E02F075FDA86A022811DD65
:104A90002669A169E469B61C271AA1F102087F1CE6
:104AA000A41EA86803F0C0FB2346424639463046A0
:104AB00002F06AFE72E0208A06B2ADF81460A08AA5
:104AC00001B2ADF81610208B02B2ADF81820A08B01
:104AD00003B2ADF81A30D5E90304CDE9000430463D
:104AE00002F0F0FC5AE0208A298B0844ADF814004B
:104AF000A08AADF81600208B298B401AADF818005B
:104B0000A08BADF81A00206801F0B2FF0390006F8F
:104B1000F0B1022003F0D2FB039991F87C00C0F3BE
:104B2000C00001EB8000006C03F07EFB0398406B3B
:104B300003F084FB0398006F01F09AFF03990A9039
:104B4000B1F95A2005A902F067FB0AA801F0DAFFC3
:104B500003A801F0D7FF21E0208AADF81400A08A55
:104B6000ADF81600208BADF81800A08BADF81A0038
:104B7000A86803F059FB05A802F02AFE0EE02068A1
:104B800001F076FF039030F85A1F41F00C010180CC
:104B900003A801F0B7FF206810F0A4FA00206AE62D
:104BA0004004002038B5002450B101F061FF0090AE
:104BB00090F87C00000700D50124684601F0A2FFB0
:104BC000204638BD30B504468BB0006801F050FF78
:104BD000009090F87C10246A006FC1F3C00508B102
:104BE00001F046FF0690E068029020690390A088DB
:104BF000401EADF81000E089ADF812002089401C7D
:104C0000ADF81400608AADF81600BDF80800401C2D
:104C1000ADF80800BDF80A00401CADF80A00BDF868
:104C20000C00401EADF80C000098406B03F006FB32
:104C3000009808AA02A9B0F95A30069803F0E0FDDE
:104C4000009800EB8500806B08F0BCFC009800EB3E
:104C50008500006C08F0EEFC08AB02AA04A90698D7
:104C60000FF022FA684601F04DFF069810B106A831
:104C700001F048FF0BB0002030BD0000074A064994
:104C8000054B1160064A083BD16958601B68C2E9B0
:104C900006300846704700003404002068070020F2
:104CA0006C07002038B50D46040009D001F0E0FE85
:104CB00000900566684601F025FF204610F015F8C3
:104CC00038BD2DE9F34F85B000270C46B84605984E
:104CD00001F0CEFE0090C06D0121856805982A681C
:104CE000904782462A6803210598904704902A68D5
:104CF00002210598904703902A6800210598904763
:104D00000646009810F0B0FB8346009810F0B3FB05
:104D10008146009890F83210890601D5B0F9588084
:104D200000F036F805460098C06E10B10FF012FF83
:104D3000074625806780A4F804A0049AABEB020024
:104D400006EB0802401E2A4420813A44E280039B7D
:104D5000A9EB0302521E6281A4F80CA020827019F4
:104D6000E681401E6082684601F0CCFEB4F90C007A
:104D70000190B4F91000029002AA01A9059800F070
:104D800039F80198A0810298208207B0BDE8F08F21
:104D900010B50146002091F83220920607D5B1F9EE
:104DA0005400002803D1486B02F090FD801C10BD18
:104DB00070B58AB00C46054601F05AFE0990C06DE8
:104DC000866809A801F09EFE009534B1012C06D03A
:104DD000022C0BD0032C04D10AE0182000E016208E
:104DE00001907168684688470AB070BD1520F7E7E2
:104DF0001720F5E72DE9FC4790468946044601F067
:104E000037FE0090C16D056868468E6801F07AFE35
:104E10003268002120469047064620460FF084FD68
:104E20002F1404462DB227E001F022FE0190B0F9C4
:104E30000010B0F90420B0F90230491B521BDB1BF3
:104E4000B34212D190F82800000607D5D8F8000028
:104E500088420ADB491EC8F8001006E0D9F80000B5
:104E6000904202DC521CC9F8002001A801F04AFE61
:104E700020460FF0E9FD0446002CD5D1BDE8FC87A3
:104E80004FF0204202EB80000029016802D041F07F
:104E9000010101E0014A114001607047FEFF0F006F
:104EA00030B5D0E901121143D0E903231A4311436D
:104EB00042690368114382691143C2691143026A5E
:104EC0001143426A1143826A1143C26A1143026B61
:104ED00011434FF0204242F823108168082906D17F
:104EE000016802EB81010B6843F040030B60416BEA
:104EF000D1E9003443EA04138C68CD68240244EA03
:104F0000054423430C6943EA04534C69896943EA25
:104F100004630B43016802EB81014B60C16AB1F588
:104F2000804F07D000686FF0704102EB8000C0F83E
:104F3000041130BD816B0068D1E9003443EA0413E9
:104F40008C680D69240244EA055423434C6989693D
:104F500043EA046302EB80000B43C0F8043130BD28
:104F600070B5FE4C2068010E0120FFF735FC20686B
:104F7000C0F307410220FFF72FFC2068C0F3072190
:104F80000320FFF729FC2068C1B20420FFF724FCAE
:104F9000F34D2868010E0520FFF71EFC2868C0F3BA
:104FA00007410620FFF718FC2868C0F307210720F7
:104FB000FFF712FC2868C1B20820FFF70DFC6068FB
:104FC000010E0920FFF708FC6068C0F307410A20C2
:104FD000FFF702FC6068C0F307210B20FFF7FCFB22
:104FE0006068C1B20C20FFF7F7FB6868010E0D2066
:104FF000FFF7F2FB6868C0F307410E20FFF7ECFBF8
:105000006868C0F307210F20FFF7E6FB6868C1B2AC
:105010001020FFF7E1FBA068010E1120FFF7DCFB79
:10502000A068C0F307411220FFF7D6FBA068C0F3C9
:1050300007211320FFF7D0FBA068C1B21420FFF7AF
:10504000CBFBA868010E1520FFF7C6FBA868C0F3CC
:1050500007411620FFF7C0FBA868C0F307211720FF
:10506000FFF7BAFBA868C1B21820FFF7B5FBE068EC
:10507000010E1920FFF7B0FBE068C0F307411A20CA
:10508000FFF7AAFBE068C0F307211B20FFF7A4FB92
:10509000E068C1B21C20FFF79FFBE868010E1D20ED
:1050A000FFF79AFBE868C0F307411E20FFF794FB67
:1050B000E868C0F307211F20FFF78EFBE868C1B244
:1050C0002020FFF789FB2069010E2120FFF784FBD8
:1050D0002069C0F307412220FFF77EFB2069C0F35F
:1050E00007212320FFF778FB2069C1B22420FFF7B6
:1050F00073FB2869010E2520FFF76EFB2869C0F3BA
:1051000007412620FFF768FB2869C0F30721272005
:10511000FFF762FB2869C1B22820FFF75DFB6069D9
:10512000010E2920FFF758FB6069C0F307412A20D0
:10513000FFF752FB6069C0F307212B20FFF74CFB00
:105140006069C1B22C20FFF747FB6869010E2D2072
:10515000FFF742FB6869C0F307412E20FFF73CFBD5
:105160006869C0F307212F20FFF736FB6869C1B2D9
:105170003020FFF731FBE06A010EAB20FFF72CFB7C
:10518000E06AC0F30741AC20FFF726FBE06AC0F3FA
:105190000721AD20FFF720FBE06AC1B2AE20FFF788
:1051A0001BFBE86A010EAF20FFF716FBE86AC0F3AD
:1051B0000741B020FFF710FBE86AC0F30721B120D8
:1051C000FFF70AFBE86AC1B2B220FFF705FBA0694E
:1051D000010E3120FFF700FBA069C0F30741322028
:1051E000FFF7FAFAA069C0F307213320FFF7F4FABA
:1051F000A069C1B23420FFF7EFFAA869010E35208B
:10520000FFF7EAFAA869C0F307413620FFF7E4FA8E
:10521000A869C0F307213720FFF7DEFAA869C1B2F9
:105220003820FFF7D9FAE069010E3920FFF7D4FAE8
:10523000E069C0F307413A20FFF7CEFAE069C0F316
:1052400007213B20FFF7C8FAE069C1B23C20FFF715
:10525000C3FAE869010E3D20FFF7BEFAE869C0F322
:1052600007413E20FFF7B8FAE869C0F307213F2065
:10527000FFF7B2FAE869C1B24020FFF7ADFA206A41
:10528000010E4120FFF7A8FA206AC0F3074142202F
:10529000FFF7A2FA206AC0F307214320FFF79CFA28
:1052A000206AC1B24420FFF797FA286A010E452010
:1052B000FFF792FA286AC0F307414620FFF78CFAFD
:1052C000286AC0F307214720FFF786FA286AC1B28F
:1052D0004820FFF781FA606A010E4920FFF77CFA47
:1052E000606AC0F307414A20FFF776FA606AC0F3AC
:1052F00007214B20FFF770FA606AC1B24C20FFF71C
:105300006BFA686A010E4D20FFF766FA686AC0F30F
:1053100007414E20FFF760FA686AC0F307214F206B
:10532000FFF75AFA686AC1B25020FFF755FAA06A2F
:10533000010E5120FFF750FAA06AC0F30741522036
:10534000FFF74AFAA06AC0F307215320FFF744FA97
:10535000A06AC1B25420FFF73FFA03E0A00B00207F
:10536000D00B0020A86A010E5520FFF735FAA86A75
:10537000C0F307415620FFF72FFAA86AC0F30721B0
:105380005720FFF729FAA86AC1B25820FFF724FA7C
:105390000D4C21785920FFF71FFA61785A20FFF74A
:1053A0001BFAA1785B20FFF717FAE1785C20FFF782
:1053B00013FA21795D20FFF70FFA6179BDE870409B
:1053C0005E20FFF709BA0000C40000202DE9F04379
:1053D0000446C56887B090468946002002F02CFF3D
:1053E000064625B1287910B146F0020001E026F00A
:1053F000020002F021FF2069012558B1D4E9021210
:105400008DE8260003956388228804684146484653
:10541000A0471EE0124F134B214638681B68427CA0
:10542000E068984730B9E088012801D0002001E009
:105430003868806BA288E388A1680095CDE90410E4
:10544000CDE902320195638822884146484607F03B
:10545000DBFC07B03046BDE8F04302F0EDBE0000D3
:10546000F8010020F00100201CB50024019401ACDB
:10547000009400F0E7F81CBD2DE9FF4F83B0814692
:1054800006988A46A0EB0A08109E00200090A2EB26
:1054900009043568934654EA080018D02046FCF702
:1054A000C6FC07464046FCF7C2FC87420BDA2046A2
:1054B000444680464846D14682465846DDF818B0F4
:1054C000069001200090002C07DD204606E007B082
:1054D0004846BDE8F04F00F03BB96042A0420AD018
:1054E0004846D9466442C8F1000883464FF0FF376A
:1054F000DDF818A000E001275148B8F1000F11D0E5
:1055000004EBD4714FEA610B01DACBF1000B4C488C
:105510000068807E88B3002F02DA30682044306053
:1055200000257BE000990029016821D0897E11B116
:105530000027804615E007B05A4649465046BDE868
:10554000F04F07F0C5BD28466D1C17F029FF38B98C
:10555000D8F8000009EB0701C06E4268504690473A
:105560007F1CA742EFDD6D1E356007B0BDE8F08FF0
:105570008A7E1AB10027804617E019E0C86E5A46A5
:105580005146036807B04846BDE8F04F1847284623
:105590006D1C17F005FF38B9D8F8001009EB0700AB
:1055A000C96E4A68514690477F1CA742EFDDDAE793
:1055B00000250FE008FB05B090FBF4F101EB0A00B9
:1055C000009951B11E4A09EB05011268D26E52686A
:1055D00090476D1CA542EDDDC7E7194909EB0503AE
:1055E0000968C96E4A6801461846F1E708FB05B02C
:1055F00090FBF4F101EB0A00019030683844306010
:1056000017F0CEFE48B9009890B10D4809EB05019E
:105610000068C06E4268019890476D1CA542E5DDA8
:105620003068002F01DA20443060C01B30609CE7F6
:10563000034909EB05000968C96E4A680199EBE75F
:10564000F80100202DE9FF470F46404916468046E5
:1056500009680C981D460A7E012A1CD0A8EB06009A
:10566000791B50EA01031CD0A2F1010918F074FE65
:1056700000F58060824604F03BF900FB09F45046D7
:1056800004F03AF900FB09F1002C0CDAC4F50070C3
:10569000801240420AE00090324639464046FFF709
:1056A000EBFEBDE8FF8704F50074A012002904DAC0
:1056B000C1F5007189124C4202E001F500718C12B3
:1056C000002804DD411C01EBD171491003E000EB1F
:1056D000D0714910401E00EBD0704210002C04DD48
:1056E000601C00EBD070401003E004EBD47040105D
:1056F000641E04EBD47308EB0104ADF800403C18C1
:10570000ADF80240A8EB02045B10B21AADF80440F9
:10571000ADF808203144FC1AEA1AADF80C10284400
:10572000ADF80A20ADF80E000023ADF806401A4689
:105730000421684600F07AF83946404613F0FEF935
:105740002946304613F0FAF9ABE70000F8010020D3
:10575000064A13681A7E012A05D0521E02EBD27245
:10576000521000F005B8DA6E52681047F8010020B8
:105770002DE9F05F0646884640F2C32050434FF4BF
:105780007A7190FBF1F702FB02F002EBD27100EBB1
:10579000610B254914467F1C09683244301BC96ED1
:1057A0000B684146984701253AE000BF05FB05F02C
:1057B00004FB040159451CDDBC4219DD1A4B06EB04
:1057C000050AA6EB05091B68AAF1010208EB040112
:1057D000DB6E09F101001B689847134BAAF1010227
:1057E000A8EB04011B6809F10100DB6E1B689847F8
:1057F000641E0D4806EB040AA6EB0409006808EBDA
:1058000005015246C06E0368484698470648A8EB13
:10581000050152460068C06E0368484698476D1CF3
:10582000BD42C3DDBDE8F09FF80100202DE9FF4F28
:1058300040F6FF740F46664283B09B4681460021C6
:105840000BE000BF09EB8100B0F90200A04200DAD2
:105850000446B04200DD0646491CB942F2DB684806
:105860000068406900280DD0B0F906101A46A1EB77
:105870000B01B14200DA0E46B0F90200801AA042D4
:1058800000DD0446B5E0DFF87CA100200546CAF83B
:10589000000089E0781E854201DA6B1C00E00023DD
:1058A00009EB850C09EB8302BCF90200B2F9021086
:1058B000A04245D1A14215D139F92330059A39F9D1
:1058C000251003EB020C4E4A05981268084404EBBD
:1058D0000B01D26E6045136801DA62462BE0024686
:1058E000604628E02846A4464FF000087A1E0BE0E8
:1058F00008B1401E00E0781E09EB8003B3F90230C6
:10590000634504D108F101089045F1DB2346A34229
:1059100049D0A3EB040239F92500A1EB040C059B47
:1059200092EA0C0209D4364A184404EB0B011268BF
:10593000D26E13680246984735E010F04DFB32E016
:10594000A14230D001DBA04203DDA0422BDBA1420B
:1059500029DCE04688420ADC0346A04223DC0846F4
:10596000A14220DBB8F900C0B2F9001008E00B46F4
:10597000A14218DCA04216DBB2F900C0B8F9001051
:10598000E21AA1EB0C0151430029A0EB030202DD56
:1059900001EB620102E0A1EB6201491CC01A91FB1C
:1059A000F0F06044C9E76D1CBD42FFF673AF059887
:1059B000009004EB0B00019000208046054613E0A8
:1059C0001149B8F1000F31F915A009D0009901EB88
:1059D0000A0208440A490968C96E0B680199984788
:1059E00088F0010850466D1C064909688D42E7DBC6
:1059F000641CB4427FF747AF07B0BDE8F08F0000EA
:105A0000F8010020780800201887002010B5002039
:105A100002F006FC6FF07F4002F006FC012002F06D
:105A20003BFC002002F040FC002002F047FC00207C
:105A300002F002FC0448006802F000FCBDE81040DF
:105A4000002002F005BC0000F40100202DE9FC4715
:105A500001211F200AF000FB02248DF805400125DA
:105A6000A0038DF80450002600908DF8066069466A
:105A70002B4800F05FF88DF80540DFF8A8908DF80E
:105A800004504FF440578DF8066069464846009729
:105A900000F050F88DF8054042F2C270DFF88880BF
:105AA0008DF8045000908DF806606946404600F07D
:105AB00041F800978DF805401C4F8DF804508DF883
:105AC00006606946384600F035F88DF805404020FC
:105AD0008DF8045000908DF806606946144800F077
