:020000040800F2
:10000000D08D0020950200085FF30008C99F00080A
:100010005DF30008592300085D600108000000003E
:10002000000000000000000000000000A9320108EC
:10003000433E000800000000A9130108F543010831
:10004000AF020008AF020008AF020008AF020008CC
:10005000AF020008AF020008AF020008AF020008BC
:10006000AF020008AF020008AF020008AF020008AC
:10007000AF020008AF020008AF020008AF0200089C
:10008000AF020008AF020008AF020008AF0200088C
:10009000AF020008AF020008AF020008AF0200087C
:1000A000AF020008AF020008AF020008AF0200086C
:1000B000AF02000805490108114C0108AF02000811
:1000C000AF020008AF020008AF020008AF0200084C
:1000D000AF020008D95B0108AF0200082D5D0108DE
:1000E000AF020008AF020008AF020008AF0200082C
:1000F000AF020008AF020008AF020008AF0200081C
:10010000AF020008AF020008AF020008AF0200080B
:10011000AF020008AF020008954D0108AF020008C9
:10012000653C0008AF020008AF020008AF020008FB
:10013000AF020008AF020008AF020008AF020008DB
:10014000AF020008AF020008AF020008D9FD0008A6
:10015000AF020008AF020008AF020008AF020008BB
:10016000AF020008AF020008AF020008AF020008AB
:10017000AF020008AF020008AF020008AF0200089B
:10018000AF020008AF02000800F002F800F072F8B9
:100190000AA090E8000C82448344AAF10107DA45E2
:1001A00001D100F067F8AFF2090EBAE80F0013F0C2
:1001B000010F18BFFB1A43F00103184794440400D1
:1001C000B44404000A444FF0000C10F8013B13F053
:1001D000070408BF10F8014B1D1108BF10F8015BA0
:1001E000641E05D010F8016B641E01F8016BF9D193
:1001F00013F0080F1EBF10F8014BAD1C0C1B09D1EA
:100200006D1E58BF01F801CBFAD505E014F8016B5B
:1002100001F8016B6D1EF9D59142D6D370470000ED
:100220000023002400250026103A28BF78C1FBD8FF
:10023000520728BF30C148BF0B607047662927F0BE
:100240009E84642900F08480002070471FB527F049
:100250008CFC00F0CFFD04000020002126F000FF00
:10026000401C60600020002126F0E4FEE0601FBD1D
:1002700010B510BD00F00AFF1146FFF7E7FF26F0AA
:10028000CDFA00F036FF03B4FFF7F2FF03BC00F035
:1002900077FF00000948804709480047FEE7FEE76E
:1002A000FEE7FEE7FEE7FEE7FEE7FEE7FEE7FEE726
:1002B00004480549054A064B70470000BD44010843
:1002C00089010008D0870020D08D0020D08900202F
:1002D000D08900200FB41CB5074B06AA7B446946A1
:1002E0000090059800F0CBFC0020694600F0DAFC95
:1002F0001CBC5DF814FB0000C509000070B5044685
:1003000085690068C10601D5302600E02026C007B7
:1003100008D070BDD4E9012130469047206A00F131
:10032000010020626D1EF5D570BD70B5044685696B
:100330000068C00708D170BDD4E901212020904792
:10034000206A00F1010020626D1EF5D570BD00002D
:100350002DE9F0410746002510687529394616A495
:1003600011D0AFF30080002803DAC0F1000013A41D
:1003700007E039688A0701D511A402E0490704D5CE
:1003800010A4012501E0AFF3008000210A2307F14A
:10039000240607E0B0FBF3F203FB12003030705488
:1003A0001046491C0028F5D12B4622463846BDE8A8
:1003B000F04100F0F3B90000000000002D00000043
:1003C0002B000000200000002DE9F05F0446894664
:1003D0004FF0000ADFF828B1FB44C0F820A0204607
:1003E000E168884700287CD0252806D0D4E901217F
:1003F0009047206A401C2062F1E700255F462046B6
:10040000E16888472028064608DB312E06D207EB34
:10041000060010F8200C08B10543F0E7A80701D545
:1004200025F00405C4F81CA00027C4F818A02A2E43
:1004300009D0304626F0A0F838B304EB8708303EE8
:10044000C8F8186019E059F8041B204604EB87022D
:100450009161E1688847012F064618D1E0690028BC
:1004600020DA25F020051DE0D8F8180000EB800008
:1004700006EB40003038C8F818002046E16888478D
:10048000064626F079F80028EED1012F0AD02E2E4C
:1004900008D12046E16888477F1C0646022F45F0B8
:1004A0002005C4DBA069002803DA404245F00105BD
:1004B000A061E80701D025F0100596B1A6F1410032
:1004C000192802D8203645F400654A4631462046B0
:1004D00025604D46FFF7B2FE60B1012807D0ED1D43
:1004E00000E009E025F0070000F1080977E705F1D1
:1004F000040974E7304679E7206ABDE8F09F000000
:10050000A041040070B5064600F044F904680546B1
:1005100030460A22002100F0CAFB2C6070BD40EA80
:100520000103024630B59B0710D14FF0013400E0C3
:1005300008C208C91D1B9D4315EAC41FF8D013F05B
:10054000FF0102F8011B0DD01B0AF8E711F8013B6F
:10055000002B02F8013B05D011F8013B002B02F8FB
:10056000013BF3D130BD10B5431C02E010F8011B74
:1005700071B18107FAD14FF0013202C88C1A8C4355
:1005800014EAC211F9D0C01A0A0603D0C01E10BD69
:10059000C01A10BD0A0401D0801E10BD0902FCD093
:1005A000401E10BD421E12F8013F002BFBD111F876
:1005B000013B002B02F8013BF9D17047032A40F2BE
:1005C000308010F0030C00F0158011F8013BBCF1F5
:1005D000020F624498BF11F801CB00F8013B38BF0D
:1005E00011F8013BA2F1040298BF00F801CB38BF1B
:1005F00000F8013B11F0030300F06780083AC0F0F7
:10060000088051F8043B083A51F804CBA0E80810E0
:10061000F5E7121D5CBF51F8043B40F8043BAFF313
:100620000080D20724BF11F8013B11F801CB48BF6D
:1006300011F8012B24BF00F8013B00F801CB48BFA3
:1006400000F8012B7047431A28BF9A427FF6B6AFD5
:10065000032A1044114440F2268010F0030F1EBFFD
:1006600011F8013D521E00F8013D10F0030F7FF418
:10067000F6AF11F0030300F06583083AC0F00B8079
:1006800051F8043D083A51F804CD40F8043D40F8D3
:1006900004CDFFF7F3BF121D5CBF51F8043D40F8D5
:1006A000043DAFF30080D20724BF11F8013D11F8DB
:1006B00001CD48BF11F8012C24BF00F8013D00F81E
:1006C00001CD48BF00F8012C704710B5203AC0F0AA
:1006D0000B80B1E81850203AA0E81850B1E8185043
:1006E000A0E81850BFF4F5AF5FEA027C24BFB1E880
:1006F0001850A0E8185044BF18C918C0BDE81040F1
:100700005FEA827C24BF51F8043B40F8043B08BFF9
:100710007047D20728BF31F8023B48BF11F8012BC0
:1007200028BF20F8023B48BF00F8012B704702F0B9
:10073000FF0343EA032242EA024200F02FBB4FF0DC
:10074000000200B5134694469646203922BFA0E821
:100750000C50A0E80C50B1F12001BFF4F7AF09072D
:1007600028BFA0E80C5048BF0CC05DF804EB89001E
:1007700028BF40F8042B08BF704748BF20F8022B61
:1007800011F0804F18BF00F8012B70477047704779
:100790007047000000487047708700202DE9F0473F
:1007A0000D4604469246994600F1240801688806E1
:1007B00004D5E06921F01001216000E00120A84289
:1007C00002DDA0EB050700E00027A16907EB0502A9
:1007D00002EB0900A1EB0000A0612068C00602D472
:1007E0002046FFF78BFD002608E0D4E901211AF826
:1007F00006009047206A401C761C20624E45F4DBC0
:100800002068C0060AD52046FFF778FD06E0D4E947
:10081000012130209047206A401C2062381EA7F139
:100820000107F4DC07E0D4E9012118F8050090473E
:10083000206A401C2062281EA5F10105F3DC204639
:10084000FFF773FD2068000602D50220BDE8F0879F
:100850000120FBE770472DE9FF4F0C461E464FF085
:10086000FF378BB0D2E90001DDF860800A908A463C
:10087000C1F30A5505B93D46002108464FF0000076
:10088000BAF1000F00F4400005DA00EB80004FF4ED
:10089000400101EA50004FEA9059B9F1010F00DD23
:1008A000B9460A9850EA4A000FD044F61050A5F213
:1008B000FF3545432F14B8F1000F1FD07542291E94
:1008C0001FDD4846C9F100021CE0B8F1010F4FF0EE
:1008D000000001D1F24307E0302101E02154401C27
:1008E000B042FBDB30460022002121540B99C1F8B5
:1008F0000880C1E900200FB0BDE8F08FBD1B6D1C62
:10090000DDE74A4600DA694206A800F04DFB06AB77
:1009100007CB03AB07C350460A9900F038FC8DE8BB
:100920000700A0F500501F3800900398002D09DD46
:1009300042F21F014A46084403A90390684600F0AA
:1009400097FE08E0A0F500504A461F3803A903901F
:10095000684600F0A1FE8DE807000004000C03D0FB
:100960004FF0FF30410800E01046B8F1000F03D00F
:100970000022009215461FE0751E06D400F03EFAD4
:1009800002F1300262556D1EF8D5B34601220843CC
:1009900002D000227F1C04E02078302801D1002200
:1009A0007F1E002A099786D01DE0112D07DA00F07E
:1009B00025FA303262556D1C50EA0102F5D1084328
:1009C0000FD10021681E05E0235C625C6354491C62
:1009D0002254401E8142F7DBAB46A81B401E099003
:1009E00001E0009848B1002004F80B000B98099A28
:1009F000C0F80880C0E9002B7DE711264FF0000801
:100A000059E72DE9F04F88460446D21D22F0070130
:100A100091B0D1E90001CDE90A011FF04FFE024675
:100A20000B98C00F01D02D2007E02068810701D569
:100A30002B2002E0202101EAC000032A099001D006
:100A4000072A05DB03464146204600F01DFA0EE169
:100A50002068800601D5E06900E00620B8F1650F46
:100A6000814606D0B8F1660F18D0B8F1670F72D181
:100A700032E00020B9F1110F009001DB112301E0F9
:100A800009F101030AAA01A90CA8FFF7E4FEDDE9B8
:100A90000C70002609F10105834648E001204B4611
:100AA00000904FF000470AAA01A90CA8FFF7D3FE57
:100AB000DDE90C050E990026AB4619B909F10101D3
:100AC00000EB0105B9EB050003D4C0F1FF3609F1D5
:100AD0000105A5EB09002BE0B9F1010F01DA4FF098
:100AE00001090020B9F1110F0090484601DD1123E2
:100AF00000E003460AAA01A90CA8FFF7ACFEDDE955
:100B00000C704D4600268346206800070AD4AB458A
:100B100000DA5D4601A8012D04DD411911F8011C20
:100B2000302907D04F4502DA17F1040F04DA01200B
:100B3000824610E06D1EEEE7002F02DCED1B3E4406
:100B400003E0781CA84200DD0546A7EB060000F193
:100B5000010A4FF000472068000703D4AA4501DBD3
:100B60004FF0FF3A0021B7F1004F0DF143088DF827
:100B7000431022D002202B23002F01DA7F422D23A5
:100B80000A22011EA0F1010000DC4FB197FBF2F137
:100B900002FB117C0F460CF1300C08F801CDF0E798
:100BA000A8F1010003702168090501D5452100E085
:100BB0006521A0F1010800F8011C09980FA9A1EB1B
:100BC000080707F1070700B1012000EB050101EB61
:100BD000EA70A1693844A1EB0000A0F10100A06116
:100BE0002068C00602D42046FFF788FB099830B180
:100BF000D4E901219047206A00F1010020622068B9
:100C0000C00620D52046FFF779FB1CE0002E04DB50
:100C1000B34502DD01A8805D00E03020D4E9012168
:100C20009047206A761C401CBAF1010A20620AD162
:100C300000F0E0F8C0680168405CD4E90121904709
:100C4000206A401C2062281EA5F10105DEDC07E0B9
:100C5000D4E9012118F8010B9047206A401C20625A
:100C6000381EA7F10107F3DC2046FFF75EFB0220E8
:100C700011B041E601694A1C02610878704700B56D
:100C80008FB0CDE901310021059105497944CDE9C5
:100C9000031011466846FFF797FB0FB000BD000038
:100CA000E5FFFFFF0A6802F8010B0A6070472DE9B3
:100CB000F0470F46914680460446002614F8015B33
:100CC0002DB100F08FF80068405DC007F6D12B2DE4
:100CD00002D02D2D18D0641E4A463946204600F019
:100CE00013F927B13968A14201D1C7F800804FF04C
:100CF000020471050BD54042002803DDFFF74AFDD1
:100D00000460A007BDE8F08746F48066E4E70028A9
:100D1000F8DAFFF73FFD04606FF00040F2E7431A96
:100D200028BF9A427FF6D1AC104410F0030F114453
:100D30001EBF11F8013D521E00F8013D10F0030FD7
:100D40007FF4F6AF103AC0F00A8010B531E91850C0
:100D5000103A20E91850BFF4F9AFBDE8104053072E
:100D600024BF31E9081020E9081044BF51F8043DC0
:100D700040F8043D12F0030F08BF7047D20728BFA8
:100D800031F8023D48BF11F8012C28BF20F8023D80
:100D900048BF00F8012C70474FF000020429C0F052
:100DA000128010F0030C3FF4CCACCCF1040CBCF17D
:100DB000020F18BF00F8012BA8BF20F8022BA1EBEF
:100DC0000C01FFF7BEBC5FEAC17C24BF00F8012B19
:100DD00000F8012B48BF00F8012B7047004870470E
:100DE0007087002010B500F005F8001D10BD00BF91
:100DF00071620200004870479087002030B5B0F162
:100E00000A024FEA900E71F100034EEA817EB0EBC8
:100E10000E0061EB91014FEA101E4EEA017E10EBCD
:100E20000E0041EB11114FEA102E4EEA016E10EB4D
:100E30000E0041EB11214FEA104E4EEA014E10EB2D
:100E40000E0041EB1141401841F100014FEAD00082
:100E500040EA41704FEAD10110EB80054FEA81046E
:100E600044EA907444EB01046D1944EB0404521BF2
:100E7000A3414FF0000348BF0A3200D530BD401CEB
:100E800041F1000130BD00002DE9F04104461F464C
:100E900003260168072A01F4006004DB08B116A5E7
:100EA00005E016A503E008B115A500E015A521F0A1
:100EB00010002060A069C01EA0610FB1401EA0619B
:100EC0002046FFF71BFA4FB1D4E90121384690477D
:100ED000206A401C2062C01C206206E0206AFAE7FB
:100EE000D4E9012115F8010B9047761EF8D220466F
:100EF000FFF71BFABDE8F0814E414E006E616E00B7
:100F0000494E4600696E66002DE9F05F82468B46C9
:100F1000154600270AF10104B9460078302801D0AF
:100F20009DB113E014F8010B0127782803D058284D
:100F300001D045B10AE00DB1102D07D1002714F8FA
:100F4000010B102502E0082500E00A250026B04626
:100F50000EE005FB080005FB06F101271FFA80F8EB
:100F600001EB1046B6F5803F00D3B94614F8010BEB
:100F7000294600F0B0F80028EBDABBF1000F05D0ED
:100F80000FB1641E00E05446CBF80040B9F1000FE9
:100F900006D0FFF7FFFB02210160C81EBDE8F09FED
:100FA00048EA0640FAE700002DE9F0478146164678
:100FB0008AB035487844D0E9002380680092CDE9B2
:100FC0000130314878440C38D0E90223006903929B
:100FD0004FF03702CDE9043041F69B30014491FBDC
:100FE000F2F0A0F1800502FB10141B3C02D5644214
:100FF000012000E00020DFF890A080460027FA449E
:10100000AAF1C60A0DE0E00709D03246684607EBB0
:1010100047010AEB810100F03FFB8DE807006410F7
:101020007F1C002CEFD1184F7F44B43F17E0E80736
:1010300013D007EB04100DF1180A90E80E00AAE88F
:101040000E00C068F04201D198190890324606A9F6
:1010500003A800F021FB03AB07C36D10641C002D37
:10106000E5D132466946B8F1000F03A802D000F07E
:10107000FFFA01E000F010FBC9E90001C9F80820FF
:101080000AB0BDE8F0870000543604007546FFF74B
:10109000A5FEAE4605006946534620F0070085468A
:1010A00018B020B5FFF704F9BDE820404FF0000666
:1010B0004FF000074FF000084FF0000B21F0070140
:1010C000AC46ACE8C009ACE8C009ACE8C009ACE883
:1010D000C0098D4670473A2800D2303820F02002EF
:1010E000412A01D3A2F13700884201D34FF0FF30EB
:1010F00070470446AFF300802046FFF7C4F80000B5
:101100004FF0013C50F8042B51F8043B9A4221D196
:10111000A2EB0C03934313EACC1317D150F8042B22
:1011200051F8043B9A4215D1A2EB0C03934313EA06
:10113000CC130BD150F8042B51F8043B9A4209D13F
:10114000A2EB0C03934313EACC13DBD04FF0000067
:10115000704700BFD01A01BAB1FA81F101F018014D
:1011600022FA01F0CB40C1F12001DBB2C0B2C01ABB
:101170002CFA01F3D11A914311EAC311E6D1704759
:1011800001491820ABBEFEE72600020070475FEA67
:10119000400C08BF91F0000F4FEA8C234FEAC122A8
:1011A00043EA51514FEA1C5018BF00F5F0404FEA96
:1011B000300018BF41F000415FEA6C5C00F029800C
:1011C000BCF1FF3F08BF40F080407047130C06BFE2
:1011D00012044FF0100C4FF0000C130E04BF12025B
:1011E0000CF1080C130F04BF12010CF1040C930F47
:1011F00004BF92000CF1020CD30F04BF52000CF19B
:10120000010C11464FF00002A0F11F00A0EB0C00F2
:10121000704711F0004F08BF704731F000413FF4B4
:10122000D5AF0B0C06BF09044FF0100C4FF0000CAB
:101230000B0E04BF09020CF1080C0B0F04BF0901CF
:101240000CF1040C8B0F04BF89000CF1020CCB0FC6
:1012500004BF49000CF1010CCCF12003A0EB0C0001
:1012600022FA03F302FA0CF241EA030100F1010051
:10127000704720F07F4C80EA030023F07F47ACEBFF
:10128000070303F57C5300F0004003F1FF032DE951
:1012900080494FEA154B09B44FEA144325EA0B4E37
:1012A00024EA03480FF2042606EB132749083E7888
:1012B0005FEA320203FB0667C7F5000707FB06F685
:1012C0004FEA54374FEAD64606F1020607FB066C92
:1012D000CCF1005C4FEA1C472CEA074C07FB06F4F4
:1012E0000CFB06F504EB15464FEA961634BF0020BA
:1012F0004FF000404FEAD13706FB07FC4FEA1C4C89
:101300000CFB0BF7D21B03FB0CF761EB07010CFB8B
:101310000EF7B0EB074072EB17420CFB08F734BF37
:10132000A2EB0742B2EB074261EB17414FEA0C44D4
:101330004FEA910706FB07FC4FEA1C4C0CFB0BF72E
:10134000B0EBC74072EB573203FB0CF734BFA2EB94
:10135000C742B2EBC74261EB57310CFB0EF7B0EB63
:10136000C70072EB57720CFB08F734BFA2EBC70241
:10137000B2EBC70261EB5771039F4FEA816141EA0B
:10138000921104EBCC044FEAD1374FEA826206FB9C
:1013900007FC42EA90124FEA80604FEA1C4C0CFBBB
:1013A0000BF7D21B03FB0CF761EB07010CFB0EF7ED
:1013B000B0EB074072EB17420CFB08F734BFA2EB0F
:1013C0000742B2EB074261EB17414FEA8C554FEAF7
:1013D000910704EB9C2406FB07FC4FEA1C4C0CFB1A
:1013E0000BF7B0EBC74072EB573203FB0CF734BF7F
:1013F000A2EBC742B2EBC74261EB57310CFB0EF7D1
:10140000B0EBC70072EB57720CFB08F734BFA2EBCE
:10141000C702B2EBC70261EB577115EB4C254FEADF
:10142000816141EA92114FEA82624FEAD13742EA82
:10143000901206FB07FC44F100044FEA80604FEA7B
:101440001C4C0CFB0BF7D21B03FB0CF761EB0701E9
:101450000CFB0EF7B0EB074072EB17420CFB08F7E2
:1014600034BFA2EB0742B2EB074261EB174115EB29
:101470001C154FEA813141EA92414FEA823242EA39
:1014800090424FEA80304FEA0C7644F1000448EA7B
:1014900003434EEA0B484FF0000EB2EB080C71EB21
:1014A000030724BF624639464EEB0E0E4FF0000B89
:1014B0000018524149414BEB0B0BB2EB080C71EB9E
:1014C00003077BF1000B24BF624639464EEB0E0E3C
:1014D0004FF0000B0018524149414BEB0B0BB2EBA4
:1014E000080C71EB03077BF1000B24BF6246394601
:1014F0004EEB0E0E51EA020718BF46F0010616EB3E
:101500000E7655F1000254F1000103D5BDE88901C2
:10151000BDE80088BDE88901BDE80048B619524120
:1015200041EB0101A3F10103704780807F7E7D7C48
:101530007B7A7978777676757473727171706F6E65
:101540006E6D6C6C6B6A6A69686867666665646410
:10155000636362616160605F5F5E5E5D5D5C5C5B9A
:101560005B5A5A5959585857575656555555545409
:10157000535352525251515050504F4F4F4E4E4D67
:101580004D4D4C4C4C4B4B4B4A4A4A4949494848B3
:1015900048474747474646464545454444444443F3
:1015A00043434342424242414141002B26D477000B
:1015B00021D01CB54FEA370703B44FF010004FF0AD
:1015C00010014FF000000FBCBDE810400BF1010B03
:1015D000BBF1010F08BF5FEA170722BF12F101023A
:1015E00011F101014FF0004143F1000300F0004010
:1015F00043EA00007047F9D35708DAE746EA06469F
:1016000013F1400F4FEA16461FDD13F1200FDFBF25
:1016100016430A46002120335B42C8D0C3F120079D
:1016200046EA064602FA07F74FEA164646EA070672
:10163000C3F1200722FA03F201FA07F721FA03F1B6
:101640004FF0000342EA0702B1E746EA020646EA23
:1016500006464FEA164646EA0106BCBF46EA06467B
:10166000360C4FF000034FF000024FF000019EE7F0
:101670002DE9C048934630B491E8380007C831EAF4
:10168000400C48BF34EA430C03D5FFF7F2FDFFF7E7
:101690008CFFF0BCBDE800882DE9C048934630B40B
:1016A00091E8380007C810F0804F08BF13F0804F52
:1016B00003D100F005F8FFF778FFF0BCBDE8008823
:1016C00020F07F4780EA030023F07F4C07EB0C03F8
:1016D000A3F57C5300F00040A3F1FE0392F0000F4D
:1016E00000F0B38095F0000F00F077802DE90149FC
:1016F0004FEA11404FEA144621EA004800FB06FC7D
:1017000024EA064708FB06F607FB08F800FB07F784
:1017100018EB06484CEB164C4FEA124B18EB0748F7
:101720004FEA15464CEB174022EA0B4E0BFB06FC2A
:1017300025EA06470EFB06F607FB0EFE0BFB07F736
:101740001EEB064E4CEB164C4FF000061EEB074E00
:101750004CEB174B18EB0B0840F1000018EB0E0B8D
:1017600058EB000840F100008F1A4FF000013CBF19
:10177000C943661B14BFB5EB040C00213CBFC94331
:10178000F61B4FEA17444EEA8E0E27EA04454FEA4D
:101790001C4704FB07622CEA074C05FB07F70CFB10
:1017A00005F604FB0CFC16EB074642EB174216EB62
:1017B0000C4642EB1C421BEB060658EB0202414171
:1017C00046EA9E0601D5BDE80189B619524141EBB2
:1017D0000101A3F10103BDE801894FEA14454FEA75
:1017E000114724EA054621EA074C05FB07F406FBEE
:1017F00007F70CFB06F105FB0CFC11EB074144EB72
:1018000017444FEA124711EB0C4144EB1C4422EA07
:10181000074C05FB07F206FB07F70CFB06F605FB7A
:101820000CFC16EB074642EB174216EB0C4642EB5C
:101830001C456A1854F1000148BF7047B61952415F
:1018400041EB0101A3F10103704795F0000F37D080
:101850004FEA11424FEA144721EA024624EA074CB4
:1018600002FB07F106FB07F70CFB06F402FB0CFC7E
:1018700014EB074441EB17414FEA154714EB0C44B6
:1018800041EB1C4125EA074C02FB07F506FB07F775
:101890000CFB06F602FB0CFC16EB074645EB174566
:1018A00016EB0C4645EB1C42121951F1000148BFE2
:1018B0007047B619524141EB0101A3F10103704792
:1018C0004FEA14454FEA114724EA054621EA074C3E
:1018D00005FB07F106FB07F70CFB06F24FF00006CD
:1018E00005FB0CFC12EB074241EB174112EB0C42DB
:1018F00051EB1C4148BF7047921841EB0101A3F125
:10190000010370474FF47A7001E0401E80B2002856
:10191000FBD1704740F6B83001E0401E80B200288D
:10192000FBD170472DE9FC4102268DF805600124AA
:101930008DF8044000258DF80650402000901A4F85
:101940006946384604F08AFB8DF805608DF804403E
:101950008DF80650082000906946384604F07EFB5A
:101960008DF805608DF804408DF806502020009019
:101970006946384604F072FB8DF804508DF8074034
:10198000102000906946384604F068FB4021384634
:1019900004F0BAFB2021384604F0B6FB0821384693
:1019A00004F0B2FBBDE8FC81000402402DE9F041E7
:1019B0000024384D0CE02146012011F027FC25F8C9
:1019C0001400FFF7A7FFE888AF882E89641CE4B2F3
:1019D000082CF0D3304C61784A1C6270DFF8B48078
:1019E00008F1240828F8110060780025082800D1A3
:1019F000657028480821243000F092FC0021022064
:101A000004E038F810201144401CC0B20628F8D376
:101A1000880822490880A078411CA170DFF87480F2
:101A200008F1380828F81070A078082800D1A570AF
:101A300018480821383000F073FC0021022004E02F
:101A400038F810201144401CC0B20628F8D388088A
:101A5000134908602078411C21700E4F103727F879
:101A600010602078082800D125700A48082110301D
:101A700000F056FC0021022004E037F81020114449
:101A8000401CC0B20628F8D3880806490860BDE8A3
:101A9000F0810000D80C0020050100206800002023
:101AA000700000206C000020F0B59BB001210F02F7
:101AB00038460FF01DFD012188050FF0F5FC0420CC
:101AC000009003258DF8045000248DF807403C4E0B
:101AD0006946304604F0C2FA082000908DF80450A0
:101AE0008DF807406946304604F0B8FA402000906F
:101AF0008DF804508DF807406946304604F0AEFA80
:101B0000119412941394149411A800F00FF91594E1
:101B100001268DF858608DF85960189419948DF845
:101B20006850284D15A9284600F02EF904230122FB
:101B30000221284600F04EF90523022203212846FF
:101B400000F048F9002303220621284600F042F95C
:101B50000121284600F0DEF8284600F079F901213D
:101B6000284600F006F9029416484C3003901648B7
:101B7000049005949620069007942815089040003C
:101B8000099080000A900B9700010C900D940E961E
:101B90000F9410940D4C02A9204602F0AFF80121D9
:101BA000204602F087F801221021204602F08DF82D
:101BB00002F042F80121284600F0D0F81BB0F0BD39
:101BC0000000024000200140E808002010640240AC
:101BD0002DE9F04100204C4F032507F5967606F1DC
:101BE00064044A4A04F1640328E0B0FBF5F105FB04
:101BF000110121B102290CD0012914D01CE037F8C1
:101C000010C0117801F1010882F8008026F811C097
:101C100012E037F810C0517801F1010882F8018014
:101C200023F811C008E037F810C0D17801F101089D
:101C300082F8038024F811C0401C80B29628D4D3C7
:101C40000025157055709570D5700021002004E0B6
:101C500036F810703944401CC0B23228F8D31079DD
:101C60002B4F3226142806D2B1FBF6F0117927F853
:101C7000110000210FE00021012004E037F810C01E
:101C80006144401CC0B21328F8D31320B1FBF0F01C
:101C90001081002115711079401C1071002004E0A2
:101CA00034F810703944401CC0B23228F8D350794F
:101CB000174C28341E2806D2B1FBF6F0517924F8CF
:101CC000110000210FE00021012004E034F8107021
:101CD0003944401CC0B21D28F8D31D20B1FBF0F0E0
:101CE0005081002155715079401C5071002004E052
:101CF00033F810402144401CC0B23228F8D3B1FB65
:101D0000F6F0D080BDE8F081E80800205C000020FB
:101D1000400B002021B1816841F0010181607047D2
:101D2000816821F0010181607047000010B5094C05
:101D30002268094902EA0102D0E9001341EA0301DD
:101D4000D0E9023043EA000341EA030141EA02011B
:101D5000216010BD04230140E030FCFF21B1816807
:101D600041F4807181607047816821F480718160E5
:101D7000704721B1816841F40071816070478168CA
:101D800021F400718160704730B542680F4B1A40F2
:101D90000C790B6842EA04221343436083680C4ABF
:101DA0001340D1E9034222434D798C6844EA45044B
:101DB00022431A438260C26A22F47002097D491EDE
:101DC000C9B242EA0151C16230BD0000FFFEFFFC12
:101DD000FDF7FFC070B5072609290ED9D0F80CC051
:101DE000A1F10A0404EB4404A6402CEA060CA3402B
:101DF0004CEA030CC0F80CC007E0056901EB410494
:101E0000A640B543A3401D4305611F23072A09D2FD
:101E1000446B521E02EB820293409C4391400C4360
:101E2000446370BD0D2A09D2046BD21F02EB8202FB
:101E300093409C4391400C43046370BDC46A0D3AC7
:101E400002EB820293409C4391400C43C46270BDFC
:101E5000816841F0804181607047002800DC404289
:101E60007047000010B50C480068400612D40B4CB7
:101E7000206841070ED5020609484FF4007103D4CB
:101E8000BDE8104004F040B904F03CF9206820F0AF
:101E90000400206010BD00003C0000203400002041
:101EA000000802400549086840F00400044B002285
:101EB0001A8020F080000860704700003400002085
:101EC0007C00002038B5456804460146284614F0D9
:101ED000E9F800282AD02068304A0F2819D006DCFB
:101EE0000B2824D00C2810D00E2851D12FE0112817
:101EF00002D028284CD145E09268002A16D021460D
:101F0000284601B0BDE830401047214628465268B7
:101F1000F7E7284605F040F80090406E04686846F0
:101F200005F084F8002C01D02846A04738BD28468B
:101F300005F032F80090683004F096FF0098032115
:101F40006C3004F099FF684605F070F820E0E16815
:101F5000486809680D2902D0202913D105E000281E
:101F600010DD28461BF0C2F906E0002804DD2846F3
:101F7000BDE838401BF0BAB92846BDE83840022118
:101F80001BF0CAB9E06818B90021284600F097F99B
:101F90002046BDE8384014F0F9BC00005C02002087
:101FA000F0B5044685B08069B4F90850668A002708
:101FB000CDE90265CDE900170490B4F90C00B4F93D
:101FC0001060C118B4F90A00B4F90E501044334639
:101FD0002A4600F007F80546616800F079F905B077
:101FE0002846F0BDF0B585B00C46DDE90D514C3109
:101FF000DFF850C0DDE90A67CDE902C12146CDE92D
:10200000006714F013FC040018D004F0C5FF102280
:102010002946049014F06AFA049830220A493430B0
:10202000FEF753FB084D04990C3D2868486604A848
:1020300004F0FCFF286841682046884705B0204628
:10204000F0BD0000C51E000868020020F0B504467F
:1020500080688B4989B051F82050606800287DD095
:10206000052804D006287AD0122879D1AEE0E86994
:1020700000284FD095E80E008DE80F0004F1100104
:102080000FC907F03DFB002655F8260006F09CFB23
:10209000A169E8690A1A216901446069304405F0C0
:1020A0001DFDA169E8690A1A21690144E069801BE4
:1020B00005F014FDE169E8690A1A616901442069C3
:1020C000304405F0C7FDE169E8690A1A6169014415
:1020D000A069801B05F0BEFD761C022ED4DBA8682B
:1020E00006F072FBE069E9696669431A20694218E3
:1020F000521E3144801C05F017FEE169E869A269AF
:102100000B1A61690144101A401C921E05F00CFE66
:10211000EE6913E05FF0000655F8260006F054FB68
:10212000E069831BA069821B6069811920693044C2
:1021300005F052FD761C022EEEDB0226D5E90301E6
:10214000CDE900016169E06908444310A069891C78
:10215000821B2069304405F069FC02E089E012E04E
:102160008AE0D5E90501CDE90001E3696069012153
:10217000184401EB6001A0699B1E821B206930445A
:1021800005F054FC78E0206804F006FF0490206815
:1021900015F02CFC40B1A06808B1002008E00498BC
:1021A000006F28B1012003E00498406F00B10220C5
:1021B000049901EB8000C56E04A804F037FF0023EA
:1021C0001A462846216805F0C3F955E0206804F056
:1021D000E3FE0490866EEEB3B0F95C70A168D1B3F3
:1021E000032942D05FF0000100EB8101406D0C6CCF
:1021F00006F0F4FA204606F0E7FA05A805F0E4FD3B
:10220000BDF81410A88B0144ADF81410BDF81810D7
:10221000081AADF81800BDF81600801CADF81600BD
:10222000BDF81A00801EADF81A0004985E30B0F9AF
:102230000220B0F9001005A806F024FA04A804F062
:10224000F5FE022006F00AFB304604F0A5FE3A46F1
:1022500005A901E00BE006E0079005F071FA07A878
:1022600004F0E4FE08E00121BEE70221BCE704A877
:10227000F6E7206815F07EF809B00020F0BD0000F8
:10228000740D0408044A0349116004494A6A48620B
:1022900010467047980200205C020020680200206F
:1022A00038B50D46040009D004F076FE009045656F
:1022B000684604F0BBFE204614F05FFE38BD4FF4C4
:1022C00080720029114601D013F076BF13F0C7BE0B
:1022D0002DE9FF410E4605004FF001041CD004F02B
:1022E0005BFE0190876E01A8009704F09FFE3146C7
:1022F000684607F0E5FC78B100980024B84208D0A1
:10230000284604F049FE01900099816601A804F076
:102310008DFE284614F031FE04B02046BDE8F08161
:1023200030B5002315E01A460FE030F8124030F8BF
:102330001350AC4207D930F813C030F8124020F8DF
:10234000134020F812C0521CD2B28A42EDD35B1C5B
:10235000DBB28B42E7D330BDFEE700002DE9F05F32
:102360007C4D29787C486FF07046193937118269A5
:1023700040F66F044FF4076840F6770940F6780A94
:1023800040F6710B0C2925D2DFE801F006264564E2
:102390002424242483A324C481462146104614F017
:1023A00003FC04463146204612F050F939462046D7
:1023B00012F09EF94146D9F8180014F0F5FB0446D6
:1023C0006649204612F042F90021204612F090F9A9
:1023D0001A202870BDE8F09F41468046104614F050
:1023E000E3FB04463146204612F030F939462046D8
:1023F00012F07EF94946D8F8180014F0D5FB0446CF
:102400005649204612F022F90021204612F070F9B8
:102410001B202870DEE780464946104614F0C4FBB6
:1024200004463146204612F011F93946204612F092
:102430005FF95146D8F8180014F0B6FB0446474936
:10244000204612F003F90021204612F051F91C2019
:102450002870BFE780465146104614F0A5FB04469D
:102460003146204612F0F2F83946204612F040F983
:102470005946D8F8180014F097FB0446374920460F
:1024800012F0E4F80021204612F032F921202870E1
:10249000A0E780465946104614F086FB04463146B4
:1024A000204612F0D3F83946204612F021F940F6C2
:1024B0007901D8F8180014F077FB04462749204624
:1024C00012F0C4F80021204612F012F922202870E0
:1024D00080E7804640F67901104614F065FB04461B
:1024E0003146204612F0B2F83946204612F000F983
:1024F00040F67201D8F8180014F056FB044617494C
:10250000204612F0A3F80021204612F0F1F8242012
:1025100028705FE7814640F67201104614F044FBD4
:1025200080463146404612F091F83946404612F056
:10253000DFF82146D9F8180014F036FB04460749A5
:10254000204612F083F80021204612F0D1F819201D
:1025500028703FE76D01002078010020FFFFBF00D9
:10256000F0B52DED028B83B0B0480178B04A9FEDF5
:10257000B10AB14D00260127A869192938D0DFED2D
:10258000AF0A1A297ED0AE4A1B297CD01C292BD138
:10259000297C40F678031C1D022975D0297C01296D
:1025A00022D1D18800EE101AB8EE400A80EE208ABF
:1025B000194614F0F9FAA3A112F075F82146A8699A
:1025C00014F0F2FA044618EE100A25F05DFA41EC18
:1025D000100BA0A153EC102B01A8FDF77BFE01A965
:1025E000204612F060F82E7403B0BDEC028BF0BDF3
:1025F000697B40F66F031C1D012927D0697B0229E6
:10260000F2D1D2F8801000EE901AF8EE600A80EE57
:10261000808A194614F0C8FA90A112F044F82146B5
:10262000A86914F0C1FA044618EE100A25F02CFA35
:1026300041EC100B8DA153EC102B01A8FDF74AFEC5
:1026400001A9204612F02FF86F73CDE7D16F00EE8D
:10265000901AF8EE600A80EE808A194614F0A4FA07
:1026600084A112F020F82146A86914F09DFA0446CE
:1026700018EE100A25F008FA41EC100B7BA153EC80
:10268000102B02E00AE05CE0ACE001A8FDF722FEBE
:1026900001A9204612F007F86E73A5E7A97B4FF455
:1026A00007631C1D022927D0A97B01299CD1D2F8E0
:1026B000881000EE101AB8EE400A80EE208A194603
:1026C00014F072FA6FA111F0EEFF2146A86914F020
:1026D0006BFA044618EE100A25F0D6F941EC100BFF
:1026E0005CA153EC102B01A8FDF7F4FD01A92046D5
:1026F00011F0D9FFAE7377E7D2F88C1000EE101A04
:10270000B8EE400A80EE208A194614F04DFA61A115
:1027100011F0C9FF2146A86914F046FA044618EEE4
:10272000100A25F0B1F941EC100B4AA153EC102B23
:1027300001A8FDF7CFFD01A9204611F0B4FFAF734A
:1027400052E7E97B40F677031C1D022926D0E97B7E
:102750000129A2D1118800EE901AF8EE600A80EEED
:10276000808A194614F020FA4EA111F09CFF2146F0
:10277000A86914F019FA044618EE100A25F084F935
:1027800041EC100B39A153EC102B01A8FDF7A2FD71
:1027900001A9204611F087FFEE7325E7518800EE6E
:1027A000901AF8EE600A80EE808A194614F0FCF95F
:1027B00040A111F078FF2146A86914F0F5F904460C
:1027C00018EE100A25F060F941EC100B27A153EC2C
:1027D000102B01A8FDF77EFD01A9204611F063FF33
:1027E000EF7301E7118900EE101AB8EE400A80EE8F
:1027F000208A194614F0D8F932A111F054FF21466D
:10280000A86914F0D1F9044618EE100A25F03CF935
:1028100041EC100B0FA153EC102B01A8FDF75AFD52
:1028200001A9204611F03FFF2F74DDE66D01002065
:102830000C0C00200000C8427801002000007A44FF
:1028400024850020E688AAE6ADA2E794B5E6B58126
:1028500031000000252E336600000000E8BE93E53D
:1028600087BAE794B5E58E8B32000000252E3266DC
:1028700000000000E8BE93E587BAE794B5E58E8BCB
:1028800031000000E99990E588B6E794B5E6B58196
:1028900031000000E99990E588B6E794B5E6B58186
:1028A00032000000E688AAE6ADA2E794B5E58E8B7B
:1028B00031000000E688AAE6ADA2E794B5E58E8B6C
:1028C00032000000E688AAE6ADA2E794B5E6B5813D
:1028D00032000000F0B52DED028B83B0AF480178D7
:1028E000AF4A9FEDB00AB04D01260227A869192909
:1028F00038D0DFEDAE0A1A297ED0AD4A1B297CD034
:102900001C292BD1297C40F678031C1D002975D089
:10291000297C012922D1518900EE101AB8EE400A13
:1029200080EE208A194614F03FF9A2A111F0BBFEF7
:102930002146A86914F038F9044618EE100A25F06B
:10294000A3F841EC100B9FA153EC102B01A8FDF74D
:10295000C1FC01A9204611F0A6FE2F7403B0BDEC06
:10296000028BF0BD697B40F66F031C1D39B3697B98
:102970000129F3D1D2F8841000EE901AF8EE600A23
:1029800080EE808A194614F00FF990A111F08BFEA9
:102990002146A86914F008F9044618EE100A25F03B
:1029A00073F841EC100B8DA153EC102B01A8FDF72F
:1029B00091FC01A9204611F076FE6F73CEE7D2F8A4
:1029C000801000EE901AF8EE600A80EE808A1946B8
:1029D00014F0EAF883A111F066FE2146A86914F00C
:1029E000E3F8044618EE100A25F04EF841EC100BFF
:1029F0007AA153EC102B02E00AE05BE0AAE001A808
:102A0000FDF768FC01A9204611F04DFE6E73A5E7A5
:102A1000A97B4FF407631C1D39B3A97B01299DD104
:102A2000D2F8901000EE101AB8EE400A80EE208A1C
:102A3000194614F0B9F86FA111F035FE2146A869C6
:102A400014F0B2F8044618EE100A25F01DF841EC17
:102A5000100B5CA153EC102B01A8FDF73BFC01A966
:102A6000204611F020FEAF7378E7D2F88C1000EE0C
:102A7000101AB8EE400A80EE208A194614F094F835
:102A800060A111F010FE2146A86914F08DF80446EB
:102A900018EE100A24F0F8FF41EC100B49A153EC9A
:102AA000102B01A8FDF716FC01A9204611F0FBFD33
:102AB000AE7353E7E97B40F677031C1D31B3E97B26
:102AC0000129A4D1918800EE901AF8EE600A80EEF8
:102AD000808A194614F068F84EA111F0E4FD2146F1
:102AE000A86914F061F8044618EE100A24F0CCFF2F
:102AF00041EC100B39A153EC102B01A8FDF7EAFBB8
:102B000001A9204611F0CFFDEF7327E7518800EEB1
:102B1000901AF8EE600A80EE808A194614F044F8A4
:102B200040A111F0C0FD2146A86914F03DF804460B
:102B300018EE100A24F0A8FF41EC100B27A153EC6B
:102B4000102B01A8FDF7C6FB01A9204611F0ABFD33
:102B5000EE7303E7118900EE101AB8EE400A80EE1A
:102B6000208A194614F020F832A111F09CFD21466C
:102B7000A86914F019F8044618EE100A24F084FF2E
:102B800041EC100B0FA153EC102B01A8FDF7A2FB99
:102B900001A9204611F087FD2E74DFE66D010020AB
:102BA0000C0C00200000C8427801002000007A448C
:102BB00024850020E688AAE6ADA2E794B5E6B581B3
:102BC00033000000252E336600000000E8BE93E5C8
:102BD00087BAE794B5E58E8B33000000252E326668
:102BE00000000000E8BE93E587BAE794B5E58E8B58
:102BF00032000000E99990E588B6E794B5E6B58122
:102C000033000000E99990E588B6E794B5E6B58110
:102C100032000000E688AAE6ADA2E794B5E58E8B07
:102C200033000000E688AAE6ADA2E794B5E58E8BF6
:102C300032000000E688AAE6ADA2E794B5E6B581C9
:102C4000320000002DE9F05F7D4D29787D4819396B
:102C500040F66F0782696FF070464FF4076840F6E0
:102C6000770940F6780A40F6710B40F679040C2992
:102C700026D2DFE801F0062747662525252585A40D
:102C800025C339460746104613F08EFF04463146E9
:102C9000204611F0DBFC6FF07F41204611F028FD4B
:102CA00040F67201B86913F07FFF0446664920467A
:102CB00011F0CCFC0021204611F01AFD24202870D0
:102CC000BDE8F09F41468046104613F06DFF044674
:102CD0003146204611F0BAFC6FF07F41204611F0DA
:102CE00007FD3946D8F8180013F05EFF0446564930
:102CF000204611F0ABFC0021204611F0F9FC192010
:102D00002870DDE707464946104613F04DFF04469C
:102D10003146204611F09AFC6FF07F41204611F0B9
:102D2000E7FC4146B86913F03FFF04464649204698
:102D300011F08CFC0021204611F0DAFC1A202870DA
:102D4000BEE707465146104613F02EFF04463146B3
:102D5000204611F07BFC6FF07F41204611F0C8FC4B
:102D60004946B86913F020FF04463749204611F060
:102D70006DFC0021204611F0BBFC1B2028709FE752
:102D800007465946104613F00FFF044631462046C9
:102D900011F05CFC6FF07F41204611F0A9FC514618
:102DA000B86913F001FF04462749204611F04EFC94
:102DB0000021204611F09CFC1C20287080E707466B
:102DC0002146104613F0F0FE04463146204611F02D
:102DD0003DFC6FF07F41204611F08AFC5946B869EE
:102DE00013F0E2FE04461849204611F02FFC0021A2
:102DF000204611F07DFC2120287061E7804640F6D6
:102E00007201104613F0D0FE07463146384611F0E5
:102E10001DFC6FF07F41384611F06AFC2146D8F85E
:102E2000180013F0C1FE04460749204611F00EFCBD
:102E30000021204611F05CFC2220287040E70000B1
:102E40006D01002078010020FFFFBF002DE9F04F49
:102E50002DED048B83B0F948406E00EE100AB8EEF9
:102E6000400ADFEDF70A80EE208AF448806E00EE1B
:102E7000100AB8EE400ADFEDF30AC0EE208AEF48F0
:102E8000C06E00EE100AB8EE400ADFEDEE0A80EEEA
:102E9000209AEA48006F00EE100AB8EE400ADFED13
:102EA000E80AC0EE209AE8480178EB481939012475
:102EB000E64DE74EE74F806940F66F0940F6730A2A
:102EC0004FF4076B40F67908102932D2DFE801F0A1
:102ED0000890FDFC36BAFBFAF9F8F7F6F5F4F3F2D0
:102EE0004946DD4F13F060FE06466FF070413046F4
:102EF00011F0ACFB6FF07F41304611F0F9FB514609
:102F0000B86913F051FE0646D449304611F09EFBD5
:102F10000021304611F0ECFB0020D14A002102E0F4
:102F20001154401CC0B20528FAD3C7491D200870AF
:102F30002C7003B0BDEC048BBDE8F08F5146DFF878
:102F4000188313F031FE07466FF07041384611F0D8
:102F50007DFB6FF07F41384611F0CAFB98F80D00F9
:102F600040B198F80D00012808D098F80D0002280B
:102F700009D00CE0B148C16F416008E0AF48D0F81B
:102F80008010416003E0AD48D0F884104160AB4848
:102F9000406800EE100AF8EE400A9FEDA91A80EE94
:102FA000810A10EE100A24F06FFD41EC100BADA168
:102FB00053EC102B01A8FDF78DF901A9384611F04B
:102FC00072FB4946D8F8180013F0EEFD0746A349F6
:102FD000384611F03BFB0021384611F089FB9A4935
:102FE000192008702C700020307014F065FFA0E7E5
:102FF0005946994D13F0D8FD04466FF070412046B4
:1030000011F024FB6FF07F41204611F071FB00208E
:103010009349002202E00A54401CC0B20528FAD3AA
:1030200040F67401A86913F0BFFD04468B492046A1
:1030300011F00CFB0021204611F05AFB82491E20A2
:10304000087076E740F67401DFF80C8213F0ACFDEF
:1030500007466FF07041384611F0F8FA6FF07F4183
:10306000384611F045FB98F80E0040B198F80E0074
:10307000012809D098F80E0002280AD00DE06F4808
:10308000D0F88810816008E06C48D0F88C1081601E
:1030900003E06A48D0F8901081606848826841F285
:1030A00088318A4200D98160806800EE100AF8EE0B
:1030B000400A0BE0FAE195E107E15DE0A7E2CAE131
:1030C00066E12BE2C5E254E2D4E02AE09FED5D1A0E
:1030D00080EE810A10EE100A24F0D6FC41EC100BB1
:1030E00062A153EC102B01A8FDF7F4F801A93846B2
:1030F00011F0D9FA5946D8F8180013F055FD0746D3
:103100005649384611F0A2FA0021384611F0F0FA7B
:103110004D491A2008702C700020307014F0CCFE3D
:1031200007E740F677014C4D13F03EFD04466FF083
:103130007041204611F08AFA6FF07F41204611F06D
:10314000D7FA0020464A002102E01154401CC0B2C8
:103150000528FAD340F67B01A86913F025FD044643
:103160003E49204611F072FA0021204611F0C0FAC3
:10317000354925200870DCE640F67B01DFF8D89061
:1031800013F012FD80466FF07041404611F05EFA78
:103190006FF07F41404611F0ABFA99F80F0040B153
:1031A00099F80F0001280ED099F80F00022814D0CA
:1031B0001CE03888DFED220A00EE100AB8EE400A63
:1031C00080EE208A12E07888DFED1D0A00EE100AFA
:1031D000B8EE400A80EE208A08E0B888DFED180AD1
:1031E00000EE100AB8EE400A80EE208A18EE100AAF
:1031F00024F04AFC41EC100B1AA153EC102B01A84F
:10320000FDF768F801A9404611F04DFA40F6770144
:10321000D9F8180013F0C8FC07461049384611F0D9
:1032200015FA0021384611F063FA07491B2008708F
:103230002C700020307014F03FFE7AE60C0C002059
:103240000000C84200007A446D0100201C010020EB
:103250001D0100202485002078010020FFFFBF0011
:1032600064010020252E326600000000252E336602
:103270000000000040F67801FE4D13F095FC044676
:103280006FF07041204611F0E1F96FF07F41204668
:1032900011F02EFA0020F84A002102E01154401CDF
:1032A000C0B20528FAD340F67C01A86913F07CFC73
:1032B0000446F249204611F0C9F90021204611F0D8
:1032C00017FAEF492620087033E640F67C01DFF854
:1032D000A49313F069FC80466FF07041404611F0F2
:1032E000B5F96FF07F41404611F002FA99F81000ED
:1032F00040B199F8100001280ED099F8100002286A
:1033000014D01CE0F8885FED310A00EE100AB8EE28
:10331000400AC0EE208A12E038895FED360A00EEDE
:10332000100AB8EE400AC0EE208A08E078895FED06
:103330003B0A00EE100AB8EE400AC0EE208A18EEF2
:10334000900A24F0A1FB41EC100B53EC102BAFF2D0
:10335000E40101A8FCF7BEFF01A9404611F0A3F962
:1033600040F67801D9F8180013F01EFC0746C3494F
:10337000384611F06BF90021384611F0B9F9C0490F
:103380001C2008702C700020307014F095FDD0E5E2
:103390004146B84D13F008FC04466FF070412046DA
:1033A00011F054F96FF07F41204611F0A1F900208F
:1033B000B149002202E00A54401CC0B20528FAD3E9
:1033C00040F67D01A86913F0EFFB0446AB492046A7
:1033D00011F03CF90021204611F08AF9A849272074
:1033E0000870A6E540F67D01DFF8889213F0DCFB5B
:1033F00007466FF07041384611F028F96FF07F41B1
:10340000384611F075F919EE100A24F03DFB41EC35
:10341000100B53EC102BAFF2AC1101A8FCF75AFFC4
:1034200001A9384611F03FF94146D9F8180013F0C8
:10343000BBFB07469149384611F008F90021384690
:1034400011F056F98E49222008702C70002030703F
:1034500014F032FD6DE540F67A01864D13F0A4FBC1
:1034600004466FF07041204611F0F0F86FF07F4194
:10347000204611F03DF900207F4A002102E011545E
:10348000401CC0B20528FAD340F67E01A86913F0AB
:103490008BFB04467949204611F0D8F800212046DC
:1034A00011F026F976492820087042E540F67E01A1
:1034B000DFF8C08113F078FB07466FF070413846A3
:1034C00011F0C4F86FF07F41384611F011F919EE90
:1034D000900A24F0D9FA41EC100B53EC102BAFF208
:1034E0007C2101A8FCF7F6FE01A9384611F0DBF8B3
:1034F00040F67A01D8F8180013F056FB07465F49EA
:10350000384611F0A3F80021384611F0F1F85C4973
:10351000232008702C70002030700AE540F67101FD
:10352000544D13F041FB04466FF07041204611F0FA
:103530008DF86FF07F41204611F0DAF800204E4AF6
:10354000002102E01154401CC0B20528FAD340F615
:103550007501A86913F028FB04464849204611F07C
:1035600075F80021204611F0C3F845491F20087066
:10357000DFE440F67501DFF8FC8013F015FB074629
:103580006FF07041384611F061F86FF07F413846B6
:1035900011F0AEF83B48D0F89C10016101694EF67D
:1035A0006022914201D900210161006900EE100AF8
:1035B000F8EE400A1FEDDD1A80EE810A10EE100AC7
:1035C00024F062FA41EC100B53EC102BAFF2643193
:1035D00001A8FCF77FFE01A9384611F064F840F617
:1035E0007101D8F8180013F0DFFA0746234938466E
:1035F00011F02CF80021384611F07AF820492120EA
:1036000008702C700020307014F056FC91E440F6E5
:103610007201184D13F0C8FA04466FF0704120464D
:1036200011F014F86FF07F41204611F061F840F678
:103630007601A86913F0B8FA04461049204611F043
:1036400005F80021204611F053F80D49202008709C
:103650006FE440F67601DFF81C8013F0A5FA074608
:103660006FF07041384610F0F1FF6FF07F4138463F
:103670000AE000007801002064010020FFFFBF0085
:103680006D0100200C0C002011F032F840F67201A0
:10369000D8F8180013F088FA07460849384610F0A1
:1036A000D5FF0021384611F023F805492420087081
:1036B0002C700020307014F0FFFB3AE4FFFFBF00D5
:1036C0006D01002070B5134D69792846124E80694E
:1036D00040F6990201290FD0114613F065FA04460D
:1036E0006FF07041204610F0B1FF3146204610F0D7
:1036F000FFFF2F20287070BD114613F055FA0446C5
:103700003146204610F0A2FF2046BDE8704000215F
:1037100010F0EEBFB8010020FFFFBF002DE9FF470A
:103720000446006810B114F061F968B10022314814
:1037300050F8221060680A2841D007DCF0B3062850
:103740000DD0072854D106E00122F0E712280AD054
:1037500019284DD137E0204615F0C8FC48E0204636
:1037600016F052FE44E0206803F016FC0290B0F917
:10377000548090F85650476C466B02A803F056FCF4
:10378000206800F039F88146684613F0E5F9BDF885
:10379000001009EB05000844ADF80000246A30462B
:1037A00005F01CF8022005F059F8384605F00CF831
:1037B00042466946204603F0C3FF19E007E0204671
:1037C00017F00EF914E0886904B0BDE8F0872068AE
:1037D00013F0D0FD206803F0DFFB0390B0F9061072
:1037E000B0F90220891A491CC16703A803F01EFC26
:1037F0000020E9E7840D040838B503F0CDFB009004
:10380000C46F684603F012FC204638BD044A0349E1
:1038100011600449CA69C86110467047240300203A
:10382000EC060020F006002000B589B0242168468F
:10383000FCF785FF19200190034800688068416803
:103840006846884709B000BDEC0600201CB51B483F
:10385000012101701A4A192010701A4800240470BE
:103860001948C26F4260D0F888208260D0F89C204E
:103870000261164801707021682011F0D8FB4FF4E6
:103880008051134802F03EFC09F0C8FA4FF4806101
:10389000104802F037FC1048016841F080010160D7
:1038A00013F076F9034600940C4A29210C48019440
:1038B00003F06AFD0B4988611CBD00001E01002059
:1038C0006D010020840000200C0C002085000020E9
:1038D000000C024000080240400000201D2C02089D
:1038E00074830208780100201CB50E48002404707F
:1038F0000D4804700D4804707021682011F097FB8A
:103900004FF480510A4802F0FDFB13F041F90346E1
:103910000094084A08210848019403F035FD07493E
:1039200008601CBD1E0100208500002084000020CE
:10393000000C024019480208F08702089401002098
:103940007CB50E4C4720A0710320A0700C49087074
:103950000025E57123F02CF90A49012008700A4876
:10396000057013F015F903460095084A2021084810
:10397000019503F009FDA0627CBD00001C01002040
:10398000850000208700002084000020DD10020850
:10399000A87D02081CB50F49052008700E480024B8
:1039A00004700E4804707021682011F040FB4FF441
:1039B00080510B4802F0A6FB13F0EAF8034600948E
:1039C000084A21210848019403F0DEFC07494860B9
:1039D0001CBD00001E0100206D010020840000209D
:1039E000000C0240A94B0208D0880208A801002060
:1039F0001CB508490620087013F0CAF803460020D9
:103A000000900190044A0121044803F0BDFC0449E0
:103A100048601CBD1E010020B55502086C8C0208D0
:103A2000B00100201CB5174C207808B109F0F6F958
:103A300002202070144908701449092008701448A5
:103A4000D0F898104160D0F8A0108160114800248F
:103A500004701149032008707021682011F0E7FA02
:103A60004FF480510D4802F04DFB13F091F80346DE
:103A700000940B4A13210B48019403F085FC0A497A
:103A800048601CBD1E010020850000206D01002043
:103A90000C0C0020840000206B010020000C024070
:103AA000AD090208947B0208140100201CB5174CD4
:103AB000207808B109F0B2F9042020701449087088
:103AC0001449172008701448D0F894100161134964
:103AD00000240C70124A02211170D0F8A410C160A9
:103AE0007021682011F0A3FA4FF480510D4802F0C4
:103AF00009FB13F04DF8034600940B4A15210B48BF
:103B0000019403F041FC0A4948601CBD1E010020DD
:103B1000850000206D0100200C0C00208400002096
:103B20006B010020000C0240355C0208288102086D
:103B3000700100201CB513F02BF8002403460094FC
:103B4000074A12210748019403F01EFC06498861C8
:103B5000064A1470064B07221A702F220A701CBDE9
:103B60003556020854790308B8010020840000206B
:103B70001E0100201CB502208DF8050001208DF8E3
:103B8000040000208DF806001C20009069460248C1
:103B900002F064FA1CBD00000010024070B505463A
:103BA000244E0421304602F0ADFA0821304602F0DE
:103BB000ABFA00BF00BF00BF00BF0421304602F0D7
:103BC000A3FA00BF0821304602F09EFA04213046D5
:103BD00002F098FA002420E0072C0DD9280404D51F
:103BE0001021304602F090FA03E01021304602F036
:103BF00089FA6804050C03E01021304602F082FACD
:103C00000821304602F07EFA00BF00BF00BF082145
:103C1000304602F079FA641CE4B2182CDCD304219B
:103C2000304602F071FA3046BDE87040082102F0DB
:103C30006BBA00000010024008B538208DF8000073
:103C400003208DF801008DF8020001208DF803009B
:103C500068460BF085FB08BD01480068704700000E
:103C60007003002010B50549054800F00DF805481F
:103C7000016841F00201016010BD000020800010C9
:103C80001064024034000020074A904201D20748E5
:103C900001E005481038064A8B0001EA020101D50F
:103CA000C16070478160704710640240006002404C
:103CB0007D0F7D0F21B1016841F001010160704766
:103CC000016821F00101016070470B0609D522B19E
:103CD000436943F08003436103E0436923F08003B9
:103CE0004361802905D001F01E011AB102680A4320
:103CF0000260704702688A430260704730B503680B
:103D0000124A1340CC680A682243D1E905452C4386
:103D10002243CC6922430C6A22434C6A22438C6AB8
:103D200022434C6B22438C6B22431A43026042694C
:103D300022F00703D1E90B2422431A4342610A69A6
:103D400042604A6882608968C16030BD3F801CF073
:103D5000F8B50546006803F01FF90090448ED0F8CE
:103D60008860684603F062F906B1012604F0010498
:103D7000286813F03BFE0EB1002006E00CB10120D4
:103D800003E008B1022000E003201B4951F8201095
:103D9000686858B302280CD0052802D0122828D110
:103DA00003E0284615F0CEF923E0284617F0ADFAD7
:103DB0001FE06A69E8694FF0FF33801AA0F108023A
:103DC00003EB6204421CAB69001B4510A3EB6206C7
:103DD000C86904F0F9FC06E03219311B284603F0EB
:103DE0007DFE641E6D1C002CF6DA02E0286813F0DC
:103DF000C1FA0020F8BD0000E40D0408044A03499C
:103E0000116004490A6B0863104670477403002070
:103E10002C0700203007002038B50D46002403F0A1
:103E2000BBF80090C06B294603F098F90546684638
:103E300003F0FCF81DB1284603F0AEF80446204616
:103E400038BD704730B504464FF47A7502E0284615
:103E500000F006F82300A4F1010084B2F7D130BDD0
:103E600000220BE0042100BF00BF00BF00BF00BF65
:103E7000491E0904090CF6D1521C92B28242F1D3B8
:103E80007047000010B52DED028B24490A78244CB0
:103E9000B2EE048A022AE0681FD00978032939D1DA
:103EA000204991ED000A20EE080ABDEEC00A10EE8E
:103EB000101A09B202F000FA1B4890ED000A20EE39
:103EC000080ABDEEC00A10EE100A01B22069BDEC6E
:103ED000028BBDE8104002F0EFB9144991ED000AE1
:103EE00020EE080ABDEEC00A10EE101A09B202F068
:103EF000E3F90F4890ED000A20EE080ABDEEC00A73
:103F000010EE100A01B22069BDEC028BBDE8104032
:103F100002F0D2B9BDEC028B10BD00006B01002095
:103F20009401002028000020300000202400002000
:103F30002C0000201CB51048007A01281AD1FF205F
:103F400004F042FC022004F077FCB4200021CDE90B
:103F50000010032306220C214FF4C37003F09AFCD7
:103F600002B00C23BDE8104040F27F120421034848
:103F700003F016BE1CBD000084000020827B0208F6
:103F80001CB51048007A01281AD1FF2004F01CFC4F
:103F9000022004F051FCB4200021CDE900100323DD
:103FA00006220C2140F2D11003F074FC02B00C2365
:103FB000BDE810404FF4E5720421034803F0F0BD62
:103FC0001CBD000084000020827B020810B504465E
:103FD00022F0D4FBA02022F0A3FB22F0FFFB68B963
:103FE000204622F09DFB22F0F9FB38B922F0C6FBF7
:103FF000A12022F095FB22F0F1FB18B122F0DAFBB0
:10400000002010BD22F06AFB034C207022F04EFB12
:1040100022F0D0FB207810BD7A00002070B501207E
:10402000FFF7D4FFFE4C20600120FFF7CFFF206098
:104030002068000220600220FFF7C8FF21680844C2
:1040400020602068000220600320FFF7BFFF216886
:10405000084420602068000220600420FFF7B6FFBB
:104060002168084420600520FFF7B0FFED4D28606F
:104070002868000228600620FFF7A8FF2968084486
:1040800028602868000228600720FFF79FFF296842
:10409000084428602868000228600820FFF796FF7F
:1040A0002968084428600920FFF790FF6060606875
:1040B000000260600A20FFF789FF616808446060C1
:1040C0006068000260600B20FFF780FF61680844B1
:1040D00060606068000260600C20FFF777FF616835
:1040E000084460600D20FFF771FF68606868000297
:1040F00068600E20FFF76AFF6968084468606868B6
:10410000000268600F20FFF761FF6968084468607B
:104110006868000268601020FFF758FF696808446B
:1041200068601120FFF752FFA060A0680002A06045
:104130001220FFF74BFFA1680844A060A0680002AE
:10414000A0601320FFF742FFA1680844A060A068A8
:104150000002A0601420FFF739FFA1680844A060A6
:104160001520FFF733FFA860A8680002A86016209A
:10417000FFF72CFFA9680844A860A8680002A8609F
:104180001720FFF723FFA9680844A860A868000269
:10419000A8601820FFF71AFFA9680844A860192032
:1041A000FFF714FFE060E0680002E0601A20FFF70C
:1041B0000DFFE1680844E060E0680002E0601B2059
:1041C000FFF704FFE1680844E060E0680002E06097
:1041D0001C20FFF7FBFEE1680844E0601D20FFF7AC
:1041E000F5FEE860E8680002E8601E20FFF7EEFEDA
:1041F000E9680844E860E8680002E8601F20FFF70B
:10420000E5FEE9680844E860E8680002E86020200C
:10421000FFF7DCFEE9680844E8602120FFF7D6FEDE
:1042200020612069000220612220FFF7CFFE216972
:10423000084420612069000220612320FFF7C6FEA8
:104240002169084420612069000220612420FFF7D1
:10425000BDFE2169084420612520FFF7B7FE2861D3
:104260002869000228612620FFF7B0FE296908446A
:1042700028612869000228612720FFF7A7FE296925
:10428000084428612869000228612820FFF79EFE63
:104290002969084428612920FFF798FE6061606958
:1042A000000260612A20FFF791FE616908446061A5
:1042B0006069000260612B20FFF788FE6169084495
:1042C00060616069000260612C20FFF77FFE616918
:1042D000084460612D20FFF779FE6861686900027B
:1042E00068612E20FFF772FE696908446861686999
:1042F000000268612F20FFF769FE69690844686160
:104300006869000268613020FFF760FE696908444F
:104310006861AB20FFF75AFEE062E06A0002E062EB
:10432000AC20FFF753FEE16A0844E062E06A000255
:10433000E062AD20FFF74AFEE16A0844E062E06A0D
:104340000002E062AE20FFF741FEE16A0844E0624D
:10435000AF20FFF73BFEE862E86A0002E862B020A7
:10436000FFF734FEE96A0844E862E86A0002E8629E
:10437000B120FFF72BFEE96A0844E862E86A000210
:10438000E862B220FFF722FEE96A0844E862B7203B
:10439000FFF71CFE2063206B00022063B820FFF7AC
:1043A00015FE216B08442063206B00022063B920B6
:1043B000FFF70CFE216B08442063206B0002206392
:1043C000BA20FFF703FE216B08442063BB20FFF7F0
:1043D000FDFD2863286B00022863BC20FFF7F6FD73
:1043E000296B08442863286B00022863BD20FFF76F
:1043F000EDFD296B08442863286B00022863BE206A
:10440000FFF7E4FD296B084428633120FFF7DEFD48
:10441000A061A0690002A0613220FFF7D7FD03E090
:10442000A40B0020D80B0020A1690844A061A0695A
:104430000002A0613320FFF7C9FDA1690844A06113
:10444000A0690002A0613420FFF7C0FDA169084403
:10445000A0613520FFF7BAFDA861A8690002A86134
:104460003620FFF7B3FDA9690844A861A8690002D6
:10447000A8613720FFF7AAFDA9690844A861A869C7
:104480000002A8613820FFF7A1FDA9690844A861CE
:104490003920FFF79BFDE061E0690002E0613A200E
:1044A000FFF794FDE1690844E061E0690002E06122
:1044B0003B20FFF78BFDE1690844E061E069000201
:1044C000E0613C20FFF782FDE1690844E0613D20A6
:1044D000FFF77CFDE861E8690002E8613E20FFF734
:1044E00075FDE9690844E861E8690002E8613F2078
:1044F000FFF76CFDE9690844E861E8690002E861DA
:104500004020FFF763FDE9690844E8614120FFF7B7
:104510005DFD2062206A000220624220FFF756FD06
:10452000216A08442062206A000220624320FFF7CB
:104530004DFD216A08442062206A00022062442066
:10454000FFF744FD216A084420624520FFF73EFD45
:104550002862286A000228624620FFF737FD296A90
:1045600008442862286A000228624720FFF72EFDCF
:10457000296A08442862286A000228624820FFF756
:1045800025FD296A084428624920FFF71FFD606263
:10459000606A000260624A20FFF718FD616A084401
:1045A0006062606A000260624B20FFF70FFD616A83
:1045B00008446062606A000260624C20FFF706FDFA
:1045C000616A084460624D20FFF700FD6862686A16
:1045D000000268624E20FFF7F9FC696A08446862CD
:1045E000686A000268624F20FFF7F0FC696A0844BD
:1045F0006862686A000268625020FFF7E7FC696A37
:10460000084468625120FFF7E1FCA062A06A000242
:10461000A0625220FFF7DAFCA16A0844A062A06AF7
:104620000002A0625320FFF7D1FCA16A0844A062F7
:10463000A06A0002A0625420FFF7C8FCA16A0844E7
:10464000A0625520FFF7C2FCA862A86A0002A86217
:104650005620FFF7BBFCA96A0844A862A86A0002BA
:10466000A8625720FFF7B2FCA96A0844A862A86AAA
:104670000002A8625820FFF7A9FCA96A0844A862B2
:104680005920FFF7A3FCFC4C20705A20FFF79EFC3A
:1046900060705B20FFF79AFCA0705C20FFF796FC2F
:1046A000E0705D20FFF792FC20715E20FFF78EFC2A
:1046B00060716020FFF78AFCF04908707A20FFF7EC
:1046C00085FCEF4908707B20FFF780FCED490870FE
:1046D0007820FFF77BFCEC4908707920FFF776FC27
:1046E000EA4908706120FFF771FCE9490870B420BD
:1046F000FFF76CFCE74908707C20FFF767FCE64990
:1047000008807D20FFF762FCE44908807E20FFF7E7
:104710005DFCE34908807F20FFF758FCE1490880F1
:104720008020FFF753FCE04908708120FFF74EFC22
:10473000DE4908708220FFF749FCDD4908708320BC
:10474000FFF744FCDB4908708420FFF73FFCDA499F
:1047500008708520FFF73AFCD84908708620FFF7DB
:1047600035FCD74908708720FFF730FCD549087021
:104770008820FFF72BFCD44908708920FFF726FC1E
:10478000D24908708A20FFF721FCD14908708B209C
:10479000FFF71CFCCF4908708C20FFF717FCCE49AF
:1047A00008708D20FFF712FCCC490880B320FFF77A
:1047B0000DFCCB4908706220FFF708FCC94C206053
:1047C0002068000220606320FFF700FC2168084495
:1047D00020606420FFF7FAFB6060606800026060A0
:1047E0006520FFF7F3FB6168084460606620FFF70F
:1047F000EDFBA060A0680002A0606720FFF7E6FB69
:10480000A1680844A0606820FFF7E0FBE060E06872
:104810000002E0606920FFF7D9FBE1680844E0602E
:104820006A20FFF7D3FB20612069000220616B2022
:10483000FFF7CCFB2169084420616C20FFF7C6FB21
:1048400060616069000260616D20FFF7BFFB616914
:10485000084460616E20FFF7B9FB2066206E0002FD
:1048600020666F20FFF7B2FB216E0844206670209F
:10487000FFF7ACFBA066A06E0002A0667120FFF7F8
:10488000A5FBA16E0844A0667220FFF79FFBE065C0
:10489000E06D0002E0657320FFF798FBE16D0844CE
:1048A000E065B520FFF792FBE066E06E0002E0668F
:1048B000B620FFF78BFBE16E0844E0667420FFF73B
:1048C00085FB2062206A000220627520FFF77EFBD4
:1048D000216A084420627620FFF778FB6062606AF4
:1048E000000260627720FFF771FB616A0844606232
:1048F0008E20FFF76BFB6064606C000260648F20A9
:10490000FFF764FB616C084460649020FFF75EFB76
:10491000A064A06C0002A0649120FFF757FBA16C7B
:104920000844A0649220FFF751FBE064E06C0002B1
:10493000E0649320FFF74AFBE16C0844E0649420B4
:10494000FFF744FB684D28802888000228809520C6
:10495000FFF73CFB2988084428809620FFF736FBA8
:1049600068806888000268809720FFF72FFB6988BD
:10497000084468809820FFF729FBA880A8880002D7
:10498000A8809920FFF722FBA9880844A8809A20D4
:10499000FFF71CFB2065206D000220659B20FFF7C0
:1049A00015FB216D084420659C20FFF70FFB606517
:1049B000606D000260659D20FFF708FB616D084493
:1049C00060659E20FFF702FBA065A06D0002A06558
:1049D0009F20FFF7FBFAA16D0844A065A4F13804FD
:1049E0004FF0A000FFF7F2FAE880E8880002E880C4
:1049F000A120FFF7EBFAE9880844E880A220FFF73E
:104A0000E5FA2881288900022881A320FFF7DEFA31
:104A1000298908442881A420FFF7D8FA6881688989
:104A200000026881A520FFF7D1FA698908446881EE
:104A3000A620FFF7CBFA2D490870A720FFF7C6FA8A
:104A400004F16C042063206B4FEA002020634FF0D8
:104A5000A800FFF7BBFA216B08442063A920FFF7E9
:104A6000B5FA2060206800022060AA20FFF7AEFAA5
:104A700021680844206070BDB4000020950000202B
:104A8000200100201F0100202D0100206C010020CA
:104A90002C010020A8010020C8010020CA0100202C
:104AA000CC010020CE010020B9010020BA01002075
:104AB000BB010020BC010020BE010020BF0100207E
:104AC000C0010020C1010020C2010020C30100205C
:104AD000C4010020C5010020720100203201002025
:104AE0002E010020440C00202485002078010020A5
:104AF00070B505460E4621F05DFE002409E021F068
:104B00003DFEA02021F00CFE21F068FE18B1641CCF
:104B1000A4B2642CF3D3B4F57A7F0DD0E8B221F0BF
:104B2000FFFD21F05BFE38B9304621F0F9FD21F0A0
:104B300055FE08B921F03EFEBDE8704021F03ABEB6
:104B40002DE9F041044694B0006800F0B7F908B1CF
:104B5000D94D01E0D84D2C35606815281ED00CDCED
:104B60000B281FD004DC00287ED005287DD12EE143
:104B70000E287BD01228F9D141E1162806D017283B
:104B800008D0182808D01C28F0D109E0E86914B032
:104B9000BDE8F081286AFAE7686AF8E7A86AF6E7EC
:104BA0006869F4E720680B901C200C90206802F0E4
:104BB000F3F90390016D0BA88847064603A802F09D
:104BC00035FA022E0EDB95E807008DE80700D4E9E0
:104BD00004023346A16904F061FD20698719A069C8
:104BE000801B2BE0286803F0EFFD2169E8690A18B3
:104BF000521E606902F072FFA269E869111A491C2D
:104C0000606902F06BFF676920697F1C394602F01A
:104C1000A7FF3946A06902F0A3FF686803F0D4FD3E
:104C200020693946401C02F09BFFA0693946401EAE
:104C300002F096FF2769A069BF1C801E8046286885
:104C400003F0C2FD42463946606902F047FF6868DA
:104C500003F0BAFD60694246401C394602F03EFF4F
:104C6000686A02280FDD02E015E1AFE000E1A86804
:104C700003F0AAFD61696A6A881C8B1801465B1EF5
:104C80004246384627E0296AB14226DD6069022E95
:104C9000074600F1020801DB374401E007F1020793
:104CA000206901DB304401E000F1020022693B464B
:104CB0000A44A2F10102414603F036F8022E02DB5B
:104CC000A069821B01E0A269921EA069E9693B46C6
:104CD000401A401C414603F027F8022E02DB6069AF
:104CE000064401E06669B61CE76928687F1E03F088
:104CF0006BFD3A463146206902F0ACFF3A46314638
:104D0000A06902F0A7FFE7696868BF1E03F05CFDB9
:104D100020693A46401C314602F09CFFA0693A46A1
:104D2000401E314602F096FFE869022802DC286A3C
:104D3000022823DDA86A022802DDE1690F1A01E0DA
:104D4000E769BF1EA86803F03FFDE969022909DD94
:104D500020693B46421800F1020C521E3146604663
:104D600002F0E2FF286A022808DDA269E8693B46F2
:104D7000101A401C921E314602F0D6FF286803F03C
:104D800023FDD4E90620216902F0A8FE686803F03B
:104D90001BFDA2692169E069521E491C401E02F0F8
:104DA0009DFEA86A022811DD2669A169E469B61C86
:104DB000271AA1F102087F1CA41EA86803F004FDB5
:104DC000234642463946304602F0AEFF72E0208A62
:104DD00006B2ADF81460A08A01B2ADF81610208BAF
:104DE00002B2ADF81820A08B03B2ADF81A30D5E9A5
:104DF0000304CDE90004304602F018FE5AE0208A90
:104E0000298B0844ADF81400A08AADF81600208B59
:104E1000298B401AADF81800A08BADF81A00206855
:104E200002F0BAF80390006FF0B1022003F016FD13
:104E3000039991F87C00C0F3C00001EB8000006C86
:104E400003F0C2FC0398406B03F0C8FC0398006FAA
:104E500002F0A2F803990A90B1F95A2005A902F0CC
:104E60006FFC0AA802F0E2F803A802F0DFF821E0E4
:104E7000208AADF81400A08AADF81600208BADF89A
:104E80001800A08BADF81A00A86803F09DFC05A8D7
:104E900002F06EFF0EE0206802F07EF8039030F81A
:104EA0005A1F41F00C01018003A802F0BFF82068EE
:104EB00012F060FA00206AE64404002038B50024AD
:104EC00050B102F069F8009090F87C00000700D51E
:104ED0000124684602F0AAF8204638BD30B50446E1
:104EE0008BB0006802F058F8009090F87C10246AAB
:104EF000006FC1F3C00508B102F04EF80690E068FB
:104F0000029020690390A088401EADF81000E0894F
:104F1000ADF812002089401CADF81400608AADF88D
:104F20001600BDF80800401CADF80800BDF80A00E6
:104F3000401CADF80A00BDF80C00401EADF80C0096
:104F40000098406B03F04AFC009808AA02A9B0F947
:104F50005A30069803F024FF009800EB8500806B20
:104F600009F0FCFA009800EB8500006C09F02EFBBC
:104F700008AB02AA04A9069811F0DEF9684602F00F
:104F800055F8069810B106A802F050F80BB00020B2
:104F900030BD0000074A0649054B1160064A083B30
:104FA000D16958601B68C2E90630084670470000A6
:104FB000380400206C0700207007002038B50D462B
:104FC000040009D001F0E8FF00900566684602F091
:104FD0002DF8204611F0D1FF38BD2DE9F34F85B0F3
:104FE00000270C46B846059801F0D6FF0090C06D2A
:104FF0000121856805982A68904782462A6803211E
:105000000598904704902A680221059890470390DC
:105010002A680021059890470646009812F06CFB1C
:105020008346009812F06FFB8146009890F832108A
:10503000890601D5B0F9588000F036F80546009889
:10504000C06E10B111F0CEFE074625806780A4F82F
:1050500004A0049AABEB020006EB0802401E2A44AF
:1050600020813A44E280039BA9EB0302521E628135
:10507000A4F80CA020827019E681401E6082684668
:1050800001F0D4FFB4F90C000190B4F910000290C3
:1050900002AA01A9059800F039F80198A0810298A8
:1050A000208207B0BDE8F08F10B50146002091F8CE
:1050B0003220920607D5B1F95400002803D1486B7D
:1050C00002F0D4FE801C10BD70B58AB00C460546B7
:1050D00001F062FF0990C06D866809A801F0A6FF83
:1050E000009534B1012C06D0022C0BD0032C04D136
:1050F0000AE0182000E01620019071686846884791
:105100000AB070BD1520F7E71720F5E72DE9FC4739
:1051100090468946044601F03FFF0090C16D056846
:1051200068468E6801F082FF326800212046904771
:105130000646204611F040FD2F1404462DB227E00C
:1051400001F02AFF0190B0F90010B0F90420B0F985
:105150000230491B521BDB1BB34212D190F82800CE
:10516000000607D5D8F8000088420ADB491EC8F8B7
:10517000001006E0D9F80000904202DC521CC9F889
:10518000002001A801F052FF204611F0A5FD0446C1
:10519000002CD5D1BDE8FC874FF0204202EB800007
:1051A00021B1016841F00101016070470168024AC4
:1051B0001140016070470000FEFF0F0030B5D0E9DC
:1051C00001121143D0E903231A43114342690368D2
:1051D000114382691143C2691143026A1143426A51
:1051E0001143826A1143C26A1143026B11434FF0AB
:1051F000204242F823108168082906D1016802EB99
:1052000081010B6843F040030B60416BD1E900342E
:1052100043EA04138C68CD68240244EA054423431E
:105220000C6943EA04534C69896943EA04630B43FC
:105230000168491C42F82130C16AB1F5804F07D09E
:1052400000686FF0704102EB8000C0F8041130BDBF
:10525000816B0068D1E9003443EA04138C680D695E
:10526000240244EA055423434C69896943EA0463F0
:1052700002EB80000B43C0F8043130BD70B5FE4C2A
:105280002068010E0120FFF733FC2068C0F30741BE
:105290000220FFF72DFC2068C0F307210320FFF751
:1052A00027FC2068C1B20420FFF722FCF34D2868D8
:1052B000010E0520FFF71CFC2868C0F307410620FB
:1052C000FFF716FC2868C0F307210720FFF710FC42
:1052D0002868C1B20820FFF70BFC6068010E0920A6
:1052E000FFF706FC6068C0F307410A20FFF700FCE7
:1052F0006068C0F307210B20FFF7FAFB6068C1B2BA
:105300000C20FFF7F5FB6868010E0D20FFF7F0FB9E
:105310006868C0F307410E20FFF7EAFB6868C0F336
:1053200007210F20FFF7E4FB6868C1B21020FFF7E8
:10533000DFFBA068010E1120FFF7DAFBA068C0F3C5
:1053400007411220FFF7D4FBA068C0F30721132008
:10535000FFF7CEFBA068C1B21420FFF7C9FBA86815
:10536000010E1520FFF7C4FBA868C0F30741162003
:10537000FFF7BEFBA868C0F307211720FFF7B8FBB3
:10538000A868C1B21820FFF7B3FBE068010E19202E
:10539000FFF7AEFBE068C0F307411A20FFF7A8FB58
:1053A000E068C0F307211B20FFF7A2FBE068C1B251
:1053B0001C20FFF79DFBE868010E1D20FFF798FBFE
:1053C000E868C0F307411E20FFF792FBE868C0F3CE
:1053D00007211F20FFF78CFBE868C1B22020FFF7F0
:1053E00087FB2069010E2120FFF782FB2069C0F3B3
:1053F00007412220FFF77CFB2069C0F3072123200F
:10540000FFF776FB2069C1B22420FFF771FB286902
:10541000010E2520FFF76CFB2869C0F30741262009
:10542000FFF766FB2869C0F307212720FFF760FB21
:105430002869C1B22820FFF75BFB6069010E2920B3
:10544000FFF756FB6069C0F307412A20FFF750FBC6
:105450006069C0F307212B20FFF74AFB6069C1B2E6
:105460002C20FFF745FB6869010E2D20FFF740FB5C
:105470006869C0F307412E20FFF73AFB6869C0F363
:1054800007212F20FFF734FB6869C1B23020FFF7F6
:105490002FFBE06A010EAB20FFF72AFBE06AC0F3A6
:1054A0000741AC20FFF724FBE06AC0F30721AD20E1
:1054B000FFF71EFBE06AC1B2AE20FFF719FBE86AF6
:1054C000010EAF20FFF714FBE86AC0F30741B020DC
:1054D000FFF70EFBE86AC0F30721B120FFF708FBD6
:1054E000E86AC1B2B220FFF703FB206B010EB720C0
:1054F000FFF7FEFA206BC0F30741B820FFF7F8FA78
:10550000206BC0F30721B920FFF7F2FA206BC1B27C
:10551000BA20FFF7EDFA286B010EBB20FFF7E8FA7F
:10552000286BC0F30741BC20FFF7E2FA286BC0F3F9
:105530000721BD20FFF7DCFA286BC1B2BE20FFF7C0
:10554000D7FAA069010E3120FFF7D2FAA069C0F3A3
:1055500007413220FFF7CCFAA069C0F307213320BE
:10556000FFF7C6FAA069C1B23420FFF7C1FAA869F3
:10557000010E3520FFF7BCFAA869C0F307413620B9
:10558000FFF7B6FAA869C0F307213720FFF7B0FA92
:10559000A869C1B23820FFF7ABFAE069010E3920E3
:1055A000FFF7A6FAE069C0F307413A20FFF7A0FA37
:1055B000E069C0F307213B20FFF79AFAE069C1B226
:1055C0003C20FFF795FAE869010E3D20FFF790FABD
:1055D000E869C0F307413E20FFF78AFAE869C0F3A3
:1055E00007213F20FFF784FAE869C1B24020FFF7A6
:1055F0007FFA206A010E4120FFF77AFA206AC0F391
:1056000007414220FFF774FA206AC0F307214320C4
:10561000FFF76EFA206AC1B24420FFF769FA286AE0
:10562000010E4520FFF764FA286AC0F307414620BF
:10563000FFF75EFA286AC0F307214720FFF758FA00
:10564000286AC1B24820FFF753FA606A010E492068
:10565000FFF74EFA606AC0F307414A20FFF748FAA5
:10566000606AC0F307214B20FFF742FA606AC1B2BB
:105670004C20FFF73DFA03E0A40B0020D80B0020DC
:10568000686A010E4D20FFF733FA686AC0F30741DC
:105690004E20FFF72DFA686AC0F307214F20FFF76D
:1056A00027FA686AC1B25020FFF722FAA06A010EF9
:1056B0005120FFF71DFAA06AC0F307415220FFF7FF
:1056C00017FAA06AC0F307215320FFF711FAA06A66
:1056D000C1B25420FFF70CFAA86A010E5520FFF75B
:1056E00007FAA86AC0F307415620FFF701FAA86A33
:1056F000C0F307215720FFF7FBF9A86AC1B2582071
:10570000FFF7F6F90D4C21785920FFF7F1F9617890
:105710005A20FFF7EDF9A1785B20FFF7E9F9E1786E
:105720005C20FFF7E5F921795D20FFF7E1F9617968
:10573000BDE870405E20FFF7DBB90000B400002038
:105740002DE9FF5F8346DDE90E45984691468A467E
:1057500004F5B47405F5B4754FF0FF3601274FF426
:10576000B47003E0A4F5B474A5F5B4758442F9DA15
:10577000002D65DD5A2C11DA002C00DA00245A2D98
:1057800001DA284600E05A20CDE90040CDE9027652
:1057900043464A465146584613F016FB5A3D5A3C7A
:1057A000002D4DDD5A2C14DA002C00DA00245A2D7D
:1057B00001DA284600E05A20C4F15A01C0F15A002B
:1057C0008DE8430043464A4651465846039613F037
:1057D000FBFA5A3D5A3C002D32DD5A2C12DA002CCD
:1057E00000DA00245A2D01DA284600E05A200DF193
:1057F000040C0094ACE8C10043464A465146584662
:1058000013F0E2FA5A3D5A3C002D19DD5A2C14DAF5
:10581000002C00DA00245A2D01DA284600E05A2034
:10582000C4F15A01C0F15A008DE8830043464A464C
:1058300051465846039713F0C7FA5A3D5A3C97E72A
:10584000BDE8FF9F2DE9F0430446C56887B0904648
:105850008946002002F0C0FF064625B1287910B124
:1058600046F0020001E026F0020002F0B5FF2069D8
:10587000012558B1D4E902128DE82600039563880A
:105880002288046841464846A0471EE0124F134B49
:10589000214638681B68427CE068984730B9E08848
:1058A000012801D0002001E03868806BA288E388DD
:1058B000A1680095CDE90410CDE902320195638815
:1058C00022884146484608F06BFA07B03046BDE8EA
:1058D000F04302F081BF0000FC010020F401002031
:1058E0001CB50024019401AC009400F0E7F81CBD45
:1058F0002DE9FF4F83B0814606988A46A0EB0A083F
:10590000109E00200090A2EB09043568934654EAEB
:10591000080018D02046FCF7A0FA07464046FCF7DE
:105920009CFA87420BDA2046444680464846D146D8
:1059300082465846DDF818B0069001200090002CF1
:1059400007DD204606E007B04846BDE8F04F00F00E
:1059500057B96042A0420AD04846D9466442C8F1CD
:10596000000883464FF0FF37DDF818A000E001275C
:105970005148B8F1000F11D004EBD4714FEA610B1C
:1059800001DACBF1000B4C480068807E88B3002F11
:1059900002DA30682044306000257BE0009900295D
:1059A000016821D0897E11B10027804615E007B03B
:1059B0005A4649465046BDE8F04F08F055BB2846C8
:1059C0006D1C19F0D1FF38B9D8F8000009EB0701B8
:1059D000C06E4268504690477F1CA742EFDD6D1EA7
:1059E000356007B0BDE8F08F8A7E1AB10027804687
:1059F00017E019E0C86E5A465146036807B048469A
:105A0000BDE8F04F184728466D1C19F0ADFF38B9B6
:105A1000D8F8001009EB0700C96E4A685146904754
:105A20007F1CA742EFDDDAE700250FE008FB05B099
:105A300090FBF4F101EB0A00009951B11E4A09EB09
:105A400005011268D26E526890476D1CA542EDDDCB
:105A5000C7E7194909EB05030968C96E4A68014699
:105A60001846F1E708FB05B090FBF4F101EB0A00E2
:105A7000019030683844306019F076FF48B90098DA
:105A800090B10D4809EB05010068C06E42680198AD
:105A900090476D1CA542E5DD3068002F01DA2044F7
:105AA0003060C01B30609CE7034909EB05000968C2
:105AB000C96E4A680199EBE7FC0100202DE9FF4718
:105AC0000F4640491646804609680C981D460A7ED6
:105AD000012A1CD0A8EB0600791B50EA01031CD058
