:020000040800F2
:100000009090002095020008B71E01082DAC000852
:10001000B51E01085D24000879B201080000000047
:10002000000000000000000000000000357501081D
:100030005F40000800000000054A0108A986010889
:10004000AF020008AF020008AF020008AF020008CC
:10005000AF020008AF020008AF020008AF020008BC
:10006000AF020008AF020008AF020008AF020008AC
:10007000AF020008AF020008AF020008AF0200089C
:10008000AF020008AF020008AF020008AF0200088C
:10009000AF020008AF020008AF020008AF0200087C
:1000A000AF020008AF020008AF020008AF0200086C
:1000B000AF020008B98B0108C58E0108AF02000825
:1000C000AF020008AF020008AF020008AF0200084C
:1000D000AF0200082DAE0108AF02000835AF0108DD
:1000E000AF020008AF020008AF020008AF0200082C
:1000F000AF020008AF020008AF020008AF0200081C
:10010000AF020008AF02000851950108AF020008D5
:10011000AF020008AF02000831960108AF020008E4
:100120007D3E0008AF020008AF020008AF020008E1
:10013000AF020008AF020008AF020008AF020008DB
:10014000AF020008AF020008AF020008112F01083B
:10015000AF020008AF020008AF020008AF020008BB
:10016000AF020008AF020008AF020008AF020008AB
:10017000AF020008AF020008AF020008AF0200089B
:10018000AF020008AF02000800F002F800F072F8B9
:100190000AA090E8000C82448344AAF10107DA45E2
:1001A00001D100F067F8AFF2090EBAE80F0013F0C2
:1001B000010F18BFFB1A43F00103184778B8040079
:1001C00098B804000A444FF0000C10F8013B13F0FB
:1001D000070408BF10F8014B1D1108BF10F8015BA0
:1001E000641E05D010F8016B641E01F8016BF9D193
:1001F00013F0080F1EBF10F8014BAD1C0C1B09D1EA
:100200006D1E58BF01F801CBFAD505E014F8016B5B
:1002100001F8016B6D1EF9D59142D6D370470000ED
:100220000023002400250026103A28BF78C1FBD8FF
:10023000520728BF30C148BF0B60704766292CF0B9
:10024000A486642900F08280002070471FB52CF03E
:1002500092FE00F0C7FD0400002000212CF006F9FA
:10026000401C6060002000212CF0EAF8E0601FBD17
:1002700010B510BD00F002FF1146FFF7E7FF2BF0AD
:1002800003FC00F02EFF03B4FFF7F2FF03BC00F005
:1002900071FF00000948804709480047FEE7FEE774
:1002A000FEE7FEE7FEE7FEE7FEE7FEE7FEE7FEE726
:1002B00004480549054A064B70470000718701084C
:1002C00089010008908A002090900020908C0020E6
:1002D000908C00200FB41CB5074B06AA7B446946DE
:1002E0000090059800F0C3FC0020694600F0D2FCA5
:1002F0001CBC5DF814FB0000B509000070B5044695
:1003000085690068C10601D5302600E02026C007B7
:1003100007D070BDD4E9012130469047206A401CC7
:1003200020626D1EF6D570BD70B5044685690078F3
:10033000C00707D170BDD4E9012120209047206A71
:10034000401C20626D1EF6D570BD00002DE9F04105
:100350000646002410687529314616A510D0AFF363
:100360000080002802DA404213A507E031688A07BE
:1003700001D512A502E0490704D511A5012401E029
:10038000AFF3008000210A2206F1240709E0B0FB48
:10039000F2FCB0FBF2F302FB1C003030785418463C
:1003A000491C0028F3D123462A463046BDE8F041D7
:1003B00000F0F0B9000000002D0000002B0000004C
:1003C000200000002DE9F05F894604464FF0000A46
:1003D000DFF824B1FB44C0F820A02046E16888473C
:1003E00000287DD0252806D0D4E901219047206A35
:1003F000401C2062F1E700255F462046E1688847FF
:100400002028064607DB312E05D2B81910F8200C3B
:1004100008B10543F1E7A80701D525F00405C4F8A4
:100420001CA00027C4F818A02A2E09D030462BF0B3
:1004300015F938B304EB8708303EC8F8186019E0A6
:1004400059F8041B204604EB87029161E168884754
:10045000012F064618D1E069002820DA25F0200592
:100460001DE0D8F8180000EB800006EB40003038A3
:10047000C8F818002046E168884706462BF0EEF8D9
:100480000028EED1012F0AD02E2E08D12046E16897
:1004900088477F1C0646022F45F02005C4DBA06973
:1004A000002803DA404245F00105A061E80701D0C9
:1004B00025F01005A6B1A6F14100192802D8203672
:1004C00045F400654A463146204625604D46FFF713
:1004D000B5FE60B1012807D0ED1D25F0070000E052
:1004E00007E000F1080978E705F1040975E73046EF
:1004F0007AE7206ABDE8F09F78B5040070B506463B
:1005000000F044F90468054630460A22002100F054
:10051000C6FB2C6070BD40EA0103024630B59B0764
:1005200010D14FF0013400E008C208C91D1B9D43E3
:1005300015EAC41FF8D013F0FF0102F8011B0DD01B
:100540001B0AF8E711F8013B002B02F8013B05D02C
:1005500011F8013B002B02F8013BF3D130BD10B57F
:10056000431C02E010F8011B71B18107FAD14FF072
:10057000013202C88C1A8C4314EAC211F9D0C01A95
:100580000A0603D0C01E10BDC01A10BD0A0401D057
:10059000801E10BD0902FCD0401E10BD421E12F884
:1005A000013F002BFBD111F8013B002B02F8013B6E
:1005B000F9D17047032A40F2308010F0030C00F0AC
:1005C000158011F8013BBCF1020F624498BF11F88D
:1005D00001CB00F8013B38BF11F8013BA2F1040246
:1005E00098BF00F801CB38BF00F8013B11F00303BE
:1005F00000F06780083AC0F0088051F8043B083AE0
:1006000051F804CBA0E80810F5E7121D5CBF51F8C3
:10061000043B40F8043BAFF30080D20724BF11F83D
:10062000013B11F801CB48BF11F8012B24BF00F8A2
:10063000013B00F801CB48BF00F8012B7047431A7B
:1006400028BF9A427FF6B6AF032A1044114440F205
:10065000268010F0030F1EBF11F8013D521E00F856
:10066000013D10F0030F7FF4F6AF11F0030300F02B
:100670006183083AC0F00B8051F8043D083A51F804
:1006800004CD40F8043D40F804CDFFF7F3BF121D40
:100690005CBF51F8043D40F8043DAFF30080D20741
:1006A00024BF11F8013D11F801CD48BF11F8012C0C
:1006B00024BF00F8013D00F801CD48BF00F8012C2F
:1006C000704710B5203AC0F00B80B1E81850203ABE
:1006D000A0E81850B1E81850A0E81850BFF4F5AFE2
:1006E0005FEA027C24BFB1E81850A0E8185044BF6C
:1006F00018C918C0BDE810405FEA827C24BF51F8D9
:10070000043B40F8043B08BF7047D20728BF31F8CC
:10071000023B48BF11F8012B28BF20F8023B48BF1D
:1007200000F8012B704702F0FF0343EA032242EA7C
:10073000024200F02BBB4FF0000200B51346944676
:100740009646203922BFA0E80C50A0E80C50B1F129
:100750002001BFF4F7AF090728BFA0E80C5048BF3D
:100760000CC05DF804EB890028BF40F8042B08BFDB
:10077000704748BF20F8022B11F0804F18BF00F8D7
:10078000012B704770477047704700000048704762
:100790002C8A00202DE9F0470D46994692460446E2
:1007A00000F124080168880604D5E06921F01001F1
:1007B000216000E00120A84201DD471B00E0002786
:1007C000A1697A1902EB0900081AA0612078C00615
:1007D00002D42046FFF792FD002608E0D4E901216B
:1007E0001AF806009047206A401C761C20624E458D
:1007F000F4DB2078C0060AD52046FFF77FFD06E02F
:10080000D4E9012130209047206A401C2062381E24
:10081000A7F10107F4DC07E0D4E9012118F805008D
:100820009047206A401C2062281EA5F10105F3DCD8
:100830002046FFF779FD2078000602D50220BDE8AA
:10084000F0870120FBE770472DE9FF4F0C461E465D
:100850004FF0FF378BB0D2E90001DDF860800A90DD
:100860008A46C1F30A5505B93D46002108464FF0B6
:100870000000BAF1000F00F4400005DA00EB800040
:100880004FF4400101EA50004FEA9059B9F1010FCD
:1008900000DDB9460A9850EA4A000ED044F61050DE
:1008A000A5F2FF3545432F14B8F1000F1ED0754255
:1008B000291E1EDDC9F100021CE0B8F1010F4FF046
:1008C000000001D0302103E0F24305E02154401C38
:1008D000B042FBDB30460022002121540B99C1F8C5
:1008E0000880C1E900200FB0BDE8F08FBD1B6D1C72
:1008F000DEE74A4600DA694206A800F04DFB06AB87
:1009000093E8070003AB83E8070050460A9900F01C
:1009100038FC8DE80700A0F500501F3800900398C0
:10092000002D0ADD42F21F014A460844002303A9B4
:100930000390684600F0A1FE09E0A0F500504A4689
:100940001F38002303A90390684600F0ABFE8DE832
:1009500007000004000C03D04FF0FF30410800E016
:100960001046B8F1000F03D00022009215461EE099
:10097000751E05D400F03AFA303262556D1EF9D575
:10098000B3460122084302D000227F1C04E02078F5
:10099000302801D100227F1E002A099784D01DE053
:1009A000112D07DA00F022FA303262556D1C50EA40
:1009B0000102F5D1084302D00098C8B10EE0002131
:1009C000681E05E0235C625C63542254401E491C8F
:1009D0008142F7DBAB46A81B401E0990002004F8BB
:1009E0000B000B98099AC0F80880C0E9002B7AE741
:1009F00011264FF0000857E72DE9F04F88460446CE
:100A0000D21D22F0070191B0D1E90001CDE90A0120
:100A100024F0D6FF02460B98C00F01D02D2007E02E
:100A20002068810701D52B2002E0202101EAC000C7
:100A3000032A099001D0072A05DB034641462046D8
:100A400000F01AFA0BE12078800601D5E06900E099
:100A50000620B8F1650F814606D0B8F1660F18D0B0
:100A6000B8F1670F70D131E00020B9F1110F00909B
:100A700001DB112301E009F101030AAA01A90CA875
:100A8000FFF7E2FEDDE90C70002609F1010583465F
:100A900047E001204B4600904FF000470AAA01A909
:100AA0000CA8FFF7D1FEDDE90DB00C995D460026DC
:100AB00010B909F101000D18B9EB050003D4C0F11C
:100AC000FF3609F10105A5EB09002BE0B9F1010F93
:100AD00001DA4FF001090020B9F1110F00904846EA
:100AE00001DD112300E003460AAA01A90CA8FFF7C3
:100AF000ABFEDDE90C704D460026834620780007EA
:100B00000AD4AB4500DA5D4601A8012D04DD411988
:100B100011F8011C302907D04F4502DA17F1040FF4
:100B200004DA012082460FE06D1EEEE7002F02DCA2
:100B3000ED1B3E4403E0781CA84200DD7D1CB81B81
:100B400000F1010A4FF000472078000703D4AA45BE
:100B500001DB4FF0FF3A0021B7F1004F0DF14308E0
:100B60008DF8431024D002202B23002F01DA7F427E
:100B70002D230A21021EA0F1010000DC5FB197FBCA
:100B8000F1FC97FBF1F201FB1C7C17460CF1300CD9
:100B900008F801CDEEE7A8F10100037021880905EE
:100BA00001D5452100E06521A0F1010800F8011CF4
:100BB00009980FA9A1EB0807FF1D00B101204119F9
:100BC00001EBEA70A1693844081A401EA061207840
:100BD000C00602D42046FFF791FB099828B1D4E95A
:100BE00001219047206A401C20622078C00622D54F
:100BF0002046FFF783FB1EE0002E04DBB34502DD39
:100C000001A8805D00E03020D4E901219047206AEE
:100C1000401C2062761CAAF101005FEA000A0AD19A
:100C200000F0E0F8C0680168405CD4E90121904719
:100C3000206A401C2062281EA5F10105DCDC07E0CB
:100C4000D4E9012118F8010B9047206A401C20626A
:100C5000381EA7F10107F3DC2046FFF765FB0320F0
:100C600011B041E601694A1C02610878704700B57D
:100C70008FB0CDE901310021059105497944CDE9D5
:100C8000031011466846FFF79DFB0FB000BD000042
:100C9000E5FFFFFF0A6802F8010B0A6070472DE9C3
:100CA000F04791460F4680460446002614F8015B43
:100CB0002DB100F08FF80068405DC007F6D12B2DF4
:100CC00002D02D2D18D0641E4A463946204600F029
:100CD00013F927B13968A14201D1C7F800804FF05C
:100CE000020471050BD54042002803DDFFF74EFDDD
:100CF0000460A007BDE8F08746F48066E4E70028BA
:100D0000F8DAFFF743FD04606FF00040F2E7431AA2
:100D100028BF9A427FF6D5AC104410F0030F11445F
:100D20001EBF11F8013D521E00F8013D10F0030FE7
:100D30007FF4F6AF103AC0F00A8010B531E91850D0
:100D4000103A20E91850BFF4F9AFBDE8104053073E
:100D500024BF31E9081020E9081044BF51F8043DD0
:100D600040F8043D12F0030F08BF7047D20728BFB8
:100D700031F8023D48BF11F8012C28BF20F8023D90
:100D800048BF00F8012C70474FF000020429C0F062
:100D9000128010F0030C3FF4D0ACCCF1040CBCF189
:100DA000020F18BF00F8012BA8BF20F8022BA1EBFF
:100DB0000C01FFF7C2BC5FEAC17C24BF00F8012B25
:100DC00000F8012B48BF00F8012B7047004870471E
:100DD0002C8A002010B500F005F8001D10BD00BFE2
:100DE0008DB60200004870474C8A002030B5B0F143
:100DF0000A024FEA900E71F100034EEA817EB0EBD9
:100E00000E0061EB91014FEA101E4EEA017E10EBDD
:100E10000E0041EB11114FEA102E4EEA016E10EB5D
:100E20000E0041EB11214FEA104E4EEA014E10EB3D
:100E30000E0041EB1141401841F100014FEAD00092
:100E400040EA41704FEAD10110EB80054FEA81047E
:100E500044EA907444EB01046D1944EB0404521B02
:100E6000A3414FF0000348BF0A3200D530BD401CFB
:100E700041F1000130BD00002DE9F0411F4604465C
:100E800003260168072A01F4006004DB08B116A5F7
:100E900005E016A503E008B115A500E015A521F0B1
:100EA00010002060A069C01EA0610FB1401EA061AB
:100EB0002046FFF723FA4FB1D4E901213846904785
:100EC000206A401C2062C01C206206E0206AFAE70B
:100ED000D4E9012115F8010B9047761EF8D220467F
:100EE000FFF722FABDE8F0814E414E006E616E00C0
:100EF000494E4600696E66002DE9F05F8246154650
:100F00008B4600270AF10104B9460078302801D049
:100F10009DB113E014F8010B0127782803D058285D
:100F200001D045B10AE00DB1102D07D1002714F80A
:100F3000010B102502E0082500E00A250026B04636
:100F40000EE005FB080005FB06F101271FFA80F8FB
:100F500001EB1046B6F5803F00D3B94614F8010BFB
:100F6000294600F0B0F80028EBDABBF1000F05D0FD
:100F70000FB1641E00E05446CBF80040B9F1000FF9
:100F800006D0FFF703FC02210160C81EBDE8F09FF8
:100F900048EA0640FAE700002DE9F0478146164688
:100FA0008AB0354878440DC88DE80D003248784441
:100FB000801C03AC0DC884E80D0041F69B3008444A
:100FC000372190FBF1F290FBF1F5A5F1800501FBD3
:100FD00012041B3C02D56442012000E00020DFF82F
:100FE00098A080460027FA44AAF1BE0A0EE0E00766
:100FF0000AD03246684607EB470101230AEB81011C
:1010000000F050FB8DE8070064107F1C002CEED12F
:10101000194F7F44AE3F19E0E80715D007EB0410E5
:101020000DF1180A90E80E008AE80E00C068F04240
:1010300001D1981908903246012306A903A800F0AF
:1010400031FB03AB83E807006D10641C002DE3D176
:101050004FF0010332466946B8F1000F03A802D0F1
:1010600000F00BFB01E000F01DFBC9E90001C9F82D
:1010700008200AB0BDE8F08738AA04007546FFF7DB
:10108000A5FEAE4605006946534620F0070085469A
:1010900018B020B5FFF70CF9BDE820404FF000066E
:1010A0004FF000074FF000084FF0000B21F0070150
:1010B000AC46ACE8C009ACE8C009ACE8C009ACE893
:1010C000C0098D4670473A2800D2303820F02002FF
:1010D000412A01D3A2F13700884201D34FF0FF30FB
:1010E000704710B50446AFF300802046BDE81040BD
:1010F000FFF7C9B84FF0013C50F8042B51F8043BFE
:101100009A4221D1A2EB0C03934313EACC1317D1DB
:1011100050F8042B51F8043B9A4215D1A2EB0C0372
:10112000934313EACC130BD150F8042B51F8043B32
:101130009A4209D1A2EB0C03934313EACC13DBD000
:101140004FF00000704700BFD01A01BAB1FA81F128
:1011500001F0180122FA01F0CB40C1F12001DBB20D
:10116000C0B2C01A2CFA01F3D11A914311EAC3118B
:10117000E6D1704701491820ABBEFEE72600020009
:1011800070475FEA400C08BF91F0000F4FEA8C23D4
:101190004FEAC12243EA51514FEA1C5018BF00F5F3
:1011A000F0404FEA300018BF41F000415FEA6C5C4C
:1011B00000F02980BCF1FF3F08BF40F0804070473D
:1011C000130C06BF12044FF0100C4FF0000C130E5E
:1011D00004BF12020CF1080C130F04BF12010CF132
:1011E000040C930F04BF92000CF1020CD30F04BF48
:1011F00052000CF1010C11464FF00002A0F11F004B
:10120000A0EB0C00704711F0004F08BF704731F0A1
:1012100000413FF4D5AF0B0C06BF09044FF0100C92
:101220004FF0000C0B0E04BF09020CF1080C0B0F61
:1012300004BF09010CF1040C8B0F04BF89000CF1F1
:10124000020CCB0F04BF49000CF1010CCCF12003C0
:10125000A0EB0C0022FA03F302FA0CF241EA0301BC
:1012600000F10100704720F07F4C80EA030023F07A
:101270007F47ACEB070303F57C5300F0004003F11C
:10128000FF032DE980494FEA154B09B44FEA144397
:1012900025EA0B4E24EA03480FF2042606EB132737
:1012A00049083E785FEA320203FB0667C7F500078C
:1012B00007FB06F64FEA54374FEAD64606F1020618
:1012C00007FB066CCCF1005C4FEA1C472CEA074C8C
:1012D00007FB06F40CFB06F504EB15464FEA9616E1
:1012E00034BF00204FF000404FEAD13706FB07FC27
:1012F0004FEA1C4C0CFB0BF7D21B03FB0CF761EB0A
:1013000007010CFB0EF7B0EB074072EB17420CFB2A
:1013100008F734BFA2EB0742B2EB074261EB17417B
:101320004FEA0C444FEA910706FB07FC4FEA1C4CBE
:101330000CFB0BF7B0EBC74072EB573203FB0CF71B
:1013400034BFA2EBC742B2EBC74261EB57310CFB93
:101350000EF7B0EBC70072EB57720CFB08F734BF07
:10136000A2EBC702B2EBC70261EB5771039F4FEAD2
:10137000816141EA921104EBCC044FEAD1374FEA84
:10138000826206FB07FC42EA90124FEA80604FEA55
:101390001C4C0CFB0BF7D21B03FB0CF761EB07019A
:1013A0000CFB0EF7B0EB074072EB17420CFB08F793
:1013B00034BFA2EB0742B2EB074261EB17414FEAA1
:1013C0008C554FEA910704EB9C2406FB07FC4FEA7F
:1013D0001C4C0CFB0BF7B0EBC74072EB573203FB16
:1013E0000CF734BFA2EBC742B2EBC74261EB5731F7
:1013F0000CFB0EF7B0EBC70072EB57720CFB08F753
:1014000034BFA2EBC702B2EBC70261EB577115EB19
:101410004C254FEA816141EA92114FEA82624FEA1C
:10142000D13742EA901206FB07FC44F100044FEA70
:1014300080604FEA1C4C0CFB0BF7D21B03FB0CF734
:1014400061EB07010CFB0EF7B0EB074072EB1742A4
:101450000CFB08F734BFA2EB0742B2EB074261EB8B
:10146000174115EB1C154FEA813141EA92414FEAD1
:10147000823242EA90424FEA80304FEA0C7644F1E1
:10148000000448EA03434EEA0B484FF0000EB2EB6B
:10149000080C71EB030724BF624639464EEB0E0E73
:1014A0004FF0000B0018524149414BEB0B0BB2EBD4
:1014B000080C71EB03077BF1000B24BF6246394631
:1014C0004EEB0E0E4FF0000B0018524149414BEB12
:1014D0000B0BB2EB080C71EB03077BF1000B24BF85
:1014E000624639464EEB0E0E51EA020718BF46F02F
:1014F000010616EB0E7655F1000254F1000103D5FA
:10150000BDE88901BDE80088BDE88901BDE8004863
:10151000B619524141EB0101A3F1010370478080EC
:101520007F7E7D7C7B7A797877767675747372713D
:1015300071706F6E6E6D6C6C6B6A6A6968686766F5
:1015400066656464636362616160605F5F5E5E5D87
:101550005D5C5C5B5B5A5A595958585757565655FB
:1015600055555454535352525251515050504F4F5D
:101570004F4E4E4D4D4D4C4C4C4B4B4B4A4A4A49AD
:1015800049494848484747474746464645454544F0
:101590004444444343434342424242414141002B7D
:1015A0009C4630D477002BD01CB54FEA370703B4E4
:1015B0004FF010004FF01001BAF1000F06D0BCF14F
:1015C000000FDCBF40F0080040F008014FF00000C1
:1015D0000FBCBDE810400BF1010BBBF1010F08BFC0
:1015E0005FEA170722BF12F1010211F101014FF06A
:1015F000004143F1000300F0004043EA000070475F
:10160000F9D35708D0E746EA064613F1400F4FEAF0
:1016100016461FDD13F1200FDFBF16430A460021D7
:1016200020335B42BED0C3F1200746EA064602FAE9
:1016300007F74FEA164646EA0706C3F1200722FAE3
:1016400003F201FA07F721FA03F14FF0000342EA2F
:101650000702A7E746EA020646EA06464FEA1646AA
:1016600046EA0106BCBF46EA0646360C4FF00003C8
:101670004FF000024FF0000194E72DE9804C9A46AC
:10168000934670B491E8380007C831EA400C48BF6F
:1016900034EA430C03D5FFF7E6FDFFF780FFF0BC0B
:1016A000BDE8008C2DE9804C9A46934670B491E8D1
:1016B000380007C810F0804F08BF13F0804F03D1E7
:1016C00000F005F8FFF76BFFF0BCBDE8008C20F0E0
:1016D0007F4780EA030023F07F4C07EB0C03A3F560
:1016E0007C5300F00040A3F1FE0392F0000F00F0E5
:1016F000B38095F0000F00F077802DE901494FEAA3
:1017000011404FEA144621EA004800FB06FC24EA97
:10171000064708FB06F607FB08F800FB07F718EB7F
:1017200006484CEB164C4FEA124B18EB07484FEAB1
:1017300015464CEB174022EA0B4E0BFB06FC25EA44
:1017400006470EFB06F607FB0EFE0BFB07F71EEB2C
:10175000064E4CEB164C4FF000061EEB074E4CEBC2
:10176000174B18EB0B0840F1000018EB0E0B58EB71
:10177000000840F100008F1A4FF000013CBFC94340
:10178000661B14BFB5EB040C00213CBFC943F61B1C
:101790004FEA17444EEA8E0E27EA04454FEA1C47EB
:1017A00004FB07622CEA074C05FB07F70CFB05F668
:1017B00004FB0CFC16EB074642EB174216EB0C46FB
:1017C00042EB1C421BEB060658EB0202414146EA83
:1017D0009E0601D5BDE80189B619524141EB0101D0
:1017E000A3F10103BDE801894FEA14454FEA11470F
:1017F00024EA054621EA074C05FB07F406FB07F738
:101800000CFB06F105FB0CFC11EB074144EB174404
:101810004FEA124711EB0C4144EB1C4422EA074CFF
:1018200005FB07F206FB07F70CFB06F605FB0CFCB5
:1018300016EB074642EB174216EB0C4642EB1C45F3
:101840006A1854F1000148BF7047B619524141EB84
:101850000101A3F10103704795F0000F37D04FEA63
:1018600011424FEA144721EA024624EA074C02FBE0
:1018700007F106FB07F70CFB06F402FB0CFC14EB6C
:10188000074441EB17414FEA154714EB0C4441EB79
:101890001C4125EA074C02FB07F506FB07F70CFB8A
:1018A00006F602FB0CFC16EB074645EB174516EB5C
:1018B0000C4645EB1C42121951F1000148BF70471C
:1018C000B619524141EB0101A3F1010370474FEA00
:1018D00014454FEA114724EA054621EA074C05FB67
:1018E00007F106FB07F70CFB06F24FF0000605FBBD
:1018F0000CFC12EB074241EB174112EB0C4251EB8F
:101900001C4148BF7047921841EB0101A3F101034C
:10191000704708B54FF47A70009003E0BDF80000FE
:10192000401E0090BDF800000028F7D108BD08B5A2
:1019300040F6B830009003E0BDF80000401E009073
:10194000BDF800000028F7D108BD00002DE9FC41DA
:1019500002268DF8056001248DF8044000258DF8DD
:101960000650402000901A4F6946384605F0A8F905
:101970008DF805608DF804408DF806500820009021
:101980006946384605F09CF98DF805608DF80440ED
:101990008DF80650202000906946384605F090F9F1
:1019A0008DF804508DF807401020009069463846A5
:1019B00005F086F94021384605F0D9F9202138464E
:1019C00005F0D5F90821384605F0D1F9BDE8FC81CC
:1019D0000004024070B586B000250595484C14E01F
:1019E0009DF81410012015F039FD9DF8141024F80D
:1019F0001100FFF79CFFE0880290A08801902089E9
:101A000000909DF81400401C05909DF814000828D3
:101A1000E6D3BDF808203B4E7078411C7170384CFD
:101A2000D83424F810207078142800D17570344808
:101A30001421D83000F0F2FC0395022204920AE04F
:101A40009DF8100034F810000399084403909DF8A5
:101A50001000401C04909DF810001028F0D303984B
:101A60000E23B0FBF3F028490880BDF80440B0789D
:101A7000411CB170410025484452B178142900D16D
:101A8000B570039504920AE09DF8101030F811101B
:101A9000039A114403919DF81010491C04919DF87C
:101AA00010101029F0D303981949B0FBF3F0086027
:101AB000BDF800203078411C3170410010481030D2
:101AC000425231781E2900D13570039504950AE001
:101AD0009DF8101030F81110039A114403919DF8ED
:101AE0001010491C04919DF810101E29F0D3039882
:101AF0001E21B0FBF1F00749086006B070BD000080
:101B00004C0E002029010020680000204C0F00200E
:101B1000700000206C000020F0B59BB001210F0286
:101B2000384613F0A9FA0121880513F07BFA042046
:101B3000009003258DF8045000248DF807403C4E9A
:101B40006946304605F0BCF8082000908DF8045036
:101B50008DF807406946304605F0B2F84020009005
:101B60008DF804508DF807406946304605F0A8F816
:101B7000119412941394149411A800F057F9159429
:101B800001268DF858608DF85960189419948DF8D5
:101B90006850284D15A9284600F074F90423012245
:101BA0000221284600F094F900230222032128464E
:101BB00000F08EF9002303220621284600F088F960
:101BC0000121284600F026F9284600F0BBF9012142
:101BD000284600F04BF9029416484C300390164802
:101BE00004900594962006900794281508904000CC
:101BF000099080000A900B9700010C900D940E96AE
:101C00000F9410940D4C02A9204602F085F9012191
:101C1000204602F05BF901221021204602F062F911
:101C200002F016F90121284600F014F91BB0F0BDAE
:101C30000000024000200140D8090020106402404A
:101C40002DE9FE41002702976F4B032103F596749F
:101C500003F5C8756D4A03F5FA763EE0BDF8080055
:101C6000B0FBF1FC01FB1C0080B1BDF80800B0FB2B
:101C7000F1FC01FB1C00022814D0BDF80800B0FBE9
:101C8000F1FC01FB1C00012818D022E0BDF808007F
:101C900033F810C0107800F1010882F8008024F8B1
:101CA00010C016E0BDF8080033F810C0507800F1FD
:101CB000010882F8018026F810C00AE0BDF808008B
:101CC00033F810C0D07800F1010882F8038025F8BD
:101CD00010C0BDF80800401C0290BDF8080096280E
:101CE000BCD3177057709770D770009701970AE0B0
:101CF0009DF8040034F810000099084400909DF805
:101D00000400401C01909DF804003228F0D31179A2
:101D100001243F483223142908D2009992F804C0C4
:101D2000B1FBF3F120F81C10009719E00097019423
:101D30000BE09DF8041030F81110DDF800C061448C
:101D400000919DF80410491C01919DF8041013297D
:101D5000EFD300981321B0FBF1F0108100971771B9
:101D60001079401C107101970AE09DF8040035F8C5
:101D700010000099084400909DF80400401C019058
:101D80009DF804003228F0D35179214828303229B7
:101D900007D200995479B1FBF3F120F814100097A1
:101DA00017E0009701940AE09DF8041030F8111034
:101DB000009C214400919DF80410491C01919DF85C
:101DC00004103229F0D30098B0FBF3F05081009753
:101DD00057715079401C507101970AE09DF804003A
:101DE00036F810000099084400909DF80400401C4B
:101DF00001909DF804003228F0D30098B0FBF3F076
:101E0000D080BDE8FE810000D80900205C000020E1
:101E1000300C0020002904D0816841F0010181606C
:101E20007047816821F001018160704710B5074C4F
:101E3000226807490A40D0E900131943D0E902306B
:101E4000034319431143216010BD000004230140E6
:101E5000E030FCFF002904D0816841F4807181608A
:101E60007047816821F4807181607047002904D037
:101E7000816841F4007181607047816821F40071CC
:101E80008160704730B542680F4B1A400C790B687F
:101E900042EA04221343436083680C4A1340D1E9A9
:101EA000034222434D798C6844EA450422431A4395
:101EB0008260C26A22F47002097D491EC9B242EAF8
:101EC0000151C16230BD0000FFFEFFFCFDF7FFC005
:101ED00070B5072609290AD9C568A1F10A0404EBDF
:101EE0004404A640B543A3401D43C56007E005690F
:101EF00001EB4104A640B543A3401D4305611F23E8
:101F0000072A09D2446B521E02EB820293409C4383
:101F100091400C43446370BD0D2A09D2046BD21F5B
:101F200002EB820293409C4391400C43046370BDDA
:101F3000C46A0D3A02EB820293409C4391400C43E9
:101F4000C46270BD816841F08041816070470028A3
:101F500000DC404270474178007841EA0020704739
:101F600010B50C480078400612D40B4C206841078D
:101F70000ED5020609484FF4007103D4BDE81040A5
:101F800004F0F5BE04F0F1FE206820F004002060AB
:101F900010BD00003C00002034000020000802407A
:101FA0000549086840F00400044B00221A8020F024
:101FB0008000086070470000340000207C00002092
:101FC00038B5456804460146284619F079F90028D5
:101FD0002AD02068304A0F2819D006DC0B2824D0DC
:101FE0000C2810D00E2851D12FE0112802D028281B
:101FF0004CD145E09268002A16D02146284601B00F
:10200000BDE830401047214628465268F7E7284689
:1020100005F0F4FD0090406E0468684605F038FE57
:10202000002C01D02846A04738BD284605F0E6FD23
:102030000090683005F04AFD009803216C3005F0EF
:102040004DFD684605F024FE20E0E1684868096817
:102050000D2902D0202913D105E0002810DD2846E3
:1020600020F0C6FA06E0002804DD2846BDE8384026
:1020700020F0BEBA2846BDE83840022120F0CEBA92
:10208000E06818B90021284600F097F92046BDE81D
:10209000384019F089BD0000A8020020F0B50446C0
:1020A00085B08069B4F90850668A0027CDE90265D9
:1020B000CDE900170490B4F90C00B4F91060C11810
:1020C000B4F90A00B4F90E50104433462A4600F021
:1020D00007F80546616800F079F905B02846F0BDBB
:1020E000F0B585B00C46DDE90D514C31DFF850C03C
:1020F000DDE90A67CDE902C12146CDE9006719F0A3
:10210000A3FC040018D005F079FD102229460490A4
:1021100019F0FAFA049830220A493430FEF7D1FA5D
:10212000084D04990C3D2868486604A805F0B0FDE8
:10213000286841682046884705B02046F0BD000069
:10214000C11F0008B4020020F0B5044680688B4926
:1021500089B051F82050606800287DD0052804D04F
:1021600006287AD0122879D1AEE0E86900284FD04D
:1021700095E80E008DE80F0004F110010FC908F07A
:10218000F1F8002655F8260007F050F9A169E86932
:102190000A1A216901446069304406F0D1FAA16944
:1021A000E8690A1A21690144E069801B06F0C8FA4F
:1021B000E169E8690A1A616901442069304406F05E
:1021C0007BFBE169E8690A1A61690144A069801B27
:1021D00006F072FB761C022ED4DBA86807F026F905
:1021E000E069E9696669431A20694218521E314460
:1021F000801C06F0CBFBE169E869A2690B1A6169F2
:102200000144101A401C921E06F0C0FBEE6913E058
:102210005FF0000655F8260007F008F9E069831B17
:10222000A069821B606981192069304406F006FBB1
:10223000761C022EEEDB0226D5E90301CDE9000172
:102240006169E06908444310A069891C821B206908
:10225000304406F01DFA02E089E012E08AE0D5E998
:102260000501CDE90001E36960690121184401EB32
:102270006001A0699B1E821B2069304406F008FAA9
:1022800078E0206805F0BAFC049020681AF0BCFCE5
:1022900040B1A06808B1002008E00498006F28B1A0
:1022A000012003E00498406F00B10220049901EB83
:1022B0008000C56E04A805F0EBFC00231A462846F2
:1022C000216805F077FF55E0206805F097FC049041
:1022D000866EEEB3B0F95C70A168D1B3032942D029
:1022E0005FF0000100EB8101406D0C6C07F0A8F875
:1022F000204607F09BF805A806F098FBBDF81410DF
:10230000A88B0144ADF81410BDF81810081AADF8E8
:102310001800BDF81600801CADF81600BDF81A00B4
:10232000801EADF81A0004985E30B0F90220B0F9B2
:10233000001005A806F0D8FF04A805F0A9FC0220AB
:1023400007F0BEF8304605F059FC3A4605A901E011
:102350000BE006E0079006F025F807A805F098FCCA
:1023600008E00121BEE70221BCE704A8F6E72068E7
:102370001AF00EF909B00020F0BD0000CC76040878
:10238000044A0349116004494A6A4862104670478A
:10239000E4020020A8020020B402002038B50D4657
:1023A000040009D005F02AFC00904565684605F058
:1023B0006FFC204619F0EFFE38BD4FF48072002903
:1023C000114601D019F006B818F057BF2DE9FF41AA
:1023D0000E4605004FF001041CD005F00FFC0190E3
:1023E000876E01A8009705F053FC3146684608F057
:1023F00099FA78B100980024B84208D0284605F030
:10240000FDFB01900099816601A805F041FC28467A
:1024100019F0C1FE04B02046BDE8F08113B50022DA
:1024200017E011460FE030F8113030F81240A342A7
:1024300007D930F8123030F8114020F8124020F857
:102440001130491CC9B29DF804309942EBD3521C9B
:10245000D2B29DF804108A42E3D31CBDFEE700000F
:102460002DE9F05F7B4C21787B4840F66F051939E8
:102470006F1C82696FF0704640F6770840F6780965
:1024800040F6710A40F6790B0C2925D2DFE801F0FD
:10249000062645642424242483A224C22946054612
:1024A000104619F08FFC80463146404616F028FA57
:1024B0006FF07F41404616F075FA3946A86919F069
:1024C00081FC05466549284616F01AFA002128467F
:1024D00016F068FA1A202070BDE8F09F05463946CC
:1024E000104619F06FFC07463146384616F008FAD8
:1024F0006FF07F41384616F055FA4146A86919F049
:1025000061FC05465549284616F0FAF9002128468F
:1025100016F048FA1B202070DEE7054641461046BB
:1025200019F050FC07463146384616F0E9F96FF0CD
:102530007F41384616F036FA4946A86919F042FC40
:1025400005464649284616F0DBF90021284616F0D4
:1025500029FA1C202070BFE705464946104619F0AD
:1025600031FC07463146384616F0CAF96FF07F4114
:10257000384616F017FA5146A86919F023FC0546AB
:102580003649284616F0BCF90021284616F00AFA0A
:1025900021202070A0E705465146104619F012FC94
:1025A00007463146384616F0ABF96FF07F413846A2
:1025B00016F0F8F95946A86919F004FC05462749B0
:1025C000284616F09DF90021284616F0EBF9222046
:1025D000207081E705465946104619F0F3FB07467F
:1025E0003146384616F08CF96FF07F41384616F0C8
:1025F000D9F940F67201A86919F0E4FB05461749BC
:10260000284616F07DF90021284616F0CBF9242043
:10261000207061E7074640F67201104619F0D2FBC0
:1026200080463146404616F06BF96FF07F414046D8
:1026300016F0B8F92946B86919F0C4FB05460749F0
:10264000284616F05DF90021284616F0ABF919204E
:10265000207041E796010020B0010020FFFFBF007D
:10266000F0B52DED028B83B0B0480178B04A00265A
:102670009FEDB00AB04C01251929A06938D0DFEDD3
:10268000AF0A1A297ED0AE4A1B297CD01C292BD137
:10269000217C40F678031F1D022975D0217C012979
:1026A00022D1D18800EE101AB8EE400A80EE208ABE
:1026B000194619F087FBA3A116F04FF93946A06916
:1026C00019F080FB054618EE100A2AF0E3FB41ECF6
:1026D000100BA0A153EC102B01A8FDF7FBFD01A9E5
:1026E000284616F03AF9267403B0BDEC028BF0BD13
:1026F000617B40F66F031F1D012927D0617B0229F2
:10270000F2D1D2F8801000EE901AF8EE600A80EE56
:10271000808A194619F056FB90A116F01EF9394629
:10272000A06919F04FFB064618EE100A2AF0B2FB1A
:1027300041EC100B8DA153EC102B01A8FDF7CAFD45
:1027400001A9304616F009F96573CDE7D16F00EEA7
:10275000901AF8EE600A80EE808A194619F032FB72
:1027600084A116F0FAF83946A06919F02BFB05464A
:1027700018EE100A2AF08EFB41EC100B7BA153ECF3
:10278000102B02E00AE05CE0ACE001A8FDF7A2FD3E
:1027900001A9284616F0E1F86673A5E7A17B4FF47E
:1027A00007631F1D022927D0A17B01299CD1D2F8E4
:1027B000881000EE101AB8EE400A80EE208A194602
:1027C00019F000FB6FA116F0C8F83946A06919F09E
:1027D000F9FA054618EE100A2AF05CFB41EC100BE2
:1027E0005CA153EC102B01A8FDF774FD01A928464C
:1027F00016F0B3F8A67377E7D2F88C1000EE101A33
:10280000B8EE400A80EE208A194619F0DBFA61A181
:1028100016F0A3F83946A06919F0D4FA064618EE66
:10282000100A2AF037FB41EC100B4AA153EC102B95
:1028300001A8FDF74FFD01A9304616F08EF8A573EB
:1028400052E7E17B40F677031F1D022926D0E17B8A
:102850000129A2D1118800EE901AF8EE600A80EEEC
:10286000808A194619F0AEFA4EA116F076F839466C
:10287000A06919F0A7FA054618EE100A2AF00AFB1B
:1028800041EC100B39A153EC102B01A8FDF722FDF0
:1028900001A9284616F061F8E67325E7518800EE95
:1028A000901AF8EE600A80EE808A194619F08AFACA
:1028B00040A116F052F83946A06919F083FA06468D
:1028C00018EE100A2AF0E6FA41EC100B27A153EC9F
:1028D000102B01A8FDF7FEFC01A9304616F03DF8CB
:1028E000E57301E7118900EE101AB8EE400A80EE98
:1028F000208A194619F066FA32A116F02EF83946E8
:10290000A06919F05FFA064618EE100A2AF0C2FA1A
:1029100041EC100B0FA153EC102B01A8FDF7DAFCD2
:1029200001A9304616F019F82574DDE6960100205D
:10293000640D00200000C842B001002000007A446D
:10294000AC870020E688AAE6ADA2E794B5E6B5819B
:1029500031000000252E336600000000E8BE93E53C
:1029600087BAE794B5E58E8B32000000252E3266DB
:1029700000000000E8BE93E587BAE794B5E58E8BCA
:1029800031000000E99990E588B6E794B5E6B58195
:1029900031000000E99990E588B6E794B5E6B58185
:1029A00032000000E688AAE6ADA2E794B5E58E8B7A
:1029B00031000000E688AAE6ADA2E794B5E58E8B6B
:1029C00032000000E688AAE6ADA2E794B5E6B5813C
:1029D00032000000F0B52DED028B83B0AF480178D6
:1029E000AF4A9FEDB00AB04C01250226A069192913
:1029F00038D0DFEDAE0A1A297ED0AD4A1B297CD033
:102A00001C292BD1217C40F678031F1D002975D08D
:102A1000217C012922D1518900EE101AB8EE400A1A
:102A200080EE208A194619F0CDF9A2A115F095FF84
:102A30003946A06919F0C6F9054618EE100A2AF0C1
:102A400029FA41EC100B9FA153EC102B01A8FDF7C4
:102A500041FC01A9284615F080FF267403B0BDECA7
:102A6000028BF0BD617B40F66F031F1D39B3617BA4
:102A70000129F3D1D2F8841000EE901AF8EE600A22
:102A800080EE808A194619F09DF990A115F065FF36
:102A90003946A06919F096F9054618EE100A2AF091
:102AA000F9F941EC100B8DA153EC102B01A8FDF7A7
:102AB00011FC01A9284615F050FF6673CEE7D2F845
:102AC000801000EE901AF8EE600A80EE808A1946B7
:102AD00019F078F983A115F040FF3946A06919F083
:102AE00071F9064618EE100A2AF0D4F941EC100BE1
:102AF0007AA153EC102B02E00AE05BE0AAE001A807
:102B0000FDF7E8FB01A9304615F027FF6573A5E73F
:102B1000A17B4FF407631F1D39B3A17B01299DD110
:102B2000D2F8901000EE101AB8EE400A80EE208A1B
:102B3000194619F047F96FA115F00FFF3946A06942
:102B400019F040F9054618EE100A2AF0A3F941ECF5
:102B5000100B5CA153EC102B01A8FDF7BBFB01A9E6
:102B6000284615F0FAFEA67378E7D2F88C1000EE2E
:102B7000101AB8EE400A80EE208A194619F022F9A0
:102B800060A115F0EAFE3946A06919F01BF9064666
:102B900018EE100A2AF07EF941EC100B49A153EC13
:102BA000102B01A8FDF796FB01A9304615F0D5FEC4
:102BB000A57353E7E17B40F677031F1D31B3E17B3B
:102BC0000129A4D1918800EE901AF8EE600A80EEF7
:102BD000808A194619F0F6F84EA115F0BEFE394666
:102BE000A06919F0EFF8054618EE100A2AF052F91C
:102BF00041EC100B39A153EC102B01A8FDF76AFB37
:102C000001A9284615F0A9FEE67327E7518800EED2
:102C1000901AF8EE600A80EE808A194619F0D2F810
:102C200040A115F09AFE3946A06919F0CBF8064686
:102C300018EE100A2AF02EF941EC100B27A153ECE4
:102C4000102B01A8FDF746FB01A9304615F085FEC3
:102C5000E57303E7118900EE101AB8EE400A80EE22
:102C6000208A194619F0AEF832A115F076FE3946E1
:102C7000A06919F0A7F8064618EE100A2AF00AF91A
:102C800041EC100B0FA153EC102B01A8FDF722FB18
:102C900001A9304615F061FE2574DFE6960100209B
:102CA000640D00200000C842B001002000007A44FA
:102CB000AC870020E688AAE6ADA2E794B5E6B58128
:102CC00033000000252E336600000000E8BE93E5C7
:102CD00087BAE794B5E58E8B33000000252E326667
:102CE00000000000E8BE93E587BAE794B5E58E8B57
:102CF00032000000E99990E588B6E794B5E6B58121
:102D000033000000E99990E588B6E794B5E6B5810F
:102D100032000000E688AAE6ADA2E794B5E58E8B06
:102D200033000000E688AAE6ADA2E794B5E58E8BF5
:102D300032000000E688AAE6ADA2E794B5E6B581C8
:102D4000320000002DE9F05F7B4C21787B4840F693
:102D50006F056E1C1939F71D82696FF0704B40F6D4
:102D6000780840F6710940F6790A0C2926D2DFE886
:102D700001F0062746652525252584A325C2294679
:102D80000546104619F01EF806465946304615F01D
:102D9000B7FD6FF07F41304615F004FE40F672013A
:102DA000A86919F00FF805466549284615F0A8FDF1
:102DB0000021284615F0F6FD24202070BDE8F09F84
:102DC00031460646104618F0FDFF0746594638467C
:102DD00015F096FD6FF07F41384615F0E3FD29466A
:102DE000B06918F0EFFF05465549284615F088FDF3
:102DF0000021284615F0D6FD19202070DEE7054693
:102E00003946104618F0DEFF07465946384615F099
:102E100077FD6FF07F41384615F0C4FD3146A86953
:102E200018F0D0FF05464649284615F069FD0021F7
:102E3000284615F0B7FD1A202070BFE70546414629
:102E4000104618F0BFFF06465946304615F058FDAB
:102E50006FF07F41304615F0A5FD3946A86918F09E
:102E6000B1FF05463649284615F04AFD002128469F
:102E700015F098FD1B202070A0E705464946104636
:102E800018F0A0FF06465946304615F039FD6FF0A0
:102E90007F41304615F086FD4146A86918F092FF43
:102EA00005462749284615F02BFD0021284615F038
:102EB00079FD1C20207081E705465146104618F028
:102EC00081FF06465946304615F01AFD6FF07F41E6
:102ED000304615F067FD4946A86918F073FF0546AE
:102EE0001749284615F00CFD0021284615F05AFD1B
:102EF0002120207062E7054640F67201104618F066
:102F000061FF06465946304615F0FAFC6FF07F41E6
:102F1000304615F047FD5146A86918F053FF0546A5
:102F20000749284615F0ECFC0021284615F03AFD2B
:102F30002220207042E7000096010020B00100200E
:102F4000FFFFBF002DE9F04F2DED048B83B0FD484E
:102F5000406E00EE100AB8EE400ADFEDFB0A80EE8C
:102F6000208AF848806E00EE100AB8EE400ADFEDC5
:102F7000F70AC0EE208AF348C06E00EE100AB8EEE1
:102F8000400ADFEDF20A80EE209AEE48006F00EE74
:102F9000100AB8EE400ADFEDEC0AC0EE209AEC48C9
:102FA0000178EF4819390124EA4DEB4EEB4F806967
:102FB00040F66F0940F6730A4FF4076B40F6790844
:102FC000102938D2DFE801F00891EFEE3CC1EDECBA
:102FD000EBEAE9E8E7E6E5E44946E14E18F0F2FEFF
:102FE00007466FF07041384615F08AFC6FF07F415C
:102FF000384615F0D7FC5146B06918F0E3FE064696
:10300000D849304615F07CFC0021304615F0CAFC4A
:1030100000200290D44A06E09DF8081050549DF814
:103020000810491C02919DF808100529F4D3C849DD
:103030001D2008702C7003B0BDEC048BBDE8F08F30
:103040005146C74F18F0BEFE80466FF070414046B3
:1030500015F056FC6FF07F41404615F0A3FC787BDD
:1030600030B1787B012807D0787B022809D00CE0AA
:10307000B448C16F416008E0B248D0F880104160A8
:1030800003E0B048D0F884104160AE48406800EEDC
:10309000100AF8EE400A9FEDAC1A80EE810A10EE9D
:1030A000100A29F0F7FE41EC100BB0A153EC102BE5
:1030B0006846FDF70FF96946404615F04EFC494653
:1030C000B86918F07FFE0746A649384615F018FC87
:1030D0000021384615F066FC9D49192008702C70B7
:1030E0000020307019F0F6FFA5E759469C4C18F007
:1030F00069FE05466FF07041284615F001FC6FF03F
:103100007F41284615F04EFC00200290964A06E0CA
:103110009DF8081050549DF80810491C02919DF824
:1031200008100529F4D340F67401A06918F04AFE8E
:1031300004468C49204615F0E3FB0021204615F09B
:1031400031FC83491E20087075E740F67401844FF6
:1031500018F038FE80466FF07041404615F0D0FB05
:103160006FF07F41404615F01DFCB87B30B1B87B55
:10317000012808D0B87B022816D019E07148D0F891
:103180008810816014E06F48D0F88C1081600FE0E7
:1031900020E2B7E123E172E0CFE2EAE182E14FE22F
:1031A000F8E27EE2EAE039E06648D0F8901081600B
:1031B0006448826841F288318A4200D9816080681F
:1031C00000EE100AF8EE400A9FED601A80EE810AC8
:1031D00010EE100A29F05EFE41EC100B65A153ECD5
:1031E000102B6846FDF776F86946404615F0B5FBAA
:1031F0005946B86918F0E6FD07465A49384615F0B1
:103200007FFB0021384615F0CDFB51491A2008708C
:103210002C700020307019F05DFF0CE740F677014C
:103220004F4C18F0CFFD05466FF07041284615F061
:1032300067FB6FF07F41284615F0B4FB0020029039
:10324000494A06E09DF8081050549DF80810491CA2
:1032500002919DF808100529F4D340F67B01A0697E
:1032600018F0B0FD04463F49204615F049FB002107
:10327000204615F097FB364925200870DBE640F61E
:103280007B01DFF8DC8018F09DFD81466FF0704116
:10329000484615F035FB6FF07F41484615F082FB3C
:1032A00098F80F0040B198F80F0001280ED098F858
:1032B0000F00022814D01CE03888DFED230A00EE4E
:1032C000100AB8EE400A80EE208A12E07888DFED1E
:1032D0001E0A00EE100AB8EE400A80EE208A08E0CE
:1032E000B888DFED190A00EE100AB8EE400A80EE49
:1032F000208A18EE100A29F0CDFD41EC100B1BA11D
:1033000053EC102B6846FCF7E5FF6946484615F07C
:1033100024FB40F67701D8F8180018F053FD074653
:103320001049384615F0ECFA0021384615F03AFB02
:1033300007491B2008702C700020307019F0CAFE5D
:1033400079E60000640D00200000C84200007A44C5
:10335000960100204801002049010020AC87002090
:10336000B0010020FFFFBF008C010020252E326637
:1033700000000000252E33660000000040F67801B2
:10338000FE4C18F01FFD05466FF07041284615F001
:10339000B7FA6FF07F41284615F004FB0020029039
:1033A000F74A06E09DF8081050549DF80810491C93
:1033B00002919DF808100529F4D340F67C01A0691C
:1033C00018F000FD0446EF49204615F099FA002157
:1033D000204615F0E7FAEC49262008702BE640F667
:1033E0007C01DFF8988318F0EDFC81466FF07041A6
:1033F000484615F085FA6FF07F41484615F0D2FA3D
:1034000098F8100040B198F8100001280ED098F8F4
:103410001000022814D01CE0F8885FED340A00EE9A
:10342000100AB8EE400AC0EE208A12E038895FED3B
:10343000390A00EE100AB8EE400AC0EE208A08E011
:1034400078895FED3E0A00EE100AB8EE400AC0EE41
:10345000208A18EE900A29F01DFD41EC100B53EC68
:10346000102BAFF2F0016846FCF734FF694648467E
:1034700015F073FA40F67801D8F8180018F0A2FC9D
:103480000746C049384615F03BFA0021384615F08A
:1034900089FABD491C2008702C700020307019F08A
:1034A00019FEC8E54146B54C18F08CFC05466FF096
:1034B0007041284615F024FA6FF07F41284615F038
:1034C00071FA00200290AE4A06E09DF808105054B0
:1034D0009DF80810491C02919DF808100529F4D3A5
:1034E00040F67D01A06918F06DFC0446A549204610
:1034F00015F006FA0021204615F054FAA2492720BB
:10350000087098E540F67D019C4F18F05BFC814601
:103510006FF07041484615F0F3F96FF07F4148466F
:1035200015F040FA19EE100A29F0B4FC41EC100B2A
:1035300053EC102BAFF2C4116846FCF7CBFE694682
:10354000484615F00AFA4146B86918F03BFC0746B0
:103550008C49384615F0D4F90021384615F022FA86
:103560008949222008702C700020307019F0B2FDBB
:1035700061E540F67A01814C18F024FC05466FF0B5
:103580007041284615F0BCF96FF07F41284615F0D0
:1035900009FA002002907A4A06E09DF8081050547B
:1035A0009DF80810491C02919DF808100529F4D3D4
:1035B00040F67E01A06918F005FC044671492046DA
:1035C00015F09EF90021204615F0ECF96E492820EF
:1035D000087030E540F67E01684F18F0F3FB804636
:1035E0006FF07041404615F08BF96FF07F41404617
:1035F00015F0D8F919EE900A29F04CFC41EC100BAB
:1036000053EC102BAFF29C216846FCF763FE694631
:10361000404615F0A2F940F67A01B86918F0D2FBDD
:1036200007465849384615F06BF90021384615F021
:10363000B9F95549232008702C7000203070FAE445
:1036400040F671014D4C18F0BDFB05466FF070411E
:10365000284615F055F96FF07F41284615F0A2F97C
:1036600000200290464A06E09DF8081050549DF84C
:103670000810491C02919DF808100529F4D340F662
:103680007501A06918F09EFB04463E49204615F0DE
:1036900037F90021204615F085F93B491F200870B5
:1036A000C9E440F67501354F18F08CFB80466FF089
:1036B0007041404615F024F96FF07F41404615F007
:1036C00071F93248D0F89C10016101694EF6602210
:1036D000914201D900210161006900EE100AF8EE63
:1036E000400A1FEDE61A80EE810A10EE100A29F05A
:1036F000D1FB41EC100B53EC102BAFF28831684634
:10370000FCF7E8FD6946404615F027F940F67101DF
:10371000B86918F057FB07461A49384615F0F0F813
:103720000021384615F03EF91749212008702C7009
:103730000020307019F0CEFC7DE440F672010F4C91
:1037400018F040FB05466FF07041284615F0D8F898
:103750006FF07F41284615F025F940F67601A06903
:1037600018F030FB04460749204615F0C9F800213F
:10377000204615F017F92020034909E0B001002088
:103780008C010020FFFFBF0096010020640D002087
:10379000087050E440F67601124F18F013FB804693
:1037A0006FF07041404615F0ABF86FF07F41404636
:1037B00015F0F8F840F67201B86918F003FB0746F7
:1037C0000949384615F09CF80021384615F0EAF80A
:1037D0000649242008702C700020307019F07AFC03
:1037E00029E40000B0010020FFFFBF009601002087
:1037F00070B5174C61792046164D806940F69902E4
:10380000012912D0A17B01291DD0114618F0DAFA46
:1038100006466FF07041304615F072F82946304682
:1038200015F0C0F82F20207070BD114618F0CAFAAC
:1038300004462946204615F063F82046BDE870404E
:10384000002115F0AFB8BDE8704000F053BA000099
:10385000F0010020FFFFBF002DE9FF47044600688C
:1038600010B119F0D1F968B10022314850F8221096
:1038700060680A2841D007DCF0B306280DD007287D
:1038800054D106E00122F0E712280AD019284DD1C0
:1038900037E020461AF0ACFD48E020461BF036FF2A
:1038A00044E0206804F0AAF90290B0F9548090F83E
:1038B0005650476C466B02A804F0EAF9206800F005
:1038C00039F88146684618F055FABDF8001009EB42
:1038D00005000844ADF80000246A304605F0B0FD4C
:1038E000022005F0EDFD384605F0A0FD4246694690
:1038F000204604F057FD19E007E020461CF0F2F9DD
:1039000014E0886904B0BDE8F087206818F040FE34
:10391000206804F073F90390B0F90610B0F90220A2
:10392000891A491CC16703A804F0B2F90020E9E72D
:10393000DC76040838B504F061F90090C46F68467D
:1039400004F0A6F9204638BD044A03491160044931
:10395000CA69C8611046704770030020380700200C
:103960003C07002000B589B024216846FCF7E3FE3F
:1039700019200190034800688068416868468847BC
:1039800009B000BD3807002070B5FF22FF23084DA5
:1039900005F5807605E010F8014B54402A5D5A4049
:1039A000335D491E89B2F6D243EA022070BD0000A1
:1039B0008ECF02087CB51B4C2078012500281DD035
:1039C0001948C16F4160D0F888108160D0F89C1010
:1039D0000161164805707021682015F076FF2903F3
:1039E000134803F0C2F90AF0F5FFA902114803F0E9
:1039F000BCF91148016841F08001016025700F4950
:103A0000192008700E480024047018F0CFF90346FE
:103A100000940C4A29210C48019404F0E7FA0B4960
:103A200088617CBD4A010020640D002085000020D3
:103A3000000C0240000802404000002096010020D7
:103A4000840000202D7B0208ECDA0208B00100207F
:103A50001CB50E48002404700D4804700D48047015
:103A60007021682015F031FF4FF480510A4803F0AF
:103A70007CF918F09BF903460094084A082108488D
:103A8000019404F0B3FA074908601CBD4A01002004
:103A90008500002084000020000C0240758E020882
:103AA00068DF0208CC0100207CB5124C5020A071C8
:103AB0000320A070104908700025E57128F0C2F9B4
:103AC0000E480570208BDFED0E0A00EE100AB8EEEE
:103AD000400A80EE201A84ED081A18F067F90346B0
:103AE0000095084A29210848019504F07FFA606290
:103AF0007CBD0000480100208500002084000020DB
:103B000000007A44C1640208ECD302081CB50F49D6
:103B1000052008700E48002404700E4804707021BF
:103B2000682015F0D2FE4FF480510B4803F01DF9C8
:103B300018F03CF903460094084A252108480194EE
:103B400004F054FA074948601CBD00004A010020F7
:103B50009601002084000020000C0240059202081B
:103B600048E00208E00100201CB508490620087062
:103B700018F01CF90346002000900190044A01212E
:103B8000044804F033FA044948601CBD4A0100208F
:103B9000D99D020854E40208E80100207CB51E4CBF
:103BA0002078002801D00AF015FF022020701B4960
:103BB00008701B49092008701A48D0F89810416015
:103BC000D0F8A01081601848DFED180A184DB0F940
:103BD0000A0000EE100AB8EEC00A80EE201A85ED49
:103BE000021A14480024047013490320087070213D
:103BF000682015F06AFE4FF48051104803F0B5F8C4
:103C000018F0D4F8034600940D4A15210D4801948C
:103C100004F0ECF968607CBD4A01002085000020BA
:103C200096010020640D0020B887002000007A442F
:103C30003C0100208400002093010020000C024081
:103C4000AD5C0208A0D102087CB51E4C207800288B
:103C500001D00AF0BFFE042020701B4908701B49E8
:103C6000172008701A48DFED1B0A1B4DB0F9080039
:103C700000EE100AB8EEC00A80EE201A85ED051A93
:103C80001648D0F894100161154900240C70154AAB
:103C900002211170D0F8A410C1607021682015F0C5
:103CA00014FE4FF48051104803F05FF818F07EF8CE
:103CB000034600940D4A17210D48019404F096F92B
:103CC00028617CBD4A01002085000020960100206B
:103CD000B887002000007A4498010020640D00207D
:103CE0008400002093010020000C024009AC02086F
:103CF00068D802081CB518F059F80024034600944F
:103D0000064A07210648019404F070F90549486005
:103D100005490C70054A082111701CBD55A4020804
:103D200034D3030818020020840000204A01002038
:103D30001CB518F03BF8002403460094074A1221F2
:103D40000748019404F052F906498861064A147044
:103D5000064B07221A702F220A701CBD599E0208BA
:103D60003CD10308F0010020840000204A0100201B
:103D70001CB502208DF8050001208DF804000020FC
:103D80008DF806001C2000906946024802F098FF5A
:103D90001CBD00000010024031B582B02B4D042143
:103DA000284602F0E2FF0821284602F0E0FF00BFAB
:103DB00000BF00BF00BF0421284602F0D8FF00BFAB
:103DC0000821284602F0D3FF0421284602F0CDFF47
:103DD000002101914FF6FF7429E09DF80410072996
:103DE00012D9BDF80810080404D51021284602F0A5
:103DF000BEFF03E01021284602F0B7FFBDF808100F
:103E000004EA4100029003E01021284602F0ADFFD1
:103E10000821284602F0A9FF00BF00BF00BF08210B
:103E2000284602F0A4FF9DF80410491C01919DF85A
:103E300004001828D1D30421284602F098FF03B0CB
:103E40002846BDE83040082102F091BF0010024032
:103E500008B538208DF8000003208DF801008DF89A
:103E6000020001208DF8030068460EF025F808BD19
:103E70000148006870470000BC03002010B50549E8
:103E8000054800F00DF80548016841F002010160A5
:103E900010BD00002080001010640240340000209B
:103EA000074A904201D2074801E005481038064A07
:103EB0008B0001EA020101D5C16070478160704743
:103EC00010640240006002407D0F7D0F002904D085
:103ED000016841F0010101607047016821F00101B2
:103EE000016070470B0609D522B1436943F0800396
:103EF000436103E0436923F080034361802905D0D7
:103F000001F01E011AB102680A430260704702689C
:103F10008A4302607047000030B50368124A1340BC
:103F2000CC680A682243D1E905452C432243CC6979
:103F300022430C6A22434C6A22438C6A22434C6B14
:103F400022438C6B22431A430260426922F007032A
:103F5000D1E90B2422431A4342610A6942604A684C
:103F600082608968C16030BD3F801CF0F8B50546AD
:103F7000006803F043FE0090448ED0F888606846E5
:103F800003F086FE06B1012604F00104286818F04B
:103F90003BFE0EB1002006E00CB1012003E008B1A9
:103FA000022000E003201B4951F82010686858B334
:103FB00002280CD0052802D0122828D103E0284678
:103FC0001AF042FA23E028461CF021FB1FE06A6940
:103FD000E8694FF0FF33801AA0F1080203EB620496
:103FE000421CAB69001B4510A3EB6206C86905F0D3
:103FF0001DFA06E03219311B284604F0A1FB641EAD
:104000006D1C002CF6DA02E0286818F0C1FA0020D6
:10401000F8BD00003C770408044A034911600449D4
:104020000A6B086310467047C00300207807002021
:104030007C07002038B50D46002403F0DFFD00901A
:10404000C06B294603F0BCFE0546684603F020FE1F
:104050001DB1284603F0D2FD0446204638BD704706
:1040600011B54FF47A7402E0204600F006F8BDF86E
:1040700000104A1E0092F7D218BD01B582B0002090
:104080000190042110E0009100BF00BF00BF00BFFD
:1040900000BFBDF80000401E0004000C0090F3D1EA
:1040A000BDF80400401C0190BDF80400BDF80820D4
:1040B0009042E8D30EBD000010B52DED028B2049D3
:1040C0000A78204CB2EE048A022AE0681ED00978F1
:1040D000032918D11C4991ED000A20EE080ABDEE13
:1040E000C00A10EE101A09B202F018FF174890ED3E
:1040F000000A20EE080ABDEEC00A10EE100A01B256
:10410000206902F00BFFBDEC028B10BD104991ED50
:10411000000A20EE080ABDEEC00A10EE101A09B21D
:1041200002F0FCFE0B4890ED000A20EE080ABDEEFE
:10413000C00A10EE100A01B2206902F0EFFEE2E7B9
:1041400093010020CC010020280000203000002036
:10415000240000202C0000201CB51048C079012844
:104160001AD1FF2005F062F9022005F097F9B4207A
:104170000021CDE90010032306220C214FF4C37067
:1041800004F0BAF902B00C23BDE8104040F27F12EF
:104190000421034804F036BB1CBD0000840000204D
:1041A0008ED102081CB51048C07901281AD1FF2011
:1041B00005F03CF9022005F071F9B4200021CDE9A9
:1041C0000010032306220C2140F2D11004F094F9D0
:1041D00002B00C23BDE810404FF4E57204210348FF
:1041E00004F010BB1CBD0000840000208ED102082A
:1041F00031B527F061FBA02027F026FB27F08CFBD0
:1042000070B99DF8000027F01FFB27F085FB38B937
:1042100027F052FBA12027F017FB27F07DFB18B1F8
:1042200027F066FB002038BD27F0E2FA034C20702F
:1042300027F0C6FA27F05CFB207838BD7A00002012
:1042400070B50120FFF7D4FFFE4C20600120FFF77E
:10425000CFFF20602068000220600220FFF7C8FF27
:104260002168084420602068000220600320FFF7D6
:10427000BFFF2168084420602068000220600420FD
:10428000FFF7B6FF2168084420600520FFF7B0FF64
:10429000ED4D28602868000228600620FFF7A8FF7F
:1042A0002968084428602868000228600720FFF772
:1042B0009FFF2968084428602868000228600820B9
:1042C000FFF796FF296808442860C020FFF790FF99
:1042D0006063606B00026063C120FFF789FF616B60
:1042E00008446063606B00026063C220FFF780FFD8
:1042F000616B08446063606B00026063C320FFF77A
:1043000077FF616B08446063C420FFF771FF686347
:10431000686B00026863C520FFF76AFF696B084499
:104320006863686B00026863C620FFF761FF696B12
:1043300008446863686B00026863C720FFF758FF92
:10434000696B08446863C820FFF752FFA063A06B45
:104350000002A063C920FFF74BFFA16B0844A063D4
:10436000A06B0002A063CA20FFF742FFA16B0844C4
:10437000A063A06B0002A063CB20FFF739FFA16B05
:104380000844A063CC20FFF733FFA863A86B0002AA
:10439000A863CD20FFF72CFFA96B0844A863A86B86
:1043A0000002A863CE20FFF723FFA96B0844A8638F
:1043B000A86B0002A863CF20FFF71AFFA96B08447F
:1043C000A8630920FFF714FF606060680002606066
:1043D0000A20FFF70DFF6168084460606068000212
:1043E00060600B20FFF704FF61680844606060684C
:1043F000000260600C20FFF7FBFE6168084460600B
:104400000D20FFF7F5FE68606868000268600E2006
:10441000FFF7EEFE6968084468606868000268603B
:104420000F20FFF7E5FE69680844686068680002CD
:1044300068601020FFF7DCFE69680844686011209E
:10444000FFF7D6FEA060A0680002A0601220FFF770
:10445000CFFEA1680844A060A0680002A0601320FD
:10446000FFF7C6FEA1680844A060A0680002A06033
:104470001420FFF7BDFEA1680844A0601520FFF7D7
:10448000B7FEA860A8680002A8601620FFF7B0FE7B
:10449000A9680844A860A8680002A8601720FFF770
:1044A000A7FEA9680844A860A8680002A8601820B0
:1044B000FFF79EFEA9680844A8601920FFF798FE40
:1044C000E060E0680002E0601A20FFF791FEE1681A
:1044D0000844E060E0680002E0601B20FFF788FE0F
:1044E000E1680844E060E0680002E0601C20FFF73B
:1044F0007FFEE1680844E0601D20FFF779FEE86078
:10450000E8680002E8601E20FFF772FEE9680844D0
:10451000E860E8680002E8601F20FFF769FEE968CC
:104520000844E860E8680002E8602020FFF760FEC9
:10453000E9680844E8602120FFF75AFE20612069FD
:10454000000220612220FFF753FE21690844206108
:104550002069000220612320FFF74AFE21690844F8
:1045600020612069000220612420FFF741FE2169BB
:10457000084420612520FFF73BFE286128690002DE
:1045800028612620FFF734FE29690844286128693C
:10459000000228612720FFF72BFE296908442861C3
:1045A0002869000228612820FFF722FE29690844B3
:1045B00028612920FFF71CFE6061606900026061CC
:1045C0002A20FFF715FE61690844606160690002F6
:1045D00060612B20FFF70CFE61690844606160692F
:1045E000000260612C20FFF703FE616908446061EE
:1045F0002D20FFF7FDFD68616869000268612E20CB
:10460000FFF7F6FD6969084468616869000268613E
:104610002F20FFF7EDFD69690844686168690002B1
:1046200068613020FFF7E4FD696908446861AB20E8
:10463000FFF7DEFDE062E06A0002E062AC20FFF717
:10464000D7FD03E0BC0C0020100D0020E16A0844F7
:10465000E062E06A0002E062AD20FFF7C9FDE16AB6
:104660000844E062E06A0002E062AE20FFF7C0FDAD
:10467000E16A0844E062AF20FFF7BAFDE862E86A49
:104680000002E862B020FFF7B3FDE96A0844E8627F
:10469000E86A0002E862B120FFF7AAFDE96A08446F
:1046A000E862E86A0002E862B220FFF7A1FDE96A69
:1046B0000844E862B720FFF79BFD2063206B0002EF
:1046C0002063B820FFF794FD216B08442063206B22
:1046D00000022063B920FFF78BFD216B08442063A3
:1046E000206B00022063BA20FFF782FD216B084493
:1046F0002063BB20FFF77CFD2863286B0002286342
:10470000BC20FFF775FD296B08442863286B000265
:104710002863BD20FFF76CFD296B08442863286BD4
:1047200000022863BE20FFF763FD296B084428635D
:104730003120FFF75DFDA061A0690002A061322079
:10474000FFF756FDA1690844A061A0690002A061BD
:104750003320FFF74DFDA1690844A061A069000264
:10476000A0613420FFF744FDA1690844A061352011
:10477000FFF73EFDA861A8690002A8613620FFF797
:1047800037FDA9690844A861A8690002A86137201B
:10479000FFF72EFDA9690844A861A8690002A86175
:1047A0003820FFF725FDA9690844A8613920FFF7E3
:1047B0001FFDE061E0690002E0613A20FFF718FDAB
:1047C000E1690844E061E0690002E0613B20FFF735
:1047D0000FFDE1690844E061E0690002E0613C200E
:1047E000FFF706FDE1690844E0613D20FFF700FDA9
:1047F000E861E8690002E8613E20FFF7F9FCE96939
:104800000844E861E8690002E8613F20FFF7F0FC36
:10481000E9690844E861E8690002E8614020FFF7BF
:10482000E7FCE9690844E8614120FFF7E1FC206208
:10483000206A000220624220FFF7DAFC216A084465
:104840002062206A000220624320FFF7D1FC216A27
:1048500008442062206A000220624420FFF7C8FC5E
:10486000216A084420624520FFF7C2FC2862286ABA
:10487000000228624620FFF7BBFC296A0844286230
:10488000286A000228624720FFF7B2FC296A084420
:104890002862286A000228624820FFF7A9FC296ADA
:1048A00008442862D020FFF7A3FCE063E06B00021D
:1048B000E063D120FFF79CFCE16B0844E063E06B10
:1048C0000002E063D220FFF793FCE16B0844E06351
:1048D000E06B0002E063D320FFF78AFCE16B084441
:1048E000E063D420FFF784FCE863E86B0002E86330
:1048F000D520FFF77DFCE96B0844E863E86B000214
:10490000E863D620FFF774FCE96B0844E863E86BC2
:104910000002E863D720FFF76BFCE96B0844E8630B
:10492000D820FFF765FC2064206C00022064D920A9
:10493000FFF75EFC216C08442064206C00022064B8
:10494000DA20FFF755FC216C08442064206C00023B
:104950002064DB20FFF74CFC216C08442064DC2041
:10496000FFF746FC2864286C00022864DD20FFF76E
:104970003FFC296C08442864286C00022864DE206F
:10498000FFF736FC296C08442864286C0002286470
:10499000DF20FFF72DFC296C084428644920FFF72D
:1049A00027FC6062606A000260624A20FFF720FC18
:1049B000616A08446062606A000260624B20FFF72F
:1049C00017FC616A08446062606A000260624C2001
:1049D000FFF70EFC616A084460624D20FFF708FC97
:1049E0006862686A000268624E20FFF701FC696A2B
:1049F00008446862686A000268624F20FFF7F8FBAB
:104A0000696A08446862686A000268625020FFF7B9
:104A1000EFFB696A08446862E020FFF7E9FBE064A5
:104A2000E06C0002E064E120FFF7E2FBE16C084487
:104A3000E064E06C0002E064E220FFF7D9FBE16C87
:104A40000844E064E06C0002E064E320FFF7D0FB80
:104A5000E16C0844E064E420FFF7CAFBE864E86C1A
:104A60000002E864E520FFF7C3FBE96C0844E86452
:104A7000E86C0002E864E620FFF7BAFBE96C084442
:104A8000E864E86C0002E864E720FFF7B1FBE96C3A
:104A90000844E864E820FFF7ABFB2065206D0002C6
:104AA0002065E920FFF7A4FB216D08442065206DF7
:104AB00000022065EA20FFF79BFB216D084420657A
:104AC000206D00022065EB20FFF792FB216D08446A
:104AD0002065EC20FFF78CFB2865286D0002286517
:104AE000ED20FFF785FB296D08442865286D00023D
:104AF0002865EE20FFF77CFB296D08442865286DAA
:104B000000022865EF20FFF773FB296D0844286534
:104B10005120FFF76DFBA062A06A0002A062522044
:104B2000FFF766FBA16A0844A062A06A0002A062C7
:104B30005320FFF75DFBA16A0844A062A06A00024F
:104B4000A0625420FFF754FBA16A0844A0625520DC
:104B5000FFF74EFBA862A86A0002A8625620FFF782
:104B600047FBA96A0844A862A86A0002A862572005
:104B7000FFF73EFBA96A0844A862A86A0002A8627F
:104B80005820FFF735FBA96A0844A8625920FFF7AF
:104B90002FFBFE4C20705A20FFF72AFB60705B2031
:104BA000FFF726FBA0705C20FFF722FBE0705D2082
:104BB000FFF71EFB20715E20FFF71AFB607160207B
:104BC000FFF716FBF24908707A20FFF711FBF14955
:104BD00008707B20FFF70CFBEF4908707820FFF787
:104BE00007FBEE4908707920FFF702FBEC490870DB
:104BF0006120FFF7FDFAEB490870B420FFF7F8FADF
:104C0000E94908707C20FFF7F3FAE84908807D2025
:104C1000FFF7EEFAE64908807E20FFF7E9FAE5495A
:104C200008807F20FFF7E4FAE34908808020FFF73F
:104C3000DFFAE24908708120FFF7DAFAE0490870EC
:104C40008220FFF7D5FADF4908708320FFF7D0FAFA
:104C5000DD4908708420FFF7CBFADC490870852015
:104C6000FFF7C6FADA4908708620FFF7C1FAD9497A
:104C700008708720FFF7BCFAD74908708820FFF733
:104C8000B7FAD64908708920FFF7B2FAD4490870FC
:104C90008A20FFF7ADFAD34908708B20FFF7A8FAF6
:104CA000D14908708C20FFF7A3FAD04908708D20F5
:104CB000FFF79EFACE490880B320FFF799FACD4955
:104CC0000870F620FFF794FACB4908706220FFF7CE
:104CD0008FFACA4C20602068000220606320FFF732
:104CE00087FA2168084420606420FFF781FA606039
:104CF0006068000260606520FFF77AFA6168084426
:104D000060606620FFF774FAA060A0680002A060EF
:104D10006720FFF76DFAA1680844A0606820FFF7DC
:104D200067FAE060E0680002E0606920FFF760FA7F
:104D3000E1680844E0606A20FFF75AFA20612069C0
:104D4000000220616B20FFF753FA216908442061BB
:104D50006C20FFF74DFA60616069000260616D20B0
:104D6000FFF746FA6169084460616E20FFF740FA78
:104D70002066206E000220666F20FFF739FA216E50
:104D8000084420667020FFF733FAA066A06E000288
:104D9000A0667120FFF72CFAA16E0844A06672206D
:104DA000FFF726FAE065E06D0002E0657320FFF78B
:104DB0001FFAE16D0844E065B520FFF719FAE066D7
:104DC000E06E0002E066B620FFF712FAE16E0844DA
:104DD000E0667420FFF70CFA2062206A000220626D
:104DE0007520FFF705FA216A084420627620FFF754
:104DF000FFF96062606A000260627720FFF7F8F9ED
:104E0000616A08446062F020FFF7F2F92067206FC2
:104E100000022067F120FFF7EBF9216F08442067BB
:104E2000F220FFF7E5F96067606F00026067F3202A
:104E3000FFF7DEF9616F08446067F420FFF7D8F9E7
:104E4000A067A06F0002A067F520FFF7D1F9A16F5E
:104E50000844A067F720FFF7CBF9694D2880288820
:104E60004FF6FF7606EA00202880F820FFF7C0F909
:104E70002988084428808E20FFF7BAF96064606CA6
:104E8000000260648F20FFF7B3F9616C084460642E
:104E90009020FFF7ADF9A064A06C0002A0649120FF
:104EA000FFF7A6F9A16C0844A0649220FFF7A0F9CF
:104EB000E064E06C0002E0649320FFF799F9E16C94
:104EC0000844E0649420FFF793F94E4D2880288829
:104ED00006EA002028809520FFF78AF929880844EF
:104EE00028809620FFF784F96880688806EA002009
:104EF00068809720FFF77CF96988084468809820CB
:104F0000FFF776F9A880A88806EA0020A8809920F3
:104F1000FFF76EF9A9880844A8809A20FFF768F97E
:104F20002065206D000220659B20FFF761F9216D4F
:104F3000084420659C20FFF75BF96065606D000206
:104F400060659D20FFF754F9616D084460659E20FF
:104F5000FFF74EF9A065A06D0002A0659F20FFF746
:104F600047F9A16D0844A065A020FFF741F9E8804A
:104F7000E88806EA0020E880A120FFF739F9E988EF
:104F80000844E880A220FFF733F93DE0B400002098
:104F9000950000204C0100204B01002094010020CE
:104FA0009501002054010020E001002000020020B3
:104FB000020200200402002006020020F10100206D
:104FC000F2010020F3010020F4010020F60100208E
:104FD000F7010020F8010020F9010020FA0100206B
:104FE000FB010020FC010020FD0100209B010020AE
:104FF0005C01002055010020570100209C0D00207D
:1050000060010020AC8700202881288906EA002062
:105010002881A320FFF7ECF8298908442881A420DF
:10502000FFF7E6F86881688906EA00206881A52014
:10503000FFF7DEF8698908446881A620FFF7D8F8F1
:105040000E490870A720FFF7D3F86066606E000273
:105050006066A820FFF7CCF8616E08446066A9205E
:10506000FFF7C6F86063606B00026063AA20FFF779
:10507000BFF8616B0844606370BD0000B0010020A0
:1050800003B583B0BDF80C00019026F031FC002080
:1050900002900BE026F010FCA02026F0D5FB26F0B5
:1050A0003BFC38B1BDF80800401C0290BDF8080078
:1050B0006428EFD3BDF80800B0F57A7F10D0BDF8B2
:1050C0000400C0B226F0C0FB26F026FC40B99DF8D3
:1050D000100026F0B9FB26F01FFC08B926F008FCEA
:1050E00005B05DF804EB26F003BC00000149086040
:1050F000704700000C3C024070B5064600250029B0
:1051000005D0012927D0022928D04FF4407500F09E
:1051100081F809281ED1134C206820F440702060CB
:10512000206828432060206820F0F8002060206874
:1051300046F0020108432060206840F4803020607F
:1051400000F068F8216821F002012160216821F057
:10515000F801216070BD4FF48075D8E74FF40075F9
:10516000D5E70000103C024009200D490A68D2032F
:1051700001D5012070470A68D20601D50620704784
:105180000A68D20501D5022070470A6812F0EF0FB5
:1051900001D00720704709688907FBD508207047B0
:1051A0000C3C02400248016841F000410160704738
:1051B000103C024070B505460E4600F02BF8092859
:1051C00013D10A4C206820F440702060206840F41D
:1051D00080702060206840F0010020602E8000F088
:1051E00019F8216821F00101216070BD103C0240D6
:1051F00005480068002805DA034804490C380160B6
:105200000349016070470000103C024023016745DC
:10521000AB89EFCD08B509200090FFF7A5FF0090FE
:1052200002E0FFF7A1FF00909DF800000128F8D0F0
:105230009DF8000008BD00002DE9F041044694B03F
:10524000006800F0B7F908B1D94D01E0D84D2C3510
:10525000606815281ED00CDC0B281FD004DC002849
:105260007ED005287DD12EE10E287BD01228F9D1E1
:1052700041E1162806D0172808D0182808D01C2885
:10528000F0D109E0E86914B0BDE8F081286AFAE7D6
:10529000686AF8E7A86AF6E76869F4E720680B909F
:1052A0001C200C90206802F0A9FC0390016D0BA853
:1052B0008847064603A802F0EBFC022E0EDB95E8B9
:1052C00007008DE80700D4E904023346A16905F020
:1052D00017F820698719A069801B2BE0286804F063
:1052E000A5F82169E8690A18521E606903F028FAD6
:1052F000A269E869111A491C606903F021FA67691B
:1053000020697F1C394603F05DFA3946A06903F035
:1053100059FA686804F08AF820693946401C03F09D
:1053200051FAA0693946401E03F04CFA2769A0697A
:10533000BF1C801E8046286804F078F84246394633
:10534000606903F0FDF9686804F070F8606942462E
:10535000401C394603F0F4F9686A02280FDD02E0C8
:1053600015E1AFE000E1A86804F060F861696A6ADD
:10537000881C8B1801465B1E4246384627E0296A86
:10538000B14226DD6069022E074600F1020801DB0A
:10539000374401E007F10207206901DB304401E0F6
:1053A00000F1020022693B460A44A2F10102414693
:1053B00003F0ECFA022E02DBA069821B01E0A26975
:1053C000921EA069E9693B46401A401C414603F021
:1053D000DDFA022E02DB6069064401E06669B61C54
:1053E000E76928687F1E04F021F83A4631462069B3
:1053F00003F062FA3A463146A06903F05DFAE769C4
:105400006868BF1E04F012F820693A46401C314615
:1054100003F052FAA0693A46401E314603F04CFAB6
:10542000E869022802DC286A022823DDA86A02282B
:1054300002DDE1690F1A01E0E769BF1EA86803F009
:10544000F5FFE969022909DD20693B46421800F1B0
:10545000020C521E3146604603F098FA286A022870
:1054600008DDA269E8693B46101A401C921E3146CD
:1054700003F08CFA286803F0D9FFD4E906202169EB
:1054800003F05EF9686803F0D1FFA2692169E06961
:10549000521E491C401E03F053F9A86A022811DD70
:1054A0002669A169E469B61C271AA1F102087F1CCC
:1054B000A41EA86803F0BAFF234642463946304688
:1054C00003F064FA72E0208A06B2ADF81460A08A94
:1054D00001B2ADF81610208B02B2ADF81820A08BE7
:1054E00003B2ADF81A30D5E90304CDE90004304623
:1054F00003F0CEF85AE0208A298B0844ADF8140056
:10550000A08AADF81600208B298B401AADF8180040
:10551000A08BADF81A00206802F070FB0390006FBA
:10552000F0B1022003F0CCFF039991F87C00C0F3A6
:10553000C00001EB8000006C03F078FF0398406B23
:1055400003F07EFF0398006F02F058FB03990A9066
:10555000B1F95A2005A902F025FF0AA802F098FB2C
:1055600003A802F095FB21E0208AADF81400A08A80
:10557000ADF81600208BADF81800A08BADF81A001E
:10558000A86803F053FF05A803F024FA0EE0206892
:1055900002F034FB039030F85A1F41F00C010180F7
:1055A00003A802F075FB206816F0F2FF00206AE6FF
:1055B0009004002038B5002450B102F01FFB009089
:1055C00090F87C00000700D50124684602F060FBDB
:1055D000204638BD30B504468BB0006802F00EFBA3
:1055E000009090F87C10246A006FC1F3C00508B1E8
:1055F00002F004FB0690E068029020690390A08806
:10560000401EADF81000E089ADF812002089401C62
:10561000ADF81400608AADF81600BDF80800401C13
:10562000ADF80800BDF80A00401CADF80A00BDF84E
:105630000C00401EADF80C000098406B03F000FF1A
:10564000009808AA02A9B0F95A30069804F0DAF9CD
:10565000009800EB8500806B0BF072F8009800EB6F
:105660008500006C0BF0A4F808AB02AA04A9069808
:1056700015F070FF684602F00BFB069810B106A803
:1056800002F006FB0BB0002030BD0000074A0649BF
:10569000054B1160064A083BD16958601B68C2E996
:1056A000063008467047000084040020B807002038
:1056B000BC07002038B50D46040009D002F09EFA60
:1056C00000900566684602F0E3FA204616F063FD96
:1056D00038BD2DE9F34F85B000270C46B846059834
:1056E00002F08CFA0090C06D0121856805982A6847
:1056F000904782462A6803210598904704902A68BB
:1057000002210598904703902A6800210598904748
:105710000646009817F0FEF88346009817F001F946
:105720008146009890F83210890601D5B0F958806A
:1057300000F036F805460098C06E10B116F060FC17
:10574000074625806780A4F804A0049AABEB02000A
:1057500006EB0802401E2A4420813A44E280039B63
:10576000A9EB0302521E6281A4F80CA020827019DA
:10577000E681401E6082684602F08AFAB4F90C00A5
:105780000190B4F91000029002AA01A9059800F056
:1057900039F80198A0810298208207B0BDE8F08F07
:1057A00010B50146002091F83220920607D5B1F9D4
:1057B0005400002803D1486B03F08AF9801C10BD07
:1057C00070B58AB00C46054602F018FA0990C06D13
:1057D000866809A802F05CFA009534B1012C06D065
:1057E000022C0BD0032C04D10AE0182000E0162074
:1057F00001907168684688470AB070BD1520F7E7C8
:105800001720F5E72DE9FC4790468946044602F04B
:10581000F5F90090C16D056868468E6802F038FAA7
:1058200032680021204690470646204616F0D2FAFC
:105830002F1404462DB227E002F0E0F90190B0F9F0
:105840000010B0F90420B0F90230491B521BDB1BD9
:10585000B34212D190F82800000607D5D8F800000E
:1058600088420ADB491EC8F8001006E0D9F800009B
:10587000904202DC521CC9F8002001A802F008FA8C
:10588000204616F037FB0446002CD5D1BDE8FC8736
:105890008000A0F1C040002904D0016841F001015E
:1058A000016070470168024A1140016070470000C2
:1058B000FEFF0F0010B5D0E901121143D0E9032318
:1058C0001A4311434269114382691143C26911436A
:1058D000026A1143426A1143826A1143C26A114348
:1058E000026B114302689200A2F1C042116081680C
:1058F000082907D101688900A1F1C0410A6842F076
:1059000040020A60416BD1E9002342EA03128B682E
:105910008C891B0243EA04431A430B8A42EA03526E
:105920000B7D896942EA03620A430168491C8900C8
:10593000A1F1C0410A60C16AB1F5804F08D000688A
:105940006FF070418000A0F1C040C0F8041110BD9C
:10595000816BD1E9002342EA03128B680C8A1B0297
:1059600043EA04531A430B7D896942EA03620068E3
:105970000A438000A0F1C040C0F8042110BD00001F
:1059800001460020A1F100624FF480439A4204D303
:1059900020480844984201D2082070471E48084415
:1059A000984201D2102070471C480844984201D206
:1059B000182070471A480844B0F5803F01D22020D3
:1059C000704718484FF400320844904201D2282012
:1059D000704715480844904201D230207047134860
:1059E0000844904201D23820704711480844904240
:1059F00001D2402070470F480844904201D248200D
:105A000070470D480844904201D2502070475820FA
:105A10007047000000C0FFF70080FFF70040FFF76D
:105A20000000FFF70000FEF70000FCF70000FAF7A7
:105A30000000F8F70000F6F70000F4F710B50023B7
:105A400005E030F8024B22F813405B1CDBB28B42BE
:105A5000F7D310BD2DE9F04105460E461746FFF776
:105A6000C7FBF320FFF742FB2846FFF789FF0446F8
:105A700005EB4600FFF784FF00F1010808E0022172
:105A80002046FFF739FB092800D0FEE70834A4B20E
:105A90004445F4D300240AE037F814102846FFF7F1
:105AA00089FB092800D0FEE7AD1C641CA4B2B442F7
:105AB000F2D3BDE8F041FFF775BB000038B5FE4DED
:105AC0002868000E00909DF800100120FFF7D8FA1A
:105AD0002868000C00909DF800100220FFF7D0FA13
