:020000040800F2
:1000000028900020950200082304010859A5000843
:100010002104010871230008817D0108000000000F
:10002000000000000000000000000000E14701089F
:10003000DB3E000800000000352501087959010861
:10004000AF020008AF020008AF020008AF020008CC
:10005000AF020008AF020008AF020008AF020008BC
:10006000AF020008AF020008AF020008AF020008AC
:10007000AF020008AF020008AF020008AF0200089C
:10008000AF020008AF020008AF020008AF0200088C
:10009000AF020008AF020008AF020008AF0200087C
:1000A000AF020008AF020008AF020008AF0200086C
:1000B000AF020008895E010895610108AF020008DF
:1000C000AF020008AF020008AF020008AF0200084C
:1000D000AF02000835790108AF0200083D7A010837
:1000E000AF020008AF020008AF020008AF0200082C
:1000F000AF020008AF020008AF020008AF0200081C
:10010000AF020008AF020008ED660108AF02000868
:10011000AF020008AF020008CD670108AF02000877
:10012000FD3C0008AF020008AF020008AF02000863
:10013000AF020008AF020008AF020008AF020008DB
:10014000AF020008AF020008AF020008650F010807
:10015000AF020008AF020008AF020008AF020008BB
:10016000AF020008AF020008AF020008AF020008AB
:10017000AF020008AF020008AF020008AF0200089B
:10018000AF020008AF02000800F002F800F072F8B9
:100190000AA090E8000C82448344AAF10107DA45E2
:1001A00001D100F067F8AFF2090EBAE80F0013F0C2
:1001B000010F18BFFB1A43F001031847AC65040098
:1001C000CC6504000A444FF0000C10F8013B13F01A
:1001D000070408BF10F8014B1D1108BF10F8015BA0
:1001E000641E05D010F8016B641E01F8016BF9D193
:1001F00013F0080F1EBF10F8014BAD1C0C1B09D1EA
:100200006D1E58BF01F801CBFAD505E014F8016B5B
:1002100001F8016B6D1EF9D59142D6D370470000ED
:100220000023002400250026103A28BF78C1FBD8FF
:10023000520728BF30C148BF0B607047662929F0BC
:10024000AA83642900F08480002070471FB529F03C
:1002500098FB00F0CFFD04000020002128F00CFEE8
:10026000401C60600020002128F0F0FDE0601FBD10
:1002700010B510BD00F00AFF1146FFF7E7FF28F0A8
:10028000BDF900F036FF03B4FFF7F2FF03BC00F046
:1002900077FF00000948804709480047FEE7FEE76E
:1002A000FEE7FEE7FEE7FEE7FEE7FEE7FEE7FEE726
:1002B00004480549054A064B70470000415A0108A9
:1002C00089010008288A002028900020288C00201E
:1002D000288C00200FB41CB5074B06AA7B44694646
:1002E0000090059800F0CBFC0020694600F0DAFC95
:1002F0001CBC5DF814FB0000C509000070B5044685
:1003000085690068C10601D5302600E02026C007B7
:1003100008D070BDD4E9012130469047206A00F131
:10032000010020626D1EF5D570BD70B5044685696B
:100330000068C00708D170BDD4E901212020904792
:10034000206A00F1010020626D1EF5D570BD00002D
:100350002DE9F0410746002510687529394616A495
:1003600011D0AFF30080002803DAC0F1000013A41D
:1003700007E039688A0701D511A402E0490704D5CE
:1003800010A4012501E0AFF3008000210A2307F14A
:10039000240607E0B0FBF3F203FB12003030705488
:1003A0001046491C0028F5D12B4622463846BDE8A8
:1003B000F04100F0F3B90000000000002D00000043
:1003C0002B000000200000002DE9F05F0446894664
:1003D0004FF0000ADFF828B1FB44C0F820A0204607
:1003E000E168884700287CD0252806D0D4E901217F
:1003F0009047206A401C2062F1E700255F462046B6
:10040000E16888472028064608DB312E06D207EB34
:10041000060010F8200C08B10543F0E7A80701D545
:1004200025F00405C4F81CA00027C4F818A02A2E43
:1004300009D0304627F0EEFE38B304EB8708303E93
:10044000C8F8186019E059F8041B204604EB87022D
:100450009161E1688847012F064618D1E0690028BC
:1004600020DA25F020051DE0D8F8180000EB800008
:1004700006EB40003038C8F818002046E16888478D
:10048000064627F0C7FE0028EED1012F0AD02E2EF7
:1004900008D12046E16888477F1C0646022F45F0B8
:1004A0002005C4DBA069002803DA404245F00105BD
:1004B000A061E80701D025F0100596B1A6F1410032
:1004C000192802D8203645F400654A4631462046B0
:1004D00025604D46FFF7B2FE60B1012807D0ED1D43
:1004E00000E009E025F0070000F1080977E705F1D1
:1004F000040974E7304679E7206ABDE8F09F000000
:10050000B462040070B5064600F044F9046805467C
:1005100030460A22002100F0CAFB2C6070BD40EA80
:100520000103024630B59B0710D14FF0013400E0C3
:1005300008C208C91D1B9D4315EAC41FF8D013F05B
:10054000FF0102F8011B0DD01B0AF8E711F8013B6F
:10055000002B02F8013B05D011F8013B002B02F8FB
:10056000013BF3D130BD10B5431C02E010F8011B74
:1005700071B18107FAD14FF0013202C88C1A8C4355
:1005800014EAC211F9D0C01A0A0603D0C01E10BD69
:10059000C01A10BD0A0401D0801E10BD0902FCD093
:1005A000401E10BD421E12F8013F002BFBD111F876
:1005B000013B002B02F8013BF9D17047032A40F2BE
:1005C000308010F0030C00F0158011F8013BBCF1F5
:1005D000020F624498BF11F801CB00F8013B38BF0D
:1005E00011F8013BA2F1040298BF00F801CB38BF1B
:1005F00000F8013B11F0030300F06780083AC0F0F7
:10060000088051F8043B083A51F804CBA0E80810E0
:10061000F5E7121D5CBF51F8043B40F8043BAFF313
:100620000080D20724BF11F8013B11F801CB48BF6D
:1006300011F8012B24BF00F8013B00F801CB48BFA3
:1006400000F8012B7047431A28BF9A427FF6B6AFD5
:10065000032A1044114440F2268010F0030F1EBFFD
:1006600011F8013D521E00F8013D10F0030F7FF418
:10067000F6AF11F0030300F06583083AC0F00B8079
:1006800051F8043D083A51F804CD40F8043D40F8D3
:1006900004CDFFF7F3BF121D5CBF51F8043D40F8D5
:1006A000043DAFF30080D20724BF11F8013D11F8DB
:1006B00001CD48BF11F8012C24BF00F8013D00F81E
:1006C00001CD48BF00F8012C704710B5203AC0F0AA
:1006D0000B80B1E81850203AA0E81850B1E8185043
:1006E000A0E81850BFF4F5AF5FEA027C24BFB1E880
:1006F0001850A0E8185044BF18C918C0BDE81040F1
:100700005FEA827C24BF51F8043B40F8043B08BFF9
:100710007047D20728BF31F8023B48BF11F8012BC0
:1007200028BF20F8023B48BF00F8012B704702F0B9
:10073000FF0343EA032242EA024200F02FBB4FF0DC
:10074000000200B5134694469646203922BFA0E821
:100750000C50A0E80C50B1F12001BFF4F7AF09072D
:1007600028BFA0E80C5048BF0CC05DF804EB89001E
:1007700028BF40F8042B08BF704748BF20F8022B61
:1007800011F0804F18BF00F8012B70477047704779
:100790007047000000487047C48900202DE9F047E9
:1007A0000D4604469246994600F1240801688806E1
:1007B00004D5E06921F01001216000E00120A84289
:1007C00002DDA0EB050700E00027A16907EB0502A9
:1007D00002EB0900A1EB0000A0612068C00602D472
:1007E0002046FFF78BFD002608E0D4E901211AF826
:1007F00006009047206A401C761C20624E45F4DBC0
:100800002068C0060AD52046FFF778FD06E0D4E947
:10081000012130209047206A401C2062381EA7F139
:100820000107F4DC07E0D4E9012118F8050090473E
:10083000206A401C2062281EA5F10105F3DC204639
:10084000FFF773FD2068000602D50220BDE8F0879F
:100850000120FBE770472DE9FF4F0C461E464FF085
:10086000FF378BB0D2E90001DDF860800A908A463C
:10087000C1F30A5505B93D46002108464FF0000076
:10088000BAF1000F00F4400005DA00EB80004FF4ED
:10089000400101EA50004FEA9059B9F1010F00DD23
:1008A000B9460A9850EA4A000FD044F61050A5F213
:1008B000FF3545432F14B8F1000F1FD07542291E94
:1008C0001FDD4846C9F100021CE0B8F1010F4FF0EE
:1008D000000001D1F24307E0302101E02154401C27
:1008E000B042FBDB30460022002121540B99C1F8B5
:1008F0000880C1E900200FB0BDE8F08FBD1B6D1C62
:10090000DDE74A4600DA694206A800F04DFB06AB77
:1009100007CB03AB07C350460A9900F038FC8DE8BB
:100920000700A0F500501F3800900398002D09DD46
:1009300042F21F014A46084403A90390684600F0AA
:1009400097FE08E0A0F500504A461F3803A903901F
:10095000684600F0A1FE8DE807000004000C03D0FB
:100960004FF0FF30410800E01046B8F1000F03D00F
:100970000022009215461FE0751E06D400F03EFAD4
:1009800002F1300262556D1EF8D5B34601220843CC
:1009900002D000227F1C04E02078302801D1002200
:1009A0007F1E002A099786D01DE0112D07DA00F07E
:1009B00025FA303262556D1C50EA0102F5D1084328
:1009C0000FD10021681E05E0235C625C6354491C62
:1009D0002254401E8142F7DBAB46A81B401E099003
:1009E00001E0009848B1002004F80B000B98099A28
:1009F000C0F80880C0E9002B7DE711264FF0000801
:100A000059E72DE9F04F88460446D21D22F0070130
:100A100091B0D1E90001CDE90A0121F0E1FC0246E3
:100A20000B98C00F01D02D2007E02068810701D569
:100A30002B2002E0202101EAC000032A099001D006
:100A4000072A05DB03464146204600F01DFA0EE169
:100A50002068800601D5E06900E00620B8F1650F46
:100A6000814606D0B8F1660F18D0B8F1670F72D181
:100A700032E00020B9F1110F009001DB112301E0F9
:100A800009F101030AAA01A90CA8FFF7E4FEDDE9B8
:100A90000C70002609F10105834648E001204B4611
:100AA00000904FF000470AAA01A90CA8FFF7D3FE57
:100AB000DDE90C050E990026AB4619B909F10101D3
:100AC00000EB0105B9EB050003D4C0F1FF3609F1D5
:100AD0000105A5EB09002BE0B9F1010F01DA4FF098
:100AE00001090020B9F1110F0090484601DD1123E2
:100AF00000E003460AAA01A90CA8FFF7ACFEDDE955
:100B00000C704D4600268346206800070AD4AB458A
:100B100000DA5D4601A8012D04DD411911F8011C20
:100B2000302907D04F4502DA17F1040F04DA01200B
:100B3000824610E06D1EEEE7002F02DCED1B3E4406
:100B400003E0781CA84200DD0546A7EB060000F193
:100B5000010A4FF000472068000703D4AA4501DBD3
:100B60004FF0FF3A0021B7F1004F0DF143088DF827
:100B7000431022D002202B23002F01DA7F422D23A5
:100B80000A22011EA0F1010000DC4FB197FBF2F137
:100B900002FB117C0F460CF1300C08F801CDF0E798
:100BA000A8F1010003702168090501D5452100E085
:100BB0006521A0F1010800F8011C09980FA9A1EB1B
:100BC000080707F1070700B1012000EB050101EB61
:100BD000EA70A1693844A1EB0000A0F10100A06116
:100BE0002068C00602D42046FFF788FB099830B180
:100BF000D4E901219047206A00F1010020622068B9
:100C0000C00620D52046FFF779FB1CE0002E04DB50
:100C1000B34502DD01A8805D00E03020D4E9012168
:100C20009047206A761C401CBAF1010A20620AD162
:100C300000F0E0F8C0680168405CD4E90121904709
:100C4000206A401C2062281EA5F10105DEDC07E0B9
:100C5000D4E9012118F8010B9047206A401C20625A
:100C6000381EA7F10107F3DC2046FFF75EFB0220E8
:100C700011B041E601694A1C02610878704700B56D
:100C80008FB0CDE901310021059105497944CDE9C5
:100C9000031011466846FFF797FB0FB000BD000038
:100CA000E5FFFFFF0A6802F8010B0A6070472DE9B3
:100CB000F0470F46914680460446002614F8015B33
:100CC0002DB100F08FF80068405DC007F6D12B2DE4
:100CD00002D02D2D18D0641E4A463946204600F019
:100CE00013F927B13968A14201D1C7F800804FF04C
:100CF000020471050BD54042002803DDFFF74AFDD1
:100D00000460A007BDE8F08746F48066E4E70028A9
:100D1000F8DAFFF73FFD04606FF00040F2E7431A96
:100D200028BF9A427FF6D1AC104410F0030F114453
:100D30001EBF11F8013D521E00F8013D10F0030FD7
:100D40007FF4F6AF103AC0F00A8010B531E91850C0
:100D5000103A20E91850BFF4F9AFBDE8104053072E
:100D600024BF31E9081020E9081044BF51F8043DC0
:100D700040F8043D12F0030F08BF7047D20728BFA8
:100D800031F8023D48BF11F8012C28BF20F8023D80
:100D900048BF00F8012C70474FF000020429C0F052
:100DA000128010F0030C3FF4CCACCCF1040CBCF17D
:100DB000020F18BF00F8012BA8BF20F8022BA1EBEF
:100DC0000C01FFF7BEBC5FEAC17C24BF00F8012B19
:100DD00000F8012B48BF00F8012B7047004870470E
:100DE000C489002010B500F005F8001D10BD00BF3B
:100DF0008980020000487047E489002030B5B0F1D6
:100E00000A024FEA900E71F100034EEA817EB0EBC8
:100E10000E0061EB91014FEA101E4EEA017E10EBCD
:100E20000E0041EB11114FEA102E4EEA016E10EB4D
:100E30000E0041EB11214FEA104E4EEA014E10EB2D
:100E40000E0041EB1141401841F100014FEAD00082
:100E500040EA41704FEAD10110EB80054FEA81046E
:100E600044EA907444EB01046D1944EB0404521BF2
:100E7000A3414FF0000348BF0A3200D530BD401CEB
:100E800041F1000130BD00002DE9F04104461F464C
:100E900003260168072A01F4006004DB08B116A5E7
:100EA00005E016A503E008B115A500E015A521F0A1
:100EB00010002060A069C01EA0610FB1401EA0619B
:100EC0002046FFF71BFA4FB1D4E90121384690477D
:100ED000206A401C2062C01C206206E0206AFAE7FB
:100EE000D4E9012115F8010B9047761EF8D220466F
:100EF000FFF71BFABDE8F0814E414E006E616E00B7
:100F0000494E4600696E66002DE9F05F82468B46C9
:100F1000154600270AF10104B9460078302801D0AF
:100F20009DB113E014F8010B0127782803D058284D
:100F300001D045B10AE00DB1102D07D1002714F8FA
:100F4000010B102502E0082500E00A250026B04626
:100F50000EE005FB080005FB06F101271FFA80F8EB
:100F600001EB1046B6F5803F00D3B94614F8010BEB
:100F7000294600F0B0F80028EBDABBF1000F05D0ED
:100F80000FB1641E00E05446CBF80040B9F1000FE9
:100F900006D0FFF7FFFB02210160C81EBDE8F09FED
:100FA00048EA0640FAE700002DE9F0478146164678
:100FB0008AB035487844D0E9002380680092CDE9B2
:100FC0000130314878440C38D0E90223006903929B
:100FD0004FF03702CDE9043041F69B30014491FBDC
:100FE000F2F0A0F1800502FB10141B3C02D5644214
:100FF000012000E00020DFF890A080460027FA449E
:10100000AAF1C60A0DE0E00709D03246684607EBB0
:1010100047010AEB810100F03FFB8DE807006410F7
:101020007F1C002CEFD1184F7F44B43F17E0E80736
:1010300013D007EB04100DF1180A90E80E00AAE88F
:101040000E00C068F04201D198190890324606A9F6
:1010500003A800F021FB03AB07C36D10641C002D37
:10106000E5D132466946B8F1000F03A802D000F07E
:10107000FFFA01E000F010FBC9E90001C9F80820FF
:101080000AB0BDE8F0870000685704007546FFF716
:10109000A5FEAE4605006946534620F0070085468A
:1010A00018B020B5FFF704F9BDE820404FF0000666
:1010B0004FF000074FF000084FF0000B21F0070140
:1010C000AC46ACE8C009ACE8C009ACE8C009ACE883
:1010D000C0098D4670473A2800D2303820F02002EF
:1010E000412A01D3A2F13700884201D34FF0FF30EB
:1010F00070470446AFF300802046FFF7C4F80000B5
:101100004FF0013C50F8042B51F8043B9A4221D196
:10111000A2EB0C03934313EACC1317D150F8042B22
:1011200051F8043B9A4215D1A2EB0C03934313EA06
:10113000CC130BD150F8042B51F8043B9A4209D13F
:10114000A2EB0C03934313EACC13DBD04FF0000067
:10115000704700BFD01A01BAB1FA81F101F018014D
:1011600022FA01F0CB40C1F12001DBB2C0B2C01ABB
:101170002CFA01F3D11A914311EAC311E6D1704759
:1011800001491820ABBEFEE72600020070475FEA67
:10119000400C08BF91F0000F4FEA8C234FEAC122A8
:1011A00043EA51514FEA1C5018BF00F5F0404FEA96
:1011B000300018BF41F000415FEA6C5C00F029800C
:1011C000BCF1FF3F08BF40F080407047130C06BFE2
:1011D00012044FF0100C4FF0000C130E04BF12025B
:1011E0000CF1080C130F04BF12010CF1040C930F47
:1011F00004BF92000CF1020CD30F04BF52000CF19B
:10120000010C11464FF00002A0F11F00A0EB0C00F2
:10121000704711F0004F08BF704731F000413FF4B4
:10122000D5AF0B0C06BF09044FF0100C4FF0000CAB
:101230000B0E04BF09020CF1080C0B0F04BF0901CF
:101240000CF1040C8B0F04BF89000CF1020CCB0FC6
:1012500004BF49000CF1010CCCF12003A0EB0C0001
:1012600022FA03F302FA0CF241EA030100F1010051
:10127000704720F07F4C80EA030023F07F47ACEBFF
:10128000070303F57C5300F0004003F1FF032DE951
:1012900080494FEA154B09B44FEA144325EA0B4E37
:1012A00024EA03480FF2042606EB132749083E7888
:1012B0005FEA320203FB0667C7F5000707FB06F685
:1012C0004FEA54374FEAD64606F1020607FB066C92
:1012D000CCF1005C4FEA1C472CEA074C07FB06F4F4
:1012E0000CFB06F504EB15464FEA961634BF0020BA
:1012F0004FF000404FEAD13706FB07FC4FEA1C4C89
:101300000CFB0BF7D21B03FB0CF761EB07010CFB8B
:101310000EF7B0EB074072EB17420CFB08F734BF37
:10132000A2EB0742B2EB074261EB17414FEA0C44D4
:101330004FEA910706FB07FC4FEA1C4C0CFB0BF72E
:10134000B0EBC74072EB573203FB0CF734BFA2EB94
:10135000C742B2EBC74261EB57310CFB0EF7B0EB63
:10136000C70072EB57720CFB08F734BFA2EBC70241
:10137000B2EBC70261EB5771039F4FEA816141EA0B
:10138000921104EBCC044FEAD1374FEA826206FB9C
:1013900007FC42EA90124FEA80604FEA1C4C0CFBBB
:1013A0000BF7D21B03FB0CF761EB07010CFB0EF7ED
:1013B000B0EB074072EB17420CFB08F734BFA2EB0F
:1013C0000742B2EB074261EB17414FEA8C554FEAF7
:1013D000910704EB9C2406FB07FC4FEA1C4C0CFB1A
:1013E0000BF7B0EBC74072EB573203FB0CF734BF7F
:1013F000A2EBC742B2EBC74261EB57310CFB0EF7D1
:10140000B0EBC70072EB57720CFB08F734BFA2EBCE
:10141000C702B2EBC70261EB577115EB4C254FEADF
:10142000816141EA92114FEA82624FEAD13742EA82
:10143000901206FB07FC44F100044FEA80604FEA7B
:101440001C4C0CFB0BF7D21B03FB0CF761EB0701E9
:101450000CFB0EF7B0EB074072EB17420CFB08F7E2
:1014600034BFA2EB0742B2EB074261EB174115EB29
:101470001C154FEA813141EA92414FEA823242EA39
:1014800090424FEA80304FEA0C7644F1000448EA7B
:1014900003434EEA0B484FF0000EB2EB080C71EB21
:1014A000030724BF624639464EEB0E0E4FF0000B89
:1014B0000018524149414BEB0B0BB2EB080C71EB9E
:1014C00003077BF1000B24BF624639464EEB0E0E3C
:1014D0004FF0000B0018524149414BEB0B0BB2EBA4
:1014E000080C71EB03077BF1000B24BF6246394601
:1014F0004EEB0E0E51EA020718BF46F0010616EB3E
:101500000E7655F1000254F1000103D5BDE88901C2
:10151000BDE80088BDE88901BDE80048B619524120
:1015200041EB0101A3F10103704780807F7E7D7C48
:101530007B7A7978777676757473727171706F6E65
:101540006E6D6C6C6B6A6A69686867666665646410
:10155000636362616160605F5F5E5E5D5D5C5C5B9A
:101560005B5A5A5959585857575656555555545409
:10157000535352525251515050504F4F4F4E4E4D67
:101580004D4D4C4C4C4B4B4B4A4A4A4949494848B3
:1015900048474747474646464545454444444443F3
:1015A00043434342424242414141002B26D477000B
:1015B00021D01CB54FEA370703B44FF010004FF0AD
:1015C00010014FF000000FBCBDE810400BF1010B03
:1015D000BBF1010F08BF5FEA170722BF12F101023A
:1015E00011F101014FF0004143F1000300F0004010
:1015F00043EA00007047F9D35708DAE746EA06469F
:1016000013F1400F4FEA16461FDD13F1200FDFBF25
:1016100016430A46002120335B42C8D0C3F120079D
:1016200046EA064602FA07F74FEA164646EA070672
:10163000C3F1200722FA03F201FA07F721FA03F1B6
:101640004FF0000342EA0702B1E746EA020646EA23
:1016500006464FEA164646EA0106BCBF46EA06467B
:10166000360C4FF000034FF000024FF000019EE7F0
:101670002DE9C048934630B491E8380007C831EAF4
:10168000400C48BF34EA430C03D5FFF7F2FDFFF7E7
:101690008CFFF0BCBDE800882DE9C048934630B40B
:1016A00091E8380007C810F0804F08BF13F0804F52
:1016B00003D100F005F8FFF778FFF0BCBDE8008823
:1016C00020F07F4780EA030023F07F4C07EB0C03F8
:1016D000A3F57C5300F00040A3F1FE0392F0000F4D
:1016E00000F0B38095F0000F00F077802DE90149FC
:1016F0004FEA11404FEA144621EA004800FB06FC7D
:1017000024EA064708FB06F607FB08F800FB07F784
:1017100018EB06484CEB164C4FEA124B18EB0748F7
:101720004FEA15464CEB174022EA0B4E0BFB06FC2A
:1017300025EA06470EFB06F607FB0EFE0BFB07F736
:101740001EEB064E4CEB164C4FF000061EEB074E00
:101750004CEB174B18EB0B0840F1000018EB0E0B8D
:1017600058EB000840F100008F1A4FF000013CBF19
:10177000C943661B14BFB5EB040C00213CBFC94331
:10178000F61B4FEA17444EEA8E0E27EA04454FEA4D
:101790001C4704FB07622CEA074C05FB07F70CFB10
:1017A00005F604FB0CFC16EB074642EB174216EB62
:1017B0000C4642EB1C421BEB060658EB0202414171
:1017C00046EA9E0601D5BDE80189B619524141EBB2
:1017D0000101A3F10103BDE801894FEA14454FEA75
:1017E000114724EA054621EA074C05FB07F406FBEE
:1017F00007F70CFB06F105FB0CFC11EB074144EB72
:1018000017444FEA124711EB0C4144EB1C4422EA07
:10181000074C05FB07F206FB07F70CFB06F605FB7A
:101820000CFC16EB074642EB174216EB0C4642EB5C
:101830001C456A1854F1000148BF7047B61952415F
:1018400041EB0101A3F10103704795F0000F37D080
:101850004FEA11424FEA144721EA024624EA074CB4
:1018600002FB07F106FB07F70CFB06F402FB0CFC7E
:1018700014EB074441EB17414FEA154714EB0C44B6
:1018800041EB1C4125EA074C02FB07F506FB07F775
:101890000CFB06F602FB0CFC16EB074645EB174566
:1018A00016EB0C4645EB1C42121951F1000148BFE2
:1018B0007047B619524141EB0101A3F10103704792
:1018C0004FEA14454FEA114724EA054621EA074C3E
:1018D00005FB07F106FB07F70CFB06F24FF00006CD
:1018E00005FB0CFC12EB074241EB174112EB0C42DB
:1018F00051EB1C4148BF7047921841EB0101A3F125
:10190000010370474FF47A7001E0401E80B2002856
:10191000FBD1704740F6B83001E0401E80B200288D
:10192000FBD170472DE9FC4102268DF805600124AA
:101930008DF8044000258DF80650402000901A4F85
:101940006946384604F052FE8DF805608DF8044073
:101950008DF80650082000906946384604F046FE8F
:101960008DF805608DF804408DF806502020009019
:101970006946384604F03AFE8DF804508DF8074069
:10198000102000906946384604F030FE4021384669
:1019900004F082FE2021384604F07EFE08213846FD
:1019A00004F07AFEBDE8FC81000402402DE9F04716
:1019B0000024374D0CE02146012012F0C3FE25F82B
:1019C0001400FFF7A7FFE888AF882E89641CE4B2F3
:1019D000082CF0D32F4C61784A1C6270DFF8B0807D
:1019E00008F1D80828F8110060780025142800D1E3
:1019F000657027481421D83000F09EFC0021022099
:101A000004E038F810201144401CC0B21028F8D36C
:101A10004FF00E08B1FBF8F01F490880A078411C78
:101A2000A170DFF8789029F81070A078142800D100
:101A3000A5701421194800F07FFC0021022004E069
:101A400039F810201144401CC0B21028F8D3B1FB63
:101A5000F8F0134908602078411C21700C4A1032BC
:101A600022F8106020781E2800D125700021002067
:101A700004E032F810301944401CC0B21E28F8D3DC
:101A80001E20B1FBF0F007490860BDE8F0870000B8
:101A9000340E00202901002068000020340F0020AF
:101AA000700000206C000020F0B59BB001210F02F7
:101AB000384610F0A7FF0121880510F07FFF0420B1
:101AC000009003258DF8045000248DF807403C4E0B
:101AD0006946304604F08AFD082000908DF80450D5
:101AE0008DF807406946304604F080FD40200090A4
:101AF0008DF804508DF807406946304604F076FDB5
:101B0000119412941394149411A800F017F91594D9
:101B100001268DF858608DF85960189419948DF845
:101B20006850284D15A9284600F036F904230122F3
:101B30000221284600F056F902231A4603212846BE
:101B400000F050F9002303220621284600F04AF94C
:101B50000121284600F0E6F8284600F081F901212D
:101B6000284600F00EF9029416484C3003901648AF
:101B7000049005949620069007942815089040003C
:101B8000099080000A900B9700010C900D940E961E
:101B90000F9410940D4C02A9204602F0FBF801218D
:101BA000204602F0D3F801221021204602F0D9F895
:101BB00002F08EF80121284600F0D8F81BB0F0BDE5
:101BC0000000024000200140DC09002010640240B7
:101BD0002DE9F0470020504F032307F5967404F1D8
:101BE00064024E4D02F1640628E0B0FBF3F103FB02
:101BF000110121B102290CD0012914D01CE037F8C1
:101C000010C0297801F1010885F8008024F811C07E
:101C100012E037F810C0697801F1010885F80180F9
:101C200026F811C008E037F810C0E97801F1010882
:101C300085F8038022F811C0401C80B29628D4D3C6
:101C400000272F706F70AF70EF700021002004E04C
:101C500034F810301944401CC0B23228F8D3287927
:101C60002F4B4FF03208142806D2B1FBF8F0297937
:101C700023F8110000210FE00021012004E033F8D7
:101C800010402144401CC0B21328F8D3BE20B1FB41
:101C9000F0F0288100212F712879401C2871002044
:101CA00004E032F810301944401CC0B23228F8D396
:101CB0006879DFF86C90322809F1280906D2B1FB67
:101CC000F8F0697929F81100002114E00024144883
:101CD0003221283000F030FB232004E039F81010C6
:101CE0000C44401CC0B23228F8D30F20B4FBF0F0F3
:101CF000688100216F716879401C6871002004E0E0
:101D000036F810201144401CC0B23228F8D3B1FB81
:101D1000F8F0E880BDE8F087DC0900205C000020D6
:101D2000340C002021B1816841F0010181607047CD
:101D3000816821F0010181607047000010B5094CF5
:101D40002268094902EA0102D0E9001341EA0301CD
:101D5000D0E9023043EA000341EA030141EA02010B
:101D6000216010BD04230140E030FCFF21B18168F7
:101D700041F4807181607047816821F480718160D5
:101D8000704721B1816841F40071816070478168BA
:101D900021F400718160704730B542680F4B1A40E2
:101DA0000C790B6842EA04221343436083680C4AAF
:101DB0001340D1E9034222434D798C6844EA45043B
:101DC00022431A438260C26A22F47002097D491ECE
:101DD000C9B242EA0151C16230BD0000FFFEFFFC02
:101DE000FDF7FFC070B5072609290ED9D0F80CC041
:101DF000A1F10A0404EB4404A6402CEA060CA3401B
:101E00004CEA030CC0F80CC007E0056901EB410483
:101E1000A640B543A3401D4305611F23072A09D2ED
:101E2000446B521E02EB820293409C4391400C4350
:101E3000446370BD0D2A09D2046BD21F02EB8202EB
:101E400093409C4391400C43046370BDC46A0D3AB7
:101E500002EB820293409C4391400C43C46270BDEC
:101E6000816841F0804181607047002800DC404279
:101E700070474178007841EA0020704710B50C485F
:101E80000068400612D40B4C206841070ED50206AC
:101E900009484FF4007103D4BDE8104004F0FCBBC6
:101EA00004F0F8FB206820F00400206010BD000062
:101EB0003C0000203400002000080240054908686A
:101EC00040F00400044B00221A8020F080000860DB
:101ED00070470000340000207C00002038B54568C1
:101EE00004460146284615F06FFF00282AD02068D6
:101EF000304A0F2819D006DC0B2824D00C2810D02B
:101F00000E2851D12FE0112802D028284CD145E0CD
:101F10009268002A16D02146284601B0BDE830401C
:101F20001047214628465268F7E7284605F0FCFA94
:101F30000090406E0468684605F040FB002C01D01C
:101F40002846A04738BD284605F0EEFA00906830D4
:101F500005F052FA009803216C3005F055FA6846F6
:101F600005F02CFB20E0E168486809680D2902D0E3
:101F7000202913D105E0002810DD28461DF048F87F
:101F800006E0002804DD2846BDE838401DF040B8D2
:101F90002846BDE8384002211DF050B8E06818B965
:101FA0000021284600F097F92046BDE8384016F099
:101FB0007FBB0000AC020020F0B5044685B080690C
:101FC000B4F90850668A0027CDE90265CDE900170B
:101FD0000490B4F90C00B4F91060C118B4F90A0007
:101FE000B4F90E50104433462A4600F007F805466F
:101FF000616800F079F905B02846F0BDF0B585B00C
:102000000C46DDE90D514C31DFF850C0DDE90A67BF
:10201000CDE902C12146CDE9006716F099FA040026
:1020200018D005F081FA10222946049016F0F0F835
:10203000049830220A493430FEF747FB084D0499D2
:102040000C3D2868486604A805F0B8FA286841687D
:102050002046884705B02046F0BD0000DD1E000880
:10206000B8020020F0B5044680688B4989B051F869
:102070002050606800287DD0052804D006287AD03A
:10208000122879D1AEE0E86900284FD095E80E001B
:102090008DE80F0004F110010FC907F0F9FD0026CB
:1020A00055F8260006F058FEA169E8690A1A216968
:1020B00001446069304405F0D9FFA169E8690A1A52
:1020C00021690144E069801B05F0D0FFE169E869FE
:1020D0000A1A616901442069304406F083F8E16915
:1020E000E8690A1A61690144A069801B06F07AF860
:1020F000761C022ED4DBA86806F02EFEE069E969A2
:102100006669431A20694218521E3144801C06F049
:10211000D3F8E169E869A2690B1A61690144101AF0
:10212000401C921E06F0C8F8EE6913E05FF000064E
:1021300055F8260006F010FEE069831BA069821B9B
:10214000606981192069304406F00EF8761C022E71
:10215000EEDB0226D5E90301CDE900016169E06902
:1021600008444310A069891C821B2069304405F093
:1021700025FF02E089E012E08AE0D5E90501CDE91A
:102180000001E36960690121184401EB6001A06965
:102190009B1E821B2069304405F010FF78E0206808
:1021A00005F0C2F90490206817F0B2FA40B1A068B7
:1021B00008B1002008E00498006F28B1012003E076
:1021C0000498406F00B10220049901EB8000C56EB5
:1021D00004A805F0F3F900231A462846216805F003
:1021E0007FFC55E0206805F09FF90490866EEEB301
:1021F000B0F95C70A168D1B3032942D05FF000014F
:1022000000EB8101406D0C6C06F0B0FD204606F03D
:10221000A3FD05A806F0A0F8BDF81410A88B014492
:10222000ADF81410BDF81810081AADF81800BDF874
:102230001600801CADF81600BDF81A00801EADF81F
:102240001A0004985E30B0F90220B0F9001005A819
:1022500006F0E0FC04A805F0B1F9022006F0C6FD86
:10226000304605F061F93A4605A901E00BE006E0C9
:10227000079005F02DFD07A805F0A0F908E0012161
:10228000BEE70221BCE704A8F6E7206816F004FFC9
:1022900009B00020F0BD0000882E0408044A03495C
:1022A000116004494A6A486210467047E8020020FB
:1022B000AC020020B802002038B50D46040009D059
:1022C00005F032F900904565684605F077F920463B
:1022D00016F0E5FC38BD4FF480720029114601D09C
:1022E00015F0FCBD15F04DBD2DE9FF410E46050072
:1022F0004FF001041CD005F017F90190876E01A87A
:10230000009705F05BF93146684607F0A1FF78B108
:1023100000980024B84208D0284605F005F901903D
:102320000099816601A805F049F9284616F0B7FC26
:1023300004B02046BDE8F08130B5002315E01A4610
:102340000FE030F8124030F81350AC4207D930F8A3
:1023500013C030F8124020F8134020F812C0521C6D
:10236000D2B28A42EDD35B1CDBB28B42E7D330BDE5
:10237000FEE700002DE9F05F7C4D29787C486FF086
:10238000704619393711826940F66F044FF40768B7
:1023900040F6770940F6780A40F6710B0C2925D2F1
:1023A000DFE801F0062645642424242483A324C402
:1023B00081462146104616F089FA044631462046E9
:1023C00013F006FC3946204613F054FC4146D9F878
:1023D000180016F07BFA04466649204613F0F8FB15
:1023E0000021204613F046FC1A202870BDE8F09F1B
:1023F00041468046104616F069FA044631462046AA
:1024000013F0E6FB3946204613F034FC4946D8F871
:10241000180016F05BFA04465649204613F0D8FB24
:102420000021204613F026FC1B202870DEE78046A2
:102430004946104616F04AFA04463146204613F043
:10244000C7FB3946204613F015FC5146D8F8180052
:1024500016F03CFA04464749204613F0B9FB002128
:10246000204613F007FC1C202870BFE78046514629
:10247000104616F02BFA04463146204613F0A8FB0E
:102480003946204613F0F6FB5946D8F8180016F0E6
:102490001DFA04463749204613F09AFB00212046D6
:1024A00013F0E8FB21202870A0E78046594610462B
:1024B00016F00CFA04463146204613F089FB3946E3
:1024C000204613F0D7FB40F67901D8F8180016F033
:1024D000FDF904462749204613F07AFB00212046E7
:1024E00013F0C8FB2220287080E7804640F679016F
:1024F000104616F0EBF904463146204613F068FB0F
:102500003946204613F0B6FB40F67201D8F81800A1
:1025100016F0DCF904461749204613F059FB002158
:10252000204613F0A7FB242028705FE7814640F681
:102530007201104616F0CAF980463146404613F043
:1025400047FB3946404613F095FB2146D9F8180061
:1025500016F0BCF904460749204613F039FB002168
:10256000204613F087FB192028703FE796010020D2
:10257000B4010020FFFFBF00F0B52DED028B83B04A
:10258000B0480178B04A9FEDB10AB14D002601274D
:10259000A869192938D0DFEDAF0A1A297ED0AE4AD2
:1025A0001B297CD01C292BD1297C40F678031C1DCB
:1025B000022975D0297C012922D1D18800EE101A78
:1025C000B8EE400A80EE208A194616F07FF9A3A1E2
:1025D00013F02BFB2146A86916F078F9044618EE93
:1025E000100A27F05DF941EC100BA0A153EC102B61
:1025F00001A8FDF76FFE01A9204613F016FB2E740B
:1026000003B0BDEC028BF0BD697B40F66F031C1D6F
:10261000012927D0697B0229F2D1D2F8801000EE7F
:10262000901AF8EE600A80EE808A194616F04EF98C
:1026300090A113F0FAFA2146A86916F047F904466A
:1026400018EE100A27F02CF941EC100B8DA153EC79
:10265000102B01A8FDF73EFE01A9204613F0E5FA74
:102660006F73CDE7D16F00EE901AF8EE600A80EE3E
:10267000808A194616F02AF984A113F0D6FA214669
:10268000A86916F023F9044618EE100A27F008F995
:1026900041EC100B7BA153EC102B02E00AE05CE054
:1026A000ACE001A8FDF716FE01A9204613F0BDFA23
:1026B0006E73A5E7A97B4FF407631C1D022927D081
:1026C000A97B01299CD1D2F8881000EE101AB8EE2F
:1026D000400A80EE208A194616F0F8F86FA113F030
:1026E000A4FA2146A86916F0F1F8044618EE100A7B
:1026F00027F0D6F841EC100B5CA153EC102B01A88D
:10270000FDF7E8FD01A9204613F08FFAAE7377E7D5
:10271000D2F88C1000EE101AB8EE400A80EE208A33
:10272000194616F0D3F861A113F07FFA2146A86983
:1027300016F0CCF8044618EE100A27F0B1F841EC78
:10274000100B4AA153EC102B01A8FDF7C3FD01A902
:10275000204613F06AFAAF7352E7E97B40F677033D
:102760001C1D022926D0E97B0129A2D1118800EE87
:10277000901AF8EE600A80EE808A194616F0A6F8E4
:102780004EA113F052FA2146A86916F09FF80446AC
:1027900018EE100A27F084F841EC100B39A153EC25
:1027A000102B01A8FDF796FD01A9204613F03DFA74
:1027B000EE7325E7518800EE901AF8EE600A80EE7D
:1027C000808A194616F082F840A113F02EFA2146AD
:1027D000A86916F07BF8044618EE100A27F060F896
:1027E00041EC100B27A153EC102B01A8FDF772FD53
:1027F00001A9204613F019FAEF7301E7118900EEE1
:10280000101AB8EE400A80EE208A194616F05EF8DB
:1028100032A113F00AFA2146A86916F057F80446C7
:1028200018EE100A27F03CF841EC100B0FA153EC06
:10283000102B01A8FDF74EFD01A9204613F0F5F974
:102840002F74DDE696010020680D00200000C842CC
:10285000B401002000007A446C870020E688AAE6D4
:10286000ADA2E794B5E6B58131000000252E3366B0
:1028700000000000E8BE93E587BAE794B5E58E8BCB
:1028800032000000252E326600000000E8BE93E50D
:1028900087BAE794B5E58E8B31000000E99990E5A1
:1028A00088B6E794B5E6B58131000000E99990E576
:1028B00088B6E794B5E6B58132000000E688AAE65E
:1028C000ADA2E794B5E58E8B31000000E688AAE65C
:1028D000ADA2E794B5E58E8B32000000E688AAE64B
:1028E000ADA2E794B5E6B58132000000F0B52DED5C
:1028F000028B83B0AF480178AF4A9FEDB00AB04D6C
:1029000001260227A869192938D0DFEDAE0A1A2955
:102910007ED0AD4A1B297CD01C292BD1297C40F6C6
:1029200078031C1D002975D0297C012922D15189E9
:1029300000EE101AB8EE400A80EE208A194615F013
:10294000C5FFA2A113F071F92146A86915F0BEFFD9
:10295000044618EE100A26F0A3FF41EC100B9FA1CD
:1029600053EC102B01A8FDF7B5FC01A9204613F08C
:102970005CF92F7403B0BDEC028BF0BD697B40F6AF
:102980006F031C1D39B3697B0129F3D1D2F8841080
:1029900000EE901AF8EE600A80EE808A194615F073
:1029A00095FF90A113F041F92146A86915F08EFF1B
:1029B000044618EE100A26F073FF41EC100B8DA1AF
:1029C00053EC102B01A8FDF785FC01A9204613F05C
:1029D0002CF96F73CEE7D2F8801000EE901AF8EE63
:1029E000600A80EE808A194615F070FF83A113F00B
:1029F0001CF92146A86915F069FF044618EE100A73
:102A000026F04EFF41EC100B7AA153EC102B02E0A4
:102A10000AE05BE0AAE001A8FDF75CFC01A9204602
:102A200013F003F96E73A5E7A97B4FF407631C1D30
:102A300039B3A97B01299DD1D2F8901000EE101A6C
:102A4000B8EE400A80EE208A194615F03FFF6FA1CC
:102A500013F0EBF82146A86915F038FF044618EE8C
:102A6000100A26F01DFF41EC100B5CA153EC102B5B
:102A700001A8FDF72FFC01A9204613F0D6F8AF738B
:102A800078E7D2F88C1000EE101AB8EE400A80EE0B
:102A9000208A194615F01AFF60A113F0C6F82146E6
:102AA000A86915F013FF044618EE100A26F0F8FE88
:102AB00041EC100B49A153EC102B01A8FDF70AFCC7
:102AC00001A9204613F0B1F8AE7353E7E97B40F655
:102AD00077031C1D31B3E97B0129A4D1918800EE55
:102AE000901AF8EE600A80EE808A194615F0EEFE24
:102AF0004EA113F09AF82146A86915F0E7FE0446A6
:102B000018EE100A26F0CCFE41EC100B39A153EC64
:102B1000102B01A8FDF7DEFB01A9204613F085F874
:102B2000EF7327E7518800EE901AF8EE600A80EE06
:102B3000808A194615F0CAFE40A113F076F82146A6
:102B4000A86915F0C3FE044618EE100A26F0A8FE88
:102B500041EC100B27A153EC102B01A8FDF7BAFB99
:102B600001A9204613F061F8EE7303E7118900EE26
:102B7000101AB8EE400A80EE208A194615F0A6FE1B
:102B800032A113F052F82146A86915F09FFE0446C1
:102B900018EE100A26F084FE41EC100B0FA153EC46
:102BA000102B01A8FDF796FB01A9204613F03DF874
:102BB0002E74DFE696010020680D00200000C84258
:102BC000B401002000007A446C870020E688AAE661
:102BD000ADA2E794B5E6B58133000000252E33663B
:102BE00000000000E8BE93E587BAE794B5E58E8B58
:102BF00033000000252E326600000000E8BE93E599
:102C000087BAE794B5E58E8B32000000E99990E52C
:102C100088B6E794B5E6B58133000000E99990E500
:102C200088B6E794B5E6B58132000000E688AAE6EA
:102C3000ADA2E794B5E58E8B33000000E688AAE6E6
:102C4000ADA2E794B5E58E8B32000000E688AAE6D7
:102C5000ADA2E794B5E6B581320000002DE9F05F42
:102C60007D4D29787D48193940F66F0782696FF0EC
:102C700070464FF4076840F6770940F6780A40F648
:102C8000710B40F679040C2926D2DFE801F0062703
:102C900047662525252585A425C3394607461046C0
:102CA00015F014FE04463146204612F091FF6FF0F5
:102CB0007F41204612F0DEFF40F67201B86915F040
:102CC00005FE04466649204612F082FF0021204698
:102CD00012F0D0FF24202870BDE8F09F41468046C6
:102CE000104615F0F3FD04463146204612F070FF01
:102CF0006FF07F41204612F0BDFF3946D8F818002A
:102D000015F0E4FD04465649204612F061FF00210B
:102D1000204612F0AFFF19202870DDE7074649462C
:102D2000104615F0D3FD04463146204612F050FF00
:102D30006FF07F41204612F09DFF4146B86915F0C3
:102D4000C5FD04464649204612F042FF00212046B8
:102D500012F090FF1A202870BEE707465146104631
:102D600015F0B4FD04463146204612F031FF6FF0F5
:102D70007F41204612F07EFF4946B86915F0A6FD56
:102D800004463749204612F023FF0021204612F066
:102D900071FF1B2028709FE707465946104615F023
:102DA00095FD04463146204612F012FF6FF07F4138
:102DB000204612F05FFF5146B86915F087FD0446C2
:102DC0002749204612F004FF0021204612F052FF4E
:102DD0001C20287080E707462146104615F076FD36
:102DE00004463146204612F0F3FE6FF07F41204644
:102DF00012F040FF5946B86915F068FD04461849BD
:102E0000204612F0E5FE0021204612F033FF21207B
:102E1000287061E7804640F67201104615F056FDB5
:102E200007463146384612F0D3FE6FF07F413846F0
:102E300012F020FF2146D8F8180015F047FD04468F
:102E40000749204612F0C4FE0021204612F012FF6E
:102E50002220287040E7000096010020B4010020E5
:102E6000FFFFBF002DE9F04F2DED048B83B0F94833
:102E7000406E00EE100AB8EE400ADFEDF70A80EE71
:102E8000208AF448806E00EE100AB8EE400ADFEDAA
:102E9000F30AC0EE208AEF48C06E00EE100AB8EECA
:102EA000400ADFEDEE0A80EE209AEA48006F00EE5D
:102EB000100AB8EE400ADFEDE80AC0EE209AE848B2
:102EC0000178EB4819390124E64DE74EE74F806958
:102ED00040F66F0940F6730A4FF4076B40F6790825
:102EE000102932D2DFE801F00890FDFC36BAFBFA77
:102EF000F9F8F7F6F5F4F3F24946DD4F15F0E6FC84
:102F000006466FF07041304612F062FE6FF07F416E
:102F1000304612F0AFFE5146B86915F0D7FC0646B0
:102F2000D449304612F054FE0021304612F0A2FE81
:102F30000020D14A002102E01154401CC0B20528F3
:102F4000FAD3C7491D2008702C7003B0BDEC048B68
:102F5000BDE8F08F5146DFF8188315F0B7FC07463F
:102F60006FF07041384612F033FE6FF07F41384603
:102F700012F080FE98F80D0040B198F80D0001287D
:102F800008D098F80D00022809D00CE0B148C16FB4
:102F9000416008E0AF48D0F88010416003E0AD48E0
:102FA000D0F884104160AB48406800EE100AF8EE9B
:102FB000400A9FEDA91A80EE810A10EE100A26F051
:102FC0006FFC41EC100BADA153EC102B01A8FDF7E9
:102FD00081F901A9384612F028FE4946D8F81800B0
:102FE00015F074FC0746A349384612F0F1FD0021A4
:102FF000384612F03FFE9A49192008702C700020C4
:10300000307016F0EBFDA0E75946994D15F05EFCC7
:1030100004466FF07041204612F0DAFD6FF07F41F8
:10302000204612F027FE00209349002202E00A54B5
:10303000401CC0B20528FAD340F67401A86915F007
:1030400045FC04468B49204612F0C2FD0021204673
:1030500012F010FE82491E20087076E740F67401D7
:10306000DFF80C8215F032FC07466FF070413846ED
:1030700012F0AEFD6FF07F41384612F0FBFD98F87C
:103080000E0040B198F80E00012809D098F80E0003
:1030900002280AD00DE06F48D0F88810816008E05F
:1030A0006C48D0F88C10816003E06A48D0F890102A
:1030B00081606848826841F288318A4200D9816023
:1030C000806800EE100AF8EE400A0BE0FAE195E1A4
:1030D00007E15DE0A7E2CAE166E12BE2C5E254E266
:1030E000D4E02AE09FED5D1A80EE810A10EE100A0E
:1030F00026F0D6FB41EC100B62A153EC102B01A87B
:10310000FDF7E8F801A9384612F08FFD5946D8F8C6
:10311000180015F0DBFB07465649384612F058FDFB
:103120000021384612F0A6FD4D491A2008702C7077
:103130000020307016F052FD07E740F677014C4D45
:1031400015F0C4FB04466FF07041204612F040FDBC
:103150006FF07F41204612F08DFD0020464A00218D
:1031600002E01154401CC0B20528FAD340F67B019E
:10317000A86915F0ABFB04463E49204612F028FD35
:103180000021204612F076FD354925200870DCE646
:1031900040F67B01DFF8D89015F098FB80466FF081
:1031A0007041404612F014FD6FF07F41404612F02E
:1031B00061FD99F80F0040B199F80F0001280ED079
:1031C00099F80F00022814D01CE03888DFED220A9D
:1031D00000EE100AB8EE400A80EE208A12E07888ED
:1031E000DFED1D0A00EE100AB8EE400A80EE208ADC
:1031F00008E0B888DFED180A00EE100AB8EE400AC1
:1032000080EE208A18EE100A26F04AFB41EC100BE3
:103210001AA153EC102B01A8FDF75CF801A9404658
:1032200012F003FD40F67701D9F8180015F04EFBB7
:1032300007461049384612F0CBFC0021384612F000
:1032400019FD07491B2008702C700020307016F003
:10325000C5FC7AE6680D00200000C84200007A44F0
:103260009601002048010020490100206C870020C1
:10327000B4010020FFFFBF008C010020252E326624
:1032800000000000252E33660000000040F67801A3
:10329000FE4D15F01BFB04466FF07041204612F006
:1032A00097FC6FF07F41204612F0E4FC0020F84AC2
:1032B000002102E01154401CC0B20528FAD340F6A8
:1032C0007C01A86915F002FB0446F249204612F081
:1032D0007FFC0021204612F0CDFCEF49262008702B
:1032E00033E640F67C01DFF8A49315F0EFFA804650
:1032F0006FF07041404612F06BFC6FF07F4140462A
:1033000012F0B8FC99F8100040B199F810000128AB
:103310000ED099F81000022814D01CE0F8885FED58
:10332000310A00EE100AB8EE400AC0EE208A12E020
:1033300038895FED360A00EE100AB8EE400AC0EE9A
:10334000208A08E078895FED3B0A00EE100AB8EEAB
:10335000400AC0EE208A18EE900A26F0A1FA41EC4D
:10336000100B53EC102BAFF2E40101A8FCF7B2FFF5
:1033700001A9404612F059FC40F67801D9F818002E
:1033800015F0A4FA0746C349384612F021FC002183
:10339000384612F06FFCC0491C2008702C700020C9
:1033A000307016F01BFCD0E54146B84D15F08EFA92
:1033B00004466FF07041204612F00AFC6FF07F4126
:1033C000204612F057FC0020B149002202E00A54C6
:1033D000401CC0B20528FAD340F67D01A86915F05B
:1033E00075FA0446AB49204612F0F2FB0021204654
:1033F00012F040FCA84927200870A6E540F67D01A0
:10340000DFF8889215F062FA07466FF0704138468F
:1034100012F0DEFB6FF07F41384612F02BFC19EE04
:10342000100A26F03DFA41EC100B53EC102BAFF2D2
:10343000AC1101A8FCF74EFF01A9384612F0F5FBCC
:103440004146D9F8180015F041FA07469149384627
:1034500012F0BEFB0021384612F00CFC8E492220EF
:1034600008702C700020307016F0B8FB6DE540F647
:103470007A01864D15F02AFA04466FF07041204615
:1034800012F0A6FB6FF07F41204612F0F3FB002004
:103490007F4A002102E01154401CC0B20528FAD333
:1034A00040F67E01A86915F011FA044679492046D4
:1034B00012F08EFB0021204612F0DCFB764928201A
:1034C000087042E540F67E01DFF8C08115F0FEF994
:1034D00007466FF07041384612F07AFB6FF07F417B
:1034E000384612F0C7FB19EE900A26F0D9F941ECE4
:1034F000100B53EC102BAFF27C2101A8FCF7EAFE75
:1035000001A9384612F091FB40F67A01D8F818006C
:1035100015F0DCF907465F49384612F059FB0021E7
:10352000384612F0A7FB5C49232008702C7000205D
:1035300030700AE540F67101544D15F0C7F90446A4
:103540006FF07041204612F043FB6FF07F41204640
:1035500012F090FB00204E4A002102E01154401C62
:10356000C0B20528FAD340F67501A86915F0AEF986
:1035700004464849204612F02BFB0021204612F059
:1035800079FB45491F200870DFE440F67501DFF83C
:10359000FC8015F09BF907466FF07041384612F039
:1035A00017FB6FF07F41384612F064FB3B48D0F8C0
:1035B0009C10016101694EF66022914201D90021FF
:1035C0000161006900EE100AF8EE400A1FEDDD1AF5
:1035D00080EE810A10EE100A26F062F941EC100B21
:1035E00053EC102BAFF2643101A8FCF773FE01A974
:1035F000384612F01AFB40F67101D8F8180015F0A1
:1036000065F907462349384612F0E2FA00213846A8
:1036100012F030FB2049212008702C7000203070FF
:1036200016F0DCFA91E440F67201184D15F04EF9EF
:1036300004466FF07041204612F0CAFA6FF07F41E5
:10364000204612F017FB40F67601A86915F03EF906
:1036500004461049204612F0BBFA0021204612F021
:1036600009FB0D49202008706FE440F67601DFF871
:103670001C8015F02BF907466FF07041384612F0A8
:10368000A7FA6FF07F4138460AE00000B40100203D
:103690008C010020FFFFBF0096010020680D002074
:1036A00012F0E8FA40F67201D8F8180015F00EF999
:1036B00007460849384612F08BFA0021384612F0C6
:1036C000D9FA0549242008702C700020307016F0BB
:1036D00085FA3AE4FFFFBF009601002070B5174D50
:1036E00069792846164E806940F69902012912D060
:1036F000A97B01291DD0114615F0E8F804466FF0AA
:103700007041204612F064FA3146204612F0B2FAB7
:103710002F20287070BD114615F0D8F804463146A8
:10372000204612F055FA2046BDE87040002112F004
:10373000A1BABDE8704000F02BBA0000F4010020EF
:10374000FFFFBF002DE9FF470446006810B115F0E8
:10375000DFFF68B10022314850F8221060680A2863
:1037600041D007DCF0B306280DD0072854D106E07D
:103770000122F0E712280AD019284DD137E020465F
:1037800017F046FB48E0204618F0D0FC44E02068E3
:1037900003F0CAFE0290B0F9548090F85650476C7E
:1037A000466B02A803F00AFF206800F039F8814652
:1037B000684615F063F8BDF8001009EB05000844F1
:1037C000ADF80000246A304605F0D0FA022005F07A
:1037D0000DFB384605F0C0FA42466946204604F023
:1037E00077FA19E007E0204618F08CFF14E08869AA
:1037F00004B0BDE8F087206815F04EFC206803F0A7
:1038000093FE0390B0F90610B0F90220891A491C02
:10381000C16703A803F0D2FE0020E9E7982E040850
:1038200038B503F081FE0090C46F684603F0C6FE11
:10383000204638BD044A034911600449CA69C86179
:1038400010467047740300203C070020400700200A
:1038500000B589B024216846FCF771FF192001905A
:1038600003480068806841686846884709B000BD21
:103870003C07002070B5FF22FF230A4C04F5807539
:1038800008E010F801CB8CEA020C14F80C205A4026
:1038900015F80C300E00A1F1010189B2F1D143EA13
:1038A000022070BD9A9902081CB51B4801210170C5
:1038B0001A4A192010701A48002404701948C26F5F
:1038C0004260D0F888208260D0F89C2002611648BF
:1038D00001707021682013F0C6F84FF4805113482E
:1038E00002F0D8FE09F062FD4FF48061104802F04A
:1038F000D1FE1048016841F08001016014F0DAFF48
:10390000034600940C4A29210C48019404F004F861
:103910000B4988611CBD00004A010020960100206F
:1039200084000020680D002085000020000C02406B
:103930000008024040000020A1480208C4A3020879
:10394000B40100201CB50E48002404700D4804701A
:103950000D4804707021682013F085F84FF48051F1
:103960000A4802F097FE14F0A5FF03460094084AA7
:1039700008210848019403F0CFFF074908601CBDE7
:103980004A0100208500002084000020000C024035
:103990009D5B020840A80208D00100207CB50E4CB7
:1039A0004720A0710320A0700C4908700025E57124
:1039B00024F0F2FF0A49012008700A48057014F04B
:1039C00079FF03460095084A20210848019503F035
:1039D000A3FF60627CBD000048010020850000203C
:1039E0008700002084000020092F0208DC9D0208C7
:1039F0001CB50F49052008700E48002404700E48BD
:103A000004707021682013F02EF84FF480510B4899
:103A100002F040FE14F04EFF03460094084A2121B4
:103A20000848019403F078FF074948601CBD000076
:103A30004A0100209601002084000020000C024072
:103A40002D5F020820A90208E40100201CB50849E6
:103A50000620087014F02EFF03460020009001900D
:103A6000044A0121044803F057FF044948601CBD83
:103A70004A01002039690208BCAC0208EC010020B0
:103A80001CB5174C207808B109F090FC022020707A
:103A9000144908701449092008701448D0F8981087
:103AA0004160D0F8A01081601148002404701149D1
:103AB000032008707021682012F0D5FF4FF4805168
:103AC0000D4802F0E7FD14F0F5FE034600940B4AA2
:103AD00014210B48019403F01FFF0A4948601CBDE4
:103AE0004A0100208500002096010020680D00207A
:103AF0008400002094010020000C0240CD26020822
:103B0000AC9B02083C0100201CB5174C207808B182
:103B100009F04CFC04202070144908701449172047
:103B200008701448D0F894100161134900240C70F7
:103B3000124A02211170D0F8A410C16070216820CF
:103B400012F091FF4FF480510D4802F0A3FD14F0E4
:103B5000B1FE034600940B4A16210B48019403F072
:103B6000DBFE0A4948611CBD4A0100208500002097
:103B700096010020680D00208400002094010020A0
:103B8000000C02406D7702085CA102089801002039
:103B90001CB514F08FFE002403460094064A07214A
:103BA0000648019403F0B8FE0549486005490C70C9
:103BB000054A082111701CBDB96F02089C9B0308BF
:103BC0001C020020840000204A0100201CB514F0D3
:103BD00071FE002403460094074A1221074801940D
:103BE00003F09AFE06498861064A1470064B0722C4
:103BF0001A702F220A701CBDB9690208A499030823
:103C0000F4010020840000204A0100201CB502209D
:103C10008DF8050001208DF8040000208DF80600C5
:103C20001C2000906946024802F0E0FC1CBD000028
:103C30000010024070B50546244E0421304602F0C3
:103C400029FD0821304602F027FD00BF00BF00BF5C
:103C500000BF0421304602F01FFD00BF082130469E
:103C600002F01AFD0421304602F014FD002420E089
:103C7000072C0DD9280404D51021304602F00CFD84
:103C800003E01021304602F005FD6804050C03E056
:103C90001021304602F0FEFC0821304602F0FAFC0A
:103CA00000BF00BF00BF0821304602F0F5FC641CD5
:103CB000E4B2182CDCD30421304602F0EDFC30468F
:103CC000BDE87040082102F0E7BC0000001002408F
:103CD00008B538208DF8000003208DF801008DF81C
:103CE000020001208DF8030068460CF09BFB08BD24
:103CF0000148006870470000C003002010B5054966
:103D0000054800F00DF80548016841F00201016026
:103D100010BD00002080001010640240340000201C
:103D2000074A904201D2074801E005481038064A88
:103D30008B0001EA020101D5C160704781607047C4
:103D400010640240006002407D0F7D0F21B10168C8
:103D500041F0010101607047016821F0010101603B
:103D600070470B0609D522B1436943F080034361D4
:103D700003E0436923F080034361802905D001F00B
:103D80001E011AB102680A430260704702688A4342
:103D90000260704730B50368124A1340CC680A6865
:103DA0002243D1E905452C432243CC6922430C6AC6
:103DB00022434C6A22438C6A22434C6B22438C6B15
:103DC00022431A430260426922F00703D1E90B241F
:103DD00022431A4342610A6942604A6882608968E4
:103DE000C16030BD3F801CF0F8B50546006803F0A7
:103DF0009BFB0090448ED0F88860684603F0DEFBA1
:103E000006B1012604F00104286815F081FC0EB10A
:103E1000002006E00CB1012003E008B1022000E020
:103E200003201B4951F82010686858B302280CD0B1
:103E3000052802D0122828D103E0284617F014F8EC
:103E400023E0284619F0F3F81FE06A69E8694FF0AB
:103E5000FF33801AA0F1080203EB6204421CAB6935
:103E6000001B4510A3EB6206C86904F075FF06E06D
:103E70003219311B284604F0F9F8641E6D1C002C21
:103E8000F6DA02E0286815F007F90020F8BD000016
:103E9000F82E0408044A0349116004490A6B0863B8
:103EA00010467047C40300207C07002080070020D4
:103EB00038B50D46002403F037FB0090C06B29464F
:103EC00003F014FC0546684603F078FB1DB1284654
:103ED00003F02AFB0446204638BD704730B504463F
:103EE0004FF47A7502E0284600F006F82300A4F1AA
:103EF000010084B2F7D130BD00220BE0042100BFE5
:103F000000BF00BF00BF00BF491E0904090CF6D165
:103F1000521C92B28242F1D37047000010B52DEDD1
:103F2000028B24490A78244CB2EE048A022AE06803
:103F30001FD00978032939D1204991ED000A20EEDC
:103F4000080ABDEEC00A10EE101A09B202F07CFC9D
:103F50001B4890ED000A20EE080ABDEEC00A10EEE4
:103F6000100A01B22069BDEC028BBDE8104002F0DE
:103F70006BBC144991ED000A20EE080ABDEEC00AA0
:103F800010EE101A09B202F05FFC0F4890ED000A23
:103F900020EE080ABDEEC00A10EE100A01B2206938
:103FA000BDEC028BBDE8104002F04EBCBDEC028BB4
:103FB00010BD000094010020D00100202800002046
:103FC00030000020240000202C0000201CB51048E8
:103FD000007A01281AD1FF2004F0BEFE022004F06E
:103FE000F3FEB4200021CDE90010032306220C21AA
:103FF0004FF4C37003F016FF02B00C23BDE810406D
:1040000040F27F120421034804F092B81CBD000066
:10401000840000209A9B02081CB51048007A0128F1
:104020001AD1FF2004F098FE022004F0CDFEB42047
:104030000021CDE90010032306220C2140F2D1100B
:1040400003F0F0FE02B00C23BDE810404FF4E5721F
:104050000421034804F06CB81CBD0000840000205B
:104060009A9B020810B5044624F0E4F9A02024F03D
:10407000B3F924F00FFA68B9204624F0ADF924F022
:1040800009FA38B924F0D6F9A12024F0A5F924F0D2
:1040900001FA18B124F0EAF9002010BD24F07AF9F1
:1040A000034C207024F05EF924F0E0F9207810BD74
:1040B0007A00002070B50120FFF7D4FFFE4C20608D
:1040C0000120FFF7CFFF206020680002206002205F
:1040D000FFF7C8FF216808442060206800022060C4
:1040E0000320FFF7BFFF216808442060206800021A
:1040F00020600420FFF7B6FF2168084420600520F7
:10410000FFF7B0FFED4D2860286800022860062008
:10411000FFF7A8FF29680844286028680002286083
:104120000720FFF79FFF29680844286028680002DD
:1041300028600820FFF796FF296808442860C020FF
:10414000FFF790FF6063606B00026063C120FFF7C0
:1041500089FF616B08446063606B00026063C2208A
:10416000FFF780FF616B08446063606B000260636F
:10417000C320FFF777FF616B08446063C420FFF73B
:1041800071FF6863686B00026863C520FFF76AFF10
:10419000696B08446863686B00026863C620FFF7B8
:1041A00061FF696B08446863686B00026863C7203D
:1041B000FFF758FF696B08446863C820FFF752FF98
:1041C000A063A06B0002A063C920FFF74BFFA16BA7
:1041D0000844A063A06B0002A063CA20FFF742FF5F
:1041E000A16B0844A063A06B0002A063CB20FFF783
:1041F00039FFA16B0844A063CC20FFF733FFA8630D
:10420000A86B0002A863CD20FFF72CFFA96B084420
:10421000A863A86B0002A863CE20FFF723FFA96B59
:104220000844A863A86B0002A863CF20FFF71AFF19
:10423000A96B0844A8630920FFF714FF6060606859
:10424000000260600A20FFF70DFF616808446060AB
:104250006068000260600B20FFF704FF616808449B
:1042600060606068000260600C20FFF7FBFE616820
:10427000084460600D20FFF7F5FE68606868000282
:1042800068600E20FFF7EEFE6968084468606868A1
:10429000000268600F20FFF7E5FE69680844686067
:1042A0006868000268601020FFF7DCFE6968084457
:1042B00068601120FFF7D6FEA060A0680002A06031
:1042C0001220FFF7CFFEA1680844A060A06800029A
:1042D000A0601320FFF7C6FEA1680844A060A06894
:1042E0000002A0601420FFF7BDFEA1680844A06092
:1042F0001520FFF7B7FEA860A8680002A860162086
:10430000FFF7B0FEA9680844A860A8680002A8608A
:104310001720FFF7A7FEA9680844A860A868000254
:10432000A8601820FFF79EFEA9680844A86019201D
:10433000FFF798FEE060E0680002E0601A20FFF7F7
:1043400091FEE1680844E060E0680002E0601B2044
:10435000FFF788FEE1680844E060E0680002E06082
:104360001C20FFF77FFEE1680844E0601D20FFF796
:1043700079FEE860E8680002E8601E20FFF772FE40
:10438000E9680844E860E8680002E8601F20FFF779
:1043900069FEE9680844E860E8680002E8602020F7
:1043A000FFF760FEE9680844E8602120FFF75AFE45
:1043B00020612069000220612220FFF753FE21695D
:1043C000084420612069000220612320FFF74AFE93
:1043D0002169084420612069000220612420FFF740
:1043E00041FE2169084420612520FFF73BFE28613A
:1043F0002869000228612620FFF734FE2969084455
:1044000028612869000228612720FFF72BFE29690F
:10441000084428612869000228612820FFF722FE4D
:104420002969084428612920FFF71CFE6061606942
:10443000000260612A20FFF715FE6169084460618F
:104440006069000260612B20FFF70CFE616908447F
:1044500060616069000260612C20FFF703FE616902
:10446000084460612D20FFF7FDFD68616869000266
:1044700068612E20FFF7F6FD696908446861686984
:10448000000268612F20FFF7EDFD6969084468614B
:104490006869000268613020FFF7E4FD696908443B
:1044A0006861AB20FFF7DEFDE062E06A0002E062D7
:1044B000AC20FFF7D7FD03E0C00C0020140D002056
:1044C000E16A0844E062E06A0002E062AD20FFF7C2
:1044D000C9FDE16A0844E062E06A0002E062AE20E1
:1044E000FFF7C0FDE16A0844E062AF20FFF7BAFDC4
:1044F000E862E86A0002E862B020FFF7B3FDE96A0B
:104500000844E862E86A0002E862B120FFF7AAFD09
:10451000E96A0844E862E86A0002E862B220FFF74C
:10452000A1FDE96A0844E862B720FFF79BFD20631C
:10453000206B00022063B820FFF794FD216B084434
:104540002063206B00022063B920FFF78BFD216BF5
:1045500008442063206B00022063BA20FFF782FD2D
:10456000216B08442063BB20FFF77CFD2863286B88
:1045700000022863BC20FFF775FD296B08442863FF
:10458000286B00022863BD20FFF76CFD296B0844EF
:104590002863286B00022863BE20FFF763FD296BA8
:1045A000084428633120FFF75DFDA061A069000287
:1045B000A0613220FFF756FDA1690844A061A069FF
:1045C0000002A0613320FFF74DFDA1690844A061FE
:1045D000A0690002A0613420FFF744FDA1690844EE
:1045E000A0613520FFF73EFDA861A8690002A8611F
:1045F0003620FFF737FDA9690844A861A8690002C1
:10460000A8613720FFF72EFDA9690844A861A869B1
:104610000002A8613820FFF725FDA9690844A861B8
:104620003920FFF71FFDE061E0690002E0613A20F8
:10463000FFF718FDE1690844E061E0690002E0610C
:104640003B20FFF70FFDE1690844E061E0690002EB
:10465000E0613C20FFF706FDE1690844E0613D2090
:10466000FFF700FDE861E8690002E8613E20FFF71E
:10467000F9FCE9690844E861E8690002E8613F2063
:10468000FFF7F0FCE9690844E861E8690002E861C5
:104690004020FFF7E7FCE9690844E8614120FFF7A3
:1046A000E1FC2062206A000220624220FFF7DAFC6F
:1046B000216A08442062206A000220624320FFF73A
:1046C000D1FC216A08442062206A00022062442052
:1046D000FFF7C8FC216A084420624520FFF7C2FCAE
:1046E0002862286A000228624620FFF7BBFC296A7C
:1046F00008442862286A000228624720FFF7B2FCBB
:10470000296A08442862286A000228624820FFF7C4
:10471000A9FC296A08442862D020FFF7A3FCE063C3
:10472000E06B0002E063D120FFF79CFCE16B0844E2
:10473000E063E06B0002E063D220FFF793FCE16BE3
:104740000844E063E06B0002E063D320FFF78AFCDB
:10475000E16B0844E063D420FFF784FCE863E86B76
:104760000002E863D520FFF77DFCE96B0844E863AD
:10477000E86B0002E863D620FFF774FCE96B08449D
:10478000E863E86B0002E863D720FFF76BFCE96B96
:104790000844E863D820FFF765FC2064206C000221
:1047A0002064D920FFF75EFC216C08442064206C53
:1047B00000022064DA20FFF755FC216C08442064D5
:1047C000206C00022064DB20FFF74CFC216C0844C5
:1047D0002064DC20FFF746FC2864286C0002286473
:1047E000DD20FFF73FFC296C08442864286C000298
:1047F0002864DE20FFF736FC296C08442864286C06
:1048000000022864DF20FFF72DFC296C084428648F
:104810004920FFF727FC6062606A000260624A205C
:10482000FFF720FC616A08446062606A000260620F
:104830004B20FFF717FC616A08446062606A00025F
:1048400060624C20FFF70EFC616A084460624D20F4
:10485000FFF708FC6862686A000268624E20FFF792
:1048600001FC696A08446862686A000268624F2055
:10487000FFF7F8FB696A08446862686A00026862C8
:104880005020FFF7EFFB696A08446862E020FFF7F9
:10489000E9FBE064E06C0002E064E120FFF7E2FB8A
:1048A000E16C0844E064E06C0002E064E220FFF7A1
:1048B000D9FBE16C0844E064E06C0002E064E320B2
:1048C000FFF7D0FBE16C0844E064E420FFF7CAFB8B
:1048D000E864E86C0002E864E520FFF7C3FBE96CDC
:1048E0000844E864E86C0002E864E620FFF7BAFBDD
:1048F000E96C0844E864E86C0002E864E720FFF72C
:10490000B1FBE96C0844E864E820FFF7ABFB2065E5
:10491000206D00022065E920FFF7A4FB216D08440B
:104920002065206D00022065EA20FFF79BFB216DCA
:1049300008442065206D00022065EB20FFF792FB04
:10494000216D08442065EC20FFF78CFB2865286D5D
:1049500000022865ED20FFF785FB296D08442865D6
:10496000286D00022865EE20FFF77CFB296D0844C6
:104970002865286D00022865EF20FFF773FB296D7D
:10498000084428655120FFF76DFBA062A06A000271
:10499000A0625220FFF766FBA16A0844A062A06AE9
:1049A0000002A0625320FFF75DFBA16A0844A062E9
:1049B000A06A0002A0625420FFF754FBA16A0844D9
:1049C000A0625520FFF74EFBA862A86A0002A86209
:1049D0005620FFF747FBA96A0844A862A86A0002AC
:1049E000A8625720FFF73EFBA96A0844A862A86A9C
:1049F0000002A8625820FFF735FBA96A0844A862A4
:104A00005920FFF72FFBFC4C20705A20FFF72AFBA0
:104A100060705B20FFF726FBA0705C20FFF722FB95
:104A2000E0705D20FFF71EFB20715E20FFF71AFB90
:104A300060716020FFF716FBF04908707A20FFF7DD
:104A400011FBEF4908707B20FFF70CFBED49087064
:104A50007820FFF707FBEC4908707920FFF702FB8D
:104A6000EA4908706120FFF7FDFAE9490870B420AF
:104A7000FFF7F8FAE74908707C20FFF7F3FAE649F8
:104A800008807D20FFF7EEFAE44908807E20FFF7DA
:104A9000E9FAE34908807F20FFF7E4FAE14908805A
:104AA0008020FFF7DFFAE04908708120FFF7DAFA8B
:104AB000DE4908708220FFF7D5FADD4908708320AF
:104AC000FFF7D0FADB4908708420FFF7CBFADA4908
:104AD00008708520FFF7C6FAD84908708620FFF7CE
:104AE000C1FAD74908708720FFF7BCFAD54908708A
:104AF0008820FFF7B7FAD44908708920FFF7B2FA87
:104B0000D24908708A20FFF7ADFAD14908708B208E
:104B1000FFF7A8FACF4908708C20FFF7A3FACE4917
:104B200008708D20FFF79EFACC490880B320FFF76C
:104B300099FACB4908706220FFF794FAC94C2060BB
:104B40002068000220606320FFF78CFA2168084487
:104B500020606420FFF786FA606060680002606091
:104B60006520FFF77FFA6168084460606620FFF700
:104B700079FAA060A0680002A0606720FFF772FACF
:104B8000A1680844A0606820FFF76CFAE060E06864
:104B90000002E0606920FFF765FAE1680844E06020
:104BA0006A20FFF75FFA20612069000220616B2014
:104BB000FFF758FA2169084420616C20FFF752FA88
:104BC00060616069000260616D20FFF74BFA616906
:104BD000084460616E20FFF745FA2066206E0002EF
:104BE00020666F20FFF73EFA216E08442066702091
:104BF000FFF738FAA066A06E0002A0667120FFF7EA
:104C000031FAA16E0844A0667220FFF72BFAE06526
:104C1000E06D0002E0657320FFF724FAE16D0844BF
:104C2000E065B520FFF71EFAE066E06E0002E06680
:104C3000B620FFF717FAE16E0844E0667420FFF72C
:104C400011FA2062206A000220627520FFF70AFA3A
:104C5000216A084420627620FFF704FA6062606AE5
:104C6000000260627720FFF7FDF9616A0844606224
:104C70008E20FFF7F7F96064606C000260648F209B
:104C8000FFF7F0F9616C084460649020FFF7EAF9DF
:104C9000A064A06C0002A0649120FFF7E3F9A16C6E
:104CA0000844A0649220FFF7DDF9E064E06C0002A4
:104CB000E0649320FFF7D6F9E16C0844E0649420A7
:104CC000FFF7D0F9684D28802888000228809520B9
:104CD000FFF7C8F92988084428809620FFF7C2F911
:104CE00068806888000268809720FFF7BBF96988B0
:104CF000084468809820FFF7B5F9A880A8880002CA
:104D0000A8809920FFF7AEF9A9880844A8809A20C6
:104D1000FFF7A8F92065206D000220659B20FFF7B2
:104D2000A1F9216D08442065A4F138044FF09C00DE
:104D3000FFF798F904F16C042062206A4FEA002022
:104D400020624FF09D00FFF78DF9216A0844206230
:104D50009E20FFF787F96062606A000260629F2010
:104D6000FFF780F9616A08446062A020FFF77AF9D2
:104D7000E880E8880002E880A120FFF773F9E9885D
:104D80000844E880A220FFF76DF9288128890002F5
:104D90002881A320FFF766F9298908442881A420E7
:104DA000FFF760F96881688900026881A520FFF734
:104DB00059F9698908446881A620FFF753F92B49FE
:104DC0000870A720FFF74EF92063206B00022063D4
:104DD000A820FFF747F9216B08442063A920FFF7BB
:104DE00041F92060206800022060AA20FFF73AF90C
:104DF00021680844206070BDB400002097000020A6
:104E00004C0100204B01002058010020950100209A
:104E100057010020E40100200402002006020020C7
:104E2000080200200A020020F5010020F6010020FF
:104E3000F7010020F8010020FA010020FB0100200A
:104E4000FC010020FD010020FE010020FF010020E8
:104E500000020020010200209B0100205E010020D2
:104E600059010020A00D00206C870020B401002013
:104E700070B505460E4623F0F9FA002409E023F048
:104E8000D9FAA02023F0A8FA23F004FB18B1641C7F
:104E9000A4B2642CF3D3B4F57A7F0DD0E8B223F03A
:104EA0009BFA23F0F7FA38B9304623F095FA23F04D
:104EB000F1FA08B923F0DAFABDE8704023F0D6BA67
:104EC0002DE9F041044694B0006800F0B7F908B14C
:104ED000D94D01E0D84D2C35606815281ED00CDC6A
:104EE0000B281FD004DC00287ED005287DD12EE1C0
:104EF0000E287BD01228F9D141E1162806D01728B8
:104F000008D0182808D01C28F0D109E0E86914B0AE
:104F1000BDE8F081286AFAE7686AF8E7A86AF6E768
:104F20006869F4E720680B901C200C90206802F060
:104F3000FBFA0390016D0BA88847064603A802F010
:104F40003DFB022E0EDB95E807008DE80700D4E953
:104F500004023346A16904F069FE20698719A0693B
:104F6000801B2BE0286803F0F7FE2169E8690A1826
:104F7000521E606903F07AF8A269E869111A491CA7
:104F8000606903F073F8676920697F1C394603F094
:104F9000AFF83946A06903F0ABF8686803F0DCFEAF
:104FA00020693946401C03F0A3F8A0693946401E29
:104FB00003F09EF82769A069BF1C801E8046286800
:104FC00003F0CAFE42463946606903F04FF868684C
:104FD00003F0C2FE60694246401C394603F046F8C1
:104FE000686A02280FDD02E015E1AFE000E1A86881
:104FF00003F0B2FE61696A6A881C8B1801465B1E69
:105000004246384627E0296AB14226DD6069022E11
:10501000074600F1020801DB374401E007F102070F
:10502000206901DB304401E000F1020022693B46C7
:105030000A44A2F10102414603F03EF9022E02DBCE
:10504000A069821B01E0A269921EA069E9693B4642
:10505000401A401C414603F02FF9022E02DB606922
:10506000064401E06669B61CE76928687F1E03F004
:1050700073FE3A463146206903F0B4F83A463146A9
:10508000A06903F0AFF8E7696868BF1E03F064FE2B
:1050900020693A46401C314603F0A4F8A0693A461C
:1050A000401E314603F09EF8E869022802DC286AB7
:1050B000022823DDA86A022802DDE1690F1A01E057
:1050C000E769BF1EA86803F047FEE969022909DD08
:1050D00020693B46421800F1020C521E31466046E0
:1050E00003F0EAF8286A022808DDA269E8693B466D
:1050F000101A401C921E314603F0DEF8286803F0B7
:105100002BFED4E90620216902F0B0FF686803F0A5
:1051100023FEA2692169E069521E491C401E02F06B
:10512000A5FFA86A022811DD2669A169E469B61CF9
:10513000271AA1F102087F1CA41EA86803F00CFE28
:10514000234642463946304603F0B6F872E0208ADC
:1051500006B2ADF81460A08A01B2ADF81610208B2B
:1051600002B2ADF81820A08B03B2ADF81A30D5E921
:105170000304CDE90004304602F020FF5AE0208A03
:10518000298B0844ADF81400A08AADF81600208BD6
:10519000298B401AADF81800A08BADF81A002068D2
:1051A00002F0C2F90390006FF0B1022003F01EFE7E
:1051B000039991F87C00C0F3C00001EB8000006C03
:1051C00003F0CAFD0398406B03F0D0FD0398006F15
:1051D00002F0AAF903990A90B1F95A2005A902F040
:1051E00077FD0AA802F0EAF903A802F0E7F921E046
:1051F000208AADF81400A08AADF81600208BADF817
:105200001800A08BADF81A00A86803F0A5FD05A84A
:1052100003F076F80EE0206802F086F9039030F88B
:105220005A1F41F00C01018003A802F0C7F9206861
:1052300013F032FF00206AE69404002038B5002401
:1052400050B102F071F9009090F87C00000700D591
:105250000124684602F0B2F9204638BD30B5044654
:105260008BB0006802F060F9009090F87C10246A1E
:10527000006FC1F3C00508B102F056F90690E0686E
:10528000029020690390A088401EADF81000E089CC
:10529000ADF812002089401CADF81400608AADF80A
:1052A0001600BDF80800401CADF80800BDF80A0063
:1052B000401CADF80A00BDF80C00401EADF80C0013
:1052C0000098406B03F052FD009808AA02A9B0F9BB
:1052D0005A30069804F02CF8009800EB8500806B9B
:1052E00009F0DAFE009800EB8500006C09F00CFF75
:1052F00008AB02AA04A9069812F0B0FE684602F0B4
:105300005DF9069810B106A802F058F90BB000201C
:1053100030BD0000074A0649054B1160064A083BAC
:10532000D16958601B68C2E9063008467047000022
:1053300088040020BC070020C007002038B50D46B7
:10534000040009D002F0F0F800900566684602F00B
:1053500035F9204613F0A3FC38BD2DE9F34F85B095
:1053600000270C46B846059802F0DEF80090C06DA4
:105370000121856805982A68904782462A6803219A
:105380000598904704902A68022105989047039059
:105390002A680021059890470646009814F03EF8C8
:1053A0008346009814F041F88146009890F8321036
:1053B000890601D5B0F9588000F036F80546009806
:1053C000C06E10B113F0A0FB074625806780A4F8DB
:1053D00004A0049AABEB020006EB0802401E2A442C
:1053E00020813A44E280039BA9EB0302521E6281B2
:1053F000A4F80CA020827019E681401E60826846E5
:1054000002F0DCF8B4F90C000190B4F9100002903D
:1054100002AA01A9059800F039F80198A081029824
:10542000208207B0BDE8F08F10B50146002091F84A
:105430003220920607D5B1F95400002803D1486BF9
:1054400002F0DCFF801C10BD70B58AB00C4605462A
:1054500002F06AF80990C06D866809A802F0AEF8FB
:10546000009534B1012C06D0022C0BD0032C04D1B2
:105470000AE0182000E0162001907168684688470D
:105480000AB070BD1520F7E71720F5E72DE9FC47B6
:1054900090468946044602F047F80090C16D0568C1
:1054A00068468E6802F08AF83268002120469047EC
:1054B0000646204613F012FA2F1404462DB227E0B8
:1054C00002F032F80190B0F90010B0F90420B0F900
:1054D0000230491B521BDB1BB34212D190F828004B
:1054E000000607D5D8F8000088420ADB491EC8F834
:1054F000001006E0D9F80000904202DC521CC9F806
:10550000002001A802F05AF8204613F077FA04466A
:10551000002CD5D1BDE8FC874FF0204202EB800083
:1055200021B1016841F00101016070470168024A40
:105530001140016070470000FEFF0F0030B5D0E958
:1055400001121143D0E903231A431143426903684E
:10555000114382691143C2691143026A1143426ACD
:105560001143826A1143C26A1143026B11434FF027
:10557000204242F823108168082906D1016802EB15
:1055800081010B6843F040030B60416BD1E90034AB
:1055900043EA04138C68CD68240244EA054423439B
:1055A0000C6943EA04534C69896943EA04630B4379
:1055B0000168491C42F82130C16AB1F5804F07D01B
:1055C00000686FF0704102EB8000C0F8041130BD3C
:1055D000816B0068D1E9003443EA04138C680D69DB
:1055E000240244EA055423434C69896943EA04636D
:1055F00002EB80000B43C0F8043130BD70B5FE4CA7
:105600002068010E0120FFF733FC2068C0F307413A
:105610000220FFF72DFC2068C0F307210320FFF7CD
:1056200027FC2068C1B20420FFF722FCF34D286854
:10563000010E0520FFF71CFC2868C0F30741062077
:10564000FFF716FC2868C0F307210720FFF710FCBE
:105650002868C1B20820FFF70BFC606B010EC02068
:10566000FFF706FC606BC0F30741C120FFF700FCA9
:10567000606BC0F30721C220FFF7FAFB606BC1B279
:10568000C320FFF7F5FB686B010EC420FFF7F0FBAA
:10569000686BC0F30741C520FFF7EAFB686BC0F3F6
:1056A0000721C620FFF7E4FB686BC1B2C720FFF7F4
:1056B000DFFBA06B010EC820FFF7DAFBA06BC0F385
:1056C0000741C920FFF7D4FBA06BC0F30721CA2014
:1056D000FFF7CEFBA06BC1B2CB20FFF7C9FBA86BD5
:1056E000010ECC20FFF7C4FBA86BC0F30741CD200F
:1056F000FFF7BEFBA86BC0F30721CE20FFF7B8FB76
:10570000A86BC1B2CF20FFF7B3FB6068010E092080
:10571000FFF7AEFB6068C0F307410A20FFF7A8FB64
:105720006068C0F307210B20FFF7A2FB6068C1B2DD
:105730000C20FFF79DFB6868010E0D20FFF798FB1A
:105740006868C0F307410E20FFF792FB6868C0F35A
:1057500007210F20FFF78CFB6868C1B21020FFF70C
:1057600087FBA068010E1120FFF782FBA068C0F341
:1057700007411220FFF77CFBA068C0F3072113202C
:10578000FFF776FBA068C1B21420FFF771FBA86891
:10579000010E1520FFF76CFBA868C0F30741162027
:1057A000FFF766FBA868C0F307211720FFF760FB2F
:1057B000A868C1B21820FFF75BFBE068010E192052
:1057C000FFF756FBE068C0F307411A20FFF750FBD4
:1057D000E068C0F307211B20FFF74AFBE068C1B275
:1057E0001C20FFF745FBE868010E1D20FFF740FB7A
:1057F000E868C0F307411E20FFF73AFBE868C0F3F2
:1058000007211F20FFF734FBE868C1B22020FFF713
:105810002FFB2069010E2120FFF72AFB2069C0F32E
:1058200007412220FFF724FB2069C0F30721232032
:10583000FFF71EFB2069C1B22420FFF719FB28697E
:10584000010E2520FFF714FB2869C0F3074126202D
:10585000FFF70EFB2869C0F307212720FFF708FB9D
:105860002869C1B22820FFF703FB6069010E2920D7
:10587000FFF7FEFA6069C0F307412A20FFF7F8FA44
:105880006069C0F307212B20FFF7F2FA6069C1B20B
:105890002C20FFF7EDFA6869010E2D20FFF7E8FADA
:1058A0006869C0F307412E20FFF7E2FA6869C0F388
:1058B00007212F20FFF7DCFA6869C1B23020FFF71B
:1058C000D7FAE06A010EAB20FFF7D2FAE06AC0F324
:1058D0000741AC20FFF7CCFAE06AC0F30721AD2006
:1058E000FFF7C6FAE06AC1B2AE20FFF7C1FAE86A74
:1058F000010EAF20FFF7BCFAE86AC0F30741B02001
:10590000FFF7B6FAE86AC0F30721B120FFF7B0FA53
:10591000E86AC1B2B220FFF7ABFA206B010EB720E4
:10592000FFF7A6FA206BC0F30741B820FFF7A0FAF3
:10593000206BC0F30721B920FFF79AFA206BC1B2A0
:10594000BA20FFF795FA286B010EBB20FFF790FAFB
:10595000286BC0F30741BC20FFF78AFA286BC0F31D
:105960000721BD20FFF784FA286BC1B2BE20FFF7E4
:105970007FFAA069010E3120FFF77AFAA069C0F31F
:1059800007413220FFF774FAA069C0F307213320E2
:10599000FFF76EFAA069C1B23420FFF769FAA8696F
:1059A000010E3520FFF764FAA869C0F307413620DD
:1059B000FFF75EFAA869C0F307213720FFF758FA0E
:1059C000A869C1B23820FFF753FAE069010E392007
:1059D000FFF74EFAE069C0F307413A20FFF748FAB3
:1059E000E069C0F307213B20FFF742FAE069C1B24A
:1059F0003C20FFF73DFA03E0C00C0020140D00200E
:105A0000E869010E3D20FFF733FAE869C0F307416A
:105A10003E20FFF72DFAE869C0F307213F20FFF78A
:105A200027FAE869C1B24020FFF722FA206A010E86
:105A30004120FFF71DFA206AC0F307414220FFF71B
:105A400017FA206AC0F307214320FFF711FA206AF2
:105A5000C1B24420FFF70CFA286A010E4520FFF777
:105A600007FA286AC0F307414620FFF701FA286ABF
:105A7000C0F307214720FFF7FBF9286AC1B248208D
:105A8000FFF7F6F9E06B010ED020FFF7F1F9E06BBC
:105A9000C0F30741D120FFF7EBF9E06BC0F307211A
:105AA000D220FFF7E5F9E06BC1B2D320FFF7E0F9B0
:105AB000E86B010ED420FFF7DBF9E86BC0F3074178
:105AC000D520FFF7D5F9E86BC0F30721D620FFF703
:105AD000CFF9E86BC1B2D720FFF7CAF9206C010EED
