:020000040800F2
:10000000C08D00209502000827E3000891990008A0
:1000100025E300082D230008753A010800000000C0
:10002000000000000000000000000000D1150108E1
:100030006F3C00080000000061FD00088D200108F1
:10004000AF020008AF020008AF020008AF020008CC
:10005000AF020008AF020008AF020008AF020008BC
:10006000AF020008AF020008AF020008AF020008AC
:10007000AF020008AF020008AF020008AF0200089C
:10008000AF020008AF020008AF020008AF0200088C
:10009000AF020008AF020008AF020008AF0200087C
:1000A000AF020008AF020008AF020008AF0200086C
:1000B000AF020008952501086D270108AF0200086E
:1000C000AF020008AF020008AF020008AF0200084C
:1000D000AF02000835360108AF0200086D3701088D
:1000E000AF020008AF020008AF020008AF0200082C
:1000F000AF020008AF020008AF020008AF0200081C
:10010000AF020008AF020008AF020008AF0200080B
:10011000AF020008AF02000809290108AF02000879
:10012000993A0008AF020008AF020008AF020008C9
:10013000AF020008AF020008AF020008AF020008DB
:10014000AF020008AF020008AF02000825EC00086B
:10015000AF020008AF020008AF020008AF020008BB
:10016000AF020008AF020008AF020008AF020008AB
:10017000AF020008AF020008AF020008AF0200089B
:10018000AF020008AF02000800F002F800F072F8B9
:100190000AA090E8000C82448344AAF10107DA45E2
:1001A00001D100F067F8AFF2090EBAE80F0013F0C2
:1001B000010F18BFFB1A43F001031847D00B0400CE
:1001C000F00B04000A444FF0000C10F8013B13F050
:1001D000070408BF10F8014B1D1108BF10F8015BA0
:1001E000641E05D010F8016B641E01F8016BF9D193
:1001F00013F0080F1EBF10F8014BAD1C0C1B09D1EA
:100200006D1E58BF01F801CBFAD505E014F8016B5B
:1002100001F8016B6D1EF9D59142D6D370470000ED
:100220000023002400250026103A28BF78C1FBD8FF
:10023000520728BF30C148BF0B607047662924F0C1
:10024000C081642900F08480002070471FB524F02D
:10025000AEF900F0CFFD04000020002123F052FC95
:10026000401C60600020002123F036FCE0601FBDD0
:1002700010B510BD00F00AFF1146FFF7E7FF23F0AD
:1002800013F900F036FF03B4FFF7F2FF03BC00F0F0
:1002900077FF00000948804709480047FEE7FEE76E
:1002A000FEE7FEE7FEE7FEE7FEE7FEE7FEE7FEE726
:1002B00004480549054A064B704700004D210108D6
:1002C00089010008C0870020C08D0020C08900205F
:1002D000C08900200FB41CB5074B06AA7B446946B1
:1002E0000090059800F0CBFC0020694600F0DAFC95
:1002F0001CBC5DF814FB0000C509000070B5044685
:1003000085690068C10601D5302600E02026C007B7
:1003100008D070BDD4E9012130469047206A00F131
:10032000010020626D1EF5D570BD70B5044685696B
:100330000068C00708D170BDD4E901212020904792
:10034000206A00F1010020626D1EF5D570BD00002D
:100350002DE9F0410746002510687529394616A495
:1003600011D0AFF30080002803DAC0F1000013A41D
:1003700007E039688A0701D511A402E0490704D5CE
:1003800010A4012501E0AFF3008000210A2307F14A
:10039000240607E0B0FBF3F203FB12003030705488
:1003A0001046491C0028F5D12B4622463846BDE8A8
:1003B000F04100F0F3B90000000000002D00000043
:1003C0002B000000200000002DE9F05F0446894664
:1003D0004FF0000ADFF828B1FB44C0F820A0204607
:1003E000E168884700287CD0252806D0D4E901217F
:1003F0009047206A401C2062F1E700255F462046B6
:10040000E16888472028064608DB312E06D207EB34
:10041000060010F8200C08B10543F0E7A80701D545
:1004200025F00405C4F81CA00027C4F818A02A2E43
:1004300009D0304622F0EEFE38B304EB8708303E98
:10044000C8F8186019E059F8041B204604EB87022D
:100450009161E1688847012F064618D1E0690028BC
:1004600020DA25F020051DE0D8F8180000EB800008
:1004700006EB40003038C8F818002046E16888478D
:10048000064622F0C7FE0028EED1012F0AD02E2EFC
:1004900008D12046E16888477F1C0646022F45F0B8
:1004A0002005C4DBA069002803DA404245F00105BD
:1004B000A061E80701D025F0100596B1A6F1410032
:1004C000192802D8203645F400654A4631462046B0
:1004D00025604D46FFF7B2FE60B1012807D0ED1D43
:1004E00000E009E025F0070000F1080977E705F1D1
:1004F000040974E7304679E7206ABDE8F09F000000
:10050000DC08040070B5064600F044F904680546AE
:1005100030460A22002100F0CAFB2C6070BD40EA80
:100520000103024630B59B0710D14FF0013400E0C3
:1005300008C208C91D1B9D4315EAC41FF8D013F05B
:10054000FF0102F8011B0DD01B0AF8E711F8013B6F
:10055000002B02F8013B05D011F8013B002B02F8FB
:10056000013BF3D130BD10B5431C02E010F8011B74
:1005700071B18107FAD14FF0013202C88C1A8C4355
:1005800014EAC211F9D0C01A0A0603D0C01E10BD69
:10059000C01A10BD0A0401D0801E10BD0902FCD093
:1005A000401E10BD421E12F8013F002BFBD111F876
:1005B000013B002B02F8013BF9D17047032A40F2BE
:1005C000308010F0030C00F0158011F8013BBCF1F5
:1005D000020F624498BF11F801CB00F8013B38BF0D
:1005E00011F8013BA2F1040298BF00F801CB38BF1B
:1005F00000F8013B11F0030300F06780083AC0F0F7
:10060000088051F8043B083A51F804CBA0E80810E0
:10061000F5E7121D5CBF51F8043B40F8043BAFF313
:100620000080D20724BF11F8013B11F801CB48BF6D
:1006300011F8012B24BF00F8013B00F801CB48BFA3
:1006400000F8012B7047431A28BF9A427FF6B6AFD5
:10065000032A1044114440F2268010F0030F1EBFFD
:1006600011F8013D521E00F8013D10F0030F7FF418
:10067000F6AF11F0030300F06583083AC0F00B8079
:1006800051F8043D083A51F804CD40F8043D40F8D3
:1006900004CDFFF7F3BF121D5CBF51F8043D40F8D5
:1006A000043DAFF30080D20724BF11F8013D11F8DB
:1006B00001CD48BF11F8012C24BF00F8013D00F81E
:1006C00001CD48BF00F8012C704710B5203AC0F0AA
:1006D0000B80B1E81850203AA0E81850B1E8185043
:1006E000A0E81850BFF4F5AF5FEA027C24BFB1E880
:1006F0001850A0E8185044BF18C918C0BDE81040F1
:100700005FEA827C24BF51F8043B40F8043B08BFF9
:100710007047D20728BF31F8023B48BF11F8012BC0
:1007200028BF20F8023B48BF00F8012B704702F0B9
:10073000FF0343EA032242EA024200F02FBB4FF0DC
:10074000000200B5134694469646203922BFA0E821
:100750000C50A0E80C50B1F12001BFF4F7AF09072D
:1007600028BFA0E80C5048BF0CC05DF804EB89001E
:1007700028BF40F8042B08BF704748BF20F8022B61
:1007800011F0804F18BF00F8012B70477047704779
:1007900070470000004870475C8700202DE9F04753
:1007A0000D4604469246994600F1240801688806E1
:1007B00004D5E06921F01001216000E00120A84289
:1007C00002DDA0EB050700E00027A16907EB0502A9
:1007D00002EB0900A1EB0000A0612068C00602D472
:1007E0002046FFF78BFD002608E0D4E901211AF826
:1007F00006009047206A401C761C20624E45F4DBC0
:100800002068C0060AD52046FFF778FD06E0D4E947
:10081000012130209047206A401C2062381EA7F139
:100820000107F4DC07E0D4E9012118F8050090473E
:10083000206A401C2062281EA5F10105F3DC204639
:10084000FFF773FD2068000602D50220BDE8F0879F
:100850000120FBE770472DE9FF4F0C461E464FF085
:10086000FF378BB0D2E90001DDF860800A908A463C
:10087000C1F30A5505B93D46002108464FF0000076
:10088000BAF1000F00F4400005DA00EB80004FF4ED
:10089000400101EA50004FEA9059B9F1010F00DD23
:1008A000B9460A9850EA4A000FD044F61050A5F213
:1008B000FF3545432F14B8F1000F1FD07542291E94
:1008C0001FDD4846C9F100021CE0B8F1010F4FF0EE
:1008D000000001D1F24307E0302101E02154401C27
:1008E000B042FBDB30460022002121540B99C1F8B5
:1008F0000880C1E900200FB0BDE8F08FBD1B6D1C62
:10090000DDE74A4600DA694206A800F04DFB06AB77
:1009100007CB03AB07C350460A9900F038FC8DE8BB
:100920000700A0F500501F3800900398002D09DD46
:1009300042F21F014A46084403A90390684600F0AA
:1009400097FE08E0A0F500504A461F3803A903901F
:10095000684600F0A1FE8DE807000004000C03D0FB
:100960004FF0FF30410800E01046B8F1000F03D00F
:100970000022009215461FE0751E06D400F03EFAD4
:1009800002F1300262556D1EF8D5B34601220843CC
:1009900002D000227F1C04E02078302801D1002200
:1009A0007F1E002A099786D01DE0112D07DA00F07E
:1009B00025FA303262556D1C50EA0102F5D1084328
:1009C0000FD10021681E05E0235C625C6354491C62
:1009D0002254401E8142F7DBAB46A81B401E099003
:1009E00001E0009848B1002004F80B000B98099A28
:1009F000C0F80880C0E9002B7DE711264FF0000801
:100A000059E72DE9F04F88460446D21D22F0070130
:100A100091B0D1E90001CDE90A011DF0B5F9024616
:100A20000B98C00F01D02D2007E02068810701D569
:100A30002B2002E0202101EAC000032A099001D006
:100A4000072A05DB03464146204600F01DFA0EE169
:100A50002068800601D5E06900E00620B8F1650F46
:100A6000814606D0B8F1660F18D0B8F1670F72D181
:100A700032E00020B9F1110F009001DB112301E0F9
:100A800009F101030AAA01A90CA8FFF7E4FEDDE9B8
:100A90000C70002609F10105834648E001204B4611
:100AA00000904FF000470AAA01A90CA8FFF7D3FE57
:100AB000DDE90C050E990026AB4619B909F10101D3
:100AC00000EB0105B9EB050003D4C0F1FF3609F1D5
:100AD0000105A5EB09002BE0B9F1010F01DA4FF098
:100AE00001090020B9F1110F0090484601DD1123E2
:100AF00000E003460AAA01A90CA8FFF7ACFEDDE955
:100B00000C704D4600268346206800070AD4AB458A
:100B100000DA5D4601A8012D04DD411911F8011C20
:100B2000302907D04F4502DA17F1040F04DA01200B
:100B3000824610E06D1EEEE7002F02DCED1B3E4406
:100B400003E0781CA84200DD0546A7EB060000F193
:100B5000010A4FF000472068000703D4AA4501DBD3
:100B60004FF0FF3A0021B7F1004F0DF143088DF827
:100B7000431022D002202B23002F01DA7F422D23A5
:100B80000A22011EA0F1010000DC4FB197FBF2F137
:100B900002FB117C0F460CF1300C08F801CDF0E798
:100BA000A8F1010003702168090501D5452100E085
:100BB0006521A0F1010800F8011C09980FA9A1EB1B
:100BC000080707F1070700B1012000EB050101EB61
:100BD000EA70A1693844A1EB0000A0F10100A06116
:100BE0002068C00602D42046FFF788FB099830B180
:100BF000D4E901219047206A00F1010020622068B9
:100C0000C00620D52046FFF779FB1CE0002E04DB50
:100C1000B34502DD01A8805D00E03020D4E9012168
:100C20009047206A761C401CBAF1010A20620AD162
:100C300000F0E0F8C0680168405CD4E90121904709
:100C4000206A401C2062281EA5F10105DEDC07E0B9
:100C5000D4E9012118F8010B9047206A401C20625A
:100C6000381EA7F10107F3DC2046FFF75EFB0220E8
:100C700011B041E601694A1C02610878704700B56D
:100C80008FB0CDE901310021059105497944CDE9C5
:100C9000031011466846FFF797FB0FB000BD000038
:100CA000E5FFFFFF0A6802F8010B0A6070472DE9B3
:100CB000F0470F46914680460446002614F8015B33
:100CC0002DB100F08FF80068405DC007F6D12B2DE4
:100CD00002D02D2D18D0641E4A463946204600F019
:100CE00013F927B13968A14201D1C7F800804FF04C
:100CF000020471050BD54042002803DDFFF74AFDD1
:100D00000460A007BDE8F08746F48066E4E70028A9
:100D1000F8DAFFF73FFD04606FF00040F2E7431A96
:100D200028BF9A427FF6D1AC104410F0030F114453
:100D30001EBF11F8013D521E00F8013D10F0030FD7
:100D40007FF4F6AF103AC0F00A8010B531E91850C0
:100D5000103A20E91850BFF4F9AFBDE8104053072E
:100D600024BF31E9081020E9081044BF51F8043DC0
:100D700040F8043D12F0030F08BF7047D20728BFA8
:100D800031F8023D48BF11F8012C28BF20F8023D80
:100D900048BF00F8012C70474FF000020429C0F052
:100DA000128010F0030C3FF4CCACCCF1040CBCF17D
:100DB000020F18BF00F8012BA8BF20F8022BA1EBEF
:100DC0000C01FFF7BEBC5FEAC17C24BF00F8012B19
:100DD00000F8012B48BF00F8012B7047004870470E
:100DE0005C87002010B500F005F8001D10BD00BFA5
:100DF000152D0200004870477C87002030B5B0F107
:100E00000A024FEA900E71F100034EEA817EB0EBC8
:100E10000E0061EB91014FEA101E4EEA017E10EBCD
:100E20000E0041EB11114FEA102E4EEA016E10EB4D
:100E30000E0041EB11214FEA104E4EEA014E10EB2D
:100E40000E0041EB1141401841F100014FEAD00082
:100E500040EA41704FEAD10110EB80054FEA81046E
:100E600044EA907444EB01046D1944EB0404521BF2
:100E7000A3414FF0000348BF0A3200D530BD401CEB
:100E800041F1000130BD00002DE9F04104461F464C
:100E900003260168072A01F4006004DB08B116A5E7
:100EA00005E016A503E008B115A500E015A521F0A1
:100EB00010002060A069C01EA0610FB1401EA0619B
:100EC0002046FFF71BFA4FB1D4E90121384690477D
:100ED000206A401C2062C01C206206E0206AFAE7FB
:100EE000D4E9012115F8010B9047761EF8D220466F
:100EF000FFF71BFABDE8F0814E414E006E616E00B7
:100F0000494E4600696E66002DE9F05F82468B46C9
:100F1000154600270AF10104B9460078302801D0AF
:100F20009DB113E014F8010B0127782803D058284D
:100F300001D045B10AE00DB1102D07D1002714F8FA
:100F4000010B102502E0082500E00A250026B04626
:100F50000EE005FB080005FB06F101271FFA80F8EB
:100F600001EB1046B6F5803F00D3B94614F8010BEB
:100F7000294600F0B0F80028EBDABBF1000F05D0ED
:100F80000FB1641E00E05446CBF80040B9F1000FE9
:100F900006D0FFF7FFFB02210160C81EBDE8F09FED
:100FA00048EA0640FAE700002DE9F0478146164678
:100FB0008AB035487844D0E9002380680092CDE9B2
:100FC0000130314878440C38D0E90223006903929B
:100FD0004FF03702CDE9043041F69B30014491FBDC
:100FE000F2F0A0F1800502FB10141B3C02D5644214
:100FF000012000E00020DFF890A080460027FA449E
:10100000AAF1C60A0DE0E00709D03246684607EBB0
:1010100047010AEB810100F03FFB8DE807006410F7
:101020007F1C002CEFD1184F7F44B43F17E0E80736
:1010300013D007EB04100DF1180A90E80E00AAE88F
:101040000E00C068F04201D198190890324606A9F6
:1010500003A800F021FB03AB07C36D10641C002D37
:10106000E5D132466946B8F1000F03A802D000F07E
:10107000FFFA01E000F010FBC9E90001C9F80820FF
:101080000AB0BDE8F087000090FD03007546FFF749
:10109000A5FEAE4605006946534620F0070085468A
:1010A00018B020B5FFF704F9BDE820404FF0000666
:1010B0004FF000074FF000084FF0000B21F0070140
:1010C000AC46ACE8C009ACE8C009ACE8C009ACE883
:1010D000C0098D4670473A2800D2303820F02002EF
:1010E000412A01D3A2F13700884201D34FF0FF30EB
:1010F00070470446AFF300802046FFF7C4F80000B5
:101100004FF0013C50F8042B51F8043B9A4221D196
:10111000A2EB0C03934313EACC1317D150F8042B22
:1011200051F8043B9A4215D1A2EB0C03934313EA06
:10113000CC130BD150F8042B51F8043B9A4209D13F
:10114000A2EB0C03934313EACC13DBD04FF0000067
:10115000704700BFD01A01BAB1FA81F101F018014D
:1011600022FA01F0CB40C1F12001DBB2C0B2C01ABB
:101170002CFA01F3D11A914311EAC311E6D1704759
:1011800001491820ABBEFEE72600020070475FEA67
:10119000400C08BF91F0000F4FEA8C234FEAC122A8
:1011A00043EA51514FEA1C5018BF00F5F0404FEA96
:1011B000300018BF41F000415FEA6C5C00F029800C
:1011C000BCF1FF3F08BF40F080407047130C06BFE2
:1011D00012044FF0100C4FF0000C130E04BF12025B
:1011E0000CF1080C130F04BF12010CF1040C930F47
:1011F00004BF92000CF1020CD30F04BF52000CF19B
:10120000010C11464FF00002A0F11F00A0EB0C00F2
:10121000704711F0004F08BF704731F000413FF4B4
:10122000D5AF0B0C06BF09044FF0100C4FF0000CAB
:101230000B0E04BF09020CF1080C0B0F04BF0901CF
:101240000CF1040C8B0F04BF89000CF1020CCB0FC6
:1012500004BF49000CF1010CCCF12003A0EB0C0001
:1012600022FA03F302FA0CF241EA030100F1010051
:10127000704720F07F4C80EA030023F07F47ACEBFF
:10128000070303F57C5300F0004003F1FF032DE951
:1012900080494FEA154B09B44FEA144325EA0B4E37
:1012A00024EA03480FF2042606EB132749083E7888
:1012B0005FEA320203FB0667C7F5000707FB06F685
:1012C0004FEA54374FEAD64606F1020607FB066C92
:1012D000CCF1005C4FEA1C472CEA074C07FB06F4F4
:1012E0000CFB06F504EB15464FEA961634BF0020BA
:1012F0004FF000404FEAD13706FB07FC4FEA1C4C89
:101300000CFB0BF7D21B03FB0CF761EB07010CFB8B
:101310000EF7B0EB074072EB17420CFB08F734BF37
:10132000A2EB0742B2EB074261EB17414FEA0C44D4
:101330004FEA910706FB07FC4FEA1C4C0CFB0BF72E
:10134000B0EBC74072EB573203FB0CF734BFA2EB94
:10135000C742B2EBC74261EB57310CFB0EF7B0EB63
:10136000C70072EB57720CFB08F734BFA2EBC70241
:10137000B2EBC70261EB5771039F4FEA816141EA0B
:10138000921104EBCC044FEAD1374FEA826206FB9C
:1013900007FC42EA90124FEA80604FEA1C4C0CFBBB
:1013A0000BF7D21B03FB0CF761EB07010CFB0EF7ED
:1013B000B0EB074072EB17420CFB08F734BFA2EB0F
:1013C0000742B2EB074261EB17414FEA8C554FEAF7
:1013D000910704EB9C2406FB07FC4FEA1C4C0CFB1A
:1013E0000BF7B0EBC74072EB573203FB0CF734BF7F
:1013F000A2EBC742B2EBC74261EB57310CFB0EF7D1
:10140000B0EBC70072EB57720CFB08F734BFA2EBCE
:10141000C702B2EBC70261EB577115EB4C254FEADF
:10142000816141EA92114FEA82624FEAD13742EA82
:10143000901206FB07FC44F100044FEA80604FEA7B
:101440001C4C0CFB0BF7D21B03FB0CF761EB0701E9
:101450000CFB0EF7B0EB074072EB17420CFB08F7E2
:1014600034BFA2EB0742B2EB074261EB174115EB29
:101470001C154FEA813141EA92414FEA823242EA39
:1014800090424FEA80304FEA0C7644F1000448EA7B
:1014900003434EEA0B484FF0000EB2EB080C71EB21
:1014A000030724BF624639464EEB0E0E4FF0000B89
:1014B0000018524149414BEB0B0BB2EB080C71EB9E
:1014C00003077BF1000B24BF624639464EEB0E0E3C
:1014D0004FF0000B0018524149414BEB0B0BB2EBA4
:1014E000080C71EB03077BF1000B24BF6246394601
:1014F0004EEB0E0E51EA020718BF46F0010616EB3E
:101500000E7655F1000254F1000103D5BDE88901C2
:10151000BDE80088BDE88901BDE80048B619524120
:1015200041EB0101A3F10103704780807F7E7D7C48
:101530007B7A7978777676757473727171706F6E65
:101540006E6D6C6C6B6A6A69686867666665646410
:10155000636362616160605F5F5E5E5D5D5C5C5B9A
:101560005B5A5A5959585857575656555555545409
:10157000535352525251515050504F4F4F4E4E4D67
:101580004D4D4C4C4C4B4B4B4A4A4A4949494848B3
:1015900048474747474646464545454444444443F3
:1015A00043434342424242414141002B26D477000B
:1015B00021D01CB54FEA370703B44FF010004FF0AD
:1015C00010014FF000000FBCBDE810400BF1010B03
:1015D000BBF1010F08BF5FEA170722BF12F101023A
:1015E00011F101014FF0004143F1000300F0004010
:1015F00043EA00007047F9D35708DAE746EA06469F
:1016000013F1400F4FEA16461FDD13F1200FDFBF25
:1016100016430A46002120335B42C8D0C3F120079D
:1016200046EA064602FA07F74FEA164646EA070672
:10163000C3F1200722FA03F201FA07F721FA03F1B6
:101640004FF0000342EA0702B1E746EA020646EA23
:1016500006464FEA164646EA0106BCBF46EA06467B
:10166000360C4FF000034FF000024FF000019EE7F0
:101670002DE9C048934630B491E8380007C831EAF4
:10168000400C48BF34EA430C03D5FFF7F2FDFFF7E7
:101690008CFFF0BCBDE800882DE9C048934630B40B
:1016A00091E8380007C810F0804F08BF13F0804F52
:1016B00003D100F005F8FFF778FFF0BCBDE8008823
:1016C00020F07F4780EA030023F07F4C07EB0C03F8
:1016D000A3F57C5300F00040A3F1FE0392F0000F4D
:1016E00000F0B38095F0000F00F077802DE90149FC
:1016F0004FEA11404FEA144621EA004800FB06FC7D
:1017000024EA064708FB06F607FB08F800FB07F784
:1017100018EB06484CEB164C4FEA124B18EB0748F7
:101720004FEA15464CEB174022EA0B4E0BFB06FC2A
:1017300025EA06470EFB06F607FB0EFE0BFB07F736
:101740001EEB064E4CEB164C4FF000061EEB074E00
:101750004CEB174B18EB0B0840F1000018EB0E0B8D
:1017600058EB000840F100008F1A4FF000013CBF19
:10177000C943661B14BFB5EB040C00213CBFC94331
:10178000F61B4FEA17444EEA8E0E27EA04454FEA4D
:101790001C4704FB07622CEA074C05FB07F70CFB10
:1017A00005F604FB0CFC16EB074642EB174216EB62
:1017B0000C4642EB1C421BEB060658EB0202414171
:1017C00046EA9E0601D5BDE80189B619524141EBB2
:1017D0000101A3F10103BDE801894FEA14454FEA75
:1017E000114724EA054621EA074C05FB07F406FBEE
:1017F00007F70CFB06F105FB0CFC11EB074144EB72
:1018000017444FEA124711EB0C4144EB1C4422EA07
:10181000074C05FB07F206FB07F70CFB06F605FB7A
:101820000CFC16EB074642EB174216EB0C4642EB5C
:101830001C456A1854F1000148BF7047B61952415F
:1018400041EB0101A3F10103704795F0000F37D080
:101850004FEA11424FEA144721EA024624EA074CB4
:1018600002FB07F106FB07F70CFB06F402FB0CFC7E
:1018700014EB074441EB17414FEA154714EB0C44B6
:1018800041EB1C4125EA074C02FB07F506FB07F775
:101890000CFB06F602FB0CFC16EB074645EB174566
:1018A00016EB0C4645EB1C42121951F1000148BFE2
:1018B0007047B619524141EB0101A3F10103704792
:1018C0004FEA14454FEA114724EA054621EA074C3E
:1018D00005FB07F106FB07F70CFB06F24FF00006CD
:1018E00005FB0CFC12EB074241EB174112EB0C42DB
:1018F00051EB1C4148BF7047921841EB0101A3F125
:10190000010370474FF47A70401E0004000CFBD1B5
:10191000704740F6B830401E0004000CFBD1704701
:101920002DE9FC4102268DF80560012440201D4F61
:101930008DF80440002500908DF806506946384621
:1019400004F0ECF88DF8056008208DF80440009054
:101950008DF806506946384604F0E0F88DF80560C9
:1019600020208DF8044000908DF8065069463846D6
:1019700004F0D4F810208DF8045000908DF8074042
:101980006946384604F0CAF84021384604F01CF98C
:101990002021384604F018F90821384604F014F9DB
:1019A000BDE8FC81000402402DE9F041384F0024DD
:1019B000214601200FF0C0FD27F81400FFF7A9FF12
:1019C000F888BE883D89641CE4B2082CF0D3314C01
:1019D0006178DFF8BC8008F1240808EB4102491C5B
:1019E0006170108060780027082800D1677028484F
:1019F0000821243000F07EFC00210220424632F80B
:101A00001030401CC0B219440628F8D38808224977
:101A10000880A078DFF8788008F1380808EB4001EA
:101A2000401CA0700E80A078082800D1A77018482C
:101A30000821383000F05EFC0021022038F8102028
:101A4000401CC0B211440628F8D388081349086026
:101A500020780F4E103606EB4001401C20700D80A0
:101A60002078082800D1277009480821103000F09C
:101A700041FC0021022036F81020401CC0B2114465
:101A80000628F8D3880806490860BDE8F081000000
:101A9000C40C002005010020680000207000002018
:101AA0006C000020F0B501210F029BB038460EF00B
:101AB000FBF9012188050EF0D3F9042003253F4EE0
:101AC0000F908DF8405000248DF843400FA9304608
:101AD00004F024F808200F908DF840508DF8434012
:101AE0000FA9304604F01AF840200F908DF84050AE
:101AF0008DF843400FA9304604F010F8179418945D
:101B0000199417A81A9400F001F911948DF85850FF
:101B100001262B4D8DF848608DF84960149415947A
:101B200011A9284600F01EF90423012202212846AB
:101B300000F03EF9052302220321284600F038F97F
:101B4000002303220621284600F032F9012128460D
:101B500000F0D2F8284600F065F90121284600F08F
:101B6000F7F817480AA94C30CDE900401548CDE9EF
:101B700002049620CDE90404281506904000079041
:101B80008000CDE90807000151C10D940E940E4C60
:101B90006946204601F0C8FF0121204601F0A4FF5C
:101BA00001221021204601F0A9FF01F05FFF012171
:101BB000284600F0C3F81BB0F0BD00000000024052
:101BC00000200140E008002010640240F0B5474DBD
:101BD000474A00204FF0030E05F5967605F5C87CC0
:101BE00005F5FA77B0FBFEF10EFB110121B10229D8
:101BF0000AD0012910D017E035F81030117806EB23
:101C00004104491C11700EE035F81030517807EB93
:101C10004104491C517006E035F81030D1780CEBC6
:101C20004104491CD1702380401C80B29628D9D32E
:101C30000024147054709470D4702046214636F8F5
:101C40001130491CC9B218443229F8D31179294BF3
:101C50003225142906D2B0FBF5F0117923F81100D2
:101C600000210EE00021012033F81060401CC0B2BA
:101C700031441328F8D31320B1FBF0F01081002178
:101C800014711079401C107100203CF81030401C79
:101C9000C0B219443228F8D35079164B28331E2885
:101CA00006D2B1FBF5F0517923F8110000210EE0C6
:101CB0000021012033F81060401CC0B231441D28BF
:101CC000F8D31D20B1FBF0F0508100215471507900
:101CD000401C5071002037F81030401CC0B219442D
:101CE0003228F8D3B1FBF5F0D080F0BDE008002039
:101CF0005C000020380B00200029816802D041F0F0
:101D0000010101E021F0010181607047094B10B52C
:101D10001968094A01EA0201D0E9002442EA0402F2
:101D2000D0E9024044EA000442EA040242EA010225
:101D30001A6010BD04230140E030FCFF00298168D7
:101D400002D041F4807101E021F48071816070471C
:101D50000029816802D041F4007101E021F4007192
:101D60008160704730B542680F4B0C791A400B68A0
:101D700042EA04221343436082680C4B4D791A40B7
:101D8000D1E9034323438C6844EA450423431343C6
:101D90008360C26A097D22F47002491EC9B242EA18
:101DA0000151C16230BD0000FFFEFFFCFDF7FFC026
:101DB00070B5072609290AD9C568A1F10A0404EB00
:101DC0004404A640B543A3401D43C56007E0056930
:101DD00001EB4104A640B543A3401D4305611F2309
:101DE000072A09D2446B521E02EB820293409C43A5
:101DF00091400C43446370BD0D2A09D2046BD21F7D
:101E000002EB820293409C4391400C43046370BDFB
:101E1000C46A0D3A02EB820293409C4391400C430A
:101E2000C46270BD816841F08041816070470028C4
:101E300000DC4042704700000C4810B500684006C6
:101E400012D40B4C206841070ED5020609484FF406
:101E5000007103D4BDE8104003F0B6BE03F0B2FE3B
:101E6000206820F00400206010BD00003C0000202D
:101E700034000020000802400549064B0022086893
:101E80001A8020F0800040F00400086070470000D5
:101E9000340000207C00002038B545680446014627
:101EA000284611F00BFE00282AD02068304A0F285F
:101EB00019D006DC0B2824D00C2810D00E2851D1C4
:101EC0002FE0112802D028284CD145E09268002A42
:101ED00016D02146284601B0BDE8304010472146C3
:101EE00028465268F7E7284604F0B6FD0090406E99
:101EF0000468684604F0FAFD002C01D02846A0478B
:101F000038BD284604F0A8FD0090683004F00CFDB0
:101F1000009803216C3004F00FFD684604F0E6FDE4
:101F200020E0E168486809680D2902D0202913D112
:101F300005E0002810DD284618F03EFD06E00028E8
:101F400004DD2846BDE8384018F036BD2846BDE817
:101F50003840022118F046BDE06818B90021284633
:101F600000F097F92046BDE8384012F01BBA000097
:101F700054020020F0B5044685B08069B4F90850D9
:101F8000668A0027CDE90265CDE900170490B4F90F
:101F90000C00B4F91060C118B4F90A00B4F90E507D
:101FA000104433462A4600F007F80546616800F001
:101FB00079F905B02846F0BDF0B585B00C46DDE9ED
:101FC0000D514C31DFF850C0DDE90A67CDE902C19F
:101FD0002146CDE9006712F035F9040018D004F06D
:101FE0003BFD10222946049011F08CFF049830220A
:101FF0000A493430FEF769FB084D04990C3D286806
:10200000486604A804F072FD2868416820468847A5
:1020100005B02046F0BD0000991E000860020020B7
:10202000F0B5044680688B4989B051F8205060684B
:1020300000287DD0052804D006287AD0122879D12E
:10204000AEE0E86900284FD095E80E008DE80F005B
:1020500004F110010FC907F071F8002655F82600A9
:1020600006F0D6F8A169E8690A1A21690144606995
:10207000304405F073FAA169E8690A1A216901443C
:10208000E069801B05F06AFAE169E8690A1A61698A
:1020900001442069304405F001FBE169E8690A1A4E
:1020A00061690144A069801B05F0F8FA761C022ED4
:1020B000D4DBA86806F0ACF8E069E9696669431A00
:1020C00020694218521E3144801C05F051FBE16921
:1020D000E869A2690B1A61690144101A401C921E3A
:1020E00005F046FBEE6913E05FF0000655F82600A8
:1020F00006F08EF8E069831BA069821B6069811974
:102100002069304405F08CFA761C022EEEDB0226A4
:10211000D5E90301CDE900016169E0690844431094
:10212000A069891C821B2069304405F0BFF902E0D8
:1021300089E012E08AE0D5E90501CDE90001E36913
:1021400060690121184401EB6001A0699B1E821B9C
:102150002069304405F0AAF978E0206804F07CFC9E
:102160000490206813F04EF940B1A06808B1002037
:1021700008E00498006F28B1012003E00498406F44
:1021800000B10220049901EB8000C56E04A804F0A0
:10219000ADFC00231A462846216804F039FF55E0BB
:1021A000206804F059FC0490866EEEB3B0F95C70C0
:1021B000A168D1B3032942D05FF0000100EB810197
:1021C000406D0C6C06F02EF8204606F021F805A8AC
:1021D00005F01EFBBDF81410A88B0144ADF81410D7
:1021E000BDF81810081AADF81800BDF81600801CCC
:1021F000ADF81600BDF81A00801EADF81A0004985C
:102200005E30B0F90220B0F9001005A805F05EFFBD
:1022100004A804F06BFC022006F044F8304604F0F9
:102220001BFC3A4605A901E00BE006E0079004F02C
:10223000E7FF07A804F05AFC08E00121BEE70221ED
:10224000BCE704A8F6E7206812F0A0FD09B0002062
:10225000F0BD00001CD60308044A0349116004497C
:102260004A6A4862104670479002002054020020DB
:102270006002002038B50D46040009D004F0ECFBE4
:1022800000904565684604F031FC204612F081FB61
:1022900038BD4FF480720029114601D011F098BC6E
:1022A00011F0E9BB2DE9FF410E4605004FF0010496
:1022B0001CD004F0D1FB0190876E01A8009704F0B8
:1022C00015FC3146684607F019FA78B100980024E9
:1022D000B84208D0284604F0BFFB019000998166FF
:1022E00001A804F003FC284612F053FB04B020467A
:1022F000BDE8F08130B5002315E01A460FE030F854
:10230000124030F81350AC4207D930F813C030F8FF
:10231000124020F8134020F812C0521CD2B28A4258
:10232000EDD35B1CDBB28B42E7D330BDFEE7000090
:102330002DE9F05F714D2978DFF8C48140F66F0414
:10234000661C1939F71DD8F8180040F6780940F6D0
:10235000710A40F6790B0C2977D2DFE801F00622EA
:102360003E5ACDCDCDCD7793CDB0214612F028F990
:1023700004466FF070410FF0B1FF6FF07F412046CF
:102380000FF0FEFF3146D8F8180012F019F9044694
:102390005C490FF0A3FF002120460FF0F1FF1A2047
:1023A000A9E0314612F00CF904466FF070410FF0CD
:1023B00095FF6FF07F4120460FF0E2FF3946D8F8D5
:1023C000180012F0FDF804464E490FF087FF002177
:1023D00020460FF0D5FF1B208DE0394612F0F0F8B3
:1023E00004466FF070410FF079FF6FF07F41204697
:1023F0000FF0C6FF4946D8F8180012F0E1F804467D
:1024000040490FF06BFF002120460FF0B9FF1C2060
:1024100071E0494612F0D4F804466FF070410FF0B5
:102420005DFF6FF07F4120460FF0AAFF5146D8F8BC
:10243000180012F0C5F8044632490FF04FFF002192
:1024400020460FF09DFF212055E055E0514612F047
:10245000B7F804466FF070410FF040FF6FF07F4116
:1024600020460FF08DFF5946D8F8180012F0A8F852
:10247000044624490FF032FF002120460FF080FF70
:10248000222038E0594612F09BF804466FF0704164
:102490000FF024FF6FF07F4120460FF071FF40F6F0
:1024A0007201D8F8180012F08BF8044615490FF0A5
:1024B00015FF002120460FF063FF24201BE040F6AB
:1024C000720112F07DF806466FF070410FF006FFC2
:1024D0006FF07F4130460FF053FF2146D8F81800C7
:1024E00012F06EF8044607490FF0F8FE002120466E
:1024F0000FF046FF19202870BDE8F09F6901002009
:1025000074010020FFFFBF00F0B5B2482DED028B33
:1025100083B00278B0499FEDB10AB14E0025012782
:10252000B069192A38D0DFEDAF0A1A2A7ED0AE4939
:102530001B2A7CD01C2A2BD1B37B40F67802141DB9
:10254000022B75D0B37B012B22D1C98800EE101A63
:102550001146B8EE400A80EE208A12F031F8A3A1AD
:102560000FF0E9FE2146B06912F02AF8044618EE91
:10257000100A21F0ABFF41EC100BA0A153EC102B83
:102580006846FDF7A7FE694620460FF0D4FEB573F6
:1025900003B0BDEC028BF0BDF37A40F66F02141D60
:1025A000012B27D0F37A022BF2D1D1F8801000EE64
:1025B000901A1146F8EE600A80EE808A12F000F858
:1025C00090A10FF0B8FE2146B06911F0F9FF044662
:1025D00018EE100A21F07AFF41EC100B8DA153EC9C
:1025E000102B6846FDF776FE694620460FF0A3FEE5
:1025F000F772CDE7C96F00EE901A1146F8EE600A47
:1026000080EE808A11F0DCFF84A10FF094FE214659
:10261000B06911F0D5FF044618EE100A21F056FFFC
:1026200041EC100B7BA153EC102B02E00AE05CE0C4
:10263000ACE06846FDF74EFE694620460FF07BFE93
:10264000F572A5E7337B4FF40762141D022B27D0E8
:10265000337B012B9CD1D1F8881000EE101A114663
:10266000B8EE400A80EE208A11F0AAFF6FA10FF0A9
:1026700062FE2146B06911F0A3FF044618EE100A6D
:1026800021F024FF41EC100B5CA153EC102B6846A9
:10269000FDF720FE694620460FF04DFE357377E7C3
:1026A000D1F88C1000EE101A1146B8EE400A80EEF8
:1026B000208A11F085FF61A10FF03DFE2146B0692F
:1026C00011F07EFF044618EE100A21F0FFFE41ECE7
:1026D000100B4AA153EC102B6846FDF7FBFD694631
:1026E00020460FF028FE377352E7737B40F67702DF
:1026F000141D022B26D0737B012BA2D1098800EE7A
:10270000901A1146F8EE600A80EE808A11F058FFA8
:102710004EA10FF010FE2146B06911F051FF0446A2
:1027200018EE100A21F0D2FE41EC100B39A153EC47
:10273000102B6846FDF7CEFD694620460FF0FBFDE5
:10274000757325E7498800EE901A1146F8EE600A85
:1027500080EE808A11F034FF40A10FF0ECFD21469D
:10276000B06911F02DFF044618EE100A21F0AEFEFC
:1027700041EC100B27A153EC102B6846FDF7AAFD86
:10278000694620460FF0D7FD777301E7098900EE0F
:10279000101A1146B8EE400A80EE208A11F010FFA0
:1027A00032A10FF0C8FD2146B06911F009FF0446BF
:1027B00018EE100A21F08AFE41EC100B0FA153EC29
:1027C000102B6846FDF786FD694620460FF0B3FDE5
:1027D000B773DDE669010020FC0B00200000C84251
:1027E0007401002000007A4410850020E688AAE6E3
:1027F000ADA2E794B5E6B58131000000252E336621
:1028000000000000E8BE93E587BAE794B5E58E8B3B
:1028100032000000252E326600000000E8BE93E57D
:1028200087BAE794B5E58E8B31000000E99990E511
:1028300088B6E794B5E6B58131000000E99990E5E6
:1028400088B6E794B5E6B58132000000E688AAE6CE
:10285000ADA2E794B5E58E8B31000000E688AAE6CC
:10286000ADA2E794B5E58E8B32000000E688AAE6BB
:10287000ADA2E794B5E6B58132000000F0B5B148ED
:102880002DED028B83B00278AF499FEDB00AB04EB8
:1028900001250227B069192A38D0DFEDAE0A1A2ABD
:1028A0007ED0AD491B2A7CD01C2A2BD1B37B40F6AD
:1028B0007802141D002B75D0B37B012B22D14989DE
:1028C00000EE101A1146B8EE400A80EE208A11F090
:1028D00077FEA2A10FF02FFD2146B06911F070FE26
:1028E000044618EE100A21F0F1FD41EC100B9FA1F7
:1028F00053EC102B6846FDF7EDFC694620460FF0BF
:102900001AFDB77303B0BDEC028BF0BDF37A40F64D
:102910006F02141D3BB3F37A012BF3D1D1F884106D
:1029200000EE901A1146F8EE600A80EE808A11F0EF
:1029300047FE90A10FF0FFFC2146B06911F040FE68
:10294000044618EE100A21F0C1FD41EC100B8DA1D8
:1029500053EC102B6846FDF7BDFC694620460FF08E
:10296000EAFCF772CEE7D1F8801000EE901A11461B
:10297000F8EE600A80EE808A11F022FE83A10FF04B
:10298000DAFC2146B06911F01BFE044618EE100A6D
:1029900021F09CFD41EC100B7AA153EC102B02E0CE
:1029A0000AE05BE0AAE06846FDF794FC6946204631
:1029B0000FF0C1FCF572A5E7337B4FF40762141DDD
:1029C0003BB3337B012B9DD1D1F8901000EE101A50
:1029D0001146B8EE400A80EE208A11F0F1FD6FA199
:1029E0000FF0A9FC2146B06911F0EAFD044618EE8B
:1029F000100A21F06BFD41EC100B5CA153EC102B85
:102A00006846FDF767FC694620460FF094FC377373
:102A100078E7D1F88C1000EE101A1146B8EE400A93
:102A200080EE208A11F0CCFD60A10FF084FC2146DD
:102A3000B06911F0C5FD044618EE100A21F046FDFC
:102A400041EC100B49A153EC102B6846FDF742FCFA
:102A5000694620460FF06FFC357353E7737B40F6F1
:102A60007702141D33B3737B012BA4D1898800EE48
:102A7000901A1146F8EE600A80EE808A11F0A0FDEF
:102A80004EA10FF058FC2146B06911F099FD0446A3
:102A900018EE100A21F01AFD41EC100B39A153EC8D
:102AA000102B6846FDF716FC694620460FF043FCE4
:102AB000777327E7498800EE901A1146F8EE600A0E
:102AC00080EE808A11F07CFD40A10FF034FC21469D
:102AD000B06911F075FD044618EE100A21F0F6FCFD
:102AE00041EC100B27A153EC102B6846FDF7F2FBCD
:102AF000694620460FF01FFC757303E7098900EE55
:102B0000101A1146B8EE400A80EE208A11F058FDE6
:102B100032A10FF010FC2146B06911F051FD0446BE
:102B200018EE100A21F0D2FC41EC100B0FA153EC6F
:102B3000102B6846FDF7CEFB694620460FF0FBFBE5
:102B4000B573DFE669010020FC0B00200000C842DD
:102B50007401002000007A4410850020E688AAE66F
:102B6000ADA2E794B5E6B58133000000252E3366AB
:102B700000000000E8BE93E587BAE794B5E58E8BC8
:102B800033000000252E326600000000E8BE93E509
:102B900087BAE794B5E58E8B32000000E99990E59D
:102BA00088B6E794B5E6B58133000000E99990E571
:102BB00088B6E794B5E6B58132000000E688AAE65B
:102BC000ADA2E794B5E58E8B33000000E688AAE657
:102BD000ADA2E794B5E58E8B32000000E688AAE648
:102BE000ADA2E794B5E6B581320000002DE9F05FB3
:102BF000714D2978DFF8C48140F66F06771C1939CA
:102C0000FC1DD8F8180040F6780940F6710A40F625
:102C1000790B0C2978D2DFE801F006233F5BCDCD9C
:102C2000CDCD7894CDB0314611F0CAFC04466FF09A
:102C300070410FF053FB6FF07F4120460FF0A0FB77
:102C400040F67201D8F8180011F0BAFC04465C494D
:102C50000FF044FB002120460FF092FB2420A8E057
:102C6000394611F0ADFC04466FF070410FF036FBB1
:102C70006FF07F4120460FF083FB3146D8F81800F3
:102C800011F09EFC04464E490FF028FB002120461F
:102C90000FF076FB19208CE0214611F091FC0446E0
:102CA0006FF070410FF01AFB6FF07F4120460FF07C
:102CB00067FB3946D8F8180011F082FC04464049F9
:102CC0000FF00CFB002120460FF05AFB1A2070E099
:102CD000494611F075FC06466FF070410FF0FEFAA0
:102CE0006FF07F4130460FF04BFB2146D8F81800BB
:102CF00011F066FC044632490FF0F0FA002120463C
:102D00000FF03EFB1B2054E054E0514611F058FCFC
:102D100004466FF070410FF0E1FA6FF07F412046FA
:102D20000FF02EFB4946D8F8180011F049FC044674
:102D300023490FF0D3FA002120460FF021FB1C207D
:102D400037E0594611F03CFC04466FF070410FF03B
:102D5000C5FA6FF07F4120460FF012FB5146D8F8BC
:102D6000180011F02DFC044615490FF0B7FA0021A8
:102D700020460FF005FB21201BE040F6720111F008
:102D80001FFC04466FF070410FF0A8FA6FF07F410E
:102D900020460FF0F5FA5946D8F8180011F010FC4B
:102DA000044607490FF09AFA002120460FF0E8FA8E
:102DB00022202870BDE8F09F6901002074010020E6
:102DC000FFFFBF002DE9F04FF8482DED048B83B0D5
:102DD000406E00EE100AB8EE400ADFEDF50AF34847
:102DE00080EE208A806E00EE100AB8EE400ADFED19
:102DF000F10AEE48C06EC0EE208A00EE100AB8EE6E
:102E0000400ADFEDEC0AE948006F80EE209A00EE00
:102E1000100AB8EE400ADFEDE60AE7480178C0EE96
:102E2000209AE94819390124E44DE54EE54F8069BF
:102E300040F66F0A40F673084FF4076B40F67909C5
:102E400010292FD2DFE801F0087DFCFB33A2FAF94C
:102E5000F8F7F6F5F4F3F2F15146DB4E11F0B0FB62
:102E600007466FF070410FF039FA6FF07F41384636
:102E70000FF086FA4146B06911F0A2FB0646D3492D
:102E80000FF02CFA002130460FF07AFA0020D04AD9
:102E900001461154401CC0B20528FAD3C6491D2072
:102EA00008702C7003B0BDEC048BBDE8F08F414678
:102EB000C54F11F085FB80466FF070410FF00EFAA0
:102EC0006FF07F4140460FF05BFAF87A30B1F87A44
:102ED000012806D0F87A022807D00AE0B348C16F6B
:102EE00006E0B248D0F8801002E0B048D0F8841074
:102EF0004160AE48406800EE100AF8EE400A9FEDCF
:102F0000AC1A80EE810A10EE100A21F0DFFA41ECD3
:102F1000100BB0A153EC102B6846FDF7DBF96946A6
:102F200040460FF008FA5146B86911F049FB0746D0
:102F3000A6490FF0D3F9002138460FF021FA1920E5
:102F400095E25946A04D11F03BFB04466FF07041ED
:102F50000FF0C4F96FF07F4120460FF011FA002006
:102F60009B4902460A54401CC0B20528FAD340F6D9
:102F70007401A86911F024FB044694490FF0AEF9DE
:102F8000002120460FF0FCF91E202BE240F67401D0
:102F90008D4F11F015FB80466FF070410FF09EF9D8
:102FA0006FF07F4140460FF0EBF9387B30B1387B52
:102FB000012807D0387B022808D00BE07B48D0F8E6
:102FC000881006E07948D0F88C1002E07748D0F8F5
:102FD000901081607548826841F288318A4200D938
:102FE0008160806800EE100AF8EE400A9FED711AC9
:102FF00080EE810A10EE100A21F068FA41EC100B05
:1030000076A153EC102B6846FDF764F969464046FB
:103010000FF091F95946B86911F0D2FA07466B4999
:103020000FF05CF9002138460BE082E12DE1A1E0D0
:1030300031E024E257E103E1AFE13EE2D5E173E0A4
:1030400003E00FF09DF91A2011E240F677015E4D82
:1030500011F0B6FA04466FF070410FF03FF96FF0CF
:103060007F4120460FF08CF90020594A0146115447
:10307000401CC0B20528FAD340F67B01A86911F0C4
:103080009FFA044651490FF029F9002120460FF01C
:1030900077F92520A6E140F67B01DFF82C9111F0AD
:1030A0008FFA80466FF070410FF018F96FF07F4192
:1030B00040460FF065F999F80D0040B199F80D10F0
:1030C0004846012905D0407B022804D00CE038880E
:1030D00002E0788800E0B888DFED350A00EE100ADB
:1030E000B8EE400A80EE208A18EE100A21F0EEF9C0
:1030F00041EC100B37A153EC102B6846FDF7EAF8B2
:10310000694640460FF017F940F67701D9F81800E4
:1031100011F056FA07462D490FF0E0F80021384625
:103120000FF02EF91B20A2E140F67801264D11F098
:1031300047FA04466FF070410FF0D0F86FF07F410E
:1031400020460FF01DF90020214902460A54401C78
:10315000C0B20528FAD340F67C01A86911F030FA14
:1031600004461A490FF0BAF8002120460FF008F97A
:10317000262037E140F67C01DFF84C9011F020FA70
:1031800080466FF070410FF0A9F86FF07F41404624
:103190000FF0F6F899F80E0020B399F80E10484693
:1031A000012921D0807B022820D028E0FC0B0020C0
:1031B0000000C84200007A44690100201C01002080
:1031C0001D0100201085002074010020FFFFBF00BA
:1031D00060010020252E326600000000252E336697
:1031E00000000000F88802E0388900E078895FED8F
:1031F0000F0A00EE100AB8EE400AC0EE208A18EE60
:10320000900A21F063F941EC100B53EC102BAFF254
:1032100034016846FDF75EF8694640460FF08BF8CA
:1032200040F67801D9F8180011F0CAF90746B249FA
:103230000FF054F8002138460FF0A2F81C2016E1D8
:103240004946AE4D11F0BCF904466FF070410FF0E5
:1032500045F86FF07F4120460FF092F80020A84A11
:1032600001461154401CC0B20528FAD340F67D0136
:10327000A86911F0A5F904469F490FF02FF8002125
:1032800020460FF07DF82720ACE040F67D019B4FF3
:1032900011F096F980466FF070410FF01FF86FF053
:1032A0007F4140460FF06CF819EE100A21F00EF93C
:1032B00041EC100B53EC102BAFF2E0016846FDF728
:1032C00009F8694640460FF036F84946B86911F0EA
:1032D00077F9074688490FF001F8002138460FF0CA
:1032E0004FF82220C3E040F67A01844D11F068F9CE
:1032F00004466FF070410EF0F1FF6FF07F41204601
:103300000FF03EF800207E4A01461154401CC0B226
:103310000528FAD340F67E01A86911F051F9044658
:1033200075490EF0DBFF002120460FF029F8282018
:1033300058E040F67E01714F11F042F980466FF07F
:1033400070410EF0CBFF6FF07F4140460FF018F850
:1033500019EE900A21F0BAF841EC100B53EC102B47
:10336000AFF290116846FCF7B5FF694640460EF093
:10337000E2FF40F67A01B86911F022F907465E498A
:103380000EF0ACFF002138460EF0FAFF5D49232015
:1033900008702C700020307084E540F67101574DA4
:1033A00011F00EF904466FF070410EF097FF6FF0C8
:1033B0007F4120460EF0E4FF0020514A014611549F
:1033C000401CC0B20528FAD340F67501A86911F077
:1033D000F7F8044648490EF081FF002120460EF020
:1033E000CFFF1F20474908705CE540F67501434F49
:1033F00011F0E6F880466FF070410EF06FFF6FF04D
:103400007F4140460EF0BCFF3F48D0F89C10016160
:1034100001694EF66022914201D9002101610069E3
:1034200000EE100AF8EE400A1FED9E1A80EE810AA7
:1034300010EE100A21F04AF841EC100B53EC102B5F
:10344000AFF268216846FCF745FF694640460EF03A
:1034500072FF40F67101B86911F0B2F807462649CB
:103460000EF03CFF002138460EF08AFF212025494E
:1034700008702C700020307012F02AFA12E540F625
:1034800072011E4D11F09CF804466FF070410EF071
:1034900025FF6FF07F4120460EF072FF40F6760167
:1034A000A86911F08DF8044613490EF017FF0021AA
:1034B00020460EF065FF202094E740F676010F4F7E
:1034C00011F07EF880466FF070410EF007FF6FF04C
:1034D0007F4140460EF054FF40F67201B86911F08A
:1034E0006FF8074604490EF0F9FE002138460EF049
:1034F00047FF2420BBE70000FFFFBF00740100204E
:103500006001002069010020FC0B002070B5124E04
:103510007179304640F69902104D806901291146B3
:103520000DD011F04DF804466FF070410EF0D6FE4C
:10353000294620460EF024FF2F20307070BD11F078
:103540003FF8044629460EF0C9FE2046BDE870400B
:1035500000210EF015BF0000B0010020FFFFBF00EA
:103560002DE9FF470446006810B111F04BFF68B128
:103570000022314850F8221060680A2841D007DC48
:10358000F0B306280DD0072854D106E00122F0E759
:1035900012280AD019284DD137E0204613F00CF933
:1035A00048E0204614F096FA44E0206803F054FA0C
:1035B0000290B0F9548090F85650476C466B02A8C0
:1035C00003F094FA206800F039F88146684610F05C
:1035D000CFFFBDF8001009EB05000844ADF800006E
:1035E000246A304604F01EFE022004F05BFE3846DA
:1035F00004F00EFE42466946204603F001FE19E043
:1036000007E0204614F052FD14E0886904B0BDE8DC
:10361000F087206811F0BAFB206803F01DFA0390D0
:10362000B0F90610B0F90220891A491CC16703A835
:1036300003F05CFA0020E9E72CD6030838B503F064
:103640000BFA0090C46F684603F050FA204638BD6C
:10365000044A034911600449CA69C86110467047A9
:103660001C030020E4060020E806002000B589B015
:1036700024216846FDF763F819200190034800688B
:10368000806841686846884709B000BDE4060020AC
:103690001CB51B48012101701A4A192010701A48E4
:1036A000002404701948C26F4260D0F888208260FC
:1036B000D0F89C20026116480170702168200FF03C
:1036C00052FA4FF48051134802F07CFA08F02AFEB7
:1036D0004FF48061104802F075FA1048016841F01B
:1036E0008001016010F060FF034600940C4A29211C
:1036F0000C48019403F0A8FB0B4988611CBD000035
:103700001E0100206901002084000020FC0B002025
:1037100085000020000C024000080240400000200C
:10372000A5FE0108A84D0208740100201CB50E4832
:10373000002404700D4804700D4804707021682046
:103740000FF011FA4FF480510A4802F03BFA10F0E2
:103750002BFF03460094084A08210848019403F00F
:1037600073FB074908601CBD1E0100208500002076
:1037700084000020000C02401117020824520208A5
:10378000900100207CB50E4C4720A0710320A07052
:103790000C4908700025E57120F01CF80A49012049
:1037A00008700A48057010F0FFFE03460095084AAD
:1037B00020210848019503F047FB60627CBD0000B2
:1037C0001C010020850000208700002084000020CC
:1037D00041E70108DC4702081CB50F4905200870C5
:1037E0000E48002404700E480470702168200FF009
:1037F000BAF94FF480510B4802F0E4F910F0D4FE0E
:1038000003460094084A1F210848019403F01CFB5A
:10381000074908601CBD00001E010020690100204E
:1038200084000020000C02406D1A020804530208B4
:10383000A40100201CB508490620087010F0B4FE51
:103840000346002000900190044A0121044803F03F
:10385000FBFA044948601CBD1E01002065230208D4
:1038600068560208A80100201CB5164902200870FD
:10387000154908701549092008701548D0F89810A6
:103880004160D0F8A01081601248002404701249F1
:103890000320087008F046FD702168200FF063F9DE
:1038A0004FF480510D4802F08DF910F07DFE034673
:1038B00000940B4A13210B48019403F0C5FA0A49FE
:1038C00048601CBD1E010020850000206901002009
:1038D000FC0B00208400002067010020000C024047
:1038E00075E00108C8450208140100201CB51549FF
:1038F00004200870144908701449172008701448EF
:10390000D0F89410016113480024047008F00AFDF7
:10391000114902200870702168200FF024F94FF43B
:1039200080510E4802F04EF910F03EFE034600941E
:103930000B4A15210B48019403F086FA0A494860A6
:103940001CBD00001E010020850000206901002030
:10395000FC0B00208400002067010020000C0240C6
:10396000512902085C4B02086C0100201CB510F0C4
:103970001BFE002403460094074A112107480194C6
:1039800003F062FA0649074A88611470064B072261
:103990001A702F220A701CBDE52302085043030849
:1039A000B0010020840000201E0100201CB5022070
:1039B0008DF8050001208DF8040000208DF8060028
:1039C0001C2000906946024802F0A8F81CBD0000C7
:1039D0000010024070B5244E05460421304602F026
:1039E000F1F80821304602F0EFF800BF00BF00BF39
:1039F00000BF0421304602F0E7F800BF082130463E
:103A000002F0E2F80421304602F0DCF80024072C32
:103A10000CD928044FF01001304602D502F0D4F83A
:103A200001E002F0CFF86804050C03E010213046F5
:103A300002F0C8F80821304602F0C4F800BF00BF09
:103A400000BF0821304602F0BFF8641CE4B2182C15
:103A5000DDD30421304602F0B7F83046BDE87040AF
:103A6000082102F0B1B800000010024008B538206B
:103A70008DF8000003208DF801008DF80200012070
:103A80008DF8030068460AF04FFC08BD0148006845
:103A9000704700006803002010B50549054800F094
:103AA0000DF80548016841F00201016010BD0000F9
:103AB000208000101064024034000020074A904229
:103AC00001D2074801E005481038064A8B0001EA98
:103AD000020101D5C16070478160704710640240E7
:103AE000006002407D0F7D0F0029016802D041F087
:103AF000010101E021F00101016070470B0607D5CB
:103B0000436912B143F0800301E023F08003436175
:103B1000802908D0002A026801F01E0101D00A4362
:103B200000E08A430260704730B50368124ACC68EF
:103B300013400A682243D1E905452C432243CC694E
:103B400022430C6A22434C6A22438C6A22434C6B08
:103B500022438C6B22431A430260426922F007031E
:103B6000D1E90B2422431A4342610A6942604A6840
:103B700082608968C16030BD3F801CF0F8B50546A1
:103B8000006802F069FF0090448ED0F888606846B3
:103B900002F0ACFF06B1012604F00104286811F020
:103BA00031FC0EB1002006E00CB1012003E008B1A9
:103BB000022000E003201B4951F82010686858B328
:103BC00002280CD0052802D0122828D103E028466C
:103BD00012F01EFE23E0284614F0FDFE1FE06A6985
:103BE000E8694FF0FF33801AA0F1080203EB62048A
:103BF000421CAB69001B4510A3EB6206C86904F0C8
:103C000007FB06E03219311B284603F0A7FC641EAF
:103C10006D1C002CF6DA02E0286811F0B7F80020DD
:103C2000F8BD00008CD60308044A0349116004491A
:103C30000A6B0863104670476C03002024070020BD
:103C40002807002038B50D46002402F005FF00903B
:103C5000C06B294602F0E2FF0546684602F046FFC7
:103C60001DB1284602F0F8FE0446204638BD7047D4
:103C700030B504464FF47A7502E0284600F006F8A5
:103C80002300A4F1010084B2F7D130BD00220BE083
:103C9000042100BF00BF00BF00BF00BF491E0904D0
:103CA000090CF6D1521C92B28242F1D37047000047
:103CB00010B51D492DED028B0A781C4CB2EE048A1A
:103CC000022AE0681FD0097803292AD1184991ED0A
:103CD000000A20EE080ABDEEC00A10EE101A09B262
:103CE00002F04AF8134890ED000A20EE080ABDEEF3
:103CF000C00A10EE100A01B22069BDEC028BBDE8CB
:103D0000104002F039B80C4991ED000A20EE080A83
:103D1000BDEEC00A10EE101A09B202F02DF80748E5
:103D2000E1E7BDEC028B10BD67010020900100208F
:103D30002800002030000020240000202C0000205B
:103D400010B504461FF060FBA0201FF031FB1FF0F0
:103D50008BFB68B920461FF02BFB1FF085FB38B9A1
:103D60001FF052FBA1201FF023FB1FF07DFB18B1B9
:103D70001FF066FB002010BD1FF0F8FA034C207006
:103D80001FF0DCFA1FF05CFB207810BD7A000020E9
:103D900070B50120FFF7D4FFFE4C20600120FFF733
:103DA000CFFF20602068000220600220FFF7C8FFDC
:103DB0002168084420602068000220600320FFF78B
:103DC000BFFF2168084420602068000220600420B2
:103DD000FFF7B6FF2168084420600520FFF7B0FF19
:103DE000ED4D28602868000228600620FFF7A8FF34
:103DF0002968084428602868000228600720FFF727
:103E00009FFF29680844286028680002286008206D
:103E1000FFF796FF2968084428600920FFF790FF04
:103E200060606068000260600A20FFF789FF6168D7
:103E3000084460606068000260600B20FFF780FF4C
:103E40006168084460606068000260600C20FFF7F1
:103E500077FF6168084460600D20FFF771FF6860BC
:103E60006868000268600E20FFF76AFF696808440E
:103E700068606868000268600F20FFF761FF69688A
:103E8000084468606868000268601020FFF758FF07
:103E90006968084468601120FFF752FFA060A068BD
:103EA0000002A0601220FFF74BFFA1680844A06049
:103EB000A0680002A0601320FFF742FFA168084439
:103EC000A060A0680002A0601420FFF739FFA1687D
:103ED0000844A0601520FFF733FFA860A86800021F
:103EE000A8601620FFF72CFFA9680844A860A868FE
:103EF0000002A8601720FFF723FFA9680844A86004
:103F0000A8680002A8601820FFF71AFFA9680844F3
:103F1000A8601920FFF714FFE060E0680002E0608D
:103F20001A20FFF70DFFE1680844E060E068000236
:103F3000E0601B20FFF704FFE1680844E060E068F0
:103F40000002E0601C20FFF7FBFEE1680844E0602F
:103F50001D20FFF7F5FEE860E8680002E8601E201B
:103F6000FFF7EEFEE9680844E860E8680002E860F0
:103F70001F20FFF7E5FEE9680844E860E8680002F2
:103F8000E8602020FFF7DCFEE9680844E8602120B3
:103F9000FFF7D6FE20612069000220612220FFF792
:103FA000CFFE21690844206120690002206123209E
:103FB000FFF7C6FE216908442061206900022061E4
:103FC0002420FFF7BDFE2169084420612520FFF76A
:103FD000B7FE28612869000228612620FFF7B0FE9D
:103FE0002969084428612869000228612720FFF711
:103FF000A7FE296908442861286900022861282051
:10400000FFF79EFE2969084428612920FFF798FEE2
:1040100060616069000260612A20FFF791FE6169BA
:10402000084460616069000260612B20FFF788FE30
:104030006169084460616069000260612C20FFF7DB
:104040007FFE6169084460612D20FFF779FE686199
:104050006869000268612E20FFF772FE69690844F2
:1040600068616869000268612F20FFF769FE69696D
:10407000084468616869000268613020FFF760FEEB
:10408000696908446861AB20FFF75AFEE062E06AA4
:104090000002E062AC20FFF753FEE16A0844E062F0
:1040A000E06A0002E062AD20FFF74AFEE16A0844E0
:1040B000E062E06A0002E062AE20FFF741FEE16AE2
:1040C0000844E062AF20FFF73BFEE862E86A0002C6
:1040D000E862B020FFF734FEE96A0844E862E86A63
:1040E0000002E862B120FFF72BFEE96A0844E862AB
:1040F000E86A0002E862B220FFF722FEE96A08449B
:10410000E8623120FFF71CFEA061A0690002A061F7
:104110003220FFF715FEA1690844A061A0690002E2
:10412000A0613320FFF70CFEA1690844A061A069DB
:104130000002A0613420FFF703FEA1690844A061DA
:104140003520FFF7FDFDA861A8690002A8613620AF
:10415000FFF7F6FDA9690844A861A8690002A861F3
:104160003720FFF7EDFDA9690844A861A86900029E
:10417000A8613820FFF7E4FDA9690844A861392047
:10418000FFF7DEFDE061E0690002E0613A20FFF741
:10419000D7FD03E09C0B0020CC0B0020E169084414
:1041A000E061E0690002E0613B20FFF7C9FDE169E1
:1041B0000844E061E0690002E0613C20FFF7C0FDD7
:1041C000E1690844E0613D20FFF7BAFDE861E86974
:1041D0000002E8613E20FFF7B3FDE9690844E861A9
:1041E000E8690002E8613F20FFF7AAFDE969084499
:1041F000E861E8690002E8614020FFF7A1FDE96994
:104200000844E8614120FFF79BFD2062206A00021C
:1042100020624220FFF794FD216A08442062206A50
:10422000000220624320FFF78BFD216A08442062D0
:10423000206A000220624420FFF782FD216A0844C0
:1042400020624520FFF77CFD2862286A0002286270
:104250004620FFF775FD296A08442862286A000293
:1042600028624720FFF76CFD296A08442862286A03
:10427000000228624820FFF763FD296A084428628B
:104280004920FFF75DFD6062606A000260624A20BB
:10429000FFF756FD616A08446062606A000260626E
:1042A0004B20FFF74DFD616A08446062606A0002BE
:1042B00060624C20FFF744FD616A084460624D2053
:1042C000FFF73EFD6862686A000268624E20FFF7F1
:1042D00037FD696A08446862686A000268624F20B4
:1042E000FFF72EFD696A08446862686A0002686226
:1042F0005020FFF725FD696A084468625120FFF7E6
:104300001FFDA062A06A0002A0625220FFF718FD04
:10431000A16A0844A062A06A0002A0625320FFF7CD
:104320000FFDA16A0844A062A06A0002A0625420A6
:10433000FFF706FDA16A0844A0625520FFF700FDC3
:10434000A862A86A0002A8625620FFF7F9FCA96AD1
:104350000844A862A86A0002A8625720FFF7F0FC90
:10436000A96A0844A862A86A0002A8625820FFF758
:10437000E7FCA96A0844A8625920FFF7E1FCF34C66
:1043800020705A20FFF7DCFC60705B20FFF7D8FC40
:10439000A0705C20FFF7D4FCE0705D20FFF7D0FC3C
:1043A00020715E20FFF7CCFC60716020FFF7C8FC35
:1043B000E74908707A20FFF7C3FCE64908707B20C4
:1043C000FFF7BEFCE44908707820FFF7B9FCE34929
:1043D00008707920FFF7B4FCE14908706120FFF70D
:1043E000AFFCE04908707C20FFF7AAFCDE4908809A
:1043F0007D20FFF7A5FCDD4908807E20FFF7A0FCAB
:10440000DB4908807F20FFF79BFCDA490880802089
:10441000FFF796FCD84908708120FFF791FCD74937
:1044200008708220FFF78CFCD54908708320FFF7C5
:1044300087FCD44908708420FFF782FCD2490870B9
:104440008520FFF77DFCD14908708620FFF778FCB6
:10445000CF4908708720FFF773FCCE490870882089
:10446000FFF76EFCCC4908708920FFF769FCCB4947
:1044700008708A20FFF764FCC94908708B20FFF799
:104480005FFCC84908708C20FFF75AFCC6490870C9
:104490008D20FFF755FCC5490880B320FFF750FC7D
:1044A000C34908706220FFF74BFCC24C20602068B3
:1044B000000220606320FFF743FC2168084420606D
:1044C0006420FFF73DFC606060680002606065206A
:1044D000FFF736FC6168084460606620FFF730FC37
:1044E000A060A0680002A0606720FFF729FCA16817
:1044F0000844A0606820FFF723FCE060E068000249
:10450000E0606920FFF71CFCE1680844E0606A2075
:10451000FFF716FC20612069000220616B20FFF785
:104520000FFC2169084420616C20FFF709FC6061E1
:104530006069000260616D20FFF702FC6169084458
:1045400060616E20FFF7FCFB2066206E0002206693
:104550006F20FFF7F5FB216E084420667020FFF7FF
:10456000EFFBA066A06E0002A0667120FFF7E8FBDB
:10457000A16E0844A0667220FFF7E2FBE065E06DE3
:104580000002E0657320FFF7DBFBE16D0844E065A6
:104590007420FFF7D5FB2062206A0002206275209C
:1045A000FFF7CEFB216A084420627620FFF7C8FBA4
:1045B0006062606A000260627720FFF7C1FB616A97
:1045C000084460628E20FFF7BBFB6064606C0002F1
:1045D00060648F20FFF7B4FB616C08446064902036
:1045E000FFF7AEFBA064A06C0002A0649120FFF76F
:1045F000A7FBA16C0844A0649220FFF7A1FBE06434
:10460000E06C0002E0649320FFF79AFBE16C084441
:10461000E064A4F138044FF09400FFF791FB664D7D
:1046200028802888000228809520FFF789FB2988A8
:10463000084428809620FFF783FB68806888000282
:1046400068809720FFF77CFB698808446880982081
:10465000FFF776FBA880A8880002A8809920FFF7C2
:104660006FFBA9880844A8809A20FFF769FB04F132
:104670006C04E061E0694FEA0020E0614FF09B00CC
:10468000FFF75EFBE1690844E0619C20FFF758FBFF
:104690002062206A000220629D20FFF751FB216A00
:1046A000084420629E20FFF74BFB6062606A0002B4
:1046B00060629F20FFF744FB616A08446062A020AB
:1046C000FFF73EFBE880E8880002E880A120FFF7C2
:1046D00037FBE9880844E880A220FFF731FB2881F6
:1046E000288900022881A320FFF72AFB2989084492
:1046F0002881A420FFF724FB688168890002688173
:10470000A520FFF71DFB698908446881A620FFF7F3
:1047100017FB2A490870A720FFF712FB2063206BC4
:1047200000022063A820FFF70BFB216B08442063E5
:10473000A920FFF705FB2060206800022060AA2066
:10474000FFF7FEFA21680844206070BDC400002015
:10475000A6000020200100201F0100202D010020C4
:10476000680100202C010020BE010020C0010020B3
:10477000C2010020C4010020B1010020B2010020CC
:10478000B3010020B4010020B6010020B7010020D1
:10479000B8010020B9010020BA010020BB010020AF
:1047A000BC010020BD0100206E010020300100206E
:1047B0002E010020340C0020108500207401002000
:1047C00070B505460E461EF03BFE00241EF01CFE92
:1047D000A0201EF0EDFD1EF047FE18B1641CA4B22F
:1047E000642CF3D3B4F57A7F0DD0E8B21EF0E0FD6F
:1047F0001EF03AFE38B930461EF0DAFD1EF034FEE7
:1048000008B91EF01DFEBDE870401EF019BE000084
:104810002DE9F041044694B0006800F0B7F908B102
:10482000D94D01E0D84D2C35606815281ED00CDC20
:104830000B281FD004DC00287ED005287DD12EE176
:104840000E287BD01228F9D141E1162806D017286E
:1048500008D0182808D01C28F0D109E0E86914B065
:10486000BDE8F081286AFAE7686AF8E7A86AF6E71F
:104870006869F4E720680B901C200C90206802F017
:10488000EBF80390016D0BA88847064603A802F0D9
:104890002DF9022E0EDB95E807008DE80700D4E91C
:1048A00004023346A16904F017FC20698719A06946
:1048B000801B2BE0286803F0ABFC2169E8690A182B
:1048C000521E606902F04AFEA269E869111A491C89
:1048D000606902F043FE676920697F1C394602F077
:1048E0007FFE3946A06902F07BFE686803F090FC09
:1048F00020693946401C02F073FEA0693946401E0B
:1049000002F06EFE2769A069BF1C801E80462868E1
:1049100003F07EFC42463946606902F01FFE68687B
:1049200003F076FC60694246401C394602F016FEF0
:10493000686A02280FDD02E015E1AFE000E1A86837
:1049400003F066FC61696A6A881C8B1801465B1E6D
:104950004246384627E0296AB14226DD6069022EC8
:10496000074600F1020801DB374401E007F10207C6
:10497000206901DB304401E000F1020022693B467E
:104980000A44A2F10102414602F0F2FE022E02DBCD
:10499000A069821B01E0A269921EA069E9693B46F9
:1049A000401A401C414602F0E3FE022E02DB606921
:1049B000064401E06669B61CE76928687F1E03F0BB
:1049C00027FC3A463146206902F068FE3A463146F5
:1049D000A06902F063FEE7696868BF1E03F018FC77
:1049E00020693A46401C314602F058FEA0693A461A
:1049F000401E314602F052FEE869022802DC286AB5
:104A0000022823DDA86A022802DDE1690F1A01E00D
:104A1000E769BF1EA86803F0FBFBE969022909DD0D
:104A200020693B46421800F1020C521E3146604696
:104A300002F09EFE286A022808DDA269E8693B466A
:104A4000101A401C921E314602F092FE286803F0B4
:104A5000DFFBD4E90620216902F080FD686803F0DD
:104A6000D7FBA2692169E069521E491C401E02F071
:104A700075FDA86A022811DD2669A169E469B61CE2
:104A8000271AA1F102087F1CA41EA86803F0C0FB2E
:104A9000234642463946304602F06AFE72E0208ADA
:104AA00006B2ADF81460A08A01B2ADF81610208BE2
:104AB00002B2ADF81820A08B03B2ADF81A30D5E9D8
:104AC0000304CDE90004304602F0F0FC5AE0208AED
:104AD000298B0844ADF81400A08AADF81600208B8D
:104AE000298B401AADF81800A08BADF81A00206889
:104AF00001F0B2FF0390006FF0B1022003F0D2FB8F
:104B0000039991F87C00C0F3C00001EB8000006CB9
:104B100003F07EFB0398406B03F084FB0398006F67
:104B200001F09AFF03990A90B1F95A2005A902F001
:104B300067FB0AA801F0DAFF03A801F0D7FF21E024
:104B4000208AADF81400A08AADF81600208BADF8CD
:104B50001800A08BADF81A00A86803F059FB05A84F
:104B600002F02AFE0EE0206801F076FF039030F894
:104B70005A1F41F00C01018003A801F0B7FF206823
:104B800010F004F900206AE63C04002038B5002447
:104B900050B101F061FF009090F87C00000700D553
:104BA0000124684601F0A2FF204638BD30B5044616
:104BB0008BB0006801F050FF009090F87C10246AE0
:104BC000006FC1F3C00508B101F046FF0690E06830
:104BD000029020690390A088401EADF81000E08983
:104BE000ADF812002089401CADF81400608AADF8C1
:104BF0001600BDF80800401CADF80800BDF80A001A
:104C0000401CADF80A00BDF80C00401EADF80C00C9
:104C10000098406B03F006FB009808AA02A9B0F9BF
:104C20005A30069803F0E0FD009800EB8500806B99
:104C300008F0BCFC009800EB8500006C08F0EEFC6E
:104C400008AB02AA04A906980FF082F8684601F0A2
:104C50004DFF069810B106A801F048FF0BB00020E8
:104C600030BD0000074A0649054B1160064A083B63
:104C7000D16958601B68C2E90630084670470000D9
:104C800030040020640700206807002038B50D4676
:104C9000040009D001F0E0FE00900566684601F0CE
:104CA00025FF20460FF075FE38BD2DE9F34F85B086
:104CB00000270C46B846059801F0CEFE0090C06D66
:104CC0000121856805982A68904782462A68032151
:104CD0000598904704902A68022105989047039010
:104CE0002A680021059890470646009810F010FAAF
:104CF0008346009810F013FA8146009890F832101D
:104D0000890601D5B0F9588000F036F805460098BC
:104D1000C06E10B10FF072FD074625806780A4F8C1
:104D200004A0049AABEB020006EB0802401E2A44E2
:104D300020813A44E280039BA9EB0302521E628168
:104D4000A4F80CA020827019E681401E608268469B
:104D500001F0CCFEB4F90C000190B4F910000290FF
:104D600002AA01A9059800F039F80198A0810298DB
:104D7000208207B0BDE8F08F10B50146002091F801
:104D80003220920607D5B1F95400002803D1486BB0
:104D900002F090FD801C10BD70B58AB00C4605462F
:104DA00001F05AFE0990C06D866809A801F09EFEC8
:104DB000009534B1012C06D0022C0BD0032C04D169
:104DC0000AE0182000E016200190716868468847C4
:104DD0000AB070BD1520F7E71720F5E72DE9FC476D
:104DE00090468946044601F037FE0090C16D056883
:104DF00068468E6801F07AFE3268002120469047AE
:104E0000064620460FF0E4FB2F1404462DB227E09F
:104E100001F022FE0190B0F90010B0F90420B0F9C1
:104E20000230491B521BDB1BB34212D190F8280001
:104E3000000607D5D8F8000088420ADB491EC8F8EA
:104E4000001006E0D9F80000904202DC521CC9F8BC
:104E5000002001A801F04AFE20460FF049FC04465C
:104E6000002CD5D1BDE8FC874FF0204202EB80003A
:104E70000029016802D041F0010101E0014A11401E
:104E800001607047FEFF0F0030B5D0E901121143F9
:104E9000D0E903231A43114342690368114382692D
:104EA0001143C2691143026A1143426A1143826A83
:104EB0001143C26A1143026B11434FF0204242F882
:104EC00023108168082906D1016802EB81010B6873
:104ED00043F040030B60416BD1E9003443EA041313
:104EE0008C68CD68240244EA054423430C6943EAF4
:104EF00004534C69896943EA04630B43016802EB7C
:104F000081014B60C16AB1F5804F07D000686FF036
:104F1000704102EB8000C0F8041130BD816B006865
:104F2000D1E9003443EA04138C680D69240244EA91
:104F3000055423434C69896943EA046302EB80000A
:104F40000B43C0F8043130BD70B5FE4C2068010E33
:104F50000120FFF735FC2068C0F307410220FFF76E
:104F60002FFC2068C0F307210320FFF729FC2068ED
:104F7000C1B20420FFF724FCF34D2868010E052080
:104F8000FFF71EFC2868C0F307410620FFF718FC56
:104F90002868C0F307210720FFF712FC2868C1B278
:104FA0000820FFF70DFC6068010E0920FFF708FCE0
:104FB0006068C0F307410A20FFF702FC6068C0F395
:104FC00007210B20FFF7FCFB6068C1B20C20FFF744
:104FD000F7FB6868010E0D20FFF7F2FB6868C0F36D
:104FE00007410E20FFF7ECFB6868C0F307210F2094
:104FF000FFF7E6FB6868C1B21020FFF7E1FBA0688D
:10500000010E1120FFF7DCFBA068C0F3074112205E
:10501000FFF7D6FBA068C0F307211320FFF7D0FBF2
:10502000A068C1B21420FFF7CBFBA868010E1520C1
:10503000FFF7C6FBA868C0F307411620FFF7C0FBC7
:10504000A868C0F307211720FFF7BAFBA868C1B210
:105050001820FFF7B5FBE068010E1920FFF7B0FB41
:10506000E068C0F307411A20FFF7AAFBE068C0F32D
:1050700007211B20FFF7A4FBE068C1B21C20FFF74B
:105080009FFBE868010E1D20FFF79AFBE868C0F35C
:1050900007411E20FFF794FBE868C0F307211F209B
:1050A000FFF78EFBE868C1B22020FFF789FB20697B
:1050B000010E2120FFF784FB2069C0F30741222065
:1050C000FFF77EFB2069C0F307212320FFF778FB61
:1050D0002069C1B22420FFF773FB2869010E252047
:1050E000FFF76EFB2869C0F307412620FFF768FB36
:1050F0002869C0F307212720FFF762FB2869C1B2A6
:105100002820FFF75DFB6069010E2920FFF758FB9F
:105110006069C0F307412A20FFF752FB6069C0F3C2
:1051200007212B20FFF74CFB6069C1B22C20FFF751
:1051300047FB6869010E2D20FFF742FB6869C0F349
:1051400007412E20FFF73CFB6869C0F307212F20A1
:10515000FFF736FB6869C1B23020FFF731FBE06A28
:10516000010EAB20FFF72CFBE06AC0F30741AC2037
:10517000FFF726FBE06AC0F30721AD20FFF720FB15
:10518000E06AC1B2AE20FFF71BFBE86A010EAF2058
:10519000FFF716FBE86AC0F30741B020FFF710FBEA
:1051A000E86AC0F30721B120FFF70AFBE86AC1B241
:1051B000B220FFF705FBA069010E3120FFF700FBCD
:1051C000A069C0F307413220FFF7FAFAA069C0F3E3
:1051D00007213320FFF7F4FAA069C1B23420FFF7AA
:1051E000EFFAA869010E3520FFF7EAFAA869C0F3C3
:1051F00007413620FFF7E4FAA869C0F307213720FA
:10520000FFF7DEFAA869C1B23820FFF7D9FAE069E2
:10521000010E3920FFF7D4FAE069C0F307413A20C4
:10522000FFF7CEFAE069C0F307213B20FFF7C8FA89
:10523000E069C1B23C20FFF7C3FAE869010E3D20E6
:10524000FFF7BEFAE869C0F307413E20FFF7B8FA5E
:10525000E869C0F307213F20FFF7B2FAE869C1B25D
:105260004020FFF7ADFA206A010E4120FFF7A8FAAF
:10527000206AC0F307414220FFF7A2FA206AC0F378
:1052800007214320FFF79CFA206AC1B24420FFF7B0
:1052900097FA286A010E4520FFF792FA286AC0F3B0
:1052A00007414620FFF78CFA286AC0F30721472000
:1052B000FFF786FA286AC1B24820FFF781FA606AD0
:1052C000010E4920FFF77CFA606AC0F307414A20CB
:1052D000FFF776FA606AC0F307214B20FFF770FAF8
:1052E000606AC1B24C20FFF76BFA686A010E4D206C
:1052F000FFF766FA686AC0F307414E20FFF760FACD
:10530000686AC0F307214F20FFF75AFA686AC1B2F2
:105310005020FFF755FAA06A010E5120FFF750FA0E
:10532000A06AC0F307415220FFF74AFAA06AC0F30F
:1053300007215320FFF744FAA06AC1B25420FFF7B7
:105340003FFA03E09C0B0020CC0B0020A86A010E62
:105350005520FFF735FAA86AC0F307415620FFF73A
:105360002FFAA86AC0F307215720FFF729FAA86A85
:10537000C1B25820FFF724FA0D4C21785920FFF7CD
:105380001FFA61785A20FFF71BFAA1785B20FFF71C
:1053900017FAE1785C20FFF713FA21795D20FFF717
:1053A0000FFA6179BDE870405E20FFF709BA00008E
:1053B000C40000202DE9F0430446C56887B090463C
:1053C0008946002002F02CFF064625B1287910B14D
:1053D00046F0020001E026F0020002F021FF206901
:1053E000012558B1D4E902128DE82600039563889F
:1053F0002288046841464846A0471EE0124F134BDE
:10540000214638681B68427CE068984730B9E088DC
:10541000012801D0002001E03868806BA288E38871
:10542000A1680095CDE90410CDE9023201956388A9
:1054300022884146484607F0DBFC07B03046BDE80D
:10544000F04302F0EDBE0000F4010020EC0100206A
:105450001CB50024019401AC009400F0E7F81CBDD9
:105460002DE9FF4F83B0814606988A46A0EB0A08D3
:10547000109E00200090A2EB09043568934654EA80
:10548000080018D02046FCF7D2FC07464046FCF73F
:10549000CEFC87420BDA2046444680464846D14639
:1054A00082465846DDF818B0069001200090002C86
:1054B00007DD204606E007B04846BDE8F04F00F0A3
:1054C0003BB96042A0420AD04846D9466442C8F17E
:1054D000000883464FF0FF37DDF818A000E00127F1
:1054E0005148B8F1000F11D004EBD4714FEA610BB1
:1054F00001DACBF1000B4C480068807E88B3002FA6
:1055000002DA30682044306000257BE000990029F1
:10551000016821D0897E11B10027804615E007B0CF
:105520005A4649465046BDE8F04F07F0C5BD2846EB
:105530006D1C17F07FFD38B9D8F8000009EB0701A2
:10554000C06E4268504690477F1CA742EFDD6D1E3B
:10555000356007B0BDE8F08F8A7E1AB1002780461B
:1055600017E019E0C86E5A465146036807B048462E
:10557000BDE8F04F184728466D1C17F05BFD38B9A1
:10558000D8F8001009EB0700C96E4A6851469047E9
:105590007F1CA742EFDDDAE700250FE008FB05B02E
:1055A00090FBF4F101EB0A00009951B11E4A09EB9E
:1055B00005011268D26E526890476D1CA542EDDD60
:1055C000C7E7194909EB05030968C96E4A6801462E
:1055D0001846F1E708FB05B090FBF4F101EB0A0077
:1055E000019030683844306017F024FD48B90098C5
:1055F00090B10D4809EB05010068C06E4268019842
:1056000090476D1CA542E5DD3068002F01DA20448B
:105610003060C01B30609CE7034909EB0500096856
:10562000C96E4A680199EBE7F40100202DE9FF47B4
:105630000F4640491646804609680C981D460A7E6A
:10564000012A1CD0A8EB0600791B50EA01031CD0EC
:10565000A2F1010918F0C8FC00F58060824604F050
:105660003BF900FB09F4504604F03AF900FB09F15C
:10567000002C0CDAC4F50070801240420AE0009061
:10568000324639464046FFF7EBFEBDE8FF8704F59A
:105690000074A012002904DAC1F5007189124C428D
:1056A00002E001F500718C12002804DD411C01EBC1
:1056B000D171491003E000EBD0714910401E00EB9E
:1056C000D0704210002C04DD601C00EBD070401044
:1056D00003E004EBD4704010641E04EBD47308EBB9
:1056E0000104ADF800403C18ADF80240A8EB0204FC
:1056F0005B10B21AADF80440ADF808203144FC1A32
:10570000EA1AADF80C102844ADF80A20ADF80E00E6
:105710000023ADF806401A460421684600F07AF8E6
:105720003946404613F054F82946304613F050F8F5
:10573000ABE70000F4010020064A13681A7E012A34
:1057400005D0521E02EBD272521000F005B8DA6E8C
:1057500052681047F40100202DE9F05F06468846A4
:1057600040F2C32050434FF47A7190FBF1F702FBF3
:1057700002F002EBD27100EB610B254914467F1C4D
:1057800009683244301BC96E0B68414698470125B1
:105790003AE000BF05FB05F004FB040159451CDDA0
:1057A000BC4219DD1A4B06EB050AA6EB05091B687E
:1057B000AAF1010208EB0401DB6E09F101001B688C
:1057C0009847134BAAF10102A8EB04011B6809F1E9
:1057D0000100DB6E1B689847641E0D4806EB040A47
:1057E000A6EB0409006808EB05015246C06E036889
:1057F000484698470648A8EB050152460068C06E27
:105800000368484698476D1CBD42C3DDBDE8F09F64
:10581000F40100202DE9FF4F40F6FF740F46664269
:1058200083B09B46814600210BE000BF09EB81005D
:10583000B0F90200A04200DA0446B04200DD06469C
:10584000491CB942F2DB68480068406900280DD065
:10585000B0F906101A46A1EB0B01B14200DA0E4670
:10586000B0F90200801AA04200DD0446B5E0DFF87E
:105870007CA100200546CAF8000089E0781E854218
:1058800001DA6B1C00E0002309EB850C09EB8302B5
:10589000BCF90200B2F90210A04245D1A14215D1D3
:1058A00039F92330059A39F9251003EB020C4E4AD9
:1058B00005981268084404EB0B01D26E604513682A
:1058C00001DA62462BE00246604628E02846A446FC
:1058D0004FF000087A1E0BE008B1401E00E0781E71
:1058E00009EB8003B3F90230634504D108F10108E4
:1058F0009045F1DB2346A34249D0A3EB040239F9DA
:105900002500A1EB040C059B92EA0C0209D4364A4F
:10591000184404EB0B011268D26E136802469847D4
:1059200035E010F0A3F932E0A14230D001DBA04213
:1059300003DDA0422BDBA14229DCE04688420ADCE1
:105940000346A04223DC0846A14220DBB8F900C090
:10595000B2F9001008E00B46A14218DCA04216DBA9
:10596000B2F900C0B8F90010E21AA1EB0C015143E2
:105970000029A0EB030202DD01EB620102E0A1EBD2
:105980006201491CC01A91FBF0F06044C9E76D1C2C
:10599000BD42FFF673AF0598009004EB0B00019039
:1059A00000208046054613E01149B8F1000F31F997
:1059B00015A009D0009901EB0A0208440A490968B8
:1059C000C96E0B680199984788F0010850466D1C14
:1059D000064909688D42E7DB641CB4427FF747AF94
:1059E00007B0BDE8F08F0000F4010020740800202B
:1059F0001487002010B5002002F006FC6FF07F40F5
:105A000002F006FC012002F03BFC002002F040FC0A
:105A1000002002F047FC002002F002FC044800686D
:105A200002F000FCBDE81040002002F005BC0000C0
:105A3000F00100202DE9FC4701211F200AF010FA97
:105A400002248DF805400125A0038DF8045000269E
:105A500000908DF8066069462B4800F05FF88DF8DD
:105A60000540DFF8A8908DF804504FF440578DF8AA
:105A7000066069464846009700F050F88DF80540EA
:105A800042F2C270DFF888808DF8045000908DF8E3
:105A900006606946404600F041F800978DF80540E1
:105AA0001C4F8DF804508DF806606946384600F0AA
:105AB00035F88DF8054040208DF8045000908DF8A1
:105AC00006606946144800F029F88DF80540A002E8
:105AD0008DF8046000908DF807506946404600F04C
