:020000040800F2
:10000000488F00209502000877020108ADA3000880
:100010007502010879230008D97901080000000061
:10002000000000000000000000000000354601084C
:10003000E33E000800000000892301088157010801
:10004000AF020008AF020008AF020008AF020008CC
:10005000AF020008AF020008AF020008AF020008BC
:10006000AF020008AF020008AF020008AF020008AC
:10007000AF020008AF020008AF020008AF0200089C
:10008000AF020008AF020008AF020008AF0200088C
:10009000AF020008AF020008AF020008AF0200087C
:1000A000AF020008AF020008AF020008AF0200086C
:1000B000AF020008915C01089D5F0108AF020008D3
:1000C000AF020008AF020008AF020008AF0200084C
:1000D000AF0200088D750108AF020008957601088F
:1000E000AF020008AF020008AF020008AF0200082C
:1000F000AF020008AF020008AF020008AF0200081C
:10010000AF020008AF020008F5640108AF02000862
:10011000AF020008AF020008D5650108AF02000871
:10012000053D0008AF020008AF020008AF0200085A
:10013000AF020008AF020008AF020008AF020008DB
:10014000AF020008AF020008AF020008B90D0108B5
:10015000AF020008AF020008AF020008AF020008BB
:10016000AF020008AF020008AF020008AF020008AB
:10017000AF020008AF020008AF020008AF0200089B
:10018000AF020008AF02000800F002F800F072F8B9
:100190000AA090E8000C82448344AAF10107DA45E2
:1001A00001D100F067F8AFF2090EBAE80F0013F0C2
:1001B000010F18BFFB1A43F00103184788610400C0
:1001C000A86104000A444FF0000C10F8013B13F042
:1001D000070408BF10F8014B1D1108BF10F8015BA0
:1001E000641E05D010F8016B641E01F8016BF9D193
:1001F00013F0080F1EBF10F8014BAD1C0C1B09D1EA
:100200006D1E58BF01F801CBFAD505E014F8016B5B
:1002100001F8016B6D1EF9D59142D6D370470000ED
:100220000023002400250026103A28BF78C1FBD8FF
:10023000520728BF30C148BF0B607047662929F0BC
:100240009881642900F08480002070471FB529F050
:1002500086F900F0CFFD04000020002128F0FAFB11
:10026000401C60600020002128F0DEFBE0601FBD24
:1002700010B510BD00F00AFF1146FFF7E7FF27F0A9
:10028000ABFF00F036FF03B4FFF7F2FF03BC00F052
:1002900077FF00000948804709480047FEE7FEE76E
:1002A000FEE7FEE7FEE7FEE7FEE7FEE7FEE7FEE726
:1002B00004480549054A064B7047000049580108A3
:1002C0008901000848890020488F0020488B0020C1
:1002D000488B00200FB41CB5074B06AA7B44694627
:1002E0000090059800F0CBFC0020694600F0DAFC95
:1002F0001CBC5DF814FB0000C509000070B5044685
:1003000085690068C10601D5302600E02026C007B7
:1003100008D070BDD4E9012130469047206A00F131
:10032000010020626D1EF5D570BD70B5044685696B
:100330000068C00708D170BDD4E901212020904792
:10034000206A00F1010020626D1EF5D570BD00002D
:100350002DE9F0410746002510687529394616A495
:1003600011D0AFF30080002803DAC0F1000013A41D
:1003700007E039688A0701D511A402E0490704D5CE
:1003800010A4012501E0AFF3008000210A2307F14A
:10039000240607E0B0FBF3F203FB12003030705488
:1003A0001046491C0028F5D12B4622463846BDE8A8
:1003B000F04100F0F3B90000000000002D00000043
:1003C0002B000000200000002DE9F05F0446894664
:1003D0004FF0000ADFF828B1FB44C0F820A0204607
:1003E000E168884700287CD0252806D0D4E901217F
:1003F0009047206A401C2062F1E700255F462046B6
:10040000E16888472028064608DB312E06D207EB34
:10041000060010F8200C08B10543F0E7A80701D545
:1004200025F00405C4F81CA00027C4F818A02A2E43
:1004300009D0304627F0DCFC38B304EB8708303EA7
:10044000C8F8186019E059F8041B204604EB87022D
:100450009161E1688847012F064618D1E0690028BC
:1004600020DA25F020051DE0D8F8180000EB800008
:1004700006EB40003038C8F818002046E16888478D
:10048000064627F0B5FC0028EED1012F0AD02E2E0B
:1004900008D12046E16888477F1C0646022F45F0B8
:1004A0002005C4DBA069002803DA404245F00105BD
:1004B000A061E80701D025F0100596B1A6F1410032
:1004C000192802D8203645F400654A4631462046B0
:1004D00025604D46FFF7B2FE60B1012807D0ED1D43
:1004E00000E009E025F0070000F1080977E705F1D1
:1004F000040974E7304679E7206ABDE8F09F000000
:10050000905E040070B5064600F044F904680546A4
:1005100030460A22002100F0CAFB2C6070BD40EA80
:100520000103024630B59B0710D14FF0013400E0C3
:1005300008C208C91D1B9D4315EAC41FF8D013F05B
:10054000FF0102F8011B0DD01B0AF8E711F8013B6F
:10055000002B02F8013B05D011F8013B002B02F8FB
:10056000013BF3D130BD10B5431C02E010F8011B74
:1005700071B18107FAD14FF0013202C88C1A8C4355
:1005800014EAC211F9D0C01A0A0603D0C01E10BD69
:10059000C01A10BD0A0401D0801E10BD0902FCD093
:1005A000401E10BD421E12F8013F002BFBD111F876
:1005B000013B002B02F8013BF9D17047032A40F2BE
:1005C000308010F0030C00F0158011F8013BBCF1F5
:1005D000020F624498BF11F801CB00F8013B38BF0D
:1005E00011F8013BA2F1040298BF00F801CB38BF1B
:1005F00000F8013B11F0030300F06780083AC0F0F7
:10060000088051F8043B083A51F804CBA0E80810E0
:10061000F5E7121D5CBF51F8043B40F8043BAFF313
:100620000080D20724BF11F8013B11F801CB48BF6D
:1006300011F8012B24BF00F8013B00F801CB48BFA3
:1006400000F8012B7047431A28BF9A427FF6B6AFD5
:10065000032A1044114440F2268010F0030F1EBFFD
:1006600011F8013D521E00F8013D10F0030F7FF418
:10067000F6AF11F0030300F06583083AC0F00B8079
:1006800051F8043D083A51F804CD40F8043D40F8D3
:1006900004CDFFF7F3BF121D5CBF51F8043D40F8D5
:1006A000043DAFF30080D20724BF11F8013D11F8DB
:1006B00001CD48BF11F8012C24BF00F8013D00F81E
:1006C00001CD48BF00F8012C704710B5203AC0F0AA
:1006D0000B80B1E81850203AA0E81850B1E8185043
:1006E000A0E81850BFF4F5AF5FEA027C24BFB1E880
:1006F0001850A0E8185044BF18C918C0BDE81040F1
:100700005FEA827C24BF51F8043B40F8043B08BFF9
:100710007047D20728BF31F8023B48BF11F8012BC0
:1007200028BF20F8023B48BF00F8012B704702F0B9
:10073000FF0343EA032242EA024200F02FBB4FF0DC
:10074000000200B5134694469646203922BFA0E821
:100750000C50A0E80C50B1F12001BFF4F7AF09072D
:1007600028BFA0E80C5048BF0CC05DF804EB89001E
:1007700028BF40F8042B08BF704748BF20F8022B61
:1007800011F0804F18BF00F8012B70477047704779
:100790007047000000487047E48800202DE9F047CA
:1007A0000D4604469246994600F1240801688806E1
:1007B00004D5E06921F01001216000E00120A84289
:1007C00002DDA0EB050700E00027A16907EB0502A9
:1007D00002EB0900A1EB0000A0612068C00602D472
:1007E0002046FFF78BFD002608E0D4E901211AF826
:1007F00006009047206A401C761C20624E45F4DBC0
:100800002068C0060AD52046FFF778FD06E0D4E947
:10081000012130209047206A401C2062381EA7F139
:100820000107F4DC07E0D4E9012118F8050090473E
:10083000206A401C2062281EA5F10105F3DC204639
:10084000FFF773FD2068000602D50220BDE8F0879F
:100850000120FBE770472DE9FF4F0C461E464FF085
:10086000FF378BB0D2E90001DDF860800A908A463C
:10087000C1F30A5505B93D46002108464FF0000076
:10088000BAF1000F00F4400005DA00EB80004FF4ED
:10089000400101EA50004FEA9059B9F1010F00DD23
:1008A000B9460A9850EA4A000FD044F61050A5F213
:1008B000FF3545432F14B8F1000F1FD07542291E94
:1008C0001FDD4846C9F100021CE0B8F1010F4FF0EE
:1008D000000001D1F24307E0302101E02154401C27
:1008E000B042FBDB30460022002121540B99C1F8B5
:1008F0000880C1E900200FB0BDE8F08FBD1B6D1C62
:10090000DDE74A4600DA694206A800F04DFB06AB77
:1009100007CB03AB07C350460A9900F038FC8DE8BB
:100920000700A0F500501F3800900398002D09DD46
:1009300042F21F014A46084403A90390684600F0AA
:1009400097FE08E0A0F500504A461F3803A903901F
:10095000684600F0A1FE8DE807000004000C03D0FB
:100960004FF0FF30410800E01046B8F1000F03D00F
:100970000022009215461FE0751E06D400F03EFAD4
:1009800002F1300262556D1EF8D5B34601220843CC
:1009900002D000227F1C04E02078302801D1002200
:1009A0007F1E002A099786D01DE0112D07DA00F07E
:1009B00025FA303262556D1C50EA0102F5D1084328
:1009C0000FD10021681E05E0235C625C6354491C62
:1009D0002254401E8142F7DBAB46A81B401E099003
:1009E00001E0009848B1002004F80B000B98099A28
:1009F000C0F80880C0E9002B7DE711264FF0000801
:100A000059E72DE9F04F88460446D21D22F0070130
:100A100091B0D1E90001CDE90A0121F00DFB0246B8
:100A20000B98C00F01D02D2007E02068810701D569
:100A30002B2002E0202101EAC000032A099001D006
:100A4000072A05DB03464146204600F01DFA0EE169
:100A50002068800601D5E06900E00620B8F1650F46
:100A6000814606D0B8F1660F18D0B8F1670F72D181
:100A700032E00020B9F1110F009001DB112301E0F9
:100A800009F101030AAA01A90CA8FFF7E4FEDDE9B8
:100A90000C70002609F10105834648E001204B4611
:100AA00000904FF000470AAA01A90CA8FFF7D3FE57
:100AB000DDE90C050E990026AB4619B909F10101D3
:100AC00000EB0105B9EB050003D4C0F1FF3609F1D5
:100AD0000105A5EB09002BE0B9F1010F01DA4FF098
:100AE00001090020B9F1110F0090484601DD1123E2
:100AF00000E003460AAA01A90CA8FFF7ACFEDDE955
:100B00000C704D4600268346206800070AD4AB458A
:100B100000DA5D4601A8012D04DD411911F8011C20
:100B2000302907D04F4502DA17F1040F04DA01200B
:100B3000824610E06D1EEEE7002F02DCED1B3E4406
:100B400003E0781CA84200DD0546A7EB060000F193
:100B5000010A4FF000472068000703D4AA4501DBD3
:100B60004FF0FF3A0021B7F1004F0DF143088DF827
:100B7000431022D002202B23002F01DA7F422D23A5
:100B80000A22011EA0F1010000DC4FB197FBF2F137
:100B900002FB117C0F460CF1300C08F801CDF0E798
:100BA000A8F1010003702168090501D5452100E085
:100BB0006521A0F1010800F8011C09980FA9A1EB1B
:100BC000080707F1070700B1012000EB050101EB61
:100BD000EA70A1693844A1EB0000A0F10100A06116
:100BE0002068C00602D42046FFF788FB099830B180
:100BF000D4E901219047206A00F1010020622068B9
:100C0000C00620D52046FFF779FB1CE0002E04DB50
:100C1000B34502DD01A8805D00E03020D4E9012168
:100C20009047206A761C401CBAF1010A20620AD162
:100C300000F0E0F8C0680168405CD4E90121904709
:100C4000206A401C2062281EA5F10105DEDC07E0B9
:100C5000D4E9012118F8010B9047206A401C20625A
:100C6000381EA7F10107F3DC2046FFF75EFB0220E8
:100C700011B041E601694A1C02610878704700B56D
:100C80008FB0CDE901310021059105497944CDE9C5
:100C9000031011466846FFF797FB0FB000BD000038
:100CA000E5FFFFFF0A6802F8010B0A6070472DE9B3
:100CB000F0470F46914680460446002614F8015B33
:100CC0002DB100F08FF80068405DC007F6D12B2DE4
:100CD00002D02D2D18D0641E4A463946204600F019
:100CE00013F927B13968A14201D1C7F800804FF04C
:100CF000020471050BD54042002803DDFFF74AFDD1
:100D00000460A007BDE8F08746F48066E4E70028A9
:100D1000F8DAFFF73FFD04606FF00040F2E7431A96
:100D200028BF9A427FF6D1AC104410F0030F114453
:100D30001EBF11F8013D521E00F8013D10F0030FD7
:100D40007FF4F6AF103AC0F00A8010B531E91850C0
:100D5000103A20E91850BFF4F9AFBDE8104053072E
:100D600024BF31E9081020E9081044BF51F8043DC0
:100D700040F8043D12F0030F08BF7047D20728BFA8
:100D800031F8023D48BF11F8012C28BF20F8023D80
:100D900048BF00F8012C70474FF000020429C0F052
:100DA000128010F0030C3FF4CCACCCF1040CBCF17D
:100DB000020F18BF00F8012BA8BF20F8022BA1EBEF
:100DC0000C01FFF7BEBC5FEAC17C24BF00F8012B19
:100DD00000F8012B48BF00F8012B7047004870470E
:100DE000E488002010B500F005F8001D10BD00BF1C
:100DF000657C0200004870470489002030B5B0F1DE
:100E00000A024FEA900E71F100034EEA817EB0EBC8
:100E10000E0061EB91014FEA101E4EEA017E10EBCD
:100E20000E0041EB11114FEA102E4EEA016E10EB4D
:100E30000E0041EB11214FEA104E4EEA014E10EB2D
:100E40000E0041EB1141401841F100014FEAD00082
:100E500040EA41704FEAD10110EB80054FEA81046E
:100E600044EA907444EB01046D1944EB0404521BF2
:100E7000A3414FF0000348BF0A3200D530BD401CEB
:100E800041F1000130BD00002DE9F04104461F464C
:100E900003260168072A01F4006004DB08B116A5E7
:100EA00005E016A503E008B115A500E015A521F0A1
:100EB00010002060A069C01EA0610FB1401EA0619B
:100EC0002046FFF71BFA4FB1D4E90121384690477D
:100ED000206A401C2062C01C206206E0206AFAE7FB
:100EE000D4E9012115F8010B9047761EF8D220466F
:100EF000FFF71BFABDE8F0814E414E006E616E00B7
:100F0000494E4600696E66002DE9F05F82468B46C9
:100F1000154600270AF10104B9460078302801D0AF
:100F20009DB113E014F8010B0127782803D058284D
:100F300001D045B10AE00DB1102D07D1002714F8FA
:100F4000010B102502E0082500E00A250026B04626
:100F50000EE005FB080005FB06F101271FFA80F8EB
:100F600001EB1046B6F5803F00D3B94614F8010BEB
:100F7000294600F0B0F80028EBDABBF1000F05D0ED
:100F80000FB1641E00E05446CBF80040B9F1000FE9
:100F900006D0FFF7FFFB02210160C81EBDE8F09FED
:100FA00048EA0640FAE700002DE9F0478146164678
:100FB0008AB035487844D0E9002380680092CDE9B2
:100FC0000130314878440C38D0E90223006903929B
:100FD0004FF03702CDE9043041F69B30014491FBDC
:100FE000F2F0A0F1800502FB10141B3C02D5644214
:100FF000012000E00020DFF890A080460027FA449E
:10100000AAF1C60A0DE0E00709D03246684607EBB0
:1010100047010AEB810100F03FFB8DE807006410F7
:101020007F1C002CEFD1184F7F44B43F17E0E80736
:1010300013D007EB04100DF1180A90E80E00AAE88F
:101040000E00C068F04201D198190890324606A9F6
:1010500003A800F021FB03AB07C36D10641C002D37
:10106000E5D132466946B8F1000F03A802D000F07E
:10107000FFFA01E000F010FBC9E90001C9F80820FF
:101080000AB0BDE8F0870000445304007546FFF73E
:10109000A5FEAE4605006946534620F0070085468A
:1010A00018B020B5FFF704F9BDE820404FF0000666
:1010B0004FF000074FF000084FF0000B21F0070140
:1010C000AC46ACE8C009ACE8C009ACE8C009ACE883
:1010D000C0098D4670473A2800D2303820F02002EF
:1010E000412A01D3A2F13700884201D34FF0FF30EB
:1010F00070470446AFF300802046FFF7C4F80000B5
:101100004FF0013C50F8042B51F8043B9A4221D196
:10111000A2EB0C03934313EACC1317D150F8042B22
:1011200051F8043B9A4215D1A2EB0C03934313EA06
:10113000CC130BD150F8042B51F8043B9A4209D13F
:10114000A2EB0C03934313EACC13DBD04FF0000067
:10115000704700BFD01A01BAB1FA81F101F018014D
:1011600022FA01F0CB40C1F12001DBB2C0B2C01ABB
:101170002CFA01F3D11A914311EAC311E6D1704759
:1011800001491820ABBEFEE72600020070475FEA67
:10119000400C08BF91F0000F4FEA8C234FEAC122A8
:1011A00043EA51514FEA1C5018BF00F5F0404FEA96
:1011B000300018BF41F000415FEA6C5C00F029800C
:1011C000BCF1FF3F08BF40F080407047130C06BFE2
:1011D00012044FF0100C4FF0000C130E04BF12025B
:1011E0000CF1080C130F04BF12010CF1040C930F47
:1011F00004BF92000CF1020CD30F04BF52000CF19B
:10120000010C11464FF00002A0F11F00A0EB0C00F2
:10121000704711F0004F08BF704731F000413FF4B4
:10122000D5AF0B0C06BF09044FF0100C4FF0000CAB
:101230000B0E04BF09020CF1080C0B0F04BF0901CF
:101240000CF1040C8B0F04BF89000CF1020CCB0FC6
:1012500004BF49000CF1010CCCF12003A0EB0C0001
:1012600022FA03F302FA0CF241EA030100F1010051
:10127000704720F07F4C80EA030023F07F47ACEBFF
:10128000070303F57C5300F0004003F1FF032DE951
:1012900080494FEA154B09B44FEA144325EA0B4E37
:1012A00024EA03480FF2042606EB132749083E7888
:1012B0005FEA320203FB0667C7F5000707FB06F685
:1012C0004FEA54374FEAD64606F1020607FB066C92
:1012D000CCF1005C4FEA1C472CEA074C07FB06F4F4
:1012E0000CFB06F504EB15464FEA961634BF0020BA
:1012F0004FF000404FEAD13706FB07FC4FEA1C4C89
:101300000CFB0BF7D21B03FB0CF761EB07010CFB8B
:101310000EF7B0EB074072EB17420CFB08F734BF37
:10132000A2EB0742B2EB074261EB17414FEA0C44D4
:101330004FEA910706FB07FC4FEA1C4C0CFB0BF72E
:10134000B0EBC74072EB573203FB0CF734BFA2EB94
:10135000C742B2EBC74261EB57310CFB0EF7B0EB63
:10136000C70072EB57720CFB08F734BFA2EBC70241
:10137000B2EBC70261EB5771039F4FEA816141EA0B
:10138000921104EBCC044FEAD1374FEA826206FB9C
:1013900007FC42EA90124FEA80604FEA1C4C0CFBBB
:1013A0000BF7D21B03FB0CF761EB07010CFB0EF7ED
:1013B000B0EB074072EB17420CFB08F734BFA2EB0F
:1013C0000742B2EB074261EB17414FEA8C554FEAF7
:1013D000910704EB9C2406FB07FC4FEA1C4C0CFB1A
:1013E0000BF7B0EBC74072EB573203FB0CF734BF7F
:1013F000A2EBC742B2EBC74261EB57310CFB0EF7D1
:10140000B0EBC70072EB57720CFB08F734BFA2EBCE
:10141000C702B2EBC70261EB577115EB4C254FEADF
:10142000816141EA92114FEA82624FEAD13742EA82
:10143000901206FB07FC44F100044FEA80604FEA7B
:101440001C4C0CFB0BF7D21B03FB0CF761EB0701E9
:101450000CFB0EF7B0EB074072EB17420CFB08F7E2
:1014600034BFA2EB0742B2EB074261EB174115EB29
:101470001C154FEA813141EA92414FEA823242EA39
:1014800090424FEA80304FEA0C7644F1000448EA7B
:1014900003434EEA0B484FF0000EB2EB080C71EB21
:1014A000030724BF624639464EEB0E0E4FF0000B89
:1014B0000018524149414BEB0B0BB2EB080C71EB9E
:1014C00003077BF1000B24BF624639464EEB0E0E3C
:1014D0004FF0000B0018524149414BEB0B0BB2EBA4
:1014E000080C71EB03077BF1000B24BF6246394601
:1014F0004EEB0E0E51EA020718BF46F0010616EB3E
:101500000E7655F1000254F1000103D5BDE88901C2
:10151000BDE80088BDE88901BDE80048B619524120
:1015200041EB0101A3F10103704780807F7E7D7C48
:101530007B7A7978777676757473727171706F6E65
:101540006E6D6C6C6B6A6A69686867666665646410
:10155000636362616160605F5F5E5E5D5D5C5C5B9A
:101560005B5A5A5959585857575656555555545409
:10157000535352525251515050504F4F4F4E4E4D67
:101580004D4D4C4C4C4B4B4B4A4A4A4949494848B3
:1015900048474747474646464545454444444443F3
:1015A00043434342424242414141002B26D477000B
:1015B00021D01CB54FEA370703B44FF010004FF0AD
:1015C00010014FF000000FBCBDE810400BF1010B03
:1015D000BBF1010F08BF5FEA170722BF12F101023A
:1015E00011F101014FF0004143F1000300F0004010
:1015F00043EA00007047F9D35708DAE746EA06469F
:1016000013F1400F4FEA16461FDD13F1200FDFBF25
:1016100016430A46002120335B42C8D0C3F120079D
:1016200046EA064602FA07F74FEA164646EA070672
:10163000C3F1200722FA03F201FA07F721FA03F1B6
:101640004FF0000342EA0702B1E746EA020646EA23
:1016500006464FEA164646EA0106BCBF46EA06467B
:10166000360C4FF000034FF000024FF000019EE7F0
:101670002DE9C048934630B491E8380007C831EAF4
:10168000400C48BF34EA430C03D5FFF7F2FDFFF7E7
:101690008CFFF0BCBDE800882DE9C048934630B40B
:1016A00091E8380007C810F0804F08BF13F0804F52
:1016B00003D100F005F8FFF778FFF0BCBDE8008823
:1016C00020F07F4780EA030023F07F4C07EB0C03F8
:1016D000A3F57C5300F00040A3F1FE0392F0000F4D
:1016E00000F0B38095F0000F00F077802DE90149FC
:1016F0004FEA11404FEA144621EA004800FB06FC7D
:1017000024EA064708FB06F607FB08F800FB07F784
:1017100018EB06484CEB164C4FEA124B18EB0748F7
:101720004FEA15464CEB174022EA0B4E0BFB06FC2A
:1017300025EA06470EFB06F607FB0EFE0BFB07F736
:101740001EEB064E4CEB164C4FF000061EEB074E00
:101750004CEB174B18EB0B0840F1000018EB0E0B8D
:1017600058EB000840F100008F1A4FF000013CBF19
:10177000C943661B14BFB5EB040C00213CBFC94331
:10178000F61B4FEA17444EEA8E0E27EA04454FEA4D
:101790001C4704FB07622CEA074C05FB07F70CFB10
:1017A00005F604FB0CFC16EB074642EB174216EB62
:1017B0000C4642EB1C421BEB060658EB0202414171
:1017C00046EA9E0601D5BDE80189B619524141EBB2
:1017D0000101A3F10103BDE801894FEA14454FEA75
:1017E000114724EA054621EA074C05FB07F406FBEE
:1017F00007F70CFB06F105FB0CFC11EB074144EB72
:1018000017444FEA124711EB0C4144EB1C4422EA07
:10181000074C05FB07F206FB07F70CFB06F605FB7A
:101820000CFC16EB074642EB174216EB0C4642EB5C
:101830001C456A1854F1000148BF7047B61952415F
:1018400041EB0101A3F10103704795F0000F37D080
:101850004FEA11424FEA144721EA024624EA074CB4
:1018600002FB07F106FB07F70CFB06F402FB0CFC7E
:1018700014EB074441EB17414FEA154714EB0C44B6
:1018800041EB1C4125EA074C02FB07F506FB07F775
:101890000CFB06F602FB0CFC16EB074645EB174566
:1018A00016EB0C4645EB1C42121951F1000148BFE2
:1018B0007047B619524141EB0101A3F10103704792
:1018C0004FEA14454FEA114724EA054621EA074C3E
:1018D00005FB07F106FB07F70CFB06F24FF00006CD
:1018E00005FB0CFC12EB074241EB174112EB0C42DB
:1018F00051EB1C4148BF7047921841EB0101A3F125
:10190000010370474FF47A7001E0401E80B2002856
:10191000FBD1704740F6B83001E0401E80B200288D
:10192000FBD170472DE9FC4102268DF805600124AA
:101930008DF8044000258DF80650402000901A4F85
:101940006946384604F07CFD8DF805608DF804404A
:101950008DF80650082000906946384604F070FD66
:101960008DF805608DF804408DF806502020009019
:101970006946384604F064FD8DF804508DF8074040
:10198000102000906946384604F05AFD4021384640
:1019900004F0ACFD2021384604F0A8FD08213846AB
:1019A00004F0A4FDBDE8FC81000402402DE9F047ED
:1019B00000243A4E0DE02146012012F0EDFD26F8FC
:1019C0001400FFF7A7FFF088B6F804803589641C7F
:1019D000E4B2082CEFD3324C61784A1C62702F4E6F
:1019E000383626F8110060780027142800D1677077
:1019F0002A481421383000F0A3FC0021022004E022
:101A000036F810201144401CC0B21028F8D30E261E
:101A1000B1FBF6F023490880A078411CA170DFF8E3
:101A20007C9009F1600929F81080A078142800D171
:101A3000A7701A481421603000F082FC00210220B7
:101A400004E039F810201144401CC0B21028F8D32B
:101A5000B1FBF6F0144908602078411C2170DFF8D2
:101A60003C8008F1100828F810502078142800D184
:101A700027700A481421103000F062FC0021022077
:101A800004E038F810201144401CC0B21028F8D3EC
:101A9000B1FBF6F005490860BDE8F087040E0020B0
:101AA0002901002068000020700000206C00002048
:101AB000F0B59BB001210F02384610F0CDFE012198
:101AC000880510F0A5FE0420009003258DF8045031
:101AD00000248DF807403C4E6946304604F0B0FCC7
:101AE000082000908DF804508DF807406946304674
:101AF00004F0A6FC402000908DF804508DF80740BB
:101B00006946304604F09CFC11941294139414948A
:101B100011A800F017F9159401268DF858608DF87A
:101B20005960189419948DF86850284D15A92846C5
:101B300000F036F9042301220221284600F056F96C
:101B400002231A460321284600F050F900230322FD
:101B50000621284600F04AF90121284600F0E6F85F
:101B6000284600F081F90121284600F00EF9029480
:101B700016484C3003901648049005949620069021
:101B80000794281508904000099080000A900B9750
:101B900000010C900D940E960F9410940D4C02A918
:101BA000204602F0FBF80121204602F0D3F8012282
:101BB0001021204602F0D9F802F08EF801212846C3
:101BC00000F0D8F81BB0F0BD00000240002001403A
:101BD000CC090020106402402DE9F0470020504F4E
:101BE000032307F5967404F164024E4D02F1640676
:101BF00028E0B0FBF3F103FB110121B102290CD065
:101C0000012914D01CE037F810C0297801F101082F
:101C100085F8008024F811C012E037F810C0697808
:101C200001F1010885F8018026F811C008E037F8B5
:101C300010C0E97801F1010885F8038022F811C08D
:101C4000401C80B29628D4D300272F706F70AF70DD
:101C5000EF700021002004E034F810301944401CDB
:101C6000C0B23228F8D328792F4B4FF0320814280D
:101C700006D2B1FBF8F0297923F8110000210FE01A
:101C80000021012004E033F810402144401CC0B280
:101C90001328F8D3BE20B1FBF0F0288100212F716A
:101CA0002879401C2871002004E032F810301944D3
:101CB000401CC0B23228F8D36879DFF86C90322823
:101CC00009F1280906D2B1FBF8F0697929F8110069
:101CD000002114E0002414483221283000F030FBA9
:101CE000232004E039F810100C44401CC0B2322804
:101CF000F8D30F20B4FBF0F0688100216F71687990
:101D0000401C6871002004E036F810201144401C8B
:101D1000C0B23228F8D3B1FBF8F0E880BDE8F08714
:101D2000CC0900205C000020240C002021B1816837
:101D300041F0010181607047816821F001018160FB
:101D40007047000010B5094C2268094902EA0102F7
:101D5000D0E9001341EA0301D0E9023043EA00036D
:101D600041EA030141EA0201216010BD0423014060
:101D7000E030FCFF21B1816841F4807181607047DF
:101D8000816821F480718160704721B1816841F4DC
:101D9000007181607047816821F400718160704733
:101DA00030B542680F4B1A400C790B6842EA0422A6
:101DB0001343436083680C4A1340D1E90342224332
:101DC0004D798C6844EA450422431A438260C26A12
:101DD00022F47002097D491EC9B242EA0151C16272
:101DE00030BD0000FFFEFFFCFDF7FFC070B5072609
:101DF00009290ED9D0F80CC0A1F10A0404EB44045F
:101E0000A6402CEA060CA3404CEA030CC0F80CC018
:101E100007E0056901EB4104A640B543A3401D431B
:101E200005611F23072A09D2446B521E02EB82026E
:101E300093409C4391400C43446370BD0D2A09D2EA
:101E4000046BD21F02EB820293409C4391400C43EF
:101E5000046370BDC46A0D3A02EB820293409C4356
:101E600091400C43C46270BD816841F08041816043
:101E70007047002800DC404270474178007841EA12
:101E80000020704710B50C480068400612D40B4C77
:101E9000206841070ED5020609484FF4007103D4AB
:101EA000BDE8104004F022BB04F01EFB206820F0C7
:101EB0000400206010BD00003C0000203400002021
:101EC000000802400549086840F00400044B002265
:101ED0001A8020F080000860704700003400002065
:101EE0007C00002038B5456804460146284615F0B8
:101EF00097FD00282AD02068304A0F2819D006DC28
:101F00000B2824D00C2810D00E2851D12FE01128F6
:101F100002D028284CD145E09268002A16D02146EC
:101F2000284601B0BDE83040104721462846526897
:101F3000F7E7284605F022FA0090406E04686846EC
:101F400005F066FA002C01D02846A04738BD284687
:101F500005F014FA0090683005F078F90098032134
:101F60006C3005F07BF9684605F052FA20E0E16834
:101F7000486809680D2902D0202913D105E00028FE
:101F800010DD28461CF070FE06E0002804DD28461F
:101F9000BDE838401CF068BE2846BDE83840022144
:101FA0001CF078BEE06818B90021284600F097F9C7
:101FB0002046BDE8384016F0A7B900009C0200207A
:101FC000F0B5044685B08069B4F90850668A0027E8
:101FD000CDE90265CDE900170490B4F90C00B4F91D
:101FE0001060C118B4F90A00B4F90E501044334619
:101FF0002A4600F007F80546616800F079F905B057
:102000002846F0BDF0B585B00C46DDE90D514C31E8
:10201000DFF850C0DDE90A67CDE902C12146CDE90C
:10202000006716F0C1F8040018D005F0A7F91022D7
:102030002946049015F018FF049830220A493430DC
:10204000FEF743FB084D04990C3D2868486604A838
:1020500005F0DEF9286841682046884705B020462B
:10206000F0BD0000E51E0008A8020020F0B50446FF
:1020700080688B4989B051F82050606800287DD075
:10208000052804D006287AD0122879D1AEE0E86974
:1020900000284FD095E80E008DE80F0004F11001E4
:1020A0000FC907F01FFD002655F8260006F07EFD3B
:1020B000A169E8690A1A216901446069304405F0A0
:1020C000FFFEA169E8690A1A21690144E069801BE1
:1020D00005F0F6FEE169E8690A1A616901442069C0
:1020E000304405F0A9FFE169E8690A1A6169014411
:1020F000A069801B05F0A0FF761C022ED4DBA86827
:1021000006F054FDE069E9696669431A20694218DE
:10211000521E3144801C05F0F9FFE169E869A269AB
:102120000B1A61690144101A401C921E05F0EEFF63
:10213000EE6913E05FF0000655F8260006F036FD64
:10214000E069831BA069821B6069811920693044A2
:1021500005F034FF761C022EEEDB0226D5E90301E2
:10216000CDE900016169E06908444310A069891C58
:10217000821B2069304405F04BFE02E089E012E04A
:102180008AE0D5E90501CDE90001E3696069012133
:10219000184401EB6001A0699B1E821B206930443A
:1021A00005F036FE78E0206805F0E8F80490206835
:1021B00017F0DAF840B1A06808B1002008E00498F0
:1021C000006F28B1012003E00498406F00B10220A5
:1021D000049901EB8000C56E04A805F019F90023ED
:1021E0001A462846216805F0A5FB55E0206805F051
:1021F000C5F80490866EEEB3B0F95C70A168D1B3F7
:10220000032942D05FF0000100EB8101406D0C6CAE
:1022100006F0D6FC204606F0C9FC05A805F0C6FF6E
:10222000BDF81410A88B0144ADF81410BDF81810B7
:10223000081AADF81800BDF81600801CADF816009D
:10224000BDF81A00801EADF81A0004985E30B0F98F
:102250000220B0F9001005A806F006FC04A805F05D
:10226000D7F8022006F0ECFC304605F087F83A4635
:1022700005A901E00BE006E0079005F053FC07A874
:1022800005F0C6F808E00121BEE70221BCE704A87A
:10229000F6E7206816F02CFD09B00020F0BD000024
:1022A000642A0408044A0349116004494A6A4862DE
:1022B00010467047D80200209C020020A80200208F
:1022C00038B50D46040009D005F058F80090456572
:1022D000684605F09DF8204616F00DFB38BD4FF41A
:1022E00080720029114601D015F024BC15F075BB91
:1022F0002DE9FF410E4605004FF001041CD005F00A
:102300003DF80190876E01A8009705F081F83146ED
:10231000684607F0C7FE78B100980024B84208D09C
:10232000284605F02BF801900099816601A805F078
:102330006FF8284616F0DFFA04B02046BDE8F081B9
:1023400030B5002315E01A460FE030F8124030F89F
:102350001350AC4207D930F813C030F8124020F8BF
:10236000134020F812C0521CD2B28A42EDD35B1C3B
:10237000DBB28B42E7D330BDFEE700002DE9F05F12
:102380007C4D29787C486FF0704619393711826985
:1023900040F66F044FF4076840F6770940F6780A74
:1023A00040F6710B0C2925D2DFE801F006264564C2
:1023B0002424242483A324C481462146104616F0F5
:1023C000B1F804463146204613F006FB3946204654
:1023D00013F054FB4146D9F8180016F0A3F8044650
:1023E0006649204613F0F8FA0021204613F046FB18
:1023F0001A202870BDE8F09F41468046104616F02E
:1024000091F804463146204613F0E6FA3946204654
:1024100013F034FB4946D8F8180016F083F8044648
:102420005649204613F0D8FA0021204613F026FB27
:102430001B202870DEE780464946104616F072F8E9
:1024400004463146204613F0C7FA3946204613F0B9
:1024500015FB5146D8F8180016F064F804464749B1
:10246000204613F0B9FA0021204613F007FB1C2088
:102470002870BFE780465146104616F053F80446D0
:102480003146204613F0A8FA3946204613F0F6FAF2
:102490005946D8F8180016F045F804463749204642
:1024A00013F09AFA0021204613F0E8FA2120287050
:1024B000A0E780465946104616F034F804463146E7
:1024C000204613F089FA3946204613F0D7FA40F631
:1024D0007901D8F8180016F025F804462749204657
:1024E00013F07AFA0021204613F0C8FA222028704F
:1024F00080E7804640F67901104616F013F804464E
:102500003146204613F068FA3946204613F0B6FAF1
:1025100040F67201D8F8180016F004F8044617497E
:10252000204613F059FA0021204613F0A7FA242080
:1025300028705FE7814640F67201104615F0F2FF01
:1025400080463146404613F047FA3946404613F07C
:1025500095FA2146D9F8180015F0E4FF044607491A
:10256000204613F039FA0021204613F087FA19208B
:1025700028703FE792010020A4010020FFFFBF0068
:10258000F0B52DED028B83B0B0480178B04A9FEDD5
:10259000B10AB14D00260127A869192938D0DFED0D
:1025A000AF0A1A297ED0AE4A1B297CD01C292BD118
:1025B000297C40F678031C1D022975D0297C01294D
:1025C00022D1D18800EE101AB8EE400A80EE208A9F
:1025D000194615F0A7FFA3A113F02BFA2146A8690D
:1025E00015F0A0FF044618EE100A26F047FF41EC54
:1025F000100BA0A153EC102B01A8FDF76BFE01A955
:10260000204613F016FA2E7403B0BDEC028BF0BD19
:10261000697B40F66F031C1D012927D0697B0229C5
:10262000F2D1D2F8801000EE901AF8EE600A80EE37
:10263000808A194615F076FF90A113F0FAF9214629
:10264000A86915F06FFF044618EE100A26F016FF71
:1026500041EC100B8DA153EC102B01A8FDF73AFEB5
:1026600001A9204613F0E5F96F73CDE7D16F00EEB5
:10267000901AF8EE600A80EE808A194615F052FF33
:1026800084A113F0D6F92146A86915F04BFF044642
:1026900018EE100A26F0F2FE41EC100B7BA153EC71
:1026A000102B02E00AE05CE0ACE001A8FDF712FEAE
:1026B00001A9204613F0BDF96E73A5E7A97B4FF47D
:1026C00007631C1D022927D0A97B01299CD1D2F8C0
:1026D000881000EE101AB8EE400A80EE208A1946E3
:1026E00015F020FF6FA113F0A4F92146A86915F099
:1026F00019FF044618EE100A26F0C0FE41EC100B3C
:102700005CA153EC102B01A8FDF7E4FD01A92046C4
:1027100013F08FF9AE7377E7D2F88C1000EE101A31
:10272000B8EE400A80EE208A194615F0FBFE61A142
:1027300013F07FF92146A86915F0F4FE044618EE5F
:10274000100A26F09BFE41EC100B4AA153EC102B13
:1027500001A8FDF7BFFD01A9204613F06AF9AF7388
:1027600052E7E97B40F677031C1D022926D0E97B5E
:102770000129A2D1118800EE901AF8EE600A80EECD
:10278000808A194615F0CEFE4EA113F052F921466B
:10279000A86915F0C7FE044618EE100A26F06EFE72
:1027A00041EC100B39A153EC102B01A8FDF792FD61
:1027B00001A9204613F03DF9EE7325E7518800EE9C
:1027C000901AF8EE600A80EE808A194615F0AAFE8B
:1027D00040A113F02EF92146A86915F0A3FE044686
:1027E00018EE100A26F04AFE41EC100B27A153EC1C
:1027F000102B01A8FDF76EFD01A9204613F019F971
:10280000EF7301E7118900EE101AB8EE400A80EE6E
:10281000208A194615F086FE32A113F00AF92146E6
:10282000A86915F07FFE044618EE100A26F026FE71
:1028300041EC100B0FA153EC102B01A8FDF74AFD42
:1028400001A9204613F0F5F82F74DDE6920100206F
:10285000380D00200000C842A401002000007A4486
:102860008C860020E688AAE6ADA2E794B5E6B5819D
:1028700031000000252E336600000000E8BE93E51D
:1028800087BAE794B5E58E8B32000000252E3266BC
:1028900000000000E8BE93E587BAE794B5E58E8BAB
:1028A00031000000E99990E588B6E794B5E6B58176
:1028B00031000000E99990E588B6E794B5E6B58166
:1028C00032000000E688AAE6ADA2E794B5E58E8B5B
:1028D00031000000E688AAE6ADA2E794B5E58E8B4C
:1028E00032000000E688AAE6ADA2E794B5E6B5811D
:1028F00032000000F0B52DED028B83B0AF480178B7
:10290000AF4A9FEDB00AB04D01260227A8691929E8
:1029100038D0DFEDAE0A1A297ED0AD4A1B297CD013
:102920001C292BD1297C40F678031C1D002975D069
:10293000297C012922D1518900EE101AB8EE400AF3
:1029400080EE208A194615F0EDFDA2A113F071F872
:102950002146A86915F0E6FD044618EE100A26F097
:102960008DFD41EC100B9FA153EC102B01A8FDF73E
:10297000B1FC01A9204613F05CF82F7403B0BDEC44
:10298000028BF0BD697B40F66F031C1D39B3697B78
:102990000129F3D1D2F8841000EE901AF8EE600A03
:1029A00080EE808A194615F0BDFD90A113F041F824
:1029B0002146A86915F0B6FD044618EE100A26F067
:1029C0005DFD41EC100B8DA153EC102B01A8FDF720
:1029D00081FC01A9204613F02CF86F73CEE7D2F8E2
:1029E000801000EE901AF8EE600A80EE808A194698
:1029F00015F098FD83A113F01CF82146A86915F085
:102A000091FD044618EE100A26F038FD41EC100B3B
:102A10007AA153EC102B02E00AE05BE0AAE001A8E7
:102A2000FDF758FC01A9204613F003F86E73A5E7E3
:102A3000A97B4FF407631C1D39B3A97B01299DD1E4
:102A4000D2F8901000EE101AB8EE400A80EE208AFC
:102A5000194615F067FD6FA112F0EBFF2146A8693A
:102A600015F060FD044618EE100A26F007FD41EC53
:102A7000100B5CA153EC102B01A8FDF72BFC01A956
:102A8000204612F0D6FFAF7378E7D2F88C1000EE34
:102A9000101AB8EE400A80EE208A194615F042FD61
:102AA00060A112F0C6FF2146A86915F03BFD04465F
:102AB00018EE100A26F0E2FC41EC100B49A153EC91
:102AC000102B01A8FDF706FC01A9204612F0B1FF6A
:102AD000AE7353E7E97B40F677031C1D31B3E97B06
:102AE0000129A4D1918800EE901AF8EE600A80EED8
:102AF000808A194615F016FD4EA112F09AFF214664
:102B0000A86915F00FFD044618EE100A26F0B6FC71
:102B100041EC100B39A153EC102B01A8FDF7DAFBA7
:102B200001A9204612F085FFEF7327E7518800EED8
:102B3000901AF8EE600A80EE808A194615F0F2FCD1
:102B400040A112F076FF2146A86915F0EBFC04467F
:102B500018EE100A26F092FC41EC100B27A153EC62
:102B6000102B01A8FDF7B6FB01A9204612F061FF6A
:102B7000EE7303E7118900EE101AB8EE400A80EEFA
:102B8000208A194615F0CEFC32A112F052FF2146E0
:102B9000A86915F0C7FC044618EE100A26F06EFC72
:102BA00041EC100B0FA153EC102B01A8FDF792FB89
:102BB00001A9204612F03DFF2E74DFE692010020AD
:102BC000380D00200000C842A401002000007A4413
:102BD0008C860020E688AAE6ADA2E794B5E6B5812A
:102BE00033000000252E336600000000E8BE93E5A8
:102BF00087BAE794B5E58E8B33000000252E326648
:102C000000000000E8BE93E587BAE794B5E58E8B37
:102C100032000000E99990E588B6E794B5E6B58101
:102C200033000000E99990E588B6E794B5E6B581F0
:102C300032000000E688AAE6ADA2E794B5E58E8BE7
:102C400033000000E688AAE6ADA2E794B5E58E8BD6
:102C500032000000E688AAE6ADA2E794B5E6B581A9
:102C6000320000002DE9F05F7D4D29787D4819394B
:102C700040F66F0782696FF070464FF4076840F6C0
:102C8000770940F6780A40F6710B40F679040C2972
:102C900026D2DFE801F0062747662525252585A4ED
:102CA00025C339460746104615F03CFC044631461C
:102CB000204612F091FE6FF07F41204612F0DEFEBA
:102CC00040F67201B86915F02DFC044666492046AD
:102CD00012F082FE0021204612F0D0FE242028703F
:102CE000BDE8F09F41468046104615F01BFC0446A7
:102CF0003146204612F070FE6FF07F41204612F000
:102D0000BDFE3946D8F8180015F00CFC04465649AB
:102D1000204612F061FE0021204612F0AFFE19207D
:102D20002870DDE707464946104615F0FBFB0446D0
:102D30003146204612F050FE6FF07F41204612F0DF
:102D40009DFE4146B86915F0EDFB04464649204614
:102D500012F042FE0021204612F090FE1A20287048
:102D6000BEE707465146104615F0DCFB04463146E7
:102D7000204612F031FE6FF07F41204612F07EFEB9
:102D80004946B86915F0CEFB04463749204612F093
:102D900023FE0021204612F071FE1B2028709FE7C1
:102DA00007465946104615F0BDFB044631462046FD
:102DB00012F012FE6FF07F41204612F05FFE514686
:102DC000B86915F0AFFB04462749204612F004FE0F
:102DD0000021204612F052FE1C20287080E7074692
:102DE0002146104615F09EFB04463146204612F05F
:102DF000F3FD6FF07F41204612F040FE5946B8695E
:102E000015F090FB04461849204612F0E5FD00211C
:102E1000204612F033FE2120287061E7804640F6FC
:102E20007201104615F07EFB07463146384612F017
:102E3000D3FD6FF07F41384612F020FE2146D8F8CE
:102E4000180015F06FFB04460749204612F0C4FD38
:102E50000021204612F012FE2220287040E70000D8
:102E600092010020A4010020FFFFBF002DE9F04FD8
:102E70002DED048B83B0F948406E00EE100AB8EED9
:102E8000400ADFEDF70A80EE208AF448806E00EEFB
:102E9000100AB8EE400ADFEDF30AC0EE208AEF48D0
:102EA000C06E00EE100AB8EE400ADFEDEE0A80EECA
:102EB000209AEA48006F00EE100AB8EE400ADFEDF3
:102EC000E80AC0EE209AE8480178EB481939012455
:102ED000E64DE74EE74F806940F66F0940F6730A0A
:102EE0004FF4076B40F67908102932D2DFE801F081
:102EF0000890FDFC36BAFBFAF9F8F7F6F5F4F3F2B0
:102F00004946DD4F15F00EFB06466FF07041304626
:102F100012F062FD6FF07F41304612F0AFFD514676
:102F2000B86915F0FFFA0646D449304612F054FD50
:102F30000021304612F0A2FD0020D14A002102E01B
:102F40001154401CC0B20528FAD3C7491D2008708F
:102F50002C7003B0BDEC048BBDE8F08F5146DFF858
:102F6000188315F0DFFA07466FF07041384612F00B
:102F700033FD6FF07F41384612F080FD98F80D0068
:102F800040B198F80D00012808D098F80D000228EB
:102F900009D00CE0B148C16F416008E0AF48D0F8FB
:102FA0008010416003E0AD48D0F884104160AB4828
:102FB000406800EE100AF8EE400A9FEDA91A80EE74
:102FC000810A10EE100A26F059FA41EC100BADA15F
:102FD00053EC102B01A8FDF77DF901A9384612F03A
:102FE00028FD4946D8F8180015F09CFA0746A34971
:102FF000384612F0F1FC0021384612F03FFD9A49A4
:10300000192008702C700020307016F013FCA0E717
:103010005946994D15F086FA04466FF070412046E6
:1030200012F0DAFC6FF07F41204612F027FD0020FD
:103030009349002202E00A54401CC0B20528FAD38A
:1030400040F67401A86915F06DFA04468B492046D4
:1030500012F0C2FC0021204612F010FD82491E2011
:10306000087076E740F67401DFF80C8215F05AFA22
:1030700007466FF07041384612F0AEFC6FF07F41AA
:10308000384612F0FBFC98F80E0040B198F80E009C
:10309000012809D098F80E0002280AD00DE06F48E8
:1030A000D0F88810816008E06C48D0F88C108160FE
:1030B00003E06A48D0F8901081606848826841F265
:1030C00088318A4200D98160806800EE100AF8EEEB
:1030D000400A0BE0FAE195E107E15DE0A7E2CAE111
:1030E00066E12BE2C5E254E2D4E02AE09FED5D1AEE
:1030F00080EE810A10EE100A26F0C0F941EC100BA8
:1031000062A153EC102B01A8FDF7E4F801A93846A1
:1031100012F08FFC5946D8F8180015F003FA07464C
:103120005649384612F058FC0021384612F0A6FCE9
:103130004D491A2008702C700020307016F07AFB70
:1031400007E740F677014C4D15F0ECF904466FF0B7
:103150007041204612F040FC6FF07F41204612F093
:103160008DFC0020464A002102E01154401CC0B2F0
:103170000528FAD340F67B01A86915F0D3F9044677
:103180003E49204612F028FC0021204612F076FC31
:10319000354925200870DCE640F67B01DFF8D89041
:1031A00015F0C0F980466FF07041404612F014FCF3
:1031B0006FF07F41404612F061FC99F80F0040B17A
:1031C00099F80F0001280ED099F80F00022814D0AA
:1031D0001CE03888DFED220A00EE100AB8EE400A43
:1031E00080EE208A12E07888DFED1D0A00EE100ADA
:1031F000B8EE400A80EE208A08E0B888DFED180AB1
:1032000000EE100AB8EE400A80EE208A18EE100A8E
:1032100026F034F941EC100B1AA153EC102B01A845
:10322000FDF758F801A9404612F003FC40F677017B
:10323000D9F8180015F076F907461049384612F00B
:10324000CBFB0021384612F019FC07491B200870FF
:103250002C700020307016F0EDFA7AE6380D002060
:103260000000C84200007A4492010020440100207E
:10327000450100208C860020A4010020FFFFBF0034
:1032800088010020252E326600000000252E3366BE
:103290000000000040F67801FE4D15F043F90446A9
:1032A0006FF07041204612F097FB6FF07F4120468F
:1032B00012F0E4FB0020F84A002102E01154401C07
:1032C000C0B20528FAD340F67C01A86915F02AF9A6
:1032D0000446F249204612F07FFB0021204612F0FE
:1032E000CDFBEF492620087033E640F67C01DFF87D
:1032F000A49315F017F980466FF07041404612F024
:103300006BFB6FF07F41404612F0B8FB99F810005C
:1033100040B199F8100001280ED099F81000022849
:1033200014D01CE0F8885FED310A00EE100AB8EE08
:10333000400AC0EE208A12E038895FED360A00EEBE
:10334000100AB8EE400AC0EE208A08E078895FEDE6
:103350003B0A00EE100AB8EE400AC0EE208A18EED2
:10336000900A26F08BF841EC100B53EC102BAFF2C7
:10337000E40101A8FCF7AEFF01A9404612F059FB99
:1033800040F67801D9F8180015F0CCF80746C34983
:10339000384612F021FB0021384612F06FFBC0497D
:1033A0001C2008702C700020307016F043FAD0E515
:1033B0004146B84D15F0B6F804466FF0704120460E
:1033C00012F00AFB6FF07F41204612F057FB0020FD
:1033D000B149002202E00A54401CC0B20528FAD3C9
:1033E00040F67D01A86915F09DF80446AB492046DA
:1033F00012F0F2FA0021204612F040FBA8492720E3
:103400000870A6E540F67D01DFF8889215F08AF88D
:1034100007466FF07041384612F0DEFA6FF07F41D8
:10342000384612F02BFB19EE100A26F027F841EC73
:10343000100B53EC102BAFF2AC1101A8FCF74AFFB4
:1034400001A9384612F0F5FA4146D9F8180015F0EE
:1034500069F807469149384612F0BEFA002138460D
:1034600012F00CFB8E49222008702C700020307066
:1034700016F0E0F96DE540F67A01864D15F052F848
:1034800004466FF07041204612F0A6FA6FF07F41BB
:10349000204612F0F3FA00207F4A002102E0115486
:1034A000401CC0B20528FAD340F67E01A86915F089
:1034B00039F804467949204612F08EFA0021204658
:1034C00012F0DCFA76492820087042E540F67E01C9
:1034D000DFF8C08115F026F807466FF070413846D6
:1034E00012F07AFA6FF07F41384612F0C7FA19EEFF
:1034F000900A25F0C3FF41EC100B53EC102BAFF2F8
:103500007C2101A8FCF7E6FE01A9384612F091FAE9
:1035100040F67A01D8F8180015F004F807465F491C
:10352000384612F059FA0021384612F0A7FA5C49E1
:10353000232008702C70002030700AE540F67101DD
:10354000544D14F0EFFF04466FF07041204612F026
:1035500043FA6FF07F41204612F090FA00204E4A65
:10356000002102E01154401CC0B20528FAD340F6F5
:103570007501A86914F0D6FF04464849204612F0A8
:103580002BFA0021204612F079FA45491F200870D5
:10359000DFE440F67501DFF8FC8014F0C3FF074656
:1035A0006FF07041384612F017FA6FF07F413846DD
:1035B00012F064FA3B48D0F89C10016101694EF6A4
:1035C0006022914201D900210161006900EE100AD8
:1035D000F8EE400A1FEDDD1A80EE810A10EE100AA7
:1035E00025F04CFF41EC100B53EC102BAFF2643183
:1035F00001A8FCF76FFE01A9384612F01AFA40F64E
:103600007101D8F8180014F08DFF07462349384699
:1036100012F0E2F90021384612F030FA2049212058
:1036200008702C700020307016F004F991E440F618
:103630007201184D14F076FF04466FF07041204679
:1036400012F0CAF96FF07F41204612F017FA40F6E7
:103650007601A86914F066FF04461049204612F06E
:10366000BBF90021204612F009FA0D49202008700C
:103670006FE440F67601DFF81C8014F053FF074634
:103680006FF07041384612F0A7F96FF07F4138466D
:103690000AE00000A401002088010020FFFFBF0015
:1036A00092010020380D002012F0E8F940F6720176
:1036B000D8F8180014F036FF07460849384612F0CB
:1036C0008BF90021384612F0D9F9054924200870F9
:1036D0002C700020307016F0ADF83AE4FFFFBF0008
:1036E0009201002070B5174D69792846164E806901
:1036F00040F69902012912D0A97B01291DD011465B
:1037000014F010FF04466FF07041204612F064F987
:103710003146204612F0B2F92F20287070BD1146B4
:1037200014F000FF04463146204612F055F92046B9
:10373000BDE87040002112F0A1B9BDE8704000F072
:103740002BBA0000E4010020FFFFBF002DE9FF4776
:103750000446006810B115F007FE68B10022314838
:1037600050F8221060680A2841D007DCF0B3062820
:103770000DD0072854D106E00122F0E712280AD024
:1037800019284DD137E0204617F06EF948E0204661
:1037900018F0F8FA44E0206803F0F0FD0290B0F968
:1037A000548090F85650476C466B02A803F030FEE8
:1037B000206800F039F88146684614F08BFEBDF8A9
:1037C000001009EB05000844ADF80000246A3046FB
:1037D00005F0F6F9022005F033FA384605F0E6F96F
:1037E00042466946204604F09DF919E007E020466C
:1037F00018F0B4FD14E0886904B0BDE8F0872068D3
:1038000015F076FA206803F0B9FD0390B0F90610C0
:10381000B0F90220891A491CC16703A803F0F8FD1A
:103820000020E9E7742A040838B503F0A7FD0090EA
:10383000C46F684603F0ECFD204638BD044A0349D6
:1038400011600449CA69C8611046704764030020CA
:103850002C0700203007002000B589B024216846DD
:10386000FCF76DFF192001900348006880684168EB
:103870006846884709B000BD2C07002070B5FF22BC
:10388000FF230A4C04F5807508E010F801CB8CEAA0
:10389000020C14F80C205A4015F80C300E00A1F15F
:1038A000010189B2F1D143EA022070BD7695020888
:1038B0001CB51B48012101701A4A192010701A48C2
:1038C000002404701948C26F4260D0F888208260DA
:1038D000D0F89C200261164801707021682012F017
:1038E000C6FF4FF48051134802F0FEFD09F088FC3A
:1038F0004FF48061104802F0F7FD1048016841F074
:103900008001016014F002FE034600940C4A292154
:103910000C48019403F02AFF0B4988611CBD00008C
:10392000460100209201002084000020380D002074
:1039300085000020000C02400008024040000020EA
:10394000D5440208A09F0208A40100201CB50E481F
:10395000002404700D4804700D4804707021682024
:1039600012F085FF4FF480510A4802F0BDFD14F0BB
:10397000CDFD03460094084A08210848019403F04D
:10398000F5FE074908601CBD4601002085000020A7
:1039900084000020000C0240D15702081CA4020839
:1039A000C00100207CB50E4C4720A0710320A07000
:1039B0000C4908700025E57124F0DCFD0A4901205E
:1039C00008700A48057014F0A1FD03460095084AE6
:1039D00020210848019503F0C9FE60627CBD00000B
:1039E0004401002085000020870000208400002082
:1039F000612B0208B89902081CB50F490520087010
:103A00000E48002404700E4804707021682012F0E3
:103A10002EFF4FF480510B4802F066FD14F076FD46
:103A200003460094084A21210848019403F09EFEB1
:103A3000074948601CBD000046010020920100209B
:103A400084000020000C0240615B0208FCA4020814
:103A5000D40100201CB508490620087014F056FD5A
:103A60000346002000900190044A0121044803F01D
:103A70007DFE044948601CBD460100206D650208BA
:103A800098A80208DC0100201CB5174C207808B16A
:103A900009F0B6FB0220207014490870144909206F
:103AA00008701448D0F898104160D0F8A0108160D8
:103AB0001148002404701149032008707021682007
:103AC00012F0D5FE4FF480510D4802F00DFD14F0B8
:103AD0001DFD034600940B4A14210B48019403F08A
:103AE00045FE0A4948601CBD4601002085000020B3
:103AF00092010020380D0020840000209001002059
:103B0000000C024025230208889702083801002093
:103B10001CB5174C207808B109F072FB0420207006
:103B2000144908701449172008701448D0F89410EC
:103B30000161134900240C70124A02211170D0F85F
:103B4000A410C1607021682012F091FE4FF48051E2
:103B50000D4802F0C9FC14F0D9FC034600940B4A4E
:103B600016210B48019403F001FE0A4988601CBD30
:103B7000460100208500002092010020380D002021
:103B80008400002090010020000C0240A173020874
:103B9000389D0208940100201CB514F0B7FC0024E5
:103BA00003460094064A07210648019403F0DEFD0F
:103BB0000549486005490C70054A082111701CBD73
:103BC000ED6B0208789703080C02002084000020A7
:103BD000460100201CB514F099FC00240346009413
:103BE000074A12210748019403F0C0FD0649886185
:103BF000064A1470064B07221A702F220A701CBD49
:103C0000ED65020880950308E4010020840000208F
:103C1000460100201CB502208DF8050001208DF81A
:103C2000040000208DF806001C2000906946024820
:103C300002F006FC1CBD00000010024070B50546F5
:103C4000244E0421304602F04FFC0821304602F099
:103C50004DFC00BF00BF00BF00BF0421304602F092
:103C600045FC00BF0821304602F040FC04213046EC
:103C700002F03AFC002420E0072C0DD9280404D5DA
:103C80001021304602F032FC03E01021304602F0F1
:103C90002BFC6804050C03E01021304602F024FCE4
:103CA0000821304602F020FC00BF00BF00BF082101
:103CB000304602F01BFC641CE4B2182CDCD3042157
:103CC000304602F013FC3046BDE87040082102F097
:103CD0000DBC00000010024008B538208DF800002F
:103CE00003208DF801008DF8020001208DF80300FB
:103CF00068460CF0C1FA08BD014800687047000032
:103D0000B003002010B50549054800F00DF805483E
:103D1000016841F00201016010BD00002080001028
:103D20001064024034000020074A904201D2074844
:103D300001E005481038064A8B0001EA020101D56E
:103D4000C1607047816070471064024000600240AB
:103D50007D0F7D0F21B1016841F0010101607047C5
:103D6000016821F00101016070470B0609D522B1FD
:103D7000436943F08003436103E0436923F0800318
:103D80004361802905D001F01E011AB102680A437F
:103D90000260704702688A430260704730B503686A
:103DA000124A1340CC680A682243D1E905452C43E6
:103DB0002243CC6922430C6A22434C6A22438C6A18
:103DC00022434C6B22438C6B22431A4302604269AC
:103DD00022F00703D1E90B2422431A4342610A6906
:103DE00042604A6882608968C16030BD3F801CF0D3
:103DF000F8B50546006803F0C1FA0090448ED0F88B
:103E00008860684603F004FB06B1012604F0010453
:103E1000286815F0A9FA0EB1002006E00CB10120C7
:103E200003E008B1022000E003201B4951F82010F4
:103E3000686858B302280CD0052802D0122828D16F
:103E400003E0284616F03CFE23E0284618F01BFF4E
:103E50001FE06A69E8694FF0FF33801AA0F1080299
:103E600003EB6204421CAB69001B4510A3EB620626
:103E7000C86904F09BFE06E03219311B284604F0A5
:103E80001FF8641E6D1C002CF6DA02E0286814F09E
:103E90002FFF0020F8BD0000D42A0408044A03497B
:103EA000116004490A6B086310467047B403002090
:103EB0006C0700207007002038B50D46002403F081
:103EC0005DFA0090C06B294603F03AFB0546684650
:103ED00003F09EFA1DB1284603F050FA044620462E
:103EE00038BD704730B504464FF47A7502E0284675
:103EF00000F006F82300A4F1010084B2F7D130BD30
:103F000000220BE0042100BF00BF00BF00BF00BFC4
:103F1000491E0904090CF6D1521C92B28242F1D317
:103F20007047000010B52DED028B24490A78244C0F
:103F3000B2EE048A022AE0681FD00978032939D139
:103F4000204991ED000A20EE080ABDEEC00A10EEED
:103F5000101A09B202F0A2FB1B4890ED000A20EEF5
:103F6000080ABDEEC00A10EE100A01B22069BDECCD
:103F7000028BBDE8104002F091BB144991ED000A9C
:103F800020EE080ABDEEC00A10EE101A09B202F0C7
:103F900085FB0F4890ED000A20EE080ABDEEC00A2E
:103FA00010EE100A01B22069BDEC028BBDE8104092
:103FB00002F074BBBDEC028B10BD0000900100202C
:103FC000C001002028000020300000202400002034
:103FD0002C0000201CB51048007A01281AD1FF20BF
:103FE00004F0E4FD022004F019FEB4200021CDE924
:103FF0000010032306220C214FF4C37003F03CFE93
:1040000002B00C23BDE8104040F27F1204210348A7
:1040100003F0B8BF1CBD00008400002076970208A2
:104020001CB51048007A01281AD1FF2004F0BEFD0B
:10403000022004F0F3FDB4200021CDE90010032399
:1040400006220C2140F2D11003F016FE02B00C2320
:10405000BDE810404FF4E5720421034803F092BF1D
:104060001CBD0000840000207697020810B50446AD
:1040700023F0CEFFA02023F09DFF23F0F9FF68B9C5
:10408000204623F097FF23F0F3FF38B923F0C0FF59
:10409000A12023F08FFF23F0EBFF18B123F0D4FF12
:1040A000002010BD23F064FF034C207023F048FF74
:1040B00023F0CAFF207810BD7A00002070B50120DF
:1040C000FFF7D4FFFE4C20600120FFF7CFFF2060F8
:1040D0002068000220600220FFF7C8FF2168084422
:1040E00020602068000220600320FFF7BFFF2168E6
:1040F000084420602068000220600420FFF7B6FF1B
:104100002168084420600520FFF7B0FFED4D2860CE
:104110002868000228600620FFF7A8FF29680844E5
:1041200028602868000228600720FFF79FFF2968A1
:10413000084428602868000228600820FFF796FFDE
:10414000296808442860C020FFF790FF6063606B17
:1041500000026063C120FFF789FF616B0844606360
:10416000606B00026063C220FFF780FF616B084450
:104170006063606B00026063C320FFF777FF616BD1
:1041800008446063C420FFF771FF6863686B000236
:104190006863C520FFF76AFF696B08446863686B52
:1041A00000026863C620FFF761FF696B084468631B
:1041B000686B00026863C720FFF758FF696B08440B
:1041C0006863C820FFF752FFA063A06B0002A063E2
:1041D000C920FFF74BFFA16B0844A063A06B00024E
:1041E000A063CA20FFF742FFA16B0844A063A06B45
:1041F0000002A063CB20FFF739FFA16B0844A06346
:10420000CC20FFF733FFA863A86B0002A863CD2082
:10421000FFF72CFFA96B0844A863A86B0002A863F2
:10422000CE20FFF723FFA96B0844A863A86B000208
:10423000A863CF20FFF71AFFA96B0844A8630920E1
:10424000FFF714FF60606068000260600A20FFF7FB
:104250000DFF6168084460606068000260600B20C8
:10426000FFF704FF616808446060606800026060F6
:104270000C20FFF7FBFE6168084460600D20FFF72B
:10428000F5FE68606868000268600E20FFF7EEFEC9
:104290006968084468606868000268600F20FFF77A
:1042A000E5FE69680844686068680002686010207C
:1042B000FFF7DCFE6968084468601120FFF7D6FE4E
:1042C000A060A0680002A0601220FFF7CFFEA168E6
:1042D0000844A060A0680002A0601320FFF7C6FE9B
:1042E000A1680844A060A0680002A0601420FFF745
:1042F000BDFEA1680844A0601520FFF7B7FEA860C6
:10430000A8680002A8601620FFF7B0FEA96808445C
:10431000A860A8680002A8601720FFF7A7FEA96898
:104320000844A860A8680002A8601820FFF79EFE55
:10433000A9680844A8601920FFF798FEE060E068CB
:104340000002E0601A20FFF791FEE1680844E06097
:10435000E0680002E0601B20FFF788FEE168084487
:10436000E060E0680002E0601C20FFF77FFEE1688B
:104370000844E0601D20FFF779FEE860E86800026D
:10438000E8601E20FFF772FEE9680844E860E8680C
:104390000002E8601F20FFF769FEE9680844E86052
:1043A000E8680002E8602020FFF760FEE968084442
:1043B000E8602120FFF75AFE206120690002206199
:1043C0002220FFF753FE2169084420612069000282
:1043D00020612320FFF74AFE2169084420612069FB
:1043E000000220612420FFF741FE2169084420617A
:1043F0002520FFF73BFE286128690002286126205E
:10440000FFF734FE29690844286128690002286101
:104410002720FFF72BFE296908442861286900023C
:1044200028612820FFF722FE2969084428612920F5
:10443000FFF71CFE60616069000260612A20FFF7DF
:1044400015FE6169084460616069000260612B20AB
:10445000FFF70CFE616908446061606900026061F9
:104460002C20FFF703FE6169084460612D20FFF7EF
:10447000FDFD68616869000268612E20FFF7F6FDA6
:104480006969084468616869000268612F20FFF764
:10449000EDFD69690844686168690002686130205F
:1044A000FFF7E4FD696908446861AB20FFF7DEFDB2
:1044B000E062E06A0002E062AC20FFF7D7FD03E0B3
:1044C000B00C0020F40C0020E16A0844E062E06ACD
:1044D0000002E062AD20FFF7C9FDE16A0844E06236
:1044E000E06A0002E062AE20FFF7C0FDE16A084426
:1044F000E062AF20FFF7BAFDE862E86A0002E86216
:10450000B020FFF7B3FDE96A0844E862E86A0002F8
:10451000E862B120FFF7AAFDE96A0844E862E86AA8
:104520000002E862B220FFF7A1FDE96A0844E862F0
:10453000B720FFF79BFD2063206B00022063B820AB
:10454000FFF794FD216B08442063206B0002206379
:10455000B920FFF78BFD216B08442063206B00021C
:104560002063BA20FFF782FD216B08442063BB2043
:10457000FFF77CFD2863286B00022863BC20FFF74F
:1045800075FD296B08442863286B00022863BD2051
:10459000FFF76CFD296B08442863286B0002286331
:1045A000BE20FFF763FD296B084428633120FFF725
:1045B0005DFDA061A0690002A0613220FFF756FDF9
:1045C000A1690844A061A0690002A0613320FFF73F
:1045D0004DFDA1690844A061A0690002A0613420DA
:1045E000FFF744FDA1690844A0613520FFF73EFDB7
:1045F000A861A8690002A8613620FFF737FDA96904
:104600000844A861A8690002A8613720FFF72EFDC1
:10461000A9690844A861A8690002A8613820FFF7C9
:1046200025FDA9690844A8613920FFF71FFDE06155
:10463000E0690002E0613A20FFF718FDE1690844F3
:10464000E061E0690002E0613B20FFF70FFDE169F6
:104650000844E061E0690002E0613C20FFF706FDEC
:10466000E1690844E0613D20FFF700FDE861E86989
:104670000002E8613E20FFF7F9FCE9690844E861BF
:10468000E8690002E8613F20FFF7F0FCE9690844AF
:10469000E861E8690002E8614020FFF7E7FCE969AA
:1046A0000844E8614120FFF7E1FC2062206A000233
:1046B00020624220FFF7DAFC216A08442062206A67
:1046C000000220624320FFF7D1FC216A08442062E7
:1046D000206A000220624420FFF7C8FC216A0844D7
:1046E00020624520FFF7C2FC2862286A0002286287
:1046F0004620FFF7BBFC296A08442862286A0002AA
:1047000028624720FFF7B2FC296A08442862286A19
:10471000000228624820FFF7A9FC296A08442862A1
:10472000D020FFF7A3FCE063E06B0002E063D12040
:10473000FFF79CFCE16B0844E063E06B0002E06380
:10474000D220FFF793FCE16B0844E063E06B0002CA
:10475000E063D320FFF78AFCE16B0844E063D420D8
:10476000FFF784FCE863E86B0002E863D520FFF7FD
:104770007DFCE96B0844E863E86B0002E863D6203F
:10478000FFF774FCE96B0844E863E86B0002E86338
:10479000D720FFF76BFCE96B0844E863D820FFF7EC
:1047A00065FC2064206C00022064D920FFF75EFCC9
:1047B000216C08442064206C00022064DA20FFF79A
:1047C00055FC216C08442064206C00022064DB202E
:1047D000FFF74CFC216C08442064DC20FFF746FC0A
:1047E0002864286C00022864DD20FFF73FFC296C58
:1047F00008442864286C00022864DE20FFF736FC99
:10480000296C08442864286C00022864DF20FFF724
:104810002DFC296C084428644920FFF727FC6062BE
:10482000606A000260624A20FFF720FC616A084467
:104830006062606A000260624B20FFF717FC616AE9
:1048400008446062606A000260624C20FFF70EFC60
:10485000616A084460624D20FFF708FC6862686A7C
:10486000000268624E20FFF701FC696A0844686232
:10487000686A000268624F20FFF7F8FB696A084423
:104880006862686A000268625020FFF7EFFB696A9D
:10489000084468625120FFF7E9FBA062A06A0002A9
:1048A000A0625220FFF7E2FBA16A0844A062A06A5E
:1048B0000002A0625320FFF7D9FBA16A0844A0625E
:1048C000A06A0002A0625420FFF7D0FBA16A08444E
:1048D000A0625520FFF7CAFBA862A86A0002A8627E
:1048E0005620FFF7C3FBA96A0844A862A86A000221
:1048F000A8625720FFF7BAFBA96A0844A862A86A11
:104900000002A8625820FFF7B1FBA96A0844A86218
:104910005920FFF7ABFBF94C20705A20FFF7A6FB9C
:1049200060705B20FFF7A2FBA0705C20FFF79EFB8E
:10493000E0705D20FFF79AFB20715E20FFF796FB89
:1049400060716020FFF792FBED4908707A20FFF755
:104950008DFBEC4908707B20FFF788FBEA49087063
:104960007820FFF783FBE94908707920FFF77EFB89
:10497000E74908706120FFF779FBE6490870B42029
:10498000FFF774FBE44908707C20FFF76FFBE349F5
:1049900008807D20FFF76AFBE14908807E20FFF751
:1049A00065FBE04908807F20FFF760FBDE49088057
:1049B0008020FFF75BFBDD4908708120FFF756FB85
:1049C000DB4908708220FFF751FBDA490870832029
:1049D000FFF74CFBD84908708420FFF747FBD74905
:1049E00008708520FFF742FBD54908708620FFF745
:1049F0003DFBD44908708720FFF738FBD249087087
:104A00008820FFF733FBD14908708920FFF72EFB80
:104A1000CF4908708A20FFF729FBCE4908708B2008
:104A2000FFF724FBCC4908708C20FFF71FFBCB4914
:104A300008708D20FFF71AFBC9490880B320FFF7E3
:104A400015FBC84908706220FFF710FBC64CA06335
:104A5000A06B0002A0636320FFF708FBA16B084472
:104A6000A0636420FFF702FBE063E06B0002E063F9
:104A70006520FFF7FBFAE16B0844E0636620FFF76F
:104A8000F5FA2064206C000220646720FFF7EEFA3C
:104A9000216C084420646820FFF7E8FA6064606CC9
:104AA000000260646920FFF7E1FA616C0844606409
:104AB0006A20FFF7DBFAA064A06C0002A0646B2000
:104AC000FFF7D4FAA16C0844A0646C20FFF7CEFA7B
:104AD00044F84C0F2068000220606D20FFF7C6FAF2
:104AE0002168084420606E20FFF7C0FAE064E06CA3
:104AF0000002E0646F20FFF7B9FAE16C0844E0645B
:104B00007020FFF7B3FA6065606D00026065712088
:104B1000FFF7ACFA616D084460657220FFF7A6FAF2
:104B2000A064A06C0002A0647320FFF79FFAA16C40
:104B30000844A064B520FFF799FAA065A06D0002B3
:104B4000A065B620FFF792FAA16D0844A065742015
:104B5000FFF78CFAE060E0680002E0607520FFF784
:104B600085FAE1680844E0607620FFF77FFA20616B
:104B70002069000220617720FFF778FA2169084454
:104B800020618E20FFF772FA2063206B0002206301
:104B90008F20FFF76BFA216B084420639020FFF70A
:104BA00065FA6063606B000260639120FFF75EFA54
:104BB000616B084460639220FFF758FAA063A06B12
:104BC0000002A0639320FFF751FAA16B0844A06391
:104BD0009420FFF74BFA654D288028880002288032
:104BE0009520FFF743FA2988084428809620FFF78C
:104BF0003DFA68806888000268809720FFF736FADF
:104C00006988084468809820FFF730FAA880A8884F
:104C10000002A8809920FFF729FAA9880844A880F3
:104C20009A20FFF723FAE063E06B0002E0639B2029
:104C3000FFF71CFAE16B0844E0639C20FFF716FACB
:104C40002064206C000220649D20FFF70FFA216C85
:104C5000084420649E20FFF709FA6064606C00023B
:104C600060649F20FFF702FA616C08446064A02032
:104C7000FFF7FCF9E880E8880002E880A120FFF750
:104C8000F5F9E9880844E880A220FFF7EFF92881C8
:104C9000288900022881A320FFF7E8F92989084420
:104CA0002881A420FFF7E2F9688168890002688101
:104CB000A520FFF7DBF9698908446881A620FFF782
:104CC000D5F92B490870A720FFF7D0F92065206D92
:104CD00000022065A820FFF7C9F9216D084420656E
:104CE000A920FFF7C3F92062206A00022062AA20EF
:104CF000FFF7BCF9216A0844206270BDB4000020AF
:104D000097000020480100204701002054010020A6
:104D10009101002053010020D4010020F401002063
:104D2000F6010020F8010020FA010020E501002032
:104D3000E6010020E7010020E8010020EA01002050
:104D4000EB010020EC010020ED010020EE0100202D
:104D5000EF010020F0010020F10100209601002069
:104D60005A01002055010020380D00208C860020BB
:104D7000A401002070B505460E4623F065F9002415
:104D800009E023F045F9A02023F014F923F070F98D
:104D900018B1641CA4B2642CF3D3B4F57A7F0DD09F
:104DA000E8B223F007F923F063F938B9304623F06D
:104DB00001F923F05DF908B923F046F9BDE8704028
:104DC00023F042B92DE9F041044694B0006800F0A8
:104DD000B7F908B1D94D01E0D84D2C3560681528D8
:104DE0001ED00CDC0B281FD004DC00287ED0052848
:104DF0007DD12EE10E287BD01228F9D141E1162871
:104E000006D0172808D0182808D01C28F0D109E0AF
:104E1000E86914B0BDE8F081286AFAE7686AF8E743
:104E2000A86AF6E76869F4E720680B901C200C90EC
:104E3000206802F0A3FA0390016D0BA8884706468C
:104E400003A802F0E5FA022E0EDB95E807008DE8D4
:104E50000700D4E904023346A16904F011FE206979
:104E60008719A069801B2BE0286803F09FFE216949
:104E7000E8690A18521E606903F022F8A269E8691D
:104E8000111A491C606903F01BF8676920697F1CCF
:104E9000394603F057F83946A06903F053F86868BB
:104EA00003F084FE20693946401C03F04BF8A069EA
:104EB0003946401E03F046F82769A069BF1C801ED2
:104EC0008046286803F072FE42463946606902F067
:104ED000F7FF686803F06AFE60694246401C394685
:104EE00002F0EEFF686A02280FDD02E015E1AFE094
:104EF00000E1A86803F05AFE61696A6A881C8B1891
:104F000001465B1E4246384627E0296AB14226DD4B
:104F10006069022E074600F1020801DB374401E018
:104F200007F10207206901DB304401E000F10200D3
:104F300022693B460A44A2F10102414603F0E6F829
:104F4000022E02DBA069821B01E0A269921EA06909
:104F5000E9693B46401A401C414603F0D7F8022E4F
:104F600002DB6069064401E06669B61CE7692868EF
:104F70007F1E03F01BFE3A463146206903F05CF8C1
:104F80003A463146A06903F057F8E7696868BF1EE2
:104F900003F00CFE20693A46401C314603F04CF801
:104FA000A0693A46401E314603F046F8E8690228F7
:104FB00002DC286A022823DDA86A022802DDE169F2
:104FC0000F1A01E0E769BF1EA86803F0EFFDE96969
:104FD000022909DD20693B46421800F1020C521EED
:104FE0003146604603F092F8286A022808DDA2697B
:104FF000E8693B46101A401C921E314603F086F8C1
:10500000286803F0D3FDD4E90620216902F058FF97
:10501000686803F0CBFDA2692169E069521E491C52
:10502000401E02F04DFFA86A022811DD2669A16921
:10503000E469B61C271AA1F102087F1CA41EA86807
:1050400003F0B4FD234642463946304603F05EF88D
:1050500072E0208A06B2ADF81460A08A01B2ADF801
:105060001610208B02B2ADF81820A08B03B2ADF859
:105070001A30D5E90304CDE90004304602F0C8FE39
:105080005AE0208A298B0844ADF81400A08AADF8B4
:105090001600208B298B401AADF81800A08BADF8B4
:1050A0001A00206802F06AF90390006FF0B1022044
:1050B00003F0C6FD039991F87C00C0F3C00001EB3A
:1050C0008000006C03F072FD0398406B03F078FDE4
:1050D0000398006F02F052F903990A90B1F95A202F
:1050E00005A902F01FFD0AA802F092F903A802F038
:1050F0008FF921E0208AADF81400A08AADF81600DF
:10510000208BADF81800A08BADF81A00A86803F04A
:105110004DFD05A803F01EF80EE0206802F02EF900
:10512000039030F85A1F41F00C01018003A802F0EF
:105130006FF9206813F0DCFD00206AE6840400208B
:1051400038B5002450B102F019F9009090F87C00B5
:10515000000700D50124684602F05AF9204638BD00
:1051600030B504468BB0006802F008F9009090F862
:105170007C10246A006FC1F3C00508B102F0FEF88C
:105180000690E068029020690390A088401EADF868
:105190001000E089ADF812002089401CADF8140021
:1051A000608AADF81600BDF80800401CADF8080094
:1051B000BDF80A00401CADF80A00BDF80C00401E06
:1051C000ADF80C000098406B03F0FAFC009808AAB8
:1051D00002A9B0F95A30069803F0D4FF009800EB0A
:1051E0008500806B09F082FE009800EB8500006C62
:1051F00009F0B4FE08AB02AA04A9069812F05AFD01
:10520000684602F005F9069810B106A802F000F908
:105210000BB0002030BD0000074A0649054B116065
:10522000064A083BD16958601B68C2E90630084647
:105230007047000078040020AC070020B007002071
:1052400038B50D46040009D002F098F800900566C4
:10525000684602F0DDF8204613F04DFB38BD2DE91D
:10526000F34F85B000270C46B846059802F086F843
:105270000090C06D0121856805982A689047824694
:105280002A6803210598904704902A68022105980E
:10529000904703902A680021059890470646009899
:1052A00013F0E8FE8346009813F0EBFE8146009869
:1052B00090F83210890601D5B0F9588000F036F820
:1052C00005460098C06E10B113F04AFA07462580D3
:1052D0006780A4F804A0049AABEB020006EB080276
:1052E000401E2A4420813A44E280039BA9EB03023A
:1052F000521E6281A4F80CA020827019E681401E23
:105300006082684602F084F8B4F90C000190B4F9A8
:105310001000029002AA01A9059800F039F801983E
:10532000A0810298208207B0BDE8F08F10B5014639
:10533000002091F83220920607D5B1F954000028D8
:1053400003D1486B02F084FF801C10BD70B58AB099
:105350000C46054602F012F80990C06D866809A84F
:1053600002F056F8009534B1012C06D0022C0BD077
:10537000032C04D10AE0182000E016200190716887
:10538000684688470AB070BD1520F7E71720F5E793
:105390002DE9FC4790468946044601F0EFFF009056
:1053A000C16D056868468E6802F032F832680021E7
:1053B000204690470646204613F0BCF82F140446BA
:1053C0002DB227E001F0DAFF0190B0F90010B0F93A
:1053D0000420B0F90230491B521BDB1BB34212D12F
:1053E00090F82800000607D5D8F8000088420ADBAC
:1053F000491EC8F8001006E0D9F80000904202DC0F
:10540000521CC9F8002001A802F002F8204613F04F
:1054100021F90446002CD5D1BDE8FC874FF020428D
:1054200002EB800021B1016841F001010160704789
:105430000168024A1140016070470000FEFF0F0042
:1054400030B5D0E901121143D0E903231A431143C7
:1054500042690368114382691143C2691143026AB8
:105460001143426A1143826A1143C26A1143026BBB
:1054700011434FF0204242F823108168082906D1D9
:10548000016802EB81010B6843F040030B60416B44
:10549000D1E9003443EA04138C68CD68240244EA5D
:1054A000054423430C6943EA04534C69896943EA80
:1054B00004630B430168491C42F82130C16AB1F50D
:1054C000804F07D000686FF0704102EB8000C0F899
:1054D000041130BD816B0068D1E9003443EA041344
:1054E0008C680D69240244EA055423434C69896998
:1054F00043EA046302EB80000B43C0F8043130BD83
:1055000070B5FE4D2868010E0120FFF733FC2868B6
:10551000C0F307410220FFF72DFC2868C0F30721E4
:105520000320FFF727FC2868C1B20420FFF722FC04
:10553000F34C2068010E0520FFF71CFC2068C0F327
:1055400007410620FFF716FC2068C0F3072107205B
:10555000FFF710FC2068C1B20820FFF70BFC686B56
:10556000010EC020FFF706FC686BC0F30741C120A5
:10557000FFF700FC686BC0F30721C220FFF7FAFBBE
:10558000686BC1B2C320FFF7F5FB606B010EC4204E
:10559000FFF7F0FB606BC0F30741C520FFF7EAFBA4
:1055A000606BC0F30721C620FFF7E4FB606BC1B25C
:1055B000C720FFF7DFFBA86B010EC820FFF7DAFB5F
:1055C000A86BC0F30741C920FFF7D4FBA86BC0F359
:1055D0000721CA20FFF7CEFBA86BC1B2CB20FFF793
:1055E000C9FBA06B010ECC20FFF7C4FBA06BC0F37E
:1055F0000741CD20FFF7BEFBA06BC0F30721CE20F3
:10560000FFF7B8FBA06BC1B2CF20FFF7B3FB686810
:10561000010E0920FFF7AEFB6868C0F307410A20BE
:10562000FFF7A8FB6868C0F307210B20FFF7A2FB78
:105630006868C1B20C20FFF79DFB6068010E0D2069
:10564000FFF798FB6068C0F307410E20FFF792FB5D
:105650006068C0F307210F20FFF78CFB6068C1B2C0
:105660001020FFF787FBA868010E1120FFF782FBCF
:10567000A868C0F307411220FFF77CFBA868C0F3BD
:1056800007211320FFF776FBA868C1B21420FFF7AB
:1056900071FBA068010E1520FFF76CFBA068C0F33A
:1056A00007411620FFF766FBA068C0F3072117200B
:1056B000FFF760FBA068C1B21820FFF75BFBE8684A
:1056C000010E1920FFF756FBE868C0F307411A20C6
:1056D000FFF750FBE868C0F307211B20FFF74AFBE8
:1056E000E868C1B21C20FFF745FBE068010E1D20F1
:1056F000FFF740FBE068C0F307411E20FFF73AFBCD
:10570000E068C0F307211F20FFF734FBE068C1B257
:105710002020FFF72FFB2869010E2120FFF72AFB2D
:105720002869C0F307412220FFF724FB2869C0F352
:1057300007212320FFF71EFB2869C1B22420FFF7B1
:1057400019FB2069010E2520FFF714FB2069C0F327
:1057500007412620FFF70EFB2069C0F30721272011
:10576000FFF708FB2069C1B22820FFF703FB686937
:10577000010E2920FFF7FEFA6869C0F307412A20CD
:10578000FFF7F8FA6869C0F307212B20FFF7F2FA58
:105790006869C1B22C20FFF7EDFA6069010E2D2077
:1057A000FFF7E8FA6069C0F307412E20FFF7E2FA3D
:1057B0006069C0F307212F20FFF7DCFA6069C1B2EE
:1057C0003020FFF7D7FAE86A010EAB20FFF7D2FAD4
:1057D000E86AC0F30741AC20FFF7CCFAE86AC0F3EF
:1057E0000721AD20FFF7C6FAE86AC1B2AE20FFF785
:1057F000C1FAE06A010EAF20FFF7BCFAE06AC0F31D
:105800000741B020FFF7B6FAE06AC0F30721B120E4
:10581000FFF7B0FAE06AC1B2B220FFF7ABFA286B2B
:10582000010EB720FFF7A6FA286BC0F30741B82096
:10583000FFF7A0FA286BC0F30721B920FFF79AFA07
:10584000286BC1B2BA20FFF795FA206B010EBB207E
:10585000FFF790FA206BC0F30741BC20FFF78AFAEC
:10586000206BC0F30721BD20FFF784FA206BC1B283
:10587000BE20FFF77FFAA869010E3120FFF77AFA00
:10588000A869C0F307413220FFF774FAA869C0F392
:1058900007213320FFF76EFAA869C1B23420FFF761
:1058A00069FAA069010E3520FFF764FAA069C0F318
:1058B00007413620FFF75EFAA069C0F307213720C1
:1058C000FFF758FAA069C1B23820FFF753FAE86928
:1058D000010E3920FFF74EFAE869C0F307413A207C
:1058E000FFF748FAE869C0F307213B20FFF742FAC7
:1058F000E869C1B23C20FFF73DFA03E0B00C00209C
:10590000F40C0020E069010E3D20FFF733FAE06956
:10591000C0F307413E20FFF72DFAE069C0F30721ED
:105920003F20FFF727FAE069C1B24020FFF722FAD3
:10593000286A010E4120FFF71DFA286AC0F30741CB
:105940004220FFF717FA286AC0F307214320FFF728
:1059500011FA286AC1B24420FFF70CFA206A010E3E
:105960004520FFF707FA206AC0F307414620FFF7FA
:1059700001FA206AC0F307214720FFF7FBF9206AEC
:10598000C1B24820FFF7F6F9E86B010ED020FFF70F
:10599000F1F9E86BC0F30741D120FFF7EBF9E86BB1
:1059A000C0F30721D220FFF7E5F9E86BC1B2D3209D
:1059B000FFF7E0F9E06B010ED420FFF7DBF9E06BB5
:1059C000C0F30741D520FFF7D5F9E06BC0F30721FD
:1059D000D620FFF7CFF9E06BC1B2D720FFF7CAF9A5
:1059E000286C010ED820FFF7C5F9286CC0F30741D9
:1059F000D920FFF7BFF9286CC0F30721DA20FFF7A1
:105A0000B9F9286CC1B2DB20FFF7B4F9206C010EA4
:105A1000DC20FFF7AFF9206CC0F30741DD20FFF772
:105A2000A9F9206CC0F30721DE20FFF7A3F9206C51
:105A3000C1B2DF20FFF79EF9686A010E4920FFF727
:105A400099F9686AC0F307414A20FFF793F9686A39
:105A5000C0F307214B20FFF78DF9686AC1B24C20D3
:105A6000FFF788F9606A010E4D20FFF783F9606A3D
:105A7000C0F307414E20FFF77DF9606AC0F30721AC
:105A80004F20FFF777F9606AC1B25020FFF772F933
:105A9000A86A010E5120FFF76DF9A86AC0F307410B
:105AA0005220FFF767F9A86AC0F307215320FFF7D8
:105AB00061F9A86AC1B25420FFF75CF9A06A010E2F
:105AC0005520FFF757F9A06AC0F307415620FFF7AA
:105AD00051F9A06AC0F307215720FFF74BF9A06ADC
